{
  "contractName": "ConversionRates",
  "abi": [
    {
      "constant": false,
      "inputs": [
        {
          "name": "alerter",
          "type": "address"
        }
      ],
      "name": "removeAlerter",
      "outputs": [],
      "payable": false,
      "stateMutability": "nonpayable",
      "type": "function"
    },
    {
      "constant": true,
      "inputs": [],
      "name": "validRateDurationInBlocks",
      "outputs": [
        {
          "name": "",
          "type": "uint256"
        }
      ],
      "payable": false,
      "stateMutability": "view",
      "type": "function"
    },
    {
      "constant": true,
      "inputs": [],
      "name": "pendingAdmin",
      "outputs": [
        {
          "name": "",
          "type": "address"
        }
      ],
      "payable": false,
      "stateMutability": "view",
      "type": "function"
    },
    {
      "constant": true,
      "inputs": [],
      "name": "getOperators",
      "outputs": [
        {
          "name": "",
          "type": "address[]"
        }
      ],
      "payable": false,
      "stateMutability": "view",
      "type": "function"
    },
    {
      "constant": false,
      "inputs": [
        {
          "name": "token",
          "type": "address"
        },
        {
          "name": "amount",
          "type": "uint256"
        },
        {
          "name": "sendTo",
          "type": "address"
        }
      ],
      "name": "withdrawToken",
      "outputs": [],
      "payable": false,
      "stateMutability": "nonpayable",
      "type": "function"
    },
    {
      "constant": false,
      "inputs": [
        {
          "name": "newAlerter",
          "type": "address"
        }
      ],
      "name": "addAlerter",
      "outputs": [],
      "payable": false,
      "stateMutability": "nonpayable",
      "type": "function"
    },
    {
      "constant": true,
      "inputs": [],
      "name": "numTokensInCurrentCompactData",
      "outputs": [
        {
          "name": "",
          "type": "uint256"
        }
      ],
      "payable": false,
      "stateMutability": "view",
      "type": "function"
    },
    {
      "constant": false,
      "inputs": [
        {
          "name": "newAdmin",
          "type": "address"
        }
      ],
      "name": "transferAdmin",
      "outputs": [],
      "payable": false,
      "stateMutability": "nonpayable",
      "type": "function"
    },
    {
      "constant": false,
      "inputs": [],
      "name": "claimAdmin",
      "outputs": [],
      "payable": false,
      "stateMutability": "nonpayable",
      "type": "function"
    },
    {
      "constant": false,
      "inputs": [
        {
          "name": "newAdmin",
          "type": "address"
        }
      ],
      "name": "transferAdminQuickly",
      "outputs": [],
      "payable": false,
      "stateMutability": "nonpayable",
      "type": "function"
    },
    {
      "constant": true,
      "inputs": [],
      "name": "getAlerters",
      "outputs": [
        {
          "name": "",
          "type": "address[]"
        }
      ],
      "payable": false,
      "stateMutability": "view",
      "type": "function"
    },
    {
      "constant": false,
      "inputs": [
        {
          "name": "newOperator",
          "type": "address"
        }
      ],
      "name": "addOperator",
      "outputs": [],
      "payable": false,
      "stateMutability": "nonpayable",
      "type": "function"
    },
    {
      "constant": true,
      "inputs": [],
      "name": "reserveContract",
      "outputs": [
        {
          "name": "",
          "type": "address"
        }
      ],
      "payable": false,
      "stateMutability": "view",
      "type": "function"
    },
    {
      "constant": true,
      "inputs": [
        {
          "name": "",
          "type": "address"
        },
        {
          "name": "",
          "type": "uint256"
        }
      ],
      "name": "tokenImbalanceData",
      "outputs": [
        {
          "name": "",
          "type": "uint256"
        }
      ],
      "payable": false,
      "stateMutability": "view",
      "type": "function"
    },
    {
      "constant": false,
      "inputs": [
        {
          "name": "operator",
          "type": "address"
        }
      ],
      "name": "removeOperator",
      "outputs": [],
      "payable": false,
      "stateMutability": "nonpayable",
      "type": "function"
    },
    {
      "constant": false,
      "inputs": [
        {
          "name": "token",
          "type": "address"
        },
        {
          "name": "minimalRecordResolution",
          "type": "uint256"
        },
        {
          "name": "maxPerBlockImbalance",
          "type": "uint256"
        },
        {
          "name": "maxTotalImbalance",
          "type": "uint256"
        }
      ],
      "name": "setTokenControlInfo",
      "outputs": [],
      "payable": false,
      "stateMutability": "nonpayable",
      "type": "function"
    },
    {
      "constant": false,
      "inputs": [
        {
          "name": "amount",
          "type": "uint256"
        },
        {
          "name": "sendTo",
          "type": "address"
        }
      ],
      "name": "withdrawEther",
      "outputs": [],
      "payable": false,
      "stateMutability": "nonpayable",
      "type": "function"
    },
    {
      "constant": true,
      "inputs": [
        {
          "name": "token",
          "type": "address"
        }
      ],
      "name": "getTokenControlInfo",
      "outputs": [
        {
          "name": "",
          "type": "uint256"
        },
        {
          "name": "",
          "type": "uint256"
        },
        {
          "name": "",
          "type": "uint256"
        }
      ],
      "payable": false,
      "stateMutability": "view",
      "type": "function"
    },
    {
      "constant": true,
      "inputs": [],
      "name": "admin",
      "outputs": [
        {
          "name": "",
          "type": "address"
        }
      ],
      "payable": false,
      "stateMutability": "view",
      "type": "function"
    },
    {
      "inputs": [
        {
          "name": "_admin",
          "type": "address"
        }
      ],
      "payable": false,
      "stateMutability": "nonpayable",
      "type": "constructor"
    },
    {
      "anonymous": false,
      "inputs": [
        {
          "indexed": false,
          "name": "token",
          "type": "address"
        },
        {
          "indexed": false,
          "name": "amount",
          "type": "uint256"
        },
        {
          "indexed": false,
          "name": "sendTo",
          "type": "address"
        }
      ],
      "name": "TokenWithdraw",
      "type": "event"
    },
    {
      "anonymous": false,
      "inputs": [
        {
          "indexed": false,
          "name": "amount",
          "type": "uint256"
        },
        {
          "indexed": false,
          "name": "sendTo",
          "type": "address"
        }
      ],
      "name": "EtherWithdraw",
      "type": "event"
    },
    {
      "anonymous": false,
      "inputs": [
        {
          "indexed": false,
          "name": "pendingAdmin",
          "type": "address"
        }
      ],
      "name": "TransferAdminPending",
      "type": "event"
    },
    {
      "anonymous": false,
      "inputs": [
        {
          "indexed": false,
          "name": "newAdmin",
          "type": "address"
        },
        {
          "indexed": false,
          "name": "previousAdmin",
          "type": "address"
        }
      ],
      "name": "AdminClaimed",
      "type": "event"
    },
    {
      "anonymous": false,
      "inputs": [
        {
          "indexed": false,
          "name": "newAlerter",
          "type": "address"
        },
        {
          "indexed": false,
          "name": "isAdd",
          "type": "bool"
        }
      ],
      "name": "AlerterAdded",
      "type": "event"
    },
    {
      "anonymous": false,
      "inputs": [
        {
          "indexed": false,
          "name": "newOperator",
          "type": "address"
        },
        {
          "indexed": false,
          "name": "isAdd",
          "type": "bool"
        }
      ],
      "name": "OperatorAdded",
      "type": "event"
    },
    {
      "constant": false,
      "inputs": [
        {
          "name": "token",
          "type": "address"
        }
      ],
      "name": "addToken",
      "outputs": [],
      "payable": false,
      "stateMutability": "nonpayable",
      "type": "function"
    },
    {
      "constant": false,
      "inputs": [
        {
          "name": "buy",
          "type": "bytes14[]"
        },
        {
          "name": "sell",
          "type": "bytes14[]"
        },
        {
          "name": "blockNumber",
          "type": "uint256"
        },
        {
          "name": "indices",
          "type": "uint256[]"
        }
      ],
      "name": "setCompactData",
      "outputs": [],
      "payable": false,
      "stateMutability": "nonpayable",
      "type": "function"
    },
    {
      "constant": false,
      "inputs": [
        {
          "name": "tokens",
          "type": "address[]"
        },
        {
          "name": "baseBuy",
          "type": "uint256[]"
        },
        {
          "name": "baseSell",
          "type": "uint256[]"
        },
        {
          "name": "buy",
          "type": "bytes14[]"
        },
        {
          "name": "sell",
          "type": "bytes14[]"
        },
        {
          "name": "blockNumber",
          "type": "uint256"
        },
        {
          "name": "indices",
          "type": "uint256[]"
        }
      ],
      "name": "setBaseRate",
      "outputs": [],
      "payable": false,
      "stateMutability": "nonpayable",
      "type": "function"
    },
    {
      "constant": false,
      "inputs": [
        {
          "name": "token",
          "type": "address"
        },
        {
          "name": "xBuy",
          "type": "int256[]"
        },
        {
          "name": "yBuy",
          "type": "int256[]"
        },
        {
          "name": "xSell",
          "type": "int256[]"
        },
        {
          "name": "ySell",
          "type": "int256[]"
        }
      ],
      "name": "setQtyStepFunction",
      "outputs": [],
      "payable": false,
      "stateMutability": "nonpayable",
      "type": "function"
    },
    {
      "constant": false,
      "inputs": [
        {
          "name": "token",
          "type": "address"
        },
        {
          "name": "xBuy",
          "type": "int256[]"
        },
        {
          "name": "yBuy",
          "type": "int256[]"
        },
        {
          "name": "xSell",
          "type": "int256[]"
        },
        {
          "name": "ySell",
          "type": "int256[]"
        }
      ],
      "name": "setImbalanceStepFunction",
      "outputs": [],
      "payable": false,
      "stateMutability": "nonpayable",
      "type": "function"
    },
    {
      "constant": false,
      "inputs": [
        {
          "name": "duration",
          "type": "uint256"
        }
      ],
      "name": "setValidRateDurationInBlocks",
      "outputs": [],
      "payable": false,
      "stateMutability": "nonpayable",
      "type": "function"
    },
    {
      "constant": false,
      "inputs": [
        {
          "name": "token",
          "type": "address"
        }
      ],
      "name": "enableTokenTrade",
      "outputs": [],
      "payable": false,
      "stateMutability": "nonpayable",
      "type": "function"
    },
    {
      "constant": false,
      "inputs": [
        {
          "name": "token",
          "type": "address"
        }
      ],
      "name": "disableTokenTrade",
      "outputs": [],
      "payable": false,
      "stateMutability": "nonpayable",
      "type": "function"
    },
    {
      "constant": false,
      "inputs": [
        {
          "name": "reserve",
          "type": "address"
        }
      ],
      "name": "setReserveAddress",
      "outputs": [],
      "payable": false,
      "stateMutability": "nonpayable",
      "type": "function"
    },
    {
      "constant": false,
      "inputs": [
        {
          "name": "token",
          "type": "address"
        },
        {
          "name": "buyAmount",
          "type": "int256"
        },
        {
          "name": "rateUpdateBlock",
          "type": "uint256"
        },
        {
          "name": "currentBlock",
          "type": "uint256"
        }
      ],
      "name": "recordImbalance",
      "outputs": [],
      "payable": false,
      "stateMutability": "nonpayable",
      "type": "function"
    },
    {
      "constant": true,
      "inputs": [
        {
          "name": "token",
          "type": "address"
        },
        {
          "name": "currentBlockNumber",
          "type": "uint256"
        },
        {
          "name": "buy",
          "type": "bool"
        },
        {
          "name": "qty",
          "type": "uint256"
        }
      ],
      "name": "getRate",
      "outputs": [
        {
          "name": "",
          "type": "uint256"
        }
      ],
      "payable": false,
      "stateMutability": "view",
      "type": "function"
    },
    {
      "constant": true,
      "inputs": [
        {
          "name": "token",
          "type": "address"
        },
        {
          "name": "buy",
          "type": "bool"
        }
      ],
      "name": "getBasicRate",
      "outputs": [
        {
          "name": "",
          "type": "uint256"
        }
      ],
      "payable": false,
      "stateMutability": "view",
      "type": "function"
    },
    {
      "constant": true,
      "inputs": [
        {
          "name": "token",
          "type": "address"
        }
      ],
      "name": "getCompactData",
      "outputs": [
        {
          "name": "",
          "type": "uint256"
        },
        {
          "name": "",
          "type": "uint256"
        },
        {
          "name": "",
          "type": "bytes1"
        },
        {
          "name": "",
          "type": "bytes1"
        }
      ],
      "payable": false,
      "stateMutability": "view",
      "type": "function"
    },
    {
      "constant": true,
      "inputs": [
        {
          "name": "token",
          "type": "address"
        }
      ],
      "name": "getTokenBasicData",
      "outputs": [
        {
          "name": "",
          "type": "bool"
        },
        {
          "name": "",
          "type": "bool"
        }
      ],
      "payable": false,
      "stateMutability": "view",
      "type": "function"
    },
    {
      "constant": true,
      "inputs": [
        {
          "name": "token",
          "type": "address"
        },
        {
          "name": "command",
          "type": "uint256"
        },
        {
          "name": "param",
          "type": "uint256"
        }
      ],
      "name": "getStepFunctionData",
      "outputs": [
        {
          "name": "",
          "type": "int256"
        }
      ],
      "payable": false,
      "stateMutability": "view",
      "type": "function"
    },
    {
      "constant": true,
      "inputs": [
        {
          "name": "token",
          "type": "address"
        }
      ],
      "name": "getRateUpdateBlock",
      "outputs": [
        {
          "name": "",
          "type": "uint256"
        }
      ],
      "payable": false,
      "stateMutability": "view",
      "type": "function"
    },
    {
      "constant": true,
      "inputs": [],
      "name": "getListedTokens",
      "outputs": [
        {
          "name": "",
          "type": "address[]"
        }
      ],
      "payable": false,
      "stateMutability": "view",
      "type": "function"
    }
  ],
  "bytecode": "0x6080604052600a6009556000600d5534801561001a57600080fd5b50604051602080613159833981016040525160008054600160a060020a0319163317905580600160a060020a038116151561005457600080fd5b60008054600160a060020a03909216600160a060020a0319909216919091179055506130d4806100856000396000f3006080604052600436106101a85763ffffffff60e060020a60003504166301a12fd381146101ad57806314673d31146101d0578063158859f7146101f157806316265694146102125780631a4813d7146102395780631d6a8bda146103b257806326782247146103d357806327a099d8146104045780632ba996a5146104695780633ccdbb281461047e578063408ee7fe146104a95780635085c9f1146104ca57806362674e93146104df57806364887334146105065780636c6295b8146105d4578063721bba59146105ec57806375829def1461062857806377f50f97146106495780637acc86781461065e5780637c423f541461067f5780638036d7571461069457806380d8b380146106b55780639870d7fe146107c3578063a7f43acd146107e4578063a80c609e146107f9578063ac8a584a1461081d578063b8e9c22e1461083e578063bc9cbcc81461086a578063bfee356914610978578063c6fd2103146109a2578063ce56c454146109cc578063cf8fee11146109f0578063d48bfca714610a16578063e4a2ac6214610a37578063e7d4fd9114610aa0578063f851a44014610adf575b600080fd5b3480156101b957600080fd5b506101ce600160a060020a0360043516610af4565b005b3480156101dc57600080fd5b506101ce600160a060020a0360043516610c5d565b3480156101fd57600080fd5b506101ce600160a060020a0360043516610c96565b34801561021e57600080fd5b50610227610cfd565b60408051918252519081900360200190f35b34801561024557600080fd5b50604080516020600480358082013583810280860185019096528085526101ce95369593946024949385019291829185019084908082843750506040805187358901803560208181028481018201909552818452989b9a998901989297509082019550935083925085019084908082843750506040805187358901803560208181028481018201909552818452989b9a998901989297509082019550935083925085019084908082843750506040805187358901803560208181028481018201909552818452989b9a998901989297509082019550935083925085019084908082843750506040805187358901803560208181028481018201909552818452989b9a99890198929750908201955093508392508501908490808284375050604080516020808901358a01803580830284810184018652818552999c8b359c909b909a950198509296508101945090925082919085019084908082843750949750610d039650505050505050565b3480156103be57600080fd5b506101ce600160a060020a0360043516610e67565b3480156103df57600080fd5b506103e8610eef565b60408051600160a060020a039092168252519081900360200190f35b34801561041057600080fd5b50610419610efe565b60408051602080825283518183015283519192839290830191858101910280838360005b8381101561045557818101518382015260200161043d565b505050509050019250505060405180910390f35b34801561047557600080fd5b50610419610f61565b34801561048a57600080fd5b506101ce600160a060020a036004358116906024359060443516610fc1565b3480156104b557600080fd5b506101ce600160a060020a03600435166110c1565b3480156104d657600080fd5b506102276111b7565b3480156104eb57600080fd5b50610227600160a060020a03600435166024356044356111bd565b34801561051257600080fd5b50604080516020600480358082013583810280860185019096528085526101ce95369593946024949385019291829185019084908082843750506040805187358901803560208181028481018201909552818452989b9a99890198929750908201955093508392508501908490808284375050604080516020808901358a01803580830284810184018652818552999c8b359c909b909a9501985092965081019450909250829190850190849080828437509497506114b09650505050505050565b3480156105e057600080fd5b506101ce6004356115f3565b3480156105f857600080fd5b5061060d600160a060020a036004351661160f565b60408051921515835290151560208301528051918290030190f35b34801561063457600080fd5b506101ce600160a060020a0360043516611637565b34801561065557600080fd5b506101ce6116c4565b34801561066a57600080fd5b506101ce600160a060020a036004351661174e565b34801561068b57600080fd5b50610419611820565b3480156106a057600080fd5b50610227600160a060020a0360043516611880565b3480156106c157600080fd5b506040805160206004602480358281013584810280870186019097528086526101ce968435600160a060020a031696369660449591949091019291829185019084908082843750506040805187358901803560208181028481018201909552818452989b9a998901989297509082019550935083925085019084908082843750506040805187358901803560208181028481018201909552818452989b9a998901989297509082019550935083925085019084908082843750506040805187358901803560208181028481018201909552818452989b9a9989019892975090820195509350839250850190849080828437509497506118ca9650505050505050565b3480156107cf57600080fd5b506101ce600160a060020a0360043516611a08565b3480156107f057600080fd5b506103e8611bc2565b34801561080557600080fd5b50610227600160a060020a0360043516602435611bd1565b34801561082957600080fd5b506101ce600160a060020a0360043516611bee565b34801561084a57600080fd5b50610227600160a060020a03600435166024356044351515606435611d53565b34801561087657600080fd5b506040805160206004602480358281013584810280870186019097528086526101ce968435600160a060020a031696369660449591949091019291829185019084908082843750506040805187358901803560208181028481018201909552818452989b9a998901989297509082019550935083925085019084908082843750506040805187358901803560208181028481018201909552818452989b9a998901989297509082019550935083925085019084908082843750506040805187358901803560208181028481018201909552818452989b9a9989019892975090820195509350839250850190849080828437509497506122cf9650505050505050565b34801561098457600080fd5b506101ce600160a060020a03600435166024356044356064356123f2565b3480156109ae57600080fd5b506101ce600160a060020a0360043516602435604435606435612450565b3480156109d857600080fd5b506101ce600435600160a060020a036024351661248c565b3480156109fc57600080fd5b50610227600160a060020a03600435166024351515612521565b348015610a2257600080fd5b506101ce600160a060020a036004351661256f565b348015610a4357600080fd5b50610a58600160a060020a0360043516612680565b6040805194855260208501939093527fff0000000000000000000000000000000000000000000000000000000000000091821684840152166060830152519081900360800190f35b348015610aac57600080fd5b50610ac1600160a060020a0360043516612742565b60408051938452602084019290925282820152519081900360600190f35b348015610aeb57600080fd5b506103e861276a565b60008054600160a060020a03163314610b0c57600080fd5b600160a060020a03821660009081526003602052604090205460ff161515610b3357600080fd5b50600160a060020a0381166000908152600360205260408120805460ff191690555b600554811015610c595781600160a060020a0316600582815481101515610b7857fe5b600091825260209091200154600160a060020a03161415610c5157600580546000198101908110610ba557fe5b60009182526020909120015460058054600160a060020a039092169183908110610bcb57fe5b60009182526020909120018054600160a060020a031916600160a060020a03929092169190911790556005805490610c07906000198301612ff1565b5060408051600160a060020a03841681526000602082015281517f5611bf3e417d124f97bf2c788843ea8bb502b66079fbee02158ef30b172cb762929181900390910190a1610c59565b600101610b55565b5050565b600054600160a060020a03163314610c7457600080fd5b600e8054600160a060020a031916600160a060020a0392909216919091179055565b3360009081526003602052604090205460ff161515610cb457600080fd5b600160a060020a0381166000908152600b602052604090205460ff161515610cdb57600080fd5b600160a060020a03166000908152600b60205260409020805461ff0019169055565b60095481565b3360009081526002602052604081205460ff161515610d2157600080fd5b8651885114610d2f57600080fd5b8551885114610d3d57600080fd5b8451845114610d4b57600080fd5b8151845114610d5957600080fd5b5060005b8751811015610e5157600b60008983815181101515610d7857fe5b6020908102909101810151600160a060020a031682528101919091526040016000205460ff161515610da957600080fd5b8681815181101515610db757fe5b90602001906020020151600b60008a84815181101515610dd357fe5b6020908102909101810151600160a060020a03168252810191909152604001600020600301558551869082908110610e0757fe5b90602001906020020151600b60008a84815181101515610e2357fe5b6020908102909101810151600160a060020a0316825281019190915260400160002060040155600101610d5d565b610e5d858585856114b0565b5050505050505050565b600054600160a060020a03163314610e7e57600080fd5b600160a060020a0381166000908152600b602052604090205460ff161515610ea557600080fd5b600160a060020a0381166000908152600660205260409020541515610ec957600080fd5b600160a060020a03166000908152600b60205260409020805461ff001916610100179055565b600154600160a060020a031681565b60606004805480602002602001604051908101604052809291908181526020018280548015610f5657602002820191906000526020600020905b8154600160a060020a03168152600190910190602001808311610f38575b505050505090505b90565b6060600a805480602002602001604051908101604052809291908181526020018280548015610f5657602002820191906000526020600020908154600160a060020a03168152600190910190602001808311610f38575050505050905090565b600054600160a060020a03163314610fd857600080fd5b82600160a060020a031663a9059cbb82846040518363ffffffff1660e060020a0281526004018083600160a060020a0316600160a060020a0316815260200182815260200192505050602060405180830381600087803b15801561103b57600080fd5b505af115801561104f573d6000803e3d6000fd5b505050506040513d602081101561106557600080fd5b5051151561107257600080fd5b60408051600160a060020a0380861682526020820185905283168183015290517f72cb8a894ddb372ceec3d2a7648d86f17d5a15caae0e986c53109b8a9a9385e69181900360600190a1505050565b600054600160a060020a031633146110d857600080fd5b600160a060020a03811660009081526003602052604090205460ff16156110fe57600080fd5b60055460321161110d57600080fd5b60408051600160a060020a03831681526001602082015281517f5611bf3e417d124f97bf2c788843ea8bb502b66079fbee02158ef30b172cb762929181900390910190a1600160a060020a03166000818152600360205260408120805460ff191660019081179091556005805491820181559091527f036b6384b5eca791c62761152d0c79bb0604c104a5fb6f4eb0703f3154bb3db0018054600160a060020a0319169091179055565b600d5481565b60008215156111e85750600160a060020a0383166000908152600b60205260409020600501546114a9565b826001141561122a57600160a060020a0384166000908152600b6020526040902060050180548390811061121857fe5b906000526020600020015490506114a9565b82600214156112555750600160a060020a0383166000908152600b60205260409020600601546114a9565b826003141561128557600160a060020a0384166000908152600b6020526040902060060180548390811061121857fe5b82600414156112b05750600160a060020a0383166000908152600b60205260409020600701546114a9565b82600514156112e057600160a060020a0384166000908152600b6020526040902060070180548390811061121857fe5b826006141561130b5750600160a060020a0383166000908152600b60205260409020600801546114a9565b826007141561133b57600160a060020a0384166000908152600b6020526040902060080180548390811061121857fe5b82600814156113665750600160a060020a0383166000908152600b60205260409020600901546114a9565b826009141561139657600160a060020a0384166000908152600b6020526040902060090180548390811061121857fe5b82600a14156113c15750600160a060020a0383166000908152600b60205260409020600a01546114a9565b82600b14156113f157600160a060020a0384166000908152600b60205260409020600a0180548390811061121857fe5b82600c141561141d5750600160a060020a0383166000908152600b6020819052604090912001546114a9565b82600d141561144e57600160a060020a0384166000908152600b602081905260409091200180548390811061121857fe5b82600e14156114795750600160a060020a0383166000908152600b60205260409020600c01546114a9565b82600f14156101a857600160a060020a0384166000908152600b60205260409020600c0180548390811061121857fe5b9392505050565b336000908152600260205260408120548190819060ff1615156114d257600080fd5b85518751146114e057600080fd5b86518451146114ee57600080fd5b63ffffffff8511156114ff57600080fd5b6e0100000000000000000000000000009250600091505b83518210156115ea57600c54845185908490811061153057fe5b602090810290910101511061154457600080fd5b828302850283878481518110151561155857fe5b906020019060200201517201000000000000000000000000000000000000900402888481518110151561158757fe5b90602001906020020151720100000000000000000000000000000000000090041717905080600102600c85848151811015156115bf57fe5b60209081029091010151815481106115d357fe5b600091825260209091200155600190910190611516565b50505050505050565b600054600160a060020a0316331461160a57600080fd5b600955565b600160a060020a03166000908152600b602052604090205460ff808216926101009092041690565b600054600160a060020a0316331461164e57600080fd5b600160a060020a038116151561166357600080fd5b60015460408051600160a060020a039092168252517f3b81caf78fa51ecbc8acb482fd7012a277b428d9b80f9d156e8a54107496cc409181900360200190a160018054600160a060020a031916600160a060020a0392909216919091179055565b600154600160a060020a031633146116db57600080fd5b60015460005460408051600160a060020a03938416815292909116602083015280517f65da1cfc2c2e81576ad96afb24a581f8e109b7a403b35cbd3243a1c99efdb9ed9281900390910190a16001805460008054600160a060020a0319908116600160a060020a03841617909155169055565b600054600160a060020a0316331461176557600080fd5b600160a060020a038116151561177a57600080fd5b60408051600160a060020a038316815290517f3b81caf78fa51ecbc8acb482fd7012a277b428d9b80f9d156e8a54107496cc409181900360200190a160005460408051600160a060020a038085168252909216602083015280517f65da1cfc2c2e81576ad96afb24a581f8e109b7a403b35cbd3243a1c99efdb9ed9281900390910190a160008054600160a060020a031916600160a060020a0392909216919091179055565b60606005805480602002602001604051908101604052809291908181526020018280548015610f5657602002820191906000526020600020908154600160a060020a03168152600190910190602001808311610f38575050505050905090565b600160a060020a0381166000908152600b6020526040812060010154600c805483929081106118ab57fe5b906000526020600020015490506118c181612779565b91505b50919050565b3360009081526002602052604090205460ff1615156118e857600080fd5b82518451146118f657600080fd5b805182511461190457600080fd5b8351600a101561191357600080fd5b8151600a101561192257600080fd5b600160a060020a0385166000908152600b602052604090205460ff16151561194957600080fd5b6040805180820182528581526020808201869052600160a060020a0388166000908152600b82529290922081518051929360059092019261198d928492019061301a565b5060208281015180516119a6926001850192019061301a565b50506040805180820182528481526020808201859052600160a060020a0389166000908152600b825292909220815180519294506007909101926119ef9284929091019061301a565b506020828101518051610e5d926001850192019061301a565b600054600160a060020a03163314611a1f57600080fd5b600160a060020a03811660009081526002602052604090205460ff1615611aa757604080517f08c379a000000000000000000000000000000000000000000000000000000000815260206004820152601360248201527f416c726561647920616e206f70657261746f7200000000000000000000000000604482015290519081900360640190fd5b600454603211611b1857604080517f08c379a000000000000000000000000000000000000000000000000000000000815260206004820152601060248201527f4d61782053697a65207265616368656400000000000000000000000000000000604482015290519081900360640190fd5b60408051600160a060020a03831681526001602082015281517f091a7a4b85135fdd7e8dbc18b12fabe5cc191ea867aa3c2e1a24a102af61d58b929181900390910190a1600160a060020a03166000818152600260205260408120805460ff191660019081179091556004805491820181559091527f8a35acfbc15ff81a39ae7d344fd709f28e8600b4aa8c65c6b64bfe7fe36bd19b018054600160a060020a0319169091179055565b600e54600160a060020a031681565b600760209081526000928352604080842090915290825290205481565b60008054600160a060020a03163314611c0657600080fd5b600160a060020a03821660009081526002602052604090205460ff161515611c2d57600080fd5b50600160a060020a0381166000908152600260205260408120805460ff191690555b600454811015610c595781600160a060020a0316600482815481101515611c7257fe5b600091825260209091200154600160a060020a03161415611d4b57600480546000198101908110611c9f57fe5b60009182526020909120015460048054600160a060020a039092169183908110611cc557fe5b60009182526020909120018054600160a060020a031916600160a060020a0392909216919091179055600480546000190190611d019082612ff1565b5060408051600160a060020a03841681526000602082015281517f091a7a4b85135fdd7e8dbc18b12fabe5cc191ea867aa3c2e1a24a102af61d58b929181900390910190a1610c59565b600101611c4f565b600160a060020a0384166000908152600b602052604081205481908190819081908190819081908190610100900460ff161515611d9357600098506122bf565b600160a060020a038d166000908152600660205260409020541515611dbb57600098506122bf565b600160a060020a038d166000908152600b6020526040902060010154600c80549091908110611de657fe5b90600052602060002001549750611dfc88612779565b60095490975087018c10611e1357600098506122bf565b611e1e8d888e612786565b90965094508a156120525750600160a060020a038c166000908152600b6020526040902060030154611e52888e60016127bb565b91508160000b600a029250611e678184612814565b9050611e748d828c612860565b600160a060020a038e166000908152600b60209081526040918290208251600590910180546060938102830184018552938201848152949e50998e01998e9850611f5794919390928492918491840182828015611ef057602002820191906000526020600020905b815481526020019060010190808311611edc575b5050505050815260200160018201805480602002602001604051908101604052809291908181526020018280548015611f4857602002820191906000526020600020905b815481526020019060010190808311611f34575b5050505050815250508b61288a565b9250611f638184612814565b600160a060020a038e166000908152600b6020908152604091829020825160099091018054606093810283018401855293820184815294955061203f94919390928492918491840182828015611fd857602002820191906000526020600020905b815481526020019060010190808311611fc4575b505050505081526020016001820180548060200260200160405190810160405280929190818152602001828054801561203057602002820191906000526020600020905b81548152602001906001019080831161201c575b5050505050815250508761288a565b925061204b8184612814565b9050612279565b50600160a060020a038c166000908152600b60205260408120600401549061207d9089908f906127bb565b91508160000b600a0292506120928184612814565b9050896000190293508386019550612188600b60008f600160a060020a0316600160a060020a0316815260200190815260200160002060070160408051908101604052908160008201805480602002602001604051908101604052809291908181526020018280548015611ef05760200282019190600052602060002090815481526020019060010190808311611edc575050505050815260200160018201805480602002602001604051908101604052809291908181526020018280548015611f485760200282019190600052602060002090815481526020019060010190808311611f34575050505050815250508b61288a565b92506121948184612814565b600160a060020a038e166000908152600b6020818152604092839020835192018054606092810284018301855293830184815294955061226a9492939092849290918491840182828015611fd85760200282019190600052602060002090815481526020019060010190808311611fc4575050505050815260200160018201805480602002602001604051908101604052809291908181526020018280548015612030576020028201919060005260206000209081548152602001906001019080831161201c575050505050815250508761288a565b92506122768184612814565b90505b6122828d61290f565b61228b8761292d565b1061229957600098506122bf565b6122a28d61294a565b6122ad85870161292d565b106122bb57600098506122bf565b8098505b5050505050505050949350505050565b3360009081526002602052604090205460ff1615156122ed57600080fd5b82518451146122fb57600080fd5b805182511461230957600080fd5b8351600a101561231857600080fd5b8151600a101561232757600080fd5b600160a060020a0385166000908152600b602052604090205460ff16151561234e57600080fd5b6040805180820182528581526020808201869052600160a060020a0388166000908152600b825292909220815180519293600990920192612392928492019061301a565b5060208281015180516123ab926001850192019061301a565b50506040805180820182528481526020808201859052600160a060020a0389166000908152600b808352939020825180519395509301926119ef928492919091019061301a565b600054600160a060020a0316331461240957600080fd5b604080516060810182529384526020808501938452848201928352600160a060020a0390951660009081526006909552909320915182555160018201559051600290910155565b600e54600160a060020a0316331461246757600080fd5b81151561247a5761247784611880565b91505b61248684848484612968565b50505050565b600054600160a060020a031633146124a357600080fd5b604051600160a060020a0382169083156108fc029084906000818181858888f193505050501580156124d9573d6000803e3d6000fd5b5060408051838152600160a060020a038316602082015281517fec47e7ed86c86774d1a72c19f35c639911393fe7c1a34031fdbd260890da90de929181900390910190a15050565b6000811561254b5750600160a060020a0382166000908152600b6020526040902060030154612569565b50600160a060020a0382166000908152600b60205260409020600401545b92915050565b600054600160a060020a0316331461258657600080fd5b600160a060020a0381166000908152600b602052604090205460ff16156125ac57600080fd5b600160a060020a0381166000818152600b60205260408120805460ff19166001908117909155600a805491820181559091527fc65a7bb8d6351c1cf70c95a316cc6a92839c986682d98bc35f958f4883f9d2a8018054600160a060020a0319169091179055600d54151561262e57600c80549061262c9060018301612ff1565b505b600c54600160a060020a0382166000908152600b60205260409020600019909101600182810191909155600d546002909201829055600e910106600d5561267481612a90565b61267d81612acb565b50565b600160a060020a0381166000908152600b60205260408120548190819081908190819060ff1615156126b157600080fd5b5050600160a060020a0385166000908152600b602052604090206001810154600290910154600c8054839183916127009190849081106126ed57fe5b90600052602060002001548a60016127bb565b60f860020a0261272b600c8681548110151561271857fe5b90600052602060002001548b60006127bb565b60f860020a02955095509550955050509193509193565b600160a060020a03166000908152600660205260409020805460018201546002909201549092565b600054600160a060020a031681565b60e060020a81045b919050565b600160a060020a03831660009081526006602052604081205481906127ac868686612b97565b90820297910295509350505050565b600160a060020a0382166000908152600b60205260408120600201548183156127e85750601281016127ee565b50600481015b8581602081106127fa57fe5b1a60f860020a0260f860020a900492505b50509392505050565b60008069d3c21bcecceda100000084111561282e57600080fd5b61270f1983121561283e57600080fd5b64174876e80083131561285057600080fd5b5050612710908101919091020490565b600080600061286e86612c82565b91506012905061288085828487612d45565b9695505050505050565b602082015151600090815b818110156128e55784518051829081106128ab57fe5b6020908102909101015184136128dd5760208501518051829081106128cc57fe5b906020019060200201519250612907565b600101612895565b6020850151805160001984019081106128fa57fe5b9060200190602002015192505b505092915050565b600160a060020a031660009081526006602052604090206002015490565b6000808212156129435781600019029050612781565b5080612781565b600160a060020a031660009081526006602052604090206001015490565b6000806000612975613065565b600160a060020a0388166000908152600660205260408120546005870695508881151561299e57fe5b600160a060020a038b1660009081526007602090815260408083208a845290915281205492909105955093506129d390612dde565b91508582602001511415612a2a578682606001511415612a025781518401825260408201805185019052612a25565b612a0d898888612e6b565b84810160408401528251850183526060830188905292505b612a54565b612a35898888612b97565b8584526020840188905260608401899052858201604085015290935090505b612a5d82612ef4565b600160a060020a039099166000908152600760209081526040808320978352969052949094209790975550505050505050565b60005b6005811015610c5957600160a060020a0382166000908152600760209081526040808320848452909152902060019081905501612a93565b600160a060020a03811673eeeeeeeeeeeeeeeeeeeeeeeeeeeeeeeeeeeeeeee1415612b1157600160a060020a03811660009081526008602052604090206012905561267d565b80600160a060020a031663313ce5676040518163ffffffff1660e060020a028152600401602060405180830381600087803b158015612b4f57600080fd5b505af1158015612b63573d6000803e3d6000fd5b505050506040513d6020811015612b7957600080fd5b5051600160a060020a03821660009081526008602052604090205550565b6000806000806000806000612baa613065565b60009750600096506000955060009450899350889250600091505b6005821015612c6957600160a060020a038b166000908152600760209081526040808320858452909152902054612bfb90612dde565b905082816020015111158015612c15575083816020015110155b15612c2257805194909401935b60608101518a14612c3257612c5e565b8581602001511015612c4357612c5e565b602081015160408201519850955088861415612c5e57805196505b600190910190612bc5565b871515612c74578497505b505050505050935093915050565b600080600160a060020a03831673eeeeeeeeeeeeeeeeeeeeeeeeeeeeeeeeeeeeeeee1415612cb357601291506118c4565b50600160a060020a0382166000908152600860205260409020548015156125695782600160a060020a031663313ce5676040518163ffffffff1660e060020a028152600401602060405180830381600087803b158015612d1257600080fd5b505af1158015612d26573d6000803e3d6000fd5b505050506040513d6020811015612d3c57600080fd5b505191506118c4565b60006b204fce5e3e25026110000000851115612d6057600080fd5b69d3c21bcecceda1000000821115612d7757600080fd5b838310612daa5760128484031115612d8e57600080fd5b670de0b6b3a7640000858302858503600a0a025b049050612dd6565b60128385031115612dba57600080fd5b828403600a0a670de0b6b3a764000002828602811515612da257fe5b949350505050565b612de6613065565b612dee613065565b67ffffffffffffffff83811660070b82526801000000000000000084041667ffffffffffffffff908116602083015270010000000000000000000000000000000084041660070b60408201527801000000000000000000000000000000000000000000000000830467ffffffffffffffff16606082015292915050565b600080612e76613065565b83851115612e8357600080fd5b60009250600091505b600582101561280b57600160a060020a0386166000908152600760209081526040808320858452909152902054612ec290612dde565b905083816020015111158015612edc575084816020015110155b15612ee957805192909201915b600190910190612e8c565b8051600090819067800000000000000013612f0e57600080fd5b8251677fffffffffffffff1912612f2457600080fd5b60208301516801000000000000000011612f3d57600080fd5b604083015167800000000000000013612f5557600080fd5b6040830151677fffffffffffffff1912612f6e57600080fd5b60608301516801000000000000000011612f8757600080fd5b5050805160208201516040830151606084015178010000000000000000000000000000000000000000000000000270010000000000000000000000000000000067ffffffffffffffff92831602680100000000000000009390930293909116929092171717919050565b8154818355818111156130155760008381526020902061301591810190830161308e565b505050565b828054828255906000526020600020908101928215613055579160200282015b8281111561305557825182559160200191906001019061303a565b5061306192915061308e565b5090565b608060405190810160405280600081526020016000815260200160008152602001600081525090565b610f5e91905b8082111561306157600081556001016130945600a165627a7a723058209a21c929cdd8b7da5ae52090d887f4b5a3b8d45f0d542270e7c6bc0fdb5f83240029",
  "source": "pragma solidity ^0.4.25;\r\n\r\n\r\nimport \"./ERC20Interface.sol\";\r\nimport \"./VolumeImbalanceRecorder.sol\";\r\nimport \"./Utils.sol\";\r\nimport \"./ConversionRatesInterface.sol\";\r\n\r\n\r\ncontract ConversionRates is ConversionRatesInterface, VolumeImbalanceRecorder, Utils {\r\n\r\n    // bps - basic rate steps. one step is 1 / 10000 of the rate.\r\n    struct StepFunction {\r\n        int[] x; // quantity for each step. Quantity of each step includes previous steps.\r\n        int[] y; // rate change per quantity step  in bps.\r\n    }\r\n\r\n    struct TokenData {\r\n        bool listed;  // was added to reserve\r\n        bool enabled; // whether trade is enabled\r\n\r\n        // position in the compact data\r\n        uint compactDataArrayIndex;\r\n        uint compactDataFieldIndex;\r\n\r\n        // rate data. base and changes according to quantity and reserve balance.\r\n        // generally speaking. Sell rate is 1 / buy rate i.e. the buy in the other direction.\r\n        uint baseBuyRate;  // in PRECISION units. see KyberConstants\r\n        uint baseSellRate; // PRECISION units. without (sell / buy) spread it is 1 / baseBuyRate\r\n        StepFunction buyRateQtyStepFunction; // in bps. higher quantity - bigger the rate.\r\n        StepFunction sellRateQtyStepFunction;// in bps. higher the qua\r\n        StepFunction buyRateImbalanceStepFunction; // in BPS. higher reserve imbalance - bigger the rate.\r\n        StepFunction sellRateImbalanceStepFunction;\r\n    }\r\n\r\n    /*\r\n    this is the data for tokenRatesCompactData\r\n    but solidity compiler optimizer is sub-optimal, and cannot write this structure in a single storage write\r\n    so we represent it as bytes32 and do the byte tricks ourselves.\r\n    struct TokenRatesCompactData {\r\n        bytes14 buy;  // change buy rate of token from baseBuyRate in 10 bps\r\n        bytes14 sell; // change sell rate of token from baseSellRate in 10 bps\r\n\r\n        uint32 blockNumber;\r\n    } */\r\n    uint public validRateDurationInBlocks = 10; // rates are valid for this amount of blocks\r\n    ERC20[] internal listedTokens;\r\n    mapping(address=>TokenData) internal tokenData;\r\n    bytes32[] internal tokenRatesCompactData;\r\n    uint public numTokensInCurrentCompactData = 0;\r\n    address public reserveContract;\r\n    uint constant internal NUM_TOKENS_IN_COMPACT_DATA = 14;\r\n    uint constant internal BYTES_14_OFFSET = (2 ** (8 * NUM_TOKENS_IN_COMPACT_DATA));\r\n    uint constant internal MAX_STEPS_IN_FUNCTION = 10;\r\n    int  constant internal MAX_BPS_ADJUSTMENT = 10 ** 11; // 1B %\r\n    int  constant internal MIN_BPS_ADJUSTMENT = -100 * 100; // cannot go down by more than 100%\r\n\r\n    constructor(address _admin) public VolumeImbalanceRecorder(_admin) { } // solhint-disable-line no-empty-blocks\r\n\r\n    function addToken(ERC20 token) public onlyAdmin {\r\n\r\n        require(!tokenData[token].listed);\r\n        tokenData[token].listed = true;\r\n        listedTokens.push(token);\r\n\r\n        if (numTokensInCurrentCompactData == 0) {\r\n            tokenRatesCompactData.length++; // add new structure\r\n        }\r\n\r\n        tokenData[token].compactDataArrayIndex = tokenRatesCompactData.length - 1;\r\n        tokenData[token].compactDataFieldIndex = numTokensInCurrentCompactData;\r\n\r\n        numTokensInCurrentCompactData = (numTokensInCurrentCompactData + 1) % NUM_TOKENS_IN_COMPACT_DATA;\r\n\r\n        setGarbageToVolumeRecorder(token);\r\n\r\n        setDecimals(token);\r\n    }\r\n\r\n    function setCompactData(bytes14[] buy, bytes14[] sell, uint blockNumber, uint[] indices) public onlyOperator {\r\n\r\n        require(buy.length == sell.length);\r\n        require(indices.length == buy.length);\r\n        require(blockNumber <= 0xFFFFFFFF);\r\n\r\n        uint bytes14Offset = BYTES_14_OFFSET;\r\n\r\n        for (uint i = 0; i < indices.length; i++) {\r\n            require(indices[i] < tokenRatesCompactData.length);\r\n            uint data = uint(buy[i]) | uint(sell[i]) * bytes14Offset | (blockNumber * (bytes14Offset * bytes14Offset));\r\n            tokenRatesCompactData[indices[i]] = bytes32(data);\r\n        }\r\n    }\r\n\r\n    function setBaseRate(\r\n        ERC20[] tokens,\r\n        uint[] baseBuy,\r\n        uint[] baseSell,\r\n        bytes14[] buy,\r\n        bytes14[] sell,\r\n        uint blockNumber,\r\n        uint[] indices\r\n    )\r\n        public\r\n        onlyOperator\r\n    {\r\n        require(tokens.length == baseBuy.length);\r\n        require(tokens.length == baseSell.length);\r\n        require(sell.length == buy.length);\r\n        require(sell.length == indices.length);\r\n\r\n        for (uint ind = 0; ind < tokens.length; ind++) {\r\n            require(tokenData[tokens[ind]].listed);\r\n            tokenData[tokens[ind]].baseBuyRate = baseBuy[ind];\r\n            tokenData[tokens[ind]].baseSellRate = baseSell[ind];\r\n        }\r\n\r\n        setCompactData(buy, sell, blockNumber, indices);\r\n    }\r\n\r\n    function setQtyStepFunction(\r\n        ERC20 token,\r\n        int[] xBuy,\r\n        int[] yBuy,\r\n        int[] xSell,\r\n        int[] ySell\r\n    )\r\n        public\r\n        onlyOperator\r\n    {\r\n        require(xBuy.length == yBuy.length);\r\n        require(xSell.length == ySell.length);\r\n        require(xBuy.length <= MAX_STEPS_IN_FUNCTION);\r\n        require(xSell.length <= MAX_STEPS_IN_FUNCTION);\r\n        require(tokenData[token].listed);\r\n\r\n        tokenData[token].buyRateQtyStepFunction = StepFunction(xBuy, yBuy);\r\n        tokenData[token].sellRateQtyStepFunction = StepFunction(xSell, ySell);\r\n    }\r\n\r\n    function setImbalanceStepFunction(\r\n        ERC20 token,\r\n        int[] xBuy,\r\n        int[] yBuy,\r\n        int[] xSell,\r\n        int[] ySell\r\n    )\r\n        public\r\n        onlyOperator\r\n    {\r\n        require(xBuy.length == yBuy.length);\r\n        require(xSell.length == ySell.length);\r\n        require(xBuy.length <= MAX_STEPS_IN_FUNCTION);\r\n        require(xSell.length <= MAX_STEPS_IN_FUNCTION);\r\n        require(tokenData[token].listed);\r\n\r\n        tokenData[token].buyRateImbalanceStepFunction = StepFunction(xBuy, yBuy);\r\n        tokenData[token].sellRateImbalanceStepFunction = StepFunction(xSell, ySell);\r\n    }\r\n\r\n    function setValidRateDurationInBlocks(uint duration) public onlyAdmin {\r\n        validRateDurationInBlocks = duration;\r\n    }\r\n\r\n    function enableTokenTrade(ERC20 token) public onlyAdmin {\r\n        require(tokenData[token].listed);\r\n        require(tokenControlInfo[token].minimalRecordResolution != 0);\r\n        tokenData[token].enabled = true;\r\n    }\r\n\r\n    function disableTokenTrade(ERC20 token) public onlyAlerter {\r\n        require(tokenData[token].listed);\r\n        tokenData[token].enabled = false;\r\n    }\r\n\r\n    function setReserveAddress(address reserve) public onlyAdmin {\r\n        reserveContract = reserve;\r\n    }\r\n\r\n    function recordImbalance(\r\n        ERC20 token,\r\n        int buyAmount,\r\n        uint rateUpdateBlock,\r\n        uint currentBlock\r\n    )\r\n        public\r\n    {\r\n        require(msg.sender == reserveContract);\r\n\r\n        if (rateUpdateBlock == 0) rateUpdateBlock = getRateUpdateBlock(token);\r\n\r\n        return addImbalance(token, buyAmount, rateUpdateBlock, currentBlock);\r\n    }\r\n\r\n    /* solhint-disable function-max-lines */\r\n    function getRate(ERC20 token, uint currentBlockNumber, bool buy, uint qty) public view returns(uint) {\r\n        // check if trade is enabled\r\n        if (!tokenData[token].enabled) return 0;\r\n        if (tokenControlInfo[token].minimalRecordResolution == 0) return 0; // token control info not set\r\n\r\n        // get rate update block\r\n        bytes32 compactData = tokenRatesCompactData[tokenData[token].compactDataArrayIndex];\r\n\r\n        uint updateRateBlock = getLast4Bytes(compactData);\r\n        if (currentBlockNumber >= updateRateBlock + validRateDurationInBlocks) return 0; // rate is expired\r\n        // check imbalance\r\n        int totalImbalance;\r\n        int blockImbalance;\r\n        (totalImbalance, blockImbalance) = getImbalance(token, updateRateBlock, currentBlockNumber);\r\n\r\n        // calculate actual rate\r\n        int imbalanceQty;\r\n        int extraBps;\r\n        int8 rateUpdate;\r\n        uint rate;\r\n\r\n        if (buy) {\r\n            // start with base rate\r\n            rate = tokenData[token].baseBuyRate;\r\n\r\n            // add rate update\r\n            rateUpdate = getRateByteFromCompactData(compactData, token, true);\r\n            extraBps = int(rateUpdate) * 10;\r\n            rate = addBps(rate, extraBps);\r\n\r\n            // compute token qty\r\n            qty = getTokenQty(token, rate, qty);\r\n            imbalanceQty = int(qty);\r\n            totalImbalance += imbalanceQty;\r\n\r\n            // add qty overhead\r\n            extraBps = executeStepFunction(tokenData[token].buyRateQtyStepFunction, int(qty));\r\n            rate = addBps(rate, extraBps);\r\n\r\n            // add imbalance overhead\r\n            extraBps = executeStepFunction(tokenData[token].buyRateImbalanceStepFunction, totalImbalance);\r\n            rate = addBps(rate, extraBps);\r\n        } else {\r\n            // start with base rate\r\n            rate = tokenData[token].baseSellRate;\r\n\r\n            // add rate update\r\n            rateUpdate = getRateByteFromCompactData(compactData, token, false);\r\n            extraBps = int(rateUpdate) * 10;\r\n            rate = addBps(rate, extraBps);\r\n\r\n            // compute token qty\r\n            imbalanceQty = -1 * int(qty);\r\n            totalImbalance += imbalanceQty;\r\n\r\n            // add qty overhead\r\n            extraBps = executeStepFunction(tokenData[token].sellRateQtyStepFunction, int(qty));\r\n            rate = addBps(rate, extraBps);\r\n\r\n            // add imbalance overhead\r\n            extraBps = executeStepFunction(tokenData[token].sellRateImbalanceStepFunction, totalImbalance);\r\n            rate = addBps(rate, extraBps);\r\n        }\r\n\r\n        if (abs(totalImbalance) >= getMaxTotalImbalance(token)) return 0;\r\n        if (abs(blockImbalance + imbalanceQty) >= getMaxPerBlockImbalance(token)) return 0;\r\n\r\n        return rate;\r\n    }\r\n    /* solhint-enable function-max-lines */\r\n\r\n    function getBasicRate(ERC20 token, bool buy) public view returns(uint) {\r\n        if (buy)\r\n            return tokenData[token].baseBuyRate;\r\n        else\r\n            return tokenData[token].baseSellRate;\r\n    }\r\n\r\n    function getCompactData(ERC20 token) public view returns(uint, uint, byte, byte) {\r\n        require(tokenData[token].listed);\r\n\r\n        uint arrayIndex = tokenData[token].compactDataArrayIndex;\r\n        uint fieldOffset = tokenData[token].compactDataFieldIndex;\r\n\r\n        return (\r\n            arrayIndex,\r\n            fieldOffset,\r\n            byte(getRateByteFromCompactData(tokenRatesCompactData[arrayIndex], token, true)),\r\n            byte(getRateByteFromCompactData(tokenRatesCompactData[arrayIndex], token, false))\r\n        );\r\n    }\r\n\r\n    function getTokenBasicData(ERC20 token) public view returns(bool, bool) {\r\n        return (tokenData[token].listed, tokenData[token].enabled);\r\n    }\r\n\r\n    /* solhint-disable code-complexity */\r\n    function getStepFunctionData(ERC20 token, uint command, uint param) public view returns(int) {\r\n        if (command == 0) return int(tokenData[token].buyRateQtyStepFunction.x.length);\r\n        if (command == 1) return tokenData[token].buyRateQtyStepFunction.x[param];\r\n        if (command == 2) return int(tokenData[token].buyRateQtyStepFunction.y.length);\r\n        if (command == 3) return tokenData[token].buyRateQtyStepFunction.y[param];\r\n\r\n        if (command == 4) return int(tokenData[token].sellRateQtyStepFunction.x.length);\r\n        if (command == 5) return tokenData[token].sellRateQtyStepFunction.x[param];\r\n        if (command == 6) return int(tokenData[token].sellRateQtyStepFunction.y.length);\r\n        if (command == 7) return tokenData[token].sellRateQtyStepFunction.y[param];\r\n\r\n        if (command == 8) return int(tokenData[token].buyRateImbalanceStepFunction.x.length);\r\n        if (command == 9) return tokenData[token].buyRateImbalanceStepFunction.x[param];\r\n        if (command == 10) return int(tokenData[token].buyRateImbalanceStepFunction.y.length);\r\n        if (command == 11) return tokenData[token].buyRateImbalanceStepFunction.y[param];\r\n\r\n        if (command == 12) return int(tokenData[token].sellRateImbalanceStepFunction.x.length);\r\n        if (command == 13) return tokenData[token].sellRateImbalanceStepFunction.x[param];\r\n        if (command == 14) return int(tokenData[token].sellRateImbalanceStepFunction.y.length);\r\n        if (command == 15) return tokenData[token].sellRateImbalanceStepFunction.y[param];\r\n\r\n        revert();\r\n    }\r\n    /* solhint-enable code-complexity */\r\n\r\n    function getRateUpdateBlock(ERC20 token) public view returns(uint) {\r\n        bytes32 compactData = tokenRatesCompactData[tokenData[token].compactDataArrayIndex];\r\n        return getLast4Bytes(compactData);\r\n    }\r\n\r\n    function getListedTokens() public view returns(ERC20[]) {\r\n        return listedTokens;\r\n    }\r\n\r\n    function getTokenQty(ERC20 token, uint ethQty, uint rate) internal view returns(uint) {\r\n        uint dstDecimals = getDecimals(token);\r\n        uint srcDecimals = ETH_DECIMALS;\r\n\r\n        return calcDstQty(ethQty, srcDecimals, dstDecimals, rate);\r\n    }\r\n\r\n    function getLast4Bytes(bytes32 b) internal pure returns(uint) {\r\n        // cannot trust compiler with not turning bit operations into EXP opcode\r\n        return uint(b) / (BYTES_14_OFFSET * BYTES_14_OFFSET);\r\n    }\r\n\r\n    function getRateByteFromCompactData(bytes32 data, ERC20 token, bool buy) internal view returns(int8) {\r\n        uint fieldOffset = tokenData[token].compactDataFieldIndex;\r\n        uint byteOffset;\r\n        if (buy)\r\n            byteOffset = 32 - NUM_TOKENS_IN_COMPACT_DATA + fieldOffset;\r\n        else\r\n            byteOffset = 4 + fieldOffset;\r\n\r\n        return int8(data[byteOffset]);\r\n    }\r\n\r\n    function executeStepFunction(StepFunction f, int x) internal pure returns(int) {\r\n        uint len = f.y.length;\r\n        for (uint ind = 0; ind < len; ind++) {\r\n            if (x <= f.x[ind]) return f.y[ind];\r\n        }\r\n\r\n        return f.y[len-1];\r\n    }\r\n\r\n    function addBps(uint rate, int bps) internal pure returns(uint) {\r\n        require(rate <= MAX_RATE);\r\n        require(bps >= MIN_BPS_ADJUSTMENT);\r\n        require(bps <= MAX_BPS_ADJUSTMENT);\r\n\r\n        uint maxBps = 100 * 100;\r\n        return (rate * uint(int(maxBps) + bps)) / maxBps;\r\n    }\r\n\r\n    function abs(int x) internal pure returns(uint) {\r\n        if (x < 0)\r\n            return uint(-1 * x);\r\n        else\r\n            return uint(x);\r\n    }\r\n}\r\n",
  "sourcePath": "C:/Users/Naina/source/repos/two12/smart-contracts/contracts/ConversionRates.sol",
  "compiler": {
    "name": "solc",
    "version": "0.4.25+commit.59dbf8f1.Emscripten.clang"
  },
  "schemaVersion": "3.0.1",
  "updatedAt": "2019-02-07T05:09:32.857Z",
  "devdoc": {
    "methods": {
      "claimAdmin()": {
        "details": "Allows the pendingAdmin address to finalize the change admin process.\r"
      },
      "transferAdmin(address)": {
        "details": "Allows the current admin to set the pendingAdmin address.\r",
        "params": {
          "newAdmin": "The address to transfer ownership to.\r"
        }
      },
      "transferAdminQuickly(address)": {
        "details": "Allows the current admin to set the admin in one tx. Useful initial deployment.\r",
        "params": {
          "newAdmin": "The address to transfer ownership to.\r"
        }
      },
      "withdrawEther(uint256,address)": {
        "details": "Withdraw Ethers\r"
      },
      "withdrawToken(address,uint256,address)": {
        "details": "Withdraw all ERC20 compatible tokens\r",
        "params": {
          "token": "ERC20 The address of the token contract\r"
        }
      }
    }
  },
  "userdoc": {
    "methods": {}
  }
}