{
  "contractName": "ConversionRates",
  "abi": [
    {
      "constant": false,
      "inputs": [
        {
          "name": "alerter",
          "type": "address"
        }
      ],
      "name": "removeAlerter",
      "outputs": [],
      "payable": false,
      "stateMutability": "nonpayable",
      "type": "function",
      "signature": "0x01a12fd3"
    },
    {
      "constant": true,
      "inputs": [],
      "name": "validRateDurationInBlocks",
      "outputs": [
        {
          "name": "",
          "type": "uint256"
        }
      ],
      "payable": false,
      "stateMutability": "view",
      "type": "function",
      "signature": "0x16265694"
    },
    {
      "constant": true,
      "inputs": [],
      "name": "pendingAdmin",
      "outputs": [
        {
          "name": "",
          "type": "address"
        }
      ],
      "payable": false,
      "stateMutability": "view",
      "type": "function",
      "signature": "0x26782247"
    },
    {
      "constant": true,
      "inputs": [],
      "name": "getOperators",
      "outputs": [
        {
          "name": "",
          "type": "address[]"
        }
      ],
      "payable": false,
      "stateMutability": "view",
      "type": "function",
      "signature": "0x27a099d8"
    },
    {
      "constant": false,
      "inputs": [
        {
          "name": "token",
          "type": "address"
        },
        {
          "name": "amount",
          "type": "uint256"
        },
        {
          "name": "sendTo",
          "type": "address"
        }
      ],
      "name": "withdrawToken",
      "outputs": [],
      "payable": false,
      "stateMutability": "nonpayable",
      "type": "function",
      "signature": "0x3ccdbb28"
    },
    {
      "constant": false,
      "inputs": [
        {
          "name": "newAlerter",
          "type": "address"
        }
      ],
      "name": "addAlerter",
      "outputs": [],
      "payable": false,
      "stateMutability": "nonpayable",
      "type": "function",
      "signature": "0x408ee7fe"
    },
    {
      "constant": true,
      "inputs": [],
      "name": "numTokensInCurrentCompactData",
      "outputs": [
        {
          "name": "",
          "type": "uint256"
        }
      ],
      "payable": false,
      "stateMutability": "view",
      "type": "function",
      "signature": "0x5085c9f1"
    },
    {
      "constant": false,
      "inputs": [
        {
          "name": "newAdmin",
          "type": "address"
        }
      ],
      "name": "transferAdmin",
      "outputs": [],
      "payable": false,
      "stateMutability": "nonpayable",
      "type": "function",
      "signature": "0x75829def"
    },
    {
      "constant": false,
      "inputs": [],
      "name": "claimAdmin",
      "outputs": [],
      "payable": false,
      "stateMutability": "nonpayable",
      "type": "function",
      "signature": "0x77f50f97"
    },
    {
      "constant": false,
      "inputs": [
        {
          "name": "newAdmin",
          "type": "address"
        }
      ],
      "name": "transferAdminQuickly",
      "outputs": [],
      "payable": false,
      "stateMutability": "nonpayable",
      "type": "function",
      "signature": "0x7acc8678"
    },
    {
      "constant": true,
      "inputs": [],
      "name": "getAlerters",
      "outputs": [
        {
          "name": "",
          "type": "address[]"
        }
      ],
      "payable": false,
      "stateMutability": "view",
      "type": "function",
      "signature": "0x7c423f54"
    },
    {
      "constant": false,
      "inputs": [
        {
          "name": "newOperator",
          "type": "address"
        }
      ],
      "name": "addOperator",
      "outputs": [],
      "payable": false,
      "stateMutability": "nonpayable",
      "type": "function",
      "signature": "0x9870d7fe"
    },
    {
      "constant": true,
      "inputs": [],
      "name": "reserveContract",
      "outputs": [
        {
          "name": "",
          "type": "address"
        }
      ],
      "payable": false,
      "stateMutability": "view",
      "type": "function",
      "signature": "0xa7f43acd"
    },
    {
      "constant": true,
      "inputs": [
        {
          "name": "",
          "type": "address"
        },
        {
          "name": "",
          "type": "uint256"
        }
      ],
      "name": "tokenImbalanceData",
      "outputs": [
        {
          "name": "",
          "type": "uint256"
        }
      ],
      "payable": false,
      "stateMutability": "view",
      "type": "function",
      "signature": "0xa80c609e"
    },
    {
      "constant": false,
      "inputs": [
        {
          "name": "operator",
          "type": "address"
        }
      ],
      "name": "removeOperator",
      "outputs": [],
      "payable": false,
      "stateMutability": "nonpayable",
      "type": "function",
      "signature": "0xac8a584a"
    },
    {
      "constant": false,
      "inputs": [
        {
          "name": "token",
          "type": "address"
        },
        {
          "name": "minimalRecordResolution",
          "type": "uint256"
        },
        {
          "name": "maxPerBlockImbalance",
          "type": "uint256"
        },
        {
          "name": "maxTotalImbalance",
          "type": "uint256"
        }
      ],
      "name": "setTokenControlInfo",
      "outputs": [],
      "payable": false,
      "stateMutability": "nonpayable",
      "type": "function",
      "signature": "0xbfee3569"
    },
    {
      "constant": false,
      "inputs": [
        {
          "name": "amount",
          "type": "uint256"
        },
        {
          "name": "sendTo",
          "type": "address"
        }
      ],
      "name": "withdrawEther",
      "outputs": [],
      "payable": false,
      "stateMutability": "nonpayable",
      "type": "function",
      "signature": "0xce56c454"
    },
    {
      "constant": true,
      "inputs": [
        {
          "name": "token",
          "type": "address"
        }
      ],
      "name": "getTokenControlInfo",
      "outputs": [
        {
          "name": "",
          "type": "uint256"
        },
        {
          "name": "",
          "type": "uint256"
        },
        {
          "name": "",
          "type": "uint256"
        }
      ],
      "payable": false,
      "stateMutability": "view",
      "type": "function",
      "signature": "0xe7d4fd91"
    },
    {
      "constant": true,
      "inputs": [],
      "name": "admin",
      "outputs": [
        {
          "name": "",
          "type": "address"
        }
      ],
      "payable": false,
      "stateMutability": "view",
      "type": "function",
      "signature": "0xf851a440"
    },
    {
      "inputs": [
        {
          "name": "_admin",
          "type": "address"
        }
      ],
      "payable": false,
      "stateMutability": "nonpayable",
      "type": "constructor",
      "signature": "constructor"
    },
    {
      "anonymous": false,
      "inputs": [
        {
          "indexed": false,
          "name": "token",
          "type": "address"
        },
        {
          "indexed": false,
          "name": "amount",
          "type": "uint256"
        },
        {
          "indexed": false,
          "name": "sendTo",
          "type": "address"
        }
      ],
      "name": "TokenWithdraw",
      "type": "event",
      "signature": "0x72cb8a894ddb372ceec3d2a7648d86f17d5a15caae0e986c53109b8a9a9385e6"
    },
    {
      "anonymous": false,
      "inputs": [
        {
          "indexed": false,
          "name": "amount",
          "type": "uint256"
        },
        {
          "indexed": false,
          "name": "sendTo",
          "type": "address"
        }
      ],
      "name": "EtherWithdraw",
      "type": "event",
      "signature": "0xec47e7ed86c86774d1a72c19f35c639911393fe7c1a34031fdbd260890da90de"
    },
    {
      "anonymous": false,
      "inputs": [
        {
          "indexed": false,
          "name": "pendingAdmin",
          "type": "address"
        }
      ],
      "name": "TransferAdminPending",
      "type": "event",
      "signature": "0x3b81caf78fa51ecbc8acb482fd7012a277b428d9b80f9d156e8a54107496cc40"
    },
    {
      "anonymous": false,
      "inputs": [
        {
          "indexed": false,
          "name": "newAdmin",
          "type": "address"
        },
        {
          "indexed": false,
          "name": "previousAdmin",
          "type": "address"
        }
      ],
      "name": "AdminClaimed",
      "type": "event",
      "signature": "0x65da1cfc2c2e81576ad96afb24a581f8e109b7a403b35cbd3243a1c99efdb9ed"
    },
    {
      "anonymous": false,
      "inputs": [
        {
          "indexed": false,
          "name": "newAlerter",
          "type": "address"
        },
        {
          "indexed": false,
          "name": "isAdd",
          "type": "bool"
        }
      ],
      "name": "AlerterAdded",
      "type": "event",
      "signature": "0x5611bf3e417d124f97bf2c788843ea8bb502b66079fbee02158ef30b172cb762"
    },
    {
      "anonymous": false,
      "inputs": [
        {
          "indexed": false,
          "name": "newOperator",
          "type": "address"
        },
        {
          "indexed": false,
          "name": "isAdd",
          "type": "bool"
        }
      ],
      "name": "OperatorAdded",
      "type": "event",
      "signature": "0x091a7a4b85135fdd7e8dbc18b12fabe5cc191ea867aa3c2e1a24a102af61d58b"
    },
    {
      "constant": false,
      "inputs": [
        {
          "name": "token",
          "type": "address"
        }
      ],
      "name": "addToken",
      "outputs": [],
      "payable": false,
      "stateMutability": "nonpayable",
      "type": "function",
      "signature": "0xd48bfca7"
    },
    {
      "constant": false,
      "inputs": [
        {
          "name": "buy",
          "type": "bytes14[]"
        },
        {
          "name": "sell",
          "type": "bytes14[]"
        },
        {
          "name": "blockNumber",
          "type": "uint256"
        },
        {
          "name": "indices",
          "type": "uint256[]"
        }
      ],
      "name": "setCompactData",
      "outputs": [],
      "payable": false,
      "stateMutability": "nonpayable",
      "type": "function",
      "signature": "0x64887334"
    },
    {
      "constant": false,
      "inputs": [
        {
          "name": "tokens",
          "type": "address[]"
        },
        {
          "name": "baseBuy",
          "type": "uint256[]"
        },
        {
          "name": "baseSell",
          "type": "uint256[]"
        },
        {
          "name": "buy",
          "type": "bytes14[]"
        },
        {
          "name": "sell",
          "type": "bytes14[]"
        },
        {
          "name": "blockNumber",
          "type": "uint256"
        },
        {
          "name": "indices",
          "type": "uint256[]"
        }
      ],
      "name": "setBaseRate",
      "outputs": [],
      "payable": false,
      "stateMutability": "nonpayable",
      "type": "function",
      "signature": "0x1a4813d7"
    },
    {
      "constant": false,
      "inputs": [
        {
          "name": "token",
          "type": "address"
        },
        {
          "name": "xBuy",
          "type": "int256[]"
        },
        {
          "name": "yBuy",
          "type": "int256[]"
        },
        {
          "name": "xSell",
          "type": "int256[]"
        },
        {
          "name": "ySell",
          "type": "int256[]"
        }
      ],
      "name": "setQtyStepFunction",
      "outputs": [],
      "payable": false,
      "stateMutability": "nonpayable",
      "type": "function",
      "signature": "0x80d8b380"
    },
    {
      "constant": false,
      "inputs": [
        {
          "name": "token",
          "type": "address"
        },
        {
          "name": "xBuy",
          "type": "int256[]"
        },
        {
          "name": "yBuy",
          "type": "int256[]"
        },
        {
          "name": "xSell",
          "type": "int256[]"
        },
        {
          "name": "ySell",
          "type": "int256[]"
        }
      ],
      "name": "setImbalanceStepFunction",
      "outputs": [],
      "payable": false,
      "stateMutability": "nonpayable",
      "type": "function",
      "signature": "0xbc9cbcc8"
    },
    {
      "constant": false,
      "inputs": [
        {
          "name": "duration",
          "type": "uint256"
        }
      ],
      "name": "setValidRateDurationInBlocks",
      "outputs": [],
      "payable": false,
      "stateMutability": "nonpayable",
      "type": "function",
      "signature": "0x6c6295b8"
    },
    {
      "constant": false,
      "inputs": [
        {
          "name": "token",
          "type": "address"
        }
      ],
      "name": "enableTokenTrade",
      "outputs": [],
      "payable": false,
      "stateMutability": "nonpayable",
      "type": "function",
      "signature": "0x1d6a8bda"
    },
    {
      "constant": false,
      "inputs": [
        {
          "name": "token",
          "type": "address"
        }
      ],
      "name": "disableTokenTrade",
      "outputs": [],
      "payable": false,
      "stateMutability": "nonpayable",
      "type": "function",
      "signature": "0x158859f7"
    },
    {
      "constant": false,
      "inputs": [
        {
          "name": "reserve",
          "type": "address"
        }
      ],
      "name": "setReserveAddress",
      "outputs": [],
      "payable": false,
      "stateMutability": "nonpayable",
      "type": "function",
      "signature": "0x14673d31"
    },
    {
      "constant": false,
      "inputs": [
        {
          "name": "token",
          "type": "address"
        },
        {
          "name": "buyAmount",
          "type": "int256"
        },
        {
          "name": "rateUpdateBlock",
          "type": "uint256"
        },
        {
          "name": "currentBlock",
          "type": "uint256"
        }
      ],
      "name": "recordImbalance",
      "outputs": [],
      "payable": false,
      "stateMutability": "nonpayable",
      "type": "function",
      "signature": "0xc6fd2103"
    },
    {
      "constant": true,
      "inputs": [
        {
          "name": "token",
          "type": "address"
        },
        {
          "name": "currentBlockNumber",
          "type": "uint256"
        },
        {
          "name": "buy",
          "type": "bool"
        },
        {
          "name": "qty",
          "type": "uint256"
        }
      ],
      "name": "getRate",
      "outputs": [
        {
          "name": "",
          "type": "uint256"
        }
      ],
      "payable": false,
      "stateMutability": "view",
      "type": "function",
      "signature": "0xb8e9c22e"
    },
    {
      "constant": true,
      "inputs": [
        {
          "name": "token",
          "type": "address"
        },
        {
          "name": "buy",
          "type": "bool"
        }
      ],
      "name": "getBasicRate",
      "outputs": [
        {
          "name": "",
          "type": "uint256"
        }
      ],
      "payable": false,
      "stateMutability": "view",
      "type": "function",
      "signature": "0xcf8fee11"
    },
    {
      "constant": true,
      "inputs": [
        {
          "name": "token",
          "type": "address"
        }
      ],
      "name": "getCompactData",
      "outputs": [
        {
          "name": "",
          "type": "uint256"
        },
        {
          "name": "",
          "type": "uint256"
        },
        {
          "name": "",
          "type": "bytes1"
        },
        {
          "name": "",
          "type": "bytes1"
        }
      ],
      "payable": false,
      "stateMutability": "view",
      "type": "function",
      "signature": "0xe4a2ac62"
    },
    {
      "constant": true,
      "inputs": [
        {
          "name": "token",
          "type": "address"
        }
      ],
      "name": "getTokenBasicData",
      "outputs": [
        {
          "name": "",
          "type": "bool"
        },
        {
          "name": "",
          "type": "bool"
        }
      ],
      "payable": false,
      "stateMutability": "view",
      "type": "function",
      "signature": "0x721bba59"
    },
    {
      "constant": true,
      "inputs": [
        {
          "name": "token",
          "type": "address"
        },
        {
          "name": "command",
          "type": "uint256"
        },
        {
          "name": "param",
          "type": "uint256"
        }
      ],
      "name": "getStepFunctionData",
      "outputs": [
        {
          "name": "",
          "type": "int256"
        }
      ],
      "payable": false,
      "stateMutability": "view",
      "type": "function",
      "signature": "0x62674e93"
    },
    {
      "constant": true,
      "inputs": [
        {
          "name": "token",
          "type": "address"
        }
      ],
      "name": "getRateUpdateBlock",
      "outputs": [
        {
          "name": "",
          "type": "uint256"
        }
      ],
      "payable": false,
      "stateMutability": "view",
      "type": "function",
      "signature": "0x8036d757"
    },
    {
      "constant": true,
      "inputs": [],
      "name": "getListedTokens",
      "outputs": [
        {
          "name": "",
          "type": "address[]"
        }
      ],
      "payable": false,
      "stateMutability": "view",
      "type": "function",
      "signature": "0x2ba996a5"
    }
  ],
  "bytecode": "0x6080604052600a6009556000600d553480156200001b57600080fd5b506040516020806200574c8339810180604052810190808051906020019092919050505080336000806101000a81548173ffffffffffffffffffffffffffffffffffffffff021916908373ffffffffffffffffffffffffffffffffffffffff160217905550600073ffffffffffffffffffffffffffffffffffffffff168173ffffffffffffffffffffffffffffffffffffffff1614151515620000bd57600080fd5b806000806101000a81548173ffffffffffffffffffffffffffffffffffffffff021916908373ffffffffffffffffffffffffffffffffffffffff160217905550505061563d806200010f6000396000f3006080604052600436106101c2576000357c0100000000000000000000000000000000000000000000000000000000900463ffffffff16806301a12fd3146101c757806314673d311461020a578063158859f71461024d57806316265694146102905780631a4813d7146102bb5780631d6a8bda1461047a57806326782247146104bd57806327a099d8146105145780632ba996a5146105805780633ccdbb28146105ec578063408ee7fe146106595780635085c9f11461069c57806362674e93146106c757806364887334146107325780636c6295b814610828578063721bba591461085557806375829def146108bb57806377f50f97146108fe5780637acc8678146109155780637c423f54146109585780638036d757146109c457806380d8b38014610a1b5780639870d7fe14610b6a578063a7f43acd14610bad578063a80c609e14610c04578063ac8a584a14610c65578063b8e9c22e14610ca8578063bc9cbcc814610d1f578063bfee356914610e6e578063c6fd210314610ecf578063ce56c45414610f30578063cf8fee1114610f7d578063d48bfca714610fe0578063e4a2ac6214611023578063e7d4fd9114611117578063f851a4401461117c575b600080fd5b3480156101d357600080fd5b50610208600480360381019080803573ffffffffffffffffffffffffffffffffffffffff1690602001909291905050506111d3565b005b34801561021657600080fd5b5061024b600480360381019080803573ffffffffffffffffffffffffffffffffffffffff169060200190929190505050611492565b005b34801561025957600080fd5b5061028e600480360381019080803573ffffffffffffffffffffffffffffffffffffffff169060200190929190505050611531565b005b34801561029c57600080fd5b506102a5611642565b6040518082815260200191505060405180910390f35b3480156102c757600080fd5b5061047860048036038101908080359060200190820180359060200190808060200260200160405190810160405280939291908181526020018383602002808284378201915050505050509192919290803590602001908201803590602001908080602002602001604051908101604052809392919081815260200183836020028082843782019150505050505091929192908035906020019082018035906020019080806020026020016040519081016040528093929190818152602001838360200280828437820191505050505050919291929080359060200190820180359060200190808060200260200160405190810160405280939291908181526020018383602002808284378201915050505050509192919290803590602001908201803590602001908080602002602001604051908101604052809392919081815260200183836020028082843782019150505050505091929192908035906020019092919080359060200190820180359060200190808060200260200160405190810160405280939291908181526020018383602002808284378201915050505050509192919290505050611648565b005b34801561048657600080fd5b506104bb600480360381019080803573ffffffffffffffffffffffffffffffffffffffff16906020019092919050505061186f565b005b3480156104c957600080fd5b506104d26119d5565b604051808273ffffffffffffffffffffffffffffffffffffffff1673ffffffffffffffffffffffffffffffffffffffff16815260200191505060405180910390f35b34801561052057600080fd5b506105296119fb565b6040518080602001828103825283818151815260200191508051906020019060200280838360005b8381101561056c578082015181840152602081019050610551565b505050509050019250505060405180910390f35b34801561058c57600080fd5b50610595611a89565b6040518080602001828103825283818151815260200191508051906020019060200280838360005b838110156105d85780820151818401526020810190506105bd565b505050509050019250505060405180910390f35b3480156105f857600080fd5b50610657600480360381019080803573ffffffffffffffffffffffffffffffffffffffff16906020019092919080359060200190929190803573ffffffffffffffffffffffffffffffffffffffff169060200190929190505050611b17565b005b34801561066557600080fd5b5061069a600480360381019080803573ffffffffffffffffffffffffffffffffffffffff169060200190929190505050611cff565b005b3480156106a857600080fd5b506106b1611ef8565b6040518082815260200191505060405180910390f35b3480156106d357600080fd5b5061071c600480360381019080803573ffffffffffffffffffffffffffffffffffffffff1690602001909291908035906020019092919080359060200190929190505050611efe565b6040518082815260200191505060405180910390f35b34801561073e57600080fd5b506108266004803603810190808035906020019082018035906020019080806020026020016040519081016040528093929190818152602001838360200280828437820191505050505050919291929080359060200190820180359060200190808060200260200160405190810160405280939291908181526020018383602002808284378201915050505050509192919290803590602001909291908035906020019082018035906020019080806020026020016040519081016040528093929190818152602001838360200280828437820191505050505050919291929050505061253b565b005b34801561083457600080fd5b50610853600480360381019080803590602001909291905050506126c6565b005b34801561086157600080fd5b50610896600480360381019080803573ffffffffffffffffffffffffffffffffffffffff16906020019092919050505061272b565b6040518083151515158152602001821515151581526020019250505060405180910390f35b3480156108c757600080fd5b506108fc600480360381019080803573ffffffffffffffffffffffffffffffffffffffff1690602001909291905050506127d7565b005b34801561090a57600080fd5b50610913612937565b005b34801561092157600080fd5b50610956600480360381019080803573ffffffffffffffffffffffffffffffffffffffff169060200190929190505050612b13565b005b34801561096457600080fd5b5061096d612d08565b6040518080602001828103825283818151815260200191508051906020019060200280838360005b838110156109b0578082015181840152602081019050610995565b505050509050019250505060405180910390f35b3480156109d057600080fd5b50610a05600480360381019080803573ffffffffffffffffffffffffffffffffffffffff169060200190929190505050612d96565b6040518082815260200191505060405180910390f35b348015610a2757600080fd5b50610b68600480360381019080803573ffffffffffffffffffffffffffffffffffffffff16906020019092919080359060200190820180359060200190808060200260200160405190810160405280939291908181526020018383602002808284378201915050505050509192919290803590602001908201803590602001908080602002602001604051908101604052809392919081815260200183836020028082843782019150505050505091929192908035906020019082018035906020019080806020026020016040519081016040528093929190818152602001838360200280828437820191505050505050919291929080359060200190820180359060200190808060200260200160405190810160405280939291908181526020018383602002808284378201915050505050509192919290505050612e08565b005b348015610b7657600080fd5b50610bab600480360381019080803573ffffffffffffffffffffffffffffffffffffffff16906020019092919050505061302c565b005b348015610bb957600080fd5b50610bc26132f7565b604051808273ffffffffffffffffffffffffffffffffffffffff1673ffffffffffffffffffffffffffffffffffffffff16815260200191505060405180910390f35b348015610c1057600080fd5b50610c4f600480360381019080803573ffffffffffffffffffffffffffffffffffffffff1690602001909291908035906020019092919050505061331d565b6040518082815260200191505060405180910390f35b348015610c7157600080fd5b50610ca6600480360381019080803573ffffffffffffffffffffffffffffffffffffffff169060200190929190505050613342565b005b348015610cb457600080fd5b50610d09600480360381019080803573ffffffffffffffffffffffffffffffffffffffff1690602001909291908035906020019092919080351515906020019092919080359060200190929190505050613604565b6040518082815260200191505060405180910390f35b348015610d2b57600080fd5b50610e6c600480360381019080803573ffffffffffffffffffffffffffffffffffffffff16906020019092919080359060200190820180359060200190808060200260200160405190810160405280939291908181526020018383602002808284378201915050505050509192919290803590602001908201803590602001908080602002602001604051908101604052809392919081815260200183836020028082843782019150505050505091929192908035906020019082018035906020019080806020026020016040519081016040528093929190818152602001838360200280828437820191505050505050919291929080359060200190820180359060200190808060200260200160405190810160405280939291908181526020018383602002808284378201915050505050509192919290505050613d1c565b005b348015610e7a57600080fd5b50610ecd600480360381019080803573ffffffffffffffffffffffffffffffffffffffff169060200190929190803590602001909291908035906020019092919080359060200190929190505050613f40565b005b348015610edb57600080fd5b50610f2e600480360381019080803573ffffffffffffffffffffffffffffffffffffffff16906020019092919080359060200190929190803590602001909291908035906020019092919050505061401d565b005b348015610f3c57600080fd5b50610f7b60048036038101908080359060200190929190803573ffffffffffffffffffffffffffffffffffffffff1690602001909291905050506140a0565b005b348015610f8957600080fd5b50610fca600480360381019080803573ffffffffffffffffffffffffffffffffffffffff1690602001909291908035151590602001909291905050506141b1565b6040518082815260200191505060405180910390f35b348015610fec57600080fd5b50611021600480360381019080803573ffffffffffffffffffffffffffffffffffffffff16906020019092919050505061424f565b005b34801561102f57600080fd5b50611064600480360381019080803573ffffffffffffffffffffffffffffffffffffffff1690602001909291905050506144ad565b60405180858152602001848152602001837effffffffffffffffffffffffffffffffffffffffffffffffffffffffffffff19167effffffffffffffffffffffffffffffffffffffffffffffffffffffffffffff19168152602001827effffffffffffffffffffffffffffffffffffffffffffffffffffffffffffff19167effffffffffffffffffffffffffffffffffffffffffffffffffffffffffffff1916815260200194505050505060405180910390f35b34801561112357600080fd5b50611158600480360381019080803573ffffffffffffffffffffffffffffffffffffffff16906020019092919050505061463c565b60405180848152602001838152602001828152602001935050505060405180910390f35b34801561118857600080fd5b50611191614717565b604051808273ffffffffffffffffffffffffffffffffffffffff1673ffffffffffffffffffffffffffffffffffffffff16815260200191505060405180910390f35b60008060009054906101000a900473ffffffffffffffffffffffffffffffffffffffff1673ffffffffffffffffffffffffffffffffffffffff163373ffffffffffffffffffffffffffffffffffffffff1614151561123057600080fd5b600360008373ffffffffffffffffffffffffffffffffffffffff1673ffffffffffffffffffffffffffffffffffffffff16815260200190815260200160002060009054906101000a900460ff16151561128857600080fd5b6000600360008473ffffffffffffffffffffffffffffffffffffffff1673ffffffffffffffffffffffffffffffffffffffff16815260200190815260200160002060006101000a81548160ff021916908315150217905550600090505b60058054905081101561148e578173ffffffffffffffffffffffffffffffffffffffff1660058281548110151561131857fe5b9060005260206000200160009054906101000a900473ffffffffffffffffffffffffffffffffffffffff1673ffffffffffffffffffffffffffffffffffffffff16141561148357600560016005805490500381548110151561137657fe5b9060005260206000200160009054906101000a900473ffffffffffffffffffffffffffffffffffffffff166005828154811015156113b057fe5b9060005260206000200160006101000a81548173ffffffffffffffffffffffffffffffffffffffff021916908373ffffffffffffffffffffffffffffffffffffffff160217905550600580548091906001900361140d91906154d4565b507f5611bf3e417d124f97bf2c788843ea8bb502b66079fbee02158ef30b172cb762826000604051808373ffffffffffffffffffffffffffffffffffffffff1673ffffffffffffffffffffffffffffffffffffffff168152602001821515151581526020019250505060405180910390a161148e565b8060010190506112e5565b5050565b6000809054906101000a900473ffffffffffffffffffffffffffffffffffffffff1673ffffffffffffffffffffffffffffffffffffffff163373ffffffffffffffffffffffffffffffffffffffff161415156114ed57600080fd5b80600e60006101000a81548173ffffffffffffffffffffffffffffffffffffffff021916908373ffffffffffffffffffffffffffffffffffffffff16021790555050565b600360003373ffffffffffffffffffffffffffffffffffffffff1673ffffffffffffffffffffffffffffffffffffffff16815260200190815260200160002060009054906101000a900460ff16151561158957600080fd5b600b60008273ffffffffffffffffffffffffffffffffffffffff1673ffffffffffffffffffffffffffffffffffffffff16815260200190815260200160002060000160009054906101000a900460ff1615156115e457600080fd5b6000600b60008373ffffffffffffffffffffffffffffffffffffffff1673ffffffffffffffffffffffffffffffffffffffff16815260200190815260200160002060000160016101000a81548160ff02191690831515021790555050565b60095481565b6000600260003373ffffffffffffffffffffffffffffffffffffffff1673ffffffffffffffffffffffffffffffffffffffff16815260200190815260200160002060009054906101000a900460ff1615156116a257600080fd5b865188511415156116b257600080fd5b855188511415156116c257600080fd5b845184511415156116d257600080fd5b815184511415156116e257600080fd5b600090505b875181101561185957600b6000898381518110151561170257fe5b9060200190602002015173ffffffffffffffffffffffffffffffffffffffff1673ffffffffffffffffffffffffffffffffffffffff16815260200190815260200160002060000160009054906101000a900460ff16151561176257600080fd5b868181518110151561177057fe5b90602001906020020151600b60008a8481518110151561178c57fe5b9060200190602002015173ffffffffffffffffffffffffffffffffffffffff1673ffffffffffffffffffffffffffffffffffffffff1681526020019081526020016000206003018190555085818151811015156117e557fe5b90602001906020020151600b60008a8481518110151561180157fe5b9060200190602002015173ffffffffffffffffffffffffffffffffffffffff1673ffffffffffffffffffffffffffffffffffffffff1681526020019081526020016000206004018190555080806001019150506116e7565b6118658585858561253b565b5050505050505050565b6000809054906101000a900473ffffffffffffffffffffffffffffffffffffffff1673ffffffffffffffffffffffffffffffffffffffff163373ffffffffffffffffffffffffffffffffffffffff161415156118ca57600080fd5b600b60008273ffffffffffffffffffffffffffffffffffffffff1673ffffffffffffffffffffffffffffffffffffffff16815260200190815260200160002060000160009054906101000a900460ff16151561192557600080fd5b6000600660008373ffffffffffffffffffffffffffffffffffffffff1673ffffffffffffffffffffffffffffffffffffffff168152602001908152602001600020600001541415151561197757600080fd5b6001600b60008373ffffffffffffffffffffffffffffffffffffffff1673ffffffffffffffffffffffffffffffffffffffff16815260200190815260200160002060000160016101000a81548160ff02191690831515021790555050565b600160009054906101000a900473ffffffffffffffffffffffffffffffffffffffff1681565b60606004805480602002602001604051908101604052809291908181526020018280548015611a7f57602002820191906000526020600020905b8160009054906101000a900473ffffffffffffffffffffffffffffffffffffffff1673ffffffffffffffffffffffffffffffffffffffff1681526020019060010190808311611a35575b5050505050905090565b6060600a805480602002602001604051908101604052809291908181526020018280548015611b0d57602002820191906000526020600020905b8160009054906101000a900473ffffffffffffffffffffffffffffffffffffffff1673ffffffffffffffffffffffffffffffffffffffff1681526020019060010190808311611ac3575b5050505050905090565b6000809054906101000a900473ffffffffffffffffffffffffffffffffffffffff1673ffffffffffffffffffffffffffffffffffffffff163373ffffffffffffffffffffffffffffffffffffffff16141515611b7257600080fd5b8273ffffffffffffffffffffffffffffffffffffffff1663a9059cbb82846040518363ffffffff167c0100000000000000000000000000000000000000000000000000000000028152600401808373ffffffffffffffffffffffffffffffffffffffff1673ffffffffffffffffffffffffffffffffffffffff16815260200182815260200192505050602060405180830381600087803b158015611c1557600080fd5b505af1158015611c29573d6000803e3d6000fd5b505050506040513d6020811015611c3f57600080fd5b81019080805190602001909291905050501515611c5b57600080fd5b7f72cb8a894ddb372ceec3d2a7648d86f17d5a15caae0e986c53109b8a9a9385e6838383604051808473ffffffffffffffffffffffffffffffffffffffff1673ffffffffffffffffffffffffffffffffffffffff1681526020018381526020018273ffffffffffffffffffffffffffffffffffffffff1673ffffffffffffffffffffffffffffffffffffffff168152602001935050505060405180910390a1505050565b6000809054906101000a900473ffffffffffffffffffffffffffffffffffffffff1673ffffffffffffffffffffffffffffffffffffffff163373ffffffffffffffffffffffffffffffffffffffff16141515611d5a57600080fd5b600360008273ffffffffffffffffffffffffffffffffffffffff1673ffffffffffffffffffffffffffffffffffffffff16815260200190815260200160002060009054906101000a900460ff16151515611db357600080fd5b6032600580549050101515611dc757600080fd5b7f5611bf3e417d124f97bf2c788843ea8bb502b66079fbee02158ef30b172cb762816001604051808373ffffffffffffffffffffffffffffffffffffffff1673ffffffffffffffffffffffffffffffffffffffff168152602001821515151581526020019250505060405180910390a16001600360008373ffffffffffffffffffffffffffffffffffffffff1673ffffffffffffffffffffffffffffffffffffffff16815260200190815260200160002060006101000a81548160ff02191690831515021790555060058190806001815401808255809150509060018203906000526020600020016000909192909190916101000a81548173ffffffffffffffffffffffffffffffffffffffff021916908373ffffffffffffffffffffffffffffffffffffffff1602179055505050565b600d5481565b600080831415611f5857600b60008573ffffffffffffffffffffffffffffffffffffffff1673ffffffffffffffffffffffffffffffffffffffff168152602001908152602001600020600501600001805490509050612534565b6001831415611fc557600b60008573ffffffffffffffffffffffffffffffffffffffff1673ffffffffffffffffffffffffffffffffffffffff16815260200190815260200160002060050160000182815481101515611fb357fe5b90600052602060002001549050612534565b600283141561201e57600b60008573ffffffffffffffffffffffffffffffffffffffff1673ffffffffffffffffffffffffffffffffffffffff168152602001908152602001600020600501600101805490509050612534565b600383141561208b57600b60008573ffffffffffffffffffffffffffffffffffffffff1673ffffffffffffffffffffffffffffffffffffffff1681526020019081526020016000206005016001018281548110151561207957fe5b90600052602060002001549050612534565b60048314156120e457600b60008573ffffffffffffffffffffffffffffffffffffffff1673ffffffffffffffffffffffffffffffffffffffff168152602001908152602001600020600701600001805490509050612534565b600583141561215157600b60008573ffffffffffffffffffffffffffffffffffffffff1673ffffffffffffffffffffffffffffffffffffffff1681526020019081526020016000206007016000018281548110151561213f57fe5b90600052602060002001549050612534565b60068314156121aa57600b60008573ffffffffffffffffffffffffffffffffffffffff1673ffffffffffffffffffffffffffffffffffffffff168152602001908152602001600020600701600101805490509050612534565b600783141561221757600b60008573ffffffffffffffffffffffffffffffffffffffff1673ffffffffffffffffffffffffffffffffffffffff1681526020019081526020016000206007016001018281548110151561220557fe5b90600052602060002001549050612534565b600883141561227057600b60008573ffffffffffffffffffffffffffffffffffffffff1673ffffffffffffffffffffffffffffffffffffffff168152602001908152602001600020600901600001805490509050612534565b60098314156122dd57600b60008573ffffffffffffffffffffffffffffffffffffffff1673ffffffffffffffffffffffffffffffffffffffff168152602001908152602001600020600901600001828154811015156122cb57fe5b90600052602060002001549050612534565b600a83141561233657600b60008573ffffffffffffffffffffffffffffffffffffffff1673ffffffffffffffffffffffffffffffffffffffff168152602001908152602001600020600901600101805490509050612534565b600b8314156123a357600b60008573ffffffffffffffffffffffffffffffffffffffff1673ffffffffffffffffffffffffffffffffffffffff1681526020019081526020016000206009016001018281548110151561239157fe5b90600052602060002001549050612534565b600c8314156123fc57600b60008573ffffffffffffffffffffffffffffffffffffffff1673ffffffffffffffffffffffffffffffffffffffff168152602001908152602001600020600b01600001805490509050612534565b600d83141561246957600b60008573ffffffffffffffffffffffffffffffffffffffff1673ffffffffffffffffffffffffffffffffffffffff168152602001908152602001600020600b016000018281548110151561245757fe5b90600052602060002001549050612534565b600e8314156124c257600b60008573ffffffffffffffffffffffffffffffffffffffff1673ffffffffffffffffffffffffffffffffffffffff168152602001908152602001600020600b01600101805490509050612534565b600f83141561252f57600b60008573ffffffffffffffffffffffffffffffffffffffff1673ffffffffffffffffffffffffffffffffffffffff168152602001908152602001600020600b016001018281548110151561251d57fe5b90600052602060002001549050612534565b600080fd5b9392505050565b6000806000600260003373ffffffffffffffffffffffffffffffffffffffff1673ffffffffffffffffffffffffffffffffffffffff16815260200190815260200160002060009054906101000a900460ff16151561259857600080fd5b855187511415156125a857600080fd5b865184511415156125b857600080fd5b63ffffffff85111515156125cb57600080fd5b600e60080260020a9250600091505b83518210156126bd57600c8054905084838151811015156125f757fe5b9060200190602002015110151561260d57600080fd5b828302850283878481518110151561262157fe5b906020019060200201517201000000000000000000000000000000000000900402888481518110151561265057fe5b90602001906020020151720100000000000000000000000000000000000090041717905080600102600c858481518110151561268857fe5b9060200190602002015181548110151561269e57fe5b90600052602060002001816000191690555081806001019250506125da565b50505050505050565b6000809054906101000a900473ffffffffffffffffffffffffffffffffffffffff1673ffffffffffffffffffffffffffffffffffffffff163373ffffffffffffffffffffffffffffffffffffffff1614151561272157600080fd5b8060098190555050565b600080600b60008473ffffffffffffffffffffffffffffffffffffffff1673ffffffffffffffffffffffffffffffffffffffff16815260200190815260200160002060000160009054906101000a900460ff16600b60008573ffffffffffffffffffffffffffffffffffffffff1673ffffffffffffffffffffffffffffffffffffffff16815260200190815260200160002060000160019054906101000a900460ff1691509150915091565b6000809054906101000a900473ffffffffffffffffffffffffffffffffffffffff1673ffffffffffffffffffffffffffffffffffffffff163373ffffffffffffffffffffffffffffffffffffffff1614151561283257600080fd5b600073ffffffffffffffffffffffffffffffffffffffff168173ffffffffffffffffffffffffffffffffffffffff161415151561286e57600080fd5b7f3b81caf78fa51ecbc8acb482fd7012a277b428d9b80f9d156e8a54107496cc40600160009054906101000a900473ffffffffffffffffffffffffffffffffffffffff16604051808273ffffffffffffffffffffffffffffffffffffffff1673ffffffffffffffffffffffffffffffffffffffff16815260200191505060405180910390a180600160006101000a81548173ffffffffffffffffffffffffffffffffffffffff021916908373ffffffffffffffffffffffffffffffffffffffff16021790555050565b3373ffffffffffffffffffffffffffffffffffffffff16600160009054906101000a900473ffffffffffffffffffffffffffffffffffffffff1673ffffffffffffffffffffffffffffffffffffffff1614151561299357600080fd5b7f65da1cfc2c2e81576ad96afb24a581f8e109b7a403b35cbd3243a1c99efdb9ed600160009054906101000a900473ffffffffffffffffffffffffffffffffffffffff166000809054906101000a900473ffffffffffffffffffffffffffffffffffffffff16604051808373ffffffffffffffffffffffffffffffffffffffff1673ffffffffffffffffffffffffffffffffffffffff1681526020018273ffffffffffffffffffffffffffffffffffffffff1673ffffffffffffffffffffffffffffffffffffffff1681526020019250505060405180910390a1600160009054906101000a900473ffffffffffffffffffffffffffffffffffffffff166000806101000a81548173ffffffffffffffffffffffffffffffffffffffff021916908373ffffffffffffffffffffffffffffffffffffffff1602179055506000600160006101000a81548173ffffffffffffffffffffffffffffffffffffffff021916908373ffffffffffffffffffffffffffffffffffffffff160217905550565b6000809054906101000a900473ffffffffffffffffffffffffffffffffffffffff1673ffffffffffffffffffffffffffffffffffffffff163373ffffffffffffffffffffffffffffffffffffffff16141515612b6e57600080fd5b600073ffffffffffffffffffffffffffffffffffffffff168173ffffffffffffffffffffffffffffffffffffffff1614151515612baa57600080fd5b7f3b81caf78fa51ecbc8acb482fd7012a277b428d9b80f9d156e8a54107496cc4081604051808273ffffffffffffffffffffffffffffffffffffffff1673ffffffffffffffffffffffffffffffffffffffff16815260200191505060405180910390a17f65da1cfc2c2e81576ad96afb24a581f8e109b7a403b35cbd3243a1c99efdb9ed816000809054906101000a900473ffffffffffffffffffffffffffffffffffffffff16604051808373ffffffffffffffffffffffffffffffffffffffff1673ffffffffffffffffffffffffffffffffffffffff1681526020018273ffffffffffffffffffffffffffffffffffffffff1673ffffffffffffffffffffffffffffffffffffffff1681526020019250505060405180910390a1806000806101000a81548173ffffffffffffffffffffffffffffffffffffffff021916908373ffffffffffffffffffffffffffffffffffffffff16021790555050565b60606005805480602002602001604051908101604052809291908181526020018280548015612d8c57602002820191906000526020600020905b8160009054906101000a900473ffffffffffffffffffffffffffffffffffffffff1673ffffffffffffffffffffffffffffffffffffffff1681526020019060010190808311612d42575b5050505050905090565b600080600c600b60008573ffffffffffffffffffffffffffffffffffffffff1673ffffffffffffffffffffffffffffffffffffffff16815260200190815260200160002060010154815481101515612dea57fe5b90600052602060002001549050612e008161473c565b915050919050565b600260003373ffffffffffffffffffffffffffffffffffffffff1673ffffffffffffffffffffffffffffffffffffffff16815260200190815260200160002060009054906101000a900460ff161515612e6057600080fd5b82518451141515612e7057600080fd5b80518251141515612e8057600080fd5b600a845111151515612e9157600080fd5b600a825111151515612ea257600080fd5b600b60008673ffffffffffffffffffffffffffffffffffffffff1673ffffffffffffffffffffffffffffffffffffffff16815260200190815260200160002060000160009054906101000a900460ff161515612efd57600080fd5b604080519081016040528085815260200184815250600b60008773ffffffffffffffffffffffffffffffffffffffff1673ffffffffffffffffffffffffffffffffffffffff1681526020019081526020016000206005016000820151816000019080519060200190612f70929190615500565b506020820151816001019080519060200190612f8d929190615500565b50905050604080519081016040528083815260200182815250600b60008773ffffffffffffffffffffffffffffffffffffffff1673ffffffffffffffffffffffffffffffffffffffff1681526020019081526020016000206007016000820151816000019080519060200190613004929190615500565b506020820151816001019080519060200190613021929190615500565b509050505050505050565b6000809054906101000a900473ffffffffffffffffffffffffffffffffffffffff1673ffffffffffffffffffffffffffffffffffffffff163373ffffffffffffffffffffffffffffffffffffffff1614151561308757600080fd5b600260008273ffffffffffffffffffffffffffffffffffffffff1673ffffffffffffffffffffffffffffffffffffffff16815260200190815260200160002060009054906101000a900460ff16151515613149576040517f08c379a00000000000000000000000000000000000000000000000000000000081526004018080602001828103825260138152602001807f416c726561647920616e206f70657261746f720000000000000000000000000081525060200191505060405180910390fd5b60326004805490501015156131c6576040517f08c379a00000000000000000000000000000000000000000000000000000000081526004018080602001828103825260108152602001807f4d61782053697a6520726561636865640000000000000000000000000000000081525060200191505060405180910390fd5b7f091a7a4b85135fdd7e8dbc18b12fabe5cc191ea867aa3c2e1a24a102af61d58b816001604051808373ffffffffffffffffffffffffffffffffffffffff1673ffffffffffffffffffffffffffffffffffffffff168152602001821515151581526020019250505060405180910390a16001600260008373ffffffffffffffffffffffffffffffffffffffff1673ffffffffffffffffffffffffffffffffffffffff16815260200190815260200160002060006101000a81548160ff02191690831515021790555060048190806001815401808255809150509060018203906000526020600020016000909192909190916101000a81548173ffffffffffffffffffffffffffffffffffffffff021916908373ffffffffffffffffffffffffffffffffffffffff1602179055505050565b600e60009054906101000a900473ffffffffffffffffffffffffffffffffffffffff1681565b6007602052816000526040600020602052806000526040600020600091509150505481565b60008060009054906101000a900473ffffffffffffffffffffffffffffffffffffffff1673ffffffffffffffffffffffffffffffffffffffff163373ffffffffffffffffffffffffffffffffffffffff1614151561339f57600080fd5b600260008373ffffffffffffffffffffffffffffffffffffffff1673ffffffffffffffffffffffffffffffffffffffff16815260200190815260200160002060009054906101000a900460ff1615156133f757600080fd5b6000600260008473ffffffffffffffffffffffffffffffffffffffff1673ffffffffffffffffffffffffffffffffffffffff16815260200190815260200160002060006101000a81548160ff021916908315150217905550600090505b600480549050811015613600578173ffffffffffffffffffffffffffffffffffffffff1660048281548110151561348757fe5b9060005260206000200160009054906101000a900473ffffffffffffffffffffffffffffffffffffffff1673ffffffffffffffffffffffffffffffffffffffff1614156135f55760046001600480549050038154811015156134e557fe5b9060005260206000200160009054906101000a900473ffffffffffffffffffffffffffffffffffffffff1660048281548110151561351f57fe5b9060005260206000200160006101000a81548173ffffffffffffffffffffffffffffffffffffffff021916908373ffffffffffffffffffffffffffffffffffffffff160217905550600160048181805490500391508161357f91906154d4565b507f091a7a4b85135fdd7e8dbc18b12fabe5cc191ea867aa3c2e1a24a102af61d58b826000604051808373ffffffffffffffffffffffffffffffffffffffff1673ffffffffffffffffffffffffffffffffffffffff168152602001821515151581526020019250505060405180910390a1613600565b806001019050613454565b5050565b6000806000806000806000806000600b60008e73ffffffffffffffffffffffffffffffffffffffff1673ffffffffffffffffffffffffffffffffffffffff16815260200190815260200160002060000160019054906101000a900460ff1615156136715760009850613d0c565b6000600660008f73ffffffffffffffffffffffffffffffffffffffff1673ffffffffffffffffffffffffffffffffffffffff1681526020019081526020016000206000015414156136c55760009850613d0c565b600c600b60008f73ffffffffffffffffffffffffffffffffffffffff1673ffffffffffffffffffffffffffffffffffffffff1681526020019081526020016000206001015481548110151561371657fe5b9060005260206000200154975061372c8861473c565b965060095487018c1015156137445760009850613d0c565b61374f8d888e614765565b80965081975050508a15613a0757600b60008e73ffffffffffffffffffffffffffffffffffffffff1673ffffffffffffffffffffffffffffffffffffffff1681526020019081526020016000206003015490506137ae888e60016147d5565b9150600a8260000b0292506137c38184614899565b90506137d08d828c614919565b995089935083860195506138e0600b60008f73ffffffffffffffffffffffffffffffffffffffff1673ffffffffffffffffffffffffffffffffffffffff1681526020019081526020016000206005016040805190810160405290816000820180548060200260200160405190810160405280929190818152602001828054801561387957602002820191906000526020600020905b815481526020019060010190808311613865575b50505050508152602001600182018054806020026020016040519081016040528092919081815260200182805480156138d157602002820191906000526020600020905b8154815260200190600101908083116138bd575b5050505050815250508b614944565b92506138ec8184614899565b90506139f4600b60008f73ffffffffffffffffffffffffffffffffffffffff1673ffffffffffffffffffffffffffffffffffffffff1681526020019081526020016000206009016040805190810160405290816000820180548060200260200160405190810160405280929190818152602001828054801561398d57602002820191906000526020600020905b815481526020019060010190808311613979575b50505050508152602001600182018054806020026020016040519081016040528092919081815260200182805480156139e557602002820191906000526020600020905b8154815260200190600101908083116139d1575b50505050508152505087614944565b9250613a008184614899565b9050613cc2565b600b60008e73ffffffffffffffffffffffffffffffffffffffff1673ffffffffffffffffffffffffffffffffffffffff168152602001908152602001600020600401549050613a58888e60006147d5565b9150600a8260000b029250613a6d8184614899565b9050897fffffffffffffffffffffffffffffffffffffffffffffffffffffffffffffffff0293508386019550613b9f600b60008f73ffffffffffffffffffffffffffffffffffffffff1673ffffffffffffffffffffffffffffffffffffffff16815260200190815260200160002060070160408051908101604052908160008201805480602002602001604051908101604052809291908181526020018280548015613b3857602002820191906000526020600020905b815481526020019060010190808311613b24575b5050505050815260200160018201805480602002602001604051908101604052809291908181526020018280548015613b9057602002820191906000526020600020905b815481526020019060010190808311613b7c575b5050505050815250508b614944565b9250613bab8184614899565b9050613cb3600b60008f73ffffffffffffffffffffffffffffffffffffffff1673ffffffffffffffffffffffffffffffffffffffff168152602001908152602001600020600b0160408051908101604052908160008201805480602002602001604051908101604052809291908181526020018280548015613c4c57602002820191906000526020600020905b815481526020019060010190808311613c38575b5050505050815260200160018201805480602002602001604051908101604052809291908181526020018280548015613ca457602002820191906000526020600020905b815481526020019060010190808311613c90575b50505050508152505087614944565b9250613cbf8184614899565b90505b613ccb8d6149dc565b613cd487614a28565b101515613ce45760009850613d0c565b613ced8d614a65565b613cf8858701614a28565b101515613d085760009850613d0c565b8098505b5050505050505050949350505050565b600260003373ffffffffffffffffffffffffffffffffffffffff1673ffffffffffffffffffffffffffffffffffffffff16815260200190815260200160002060009054906101000a900460ff161515613d7457600080fd5b82518451141515613d8457600080fd5b80518251141515613d9457600080fd5b600a845111151515613da557600080fd5b600a825111151515613db657600080fd5b600b60008673ffffffffffffffffffffffffffffffffffffffff1673ffffffffffffffffffffffffffffffffffffffff16815260200190815260200160002060000160009054906101000a900460ff161515613e1157600080fd5b604080519081016040528085815260200184815250600b60008773ffffffffffffffffffffffffffffffffffffffff1673ffffffffffffffffffffffffffffffffffffffff1681526020019081526020016000206009016000820151816000019080519060200190613e84929190615500565b506020820151816001019080519060200190613ea1929190615500565b50905050604080519081016040528083815260200182815250600b60008773ffffffffffffffffffffffffffffffffffffffff1673ffffffffffffffffffffffffffffffffffffffff168152602001908152602001600020600b016000820151816000019080519060200190613f18929190615500565b506020820151816001019080519060200190613f35929190615500565b509050505050505050565b6000809054906101000a900473ffffffffffffffffffffffffffffffffffffffff1673ffffffffffffffffffffffffffffffffffffffff163373ffffffffffffffffffffffffffffffffffffffff16141515613f9b57600080fd5b60606040519081016040528084815260200183815260200182815250600660008673ffffffffffffffffffffffffffffffffffffffff1673ffffffffffffffffffffffffffffffffffffffff16815260200190815260200160002060008201518160000155602082015181600101556040820151816002015590505050505050565b600e60009054906101000a900473ffffffffffffffffffffffffffffffffffffffff1673ffffffffffffffffffffffffffffffffffffffff163373ffffffffffffffffffffffffffffffffffffffff1614151561407957600080fd5b600082141561408e5761408b84612d96565b91505b61409a84848484614ab1565b50505050565b6000809054906101000a900473ffffffffffffffffffffffffffffffffffffffff1673ffffffffffffffffffffffffffffffffffffffff163373ffffffffffffffffffffffffffffffffffffffff161415156140fb57600080fd5b8073ffffffffffffffffffffffffffffffffffffffff166108fc839081150290604051600060405180830381858888f19350505050158015614141573d6000803e3d6000fd5b507fec47e7ed86c86774d1a72c19f35c639911393fe7c1a34031fdbd260890da90de8282604051808381526020018273ffffffffffffffffffffffffffffffffffffffff1673ffffffffffffffffffffffffffffffffffffffff1681526020019250505060405180910390a15050565b6000811561420357600b60008473ffffffffffffffffffffffffffffffffffffffff1673ffffffffffffffffffffffffffffffffffffffff168152602001908152602001600020600301549050614249565b600b60008473ffffffffffffffffffffffffffffffffffffffff1673ffffffffffffffffffffffffffffffffffffffff1681526020019081526020016000206004015490505b92915050565b6000809054906101000a900473ffffffffffffffffffffffffffffffffffffffff1673ffffffffffffffffffffffffffffffffffffffff163373ffffffffffffffffffffffffffffffffffffffff161415156142aa57600080fd5b600b60008273ffffffffffffffffffffffffffffffffffffffff1673ffffffffffffffffffffffffffffffffffffffff16815260200190815260200160002060000160009054906101000a900460ff1615151561430657600080fd5b6001600b60008373ffffffffffffffffffffffffffffffffffffffff1673ffffffffffffffffffffffffffffffffffffffff16815260200190815260200160002060000160006101000a81548160ff021916908315150217905550600a8190806001815401808255809150509060018203906000526020600020016000909192909190916101000a81548173ffffffffffffffffffffffffffffffffffffffff021916908373ffffffffffffffffffffffffffffffffffffffff160217905550506000600d5414156143e857600c80548091906001016143e6919061554d565b505b6001600c8054905003600b60008373ffffffffffffffffffffffffffffffffffffffff1673ffffffffffffffffffffffffffffffffffffffff16815260200190815260200160002060010181905550600d54600b60008373ffffffffffffffffffffffffffffffffffffffff1673ffffffffffffffffffffffffffffffffffffffff16815260200190815260200160002060020181905550600e6001600d540181151561449157fe5b06600d819055506144a181614c9a565b6144aa81614d10565b50565b600080600080600080600b60008873ffffffffffffffffffffffffffffffffffffffff1673ffffffffffffffffffffffffffffffffffffffff16815260200190815260200160002060000160009054906101000a900460ff16151561451157600080fd5b600b60008873ffffffffffffffffffffffffffffffffffffffff1673ffffffffffffffffffffffffffffffffffffffff168152602001908152602001600020600101549150600b60008873ffffffffffffffffffffffffffffffffffffffff1673ffffffffffffffffffffffffffffffffffffffff16815260200190815260200160002060020154905081816145c2600c858154811015156145af57fe5b90600052602060002001548a60016147d5565b7f010000000000000000000000000000000000000000000000000000000000000002614609600c868154811015156145f657fe5b90600052602060002001548b60006147d5565b7f010000000000000000000000000000000000000000000000000000000000000002955095509550955050509193509193565b6000806000600660008573ffffffffffffffffffffffffffffffffffffffff1673ffffffffffffffffffffffffffffffffffffffff16815260200190815260200160002060000154600660008673ffffffffffffffffffffffffffffffffffffffff1673ffffffffffffffffffffffffffffffffffffffff16815260200190815260200160002060010154600660008773ffffffffffffffffffffffffffffffffffffffff1673ffffffffffffffffffffffffffffffffffffffff168152602001908152602001600020600201549250925092509193909250565b6000809054906101000a900473ffffffffffffffffffffffffffffffffffffffff1681565b6000600e60080260020a600e60080260020a02826001900481151561475d57fe5b049050919050565b6000806000600660008773ffffffffffffffffffffffffffffffffffffffff1673ffffffffffffffffffffffffffffffffffffffff1681526020019081526020016000206000015490506147ba868686614e88565b80935081945050508083029250808202915050935093915050565b6000806000600b60008673ffffffffffffffffffffffffffffffffffffffff1673ffffffffffffffffffffffffffffffffffffffff16815260200190815260200160002060020154915083156148335781600e60200301905061483a565b8160040190505b858160208110151561484857fe5b1a7f0100000000000000000000000000000000000000000000000000000000000000027f01000000000000000000000000000000000000000000000000000000000000009004925050509392505050565b600080620f4240670de0b6b3a76400000284111515156148b857600080fd5b7fffffffffffffffffffffffffffffffffffffffffffffffffffffffffffffd8f083121515156148e757600080fd5b64174876e80083131515156148fb57600080fd5b612710905080838201850281151561490f57fe5b0491505092915050565b600080600061492786614faf565b915060129050614939858284876150fe565b925050509392505050565b60008060008460200151519150600090505b818110156149b25784600001518181518110151561497057fe5b90602001906020020151841315156149a55784602001518181518110151561499457fe5b9060200190602002015192506149d4565b8080600101915050614956565b8460200151600183038151811015156149c757fe5b9060200190602002015192505b505092915050565b6000600660008373ffffffffffffffffffffffffffffffffffffffff1673ffffffffffffffffffffffffffffffffffffffff168152602001908152602001600020600201549050919050565b600080821215614a5c57817fffffffffffffffffffffffffffffffffffffffffffffffffffffffffffffffff029050614a60565b8190505b919050565b6000600660008373ffffffffffffffffffffffffffffffffffffffff1673ffffffffffffffffffffffffffffffffffffffff168152602001908152602001600020600101549050919050565b6000806000614abe615579565b6000600586811515614acc57fe5b069450600660008a73ffffffffffffffffffffffffffffffffffffffff1673ffffffffffffffffffffffffffffffffffffffff1681526020019081526020016000206000015488811515614b1c57fe5b05935060009250614b7c600760008b73ffffffffffffffffffffffffffffffffffffffff1673ffffffffffffffffffffffffffffffffffffffff1681526020019081526020016000206000878152602001908152602001600020546151b0565b91508582602001511415614bf4578682606001511415614bbb578382600001818151019150818152505083826040018181510191508181525050614bef565b614bc6898888615280565b925083830182604001818152505083826000018181510191508181525050868260600181815250505b614c32565b614bff898888614e88565b80925081945050508382600001818152505085826020018181525050868260600181815250508383018260400181815250505b614c3b82615344565b600760008b73ffffffffffffffffffffffffffffffffffffffff1673ffffffffffffffffffffffffffffffffffffffff168152602001908152602001600020600087815260200190815260200160002081905550505050505050505050565b60008090505b6005811015614d0c576001600760008473ffffffffffffffffffffffffffffffffffffffff1673ffffffffffffffffffffffffffffffffffffffff1681526020019081526020016000206000838152602001908152602001600020819055508080600101915050614ca0565b5050565b73eeeeeeeeeeeeeeeeeeeeeeeeeeeeeeeeeeeeeeee73ffffffffffffffffffffffffffffffffffffffff168173ffffffffffffffffffffffffffffffffffffffff161415614da2576012600860008373ffffffffffffffffffffffffffffffffffffffff1673ffffffffffffffffffffffffffffffffffffffff16815260200190815260200160002081905550614e85565b8073ffffffffffffffffffffffffffffffffffffffff1663313ce5676040518163ffffffff167c0100000000000000000000000000000000000000000000000000000000028152600401602060405180830381600087803b158015614e0657600080fd5b505af1158015614e1a573d6000803e3d6000fd5b505050506040513d6020811015614e3057600080fd5b8101908080519060200190929190505050600860008373ffffffffffffffffffffffffffffffffffffffff1673ffffffffffffffffffffffffffffffffffffffff168152602001908152602001600020819055505b50565b6000806000806000806000614e9b615579565b60009750600096506000955060009450899350889250600091505b6005821015614f9457614f18600760008d73ffffffffffffffffffffffffffffffffffffffff1673ffffffffffffffffffffffffffffffffffffffff1681526020019081526020016000206000848152602001908152602001600020546151b0565b905082816020015111158015614f32575083816020015110155b15614f41578060000151850194505b898160600151141515614f5357614f87565b8581602001511015614f6457614f87565b80602001519550806040015197508881602001511415614f8657806000015196505b5b8180600101925050614eb6565b6000881415614fa1578497505b505050505050935093915050565b60008073eeeeeeeeeeeeeeeeeeeeeeeeeeeeeeeeeeeeeeee73ffffffffffffffffffffffffffffffffffffffff168373ffffffffffffffffffffffffffffffffffffffff16141561500357601291506150f8565b600860008473ffffffffffffffffffffffffffffffffffffffff1673ffffffffffffffffffffffffffffffffffffffff16815260200190815260200160002054905060008114156150f4578273ffffffffffffffffffffffffffffffffffffffff1663313ce5676040518163ffffffff167c0100000000000000000000000000000000000000000000000000000000028152600401602060405180830381600087803b1580156150b257600080fd5b505af11580156150c6573d6000803e3d6000fd5b505050506040513d60208110156150dc57600080fd5b810190808051906020019092919050505091506150f8565b8091505b50919050565b60006b204fce5e3e25026110000000851115151561511b57600080fd5b620f4240670de0b6b3a764000002821115151561513757600080fd5b83831015156151765760128484031115151561515257600080fd5b670de0b6b3a7640000848403600a0a8387020281151561516e57fe5b0490506151a8565b60128385031115151561518857600080fd5b828403600a0a670de0b6b3a7640000028286028115156151a457fe5b0490505b949350505050565b6151b8615579565b6151c0615579565b60016801000000000000000003831660070b8160000181815250506001680100000000000000000368010000000000000000848115156151fc57fe5b041667ffffffffffffffff16816020018181525050600168010000000000000000036801000000000000000080028481151561523457fe5b041660070b81604001818152505068010000000000000000806801000000000000000002028381151561526357fe5b0467ffffffffffffffff1681606001818152505080915050919050565b60008061528b615579565b83851115151561529a57600080fd5b60009250600091505b600582101561533b57615305600760008873ffffffffffffffffffffffffffffffffffffffff1673ffffffffffffffffffffffffffffffffffffffff1681526020019081526020016000206000848152602001908152602001600020546151b0565b90508381602001511115801561531f575084816020015110155b1561532e578060000151830192505b81806001019250506152a3565b50509392505050565b60008060026801000000000000000081151561535c57fe5b04836000015112151561536e57600080fd5b6002680100000000000000007fffffffffffffffffffffffffffffffffffffffffffffffffffffffffffffffff028115156153a557fe5b0583600001511315156153b757600080fd5b6801000000000000000083602001511015156153d257600080fd5b6002680100000000000000008115156153e757fe5b0483604001511215156153f957600080fd5b6002680100000000000000007fffffffffffffffffffffffffffffffffffffffffffffffffffffffffffffffff0281151561543057fe5b05836040015113151561544257600080fd5b68010000000000000000836060015110151561545d57600080fd5b600168010000000000000000038360000151169050680100000000000000008360200151028117905068010000000000000000806001680100000000000000000385604001511602028117905068010000000000000000806801000000000000000085606001510202028117905080915050919050565b8154818355818111156154fb578183600052602060002091820191016154fa91906155a2565b5b505050565b82805482825590600052602060002090810192821561553c579160200282015b8281111561553b578251825591602001919060010190615520565b5b50905061554991906155c7565b5090565b8154818355818111156155745781836000526020600020918201910161557391906155ec565b5b505050565b608060405190810160405280600081526020016000815260200160008152602001600081525090565b6155c491905b808211156155c05760008160009055506001016155a8565b5090565b90565b6155e991905b808211156155e55760008160009055506001016155cd565b5090565b90565b61560e91905b8082111561560a5760008160009055506001016155f2565b5090565b905600a165627a7a723058205803b084a79d7889b4b3c069ccd7fb9a748569f1b9c1854edbe2a895cd7785540029",
  "source": "pragma solidity ^0.4.25;\r\n\r\n\r\nimport \"./ERC20Interface.sol\";\r\nimport \"./VolumeImbalanceRecorder.sol\";\r\nimport \"./Utils.sol\";\r\nimport \"./ConversionRatesInterface.sol\";\r\n\r\n\r\ncontract ConversionRates is ConversionRatesInterface, VolumeImbalanceRecorder, Utils {\r\n\r\n    // bps - basic rate steps. one step is 1 / 10000 of the rate.\r\n    struct StepFunction {\r\n        int[] x; // quantity for each step. Quantity of each step includes previous steps.\r\n        int[] y; // rate change per quantity step  in bps.\r\n    }\r\n\r\n    struct TokenData {\r\n        bool listed;  // was added to reserve\r\n        bool enabled; // whether trade is enabled\r\n\r\n        // position in the compact data\r\n        uint compactDataArrayIndex;\r\n        uint compactDataFieldIndex;\r\n\r\n        // rate data. base and changes according to quantity and reserve balance.\r\n        // generally speaking. Sell rate is 1 / buy rate i.e. the buy in the other direction.\r\n        uint baseBuyRate;  // in PRECISION units. see KyberConstants\r\n        uint baseSellRate; // PRECISION units. without (sell / buy) spread it is 1 / baseBuyRate\r\n        StepFunction buyRateQtyStepFunction; // in bps. higher quantity - bigger the rate.\r\n        StepFunction sellRateQtyStepFunction;// in bps. higher the qua\r\n        StepFunction buyRateImbalanceStepFunction; // in BPS. higher reserve imbalance - bigger the rate.\r\n        StepFunction sellRateImbalanceStepFunction;\r\n    }\r\n\r\n    /*\r\n    this is the data for tokenRatesCompactData\r\n    but solidity compiler optimizer is sub-optimal, and cannot write this structure in a single storage write\r\n    so we represent it as bytes32 and do the byte tricks ourselves.\r\n    struct TokenRatesCompactData {\r\n        bytes14 buy;  // change buy rate of token from baseBuyRate in 10 bps\r\n        bytes14 sell; // change sell rate of token from baseSellRate in 10 bps\r\n\r\n        uint32 blockNumber;\r\n    } */\r\n    uint public validRateDurationInBlocks = 10; // rates are valid for this amount of blocks\r\n    ERC20[] internal listedTokens;\r\n    mapping(address=>TokenData) internal tokenData;\r\n    bytes32[] internal tokenRatesCompactData;\r\n    uint public numTokensInCurrentCompactData = 0;\r\n    address public reserveContract;\r\n    uint constant internal NUM_TOKENS_IN_COMPACT_DATA = 14;\r\n    uint constant internal BYTES_14_OFFSET = (2 ** (8 * NUM_TOKENS_IN_COMPACT_DATA));\r\n    uint constant internal MAX_STEPS_IN_FUNCTION = 10;\r\n    int  constant internal MAX_BPS_ADJUSTMENT = 10 ** 11; // 1B %\r\n    int  constant internal MIN_BPS_ADJUSTMENT = -100 * 100; // cannot go down by more than 100%\r\n\r\n    constructor(address _admin) public VolumeImbalanceRecorder(_admin) { } // solhint-disable-line no-empty-blocks\r\n\r\n    function addToken(ERC20 token) public onlyAdmin {\r\n\r\n        require(!tokenData[token].listed);\r\n        tokenData[token].listed = true;\r\n        listedTokens.push(token);\r\n\r\n        if (numTokensInCurrentCompactData == 0) {\r\n            tokenRatesCompactData.length++; // add new structure\r\n        }\r\n\r\n        tokenData[token].compactDataArrayIndex = tokenRatesCompactData.length - 1;\r\n        tokenData[token].compactDataFieldIndex = numTokensInCurrentCompactData;\r\n\r\n        numTokensInCurrentCompactData = (numTokensInCurrentCompactData + 1) % NUM_TOKENS_IN_COMPACT_DATA;\r\n\r\n        setGarbageToVolumeRecorder(token);\r\n\r\n        setDecimals(token);\r\n    }\r\n\r\n    function setCompactData(bytes14[] buy, bytes14[] sell, uint blockNumber, uint[] indices) public onlyOperator {\r\n\r\n        require(buy.length == sell.length);\r\n        require(indices.length == buy.length);\r\n        require(blockNumber <= 0xFFFFFFFF);\r\n\r\n        uint bytes14Offset = BYTES_14_OFFSET;\r\n\r\n        for (uint i = 0; i < indices.length; i++) {\r\n            require(indices[i] < tokenRatesCompactData.length);\r\n            uint data = uint(buy[i]) | uint(sell[i]) * bytes14Offset | (blockNumber * (bytes14Offset * bytes14Offset));\r\n            tokenRatesCompactData[indices[i]] = bytes32(data);\r\n        }\r\n    }\r\n\r\n    function setBaseRate(\r\n        ERC20[] tokens,\r\n        uint[] baseBuy,\r\n        uint[] baseSell,\r\n        bytes14[] buy,\r\n        bytes14[] sell,\r\n        uint blockNumber,\r\n        uint[] indices\r\n    )\r\n        public\r\n        onlyOperator\r\n    {\r\n        require(tokens.length == baseBuy.length);\r\n        require(tokens.length == baseSell.length);\r\n        require(sell.length == buy.length);\r\n        require(sell.length == indices.length);\r\n\r\n        for (uint ind = 0; ind < tokens.length; ind++) {\r\n            require(tokenData[tokens[ind]].listed);\r\n            tokenData[tokens[ind]].baseBuyRate = baseBuy[ind];\r\n            tokenData[tokens[ind]].baseSellRate = baseSell[ind];\r\n        }\r\n\r\n        setCompactData(buy, sell, blockNumber, indices);\r\n    }\r\n\r\n    function setQtyStepFunction(\r\n        ERC20 token,\r\n        int[] xBuy,\r\n        int[] yBuy,\r\n        int[] xSell,\r\n        int[] ySell\r\n    )\r\n        public\r\n        onlyOperator\r\n    {\r\n        require(xBuy.length == yBuy.length);\r\n        require(xSell.length == ySell.length);\r\n        require(xBuy.length <= MAX_STEPS_IN_FUNCTION);\r\n        require(xSell.length <= MAX_STEPS_IN_FUNCTION);\r\n        require(tokenData[token].listed);\r\n\r\n        tokenData[token].buyRateQtyStepFunction = StepFunction(xBuy, yBuy);\r\n        tokenData[token].sellRateQtyStepFunction = StepFunction(xSell, ySell);\r\n    }\r\n\r\n    function setImbalanceStepFunction(\r\n        ERC20 token,\r\n        int[] xBuy,\r\n        int[] yBuy,\r\n        int[] xSell,\r\n        int[] ySell\r\n    )\r\n        public\r\n        onlyOperator\r\n    {\r\n        require(xBuy.length == yBuy.length);\r\n        require(xSell.length == ySell.length);\r\n        require(xBuy.length <= MAX_STEPS_IN_FUNCTION);\r\n        require(xSell.length <= MAX_STEPS_IN_FUNCTION);\r\n        require(tokenData[token].listed);\r\n\r\n        tokenData[token].buyRateImbalanceStepFunction = StepFunction(xBuy, yBuy);\r\n        tokenData[token].sellRateImbalanceStepFunction = StepFunction(xSell, ySell);\r\n    }\r\n\r\n    function setValidRateDurationInBlocks(uint duration) public onlyAdmin {\r\n        validRateDurationInBlocks = duration;\r\n    }\r\n\r\n    function enableTokenTrade(ERC20 token) public onlyAdmin {\r\n        require(tokenData[token].listed);\r\n        require(tokenControlInfo[token].minimalRecordResolution != 0);\r\n        tokenData[token].enabled = true;\r\n    }\r\n\r\n    function disableTokenTrade(ERC20 token) public onlyAlerter {\r\n        require(tokenData[token].listed);\r\n        tokenData[token].enabled = false;\r\n    }\r\n\r\n    function setReserveAddress(address reserve) public onlyAdmin {\r\n        reserveContract = reserve;\r\n    }\r\n\r\n    function recordImbalance(\r\n        ERC20 token,\r\n        int buyAmount,\r\n        uint rateUpdateBlock,\r\n        uint currentBlock\r\n    )\r\n        public\r\n    {\r\n        require(msg.sender == reserveContract);\r\n\r\n        if (rateUpdateBlock == 0) rateUpdateBlock = getRateUpdateBlock(token);\r\n\r\n        return addImbalance(token, buyAmount, rateUpdateBlock, currentBlock);\r\n    }\r\n\r\n    /* solhint-disable function-max-lines */\r\n    function getRate(ERC20 token, uint currentBlockNumber, bool buy, uint qty) public view returns(uint) {\r\n        // check if trade is enabled\r\n        if (!tokenData[token].enabled) return 0;\r\n        if (tokenControlInfo[token].minimalRecordResolution == 0) return 0; // token control info not set\r\n\r\n        // get rate update block\r\n        bytes32 compactData = tokenRatesCompactData[tokenData[token].compactDataArrayIndex];\r\n\r\n        uint updateRateBlock = getLast4Bytes(compactData);\r\n        if (currentBlockNumber >= updateRateBlock + validRateDurationInBlocks) return 0; // rate is expired\r\n        // check imbalance\r\n        int totalImbalance;\r\n        int blockImbalance;\r\n        (totalImbalance, blockImbalance) = getImbalance(token, updateRateBlock, currentBlockNumber);\r\n\r\n        // calculate actual rate\r\n        int imbalanceQty;\r\n        int extraBps;\r\n        int8 rateUpdate;\r\n        uint rate;\r\n\r\n        if (buy) {\r\n            // start with base rate\r\n            rate = tokenData[token].baseBuyRate;\r\n\r\n            // add rate update\r\n            rateUpdate = getRateByteFromCompactData(compactData, token, true);\r\n            extraBps = int(rateUpdate) * 10;\r\n            rate = addBps(rate, extraBps);\r\n\r\n            // compute token qty\r\n            qty = getTokenQty(token, rate, qty);\r\n            imbalanceQty = int(qty);\r\n            totalImbalance += imbalanceQty;\r\n\r\n            // add qty overhead\r\n            extraBps = executeStepFunction(tokenData[token].buyRateQtyStepFunction, int(qty));\r\n            rate = addBps(rate, extraBps);\r\n\r\n            // add imbalance overhead\r\n            extraBps = executeStepFunction(tokenData[token].buyRateImbalanceStepFunction, totalImbalance);\r\n            rate = addBps(rate, extraBps);\r\n        } else {\r\n            // start with base rate\r\n            rate = tokenData[token].baseSellRate;\r\n\r\n            // add rate update\r\n            rateUpdate = getRateByteFromCompactData(compactData, token, false);\r\n            extraBps = int(rateUpdate) * 10;\r\n            rate = addBps(rate, extraBps);\r\n\r\n            // compute token qty\r\n            imbalanceQty = -1 * int(qty);\r\n            totalImbalance += imbalanceQty;\r\n\r\n            // add qty overhead\r\n            extraBps = executeStepFunction(tokenData[token].sellRateQtyStepFunction, int(qty));\r\n            rate = addBps(rate, extraBps);\r\n\r\n            // add imbalance overhead\r\n            extraBps = executeStepFunction(tokenData[token].sellRateImbalanceStepFunction, totalImbalance);\r\n            rate = addBps(rate, extraBps);\r\n        }\r\n\r\n        if (abs(totalImbalance) >= getMaxTotalImbalance(token)) return 0;\r\n        if (abs(blockImbalance + imbalanceQty) >= getMaxPerBlockImbalance(token)) return 0;\r\n\r\n        return rate;\r\n    }\r\n    /* solhint-enable function-max-lines */\r\n\r\n    function getBasicRate(ERC20 token, bool buy) public view returns(uint) {\r\n        if (buy)\r\n            return tokenData[token].baseBuyRate;\r\n        else\r\n            return tokenData[token].baseSellRate;\r\n    }\r\n\r\n    function getCompactData(ERC20 token) public view returns(uint, uint, byte, byte) {\r\n        require(tokenData[token].listed);\r\n\r\n        uint arrayIndex = tokenData[token].compactDataArrayIndex;\r\n        uint fieldOffset = tokenData[token].compactDataFieldIndex;\r\n\r\n        return (\r\n            arrayIndex,\r\n            fieldOffset,\r\n            byte(getRateByteFromCompactData(tokenRatesCompactData[arrayIndex], token, true)),\r\n            byte(getRateByteFromCompactData(tokenRatesCompactData[arrayIndex], token, false))\r\n        );\r\n    }\r\n\r\n    function getTokenBasicData(ERC20 token) public view returns(bool, bool) {\r\n        return (tokenData[token].listed, tokenData[token].enabled);\r\n    }\r\n\r\n    /* solhint-disable code-complexity */\r\n    function getStepFunctionData(ERC20 token, uint command, uint param) public view returns(int) {\r\n        if (command == 0) return int(tokenData[token].buyRateQtyStepFunction.x.length);\r\n        if (command == 1) return tokenData[token].buyRateQtyStepFunction.x[param];\r\n        if (command == 2) return int(tokenData[token].buyRateQtyStepFunction.y.length);\r\n        if (command == 3) return tokenData[token].buyRateQtyStepFunction.y[param];\r\n\r\n        if (command == 4) return int(tokenData[token].sellRateQtyStepFunction.x.length);\r\n        if (command == 5) return tokenData[token].sellRateQtyStepFunction.x[param];\r\n        if (command == 6) return int(tokenData[token].sellRateQtyStepFunction.y.length);\r\n        if (command == 7) return tokenData[token].sellRateQtyStepFunction.y[param];\r\n\r\n        if (command == 8) return int(tokenData[token].buyRateImbalanceStepFunction.x.length);\r\n        if (command == 9) return tokenData[token].buyRateImbalanceStepFunction.x[param];\r\n        if (command == 10) return int(tokenData[token].buyRateImbalanceStepFunction.y.length);\r\n        if (command == 11) return tokenData[token].buyRateImbalanceStepFunction.y[param];\r\n\r\n        if (command == 12) return int(tokenData[token].sellRateImbalanceStepFunction.x.length);\r\n        if (command == 13) return tokenData[token].sellRateImbalanceStepFunction.x[param];\r\n        if (command == 14) return int(tokenData[token].sellRateImbalanceStepFunction.y.length);\r\n        if (command == 15) return tokenData[token].sellRateImbalanceStepFunction.y[param];\r\n\r\n        revert();\r\n    }\r\n    /* solhint-enable code-complexity */\r\n\r\n    function getRateUpdateBlock(ERC20 token) public view returns(uint) {\r\n        bytes32 compactData = tokenRatesCompactData[tokenData[token].compactDataArrayIndex];\r\n        return getLast4Bytes(compactData);\r\n    }\r\n\r\n    function getListedTokens() public view returns(ERC20[]) {\r\n        return listedTokens;\r\n    }\r\n\r\n    function getTokenQty(ERC20 token, uint ethQty, uint rate) internal view returns(uint) {\r\n        uint dstDecimals = getDecimals(token);\r\n        uint srcDecimals = ETH_DECIMALS;\r\n\r\n        return calcDstQty(ethQty, srcDecimals, dstDecimals, rate);\r\n    }\r\n\r\n    function getLast4Bytes(bytes32 b) internal pure returns(uint) {\r\n        // cannot trust compiler with not turning bit operations into EXP opcode\r\n        return uint(b) / (BYTES_14_OFFSET * BYTES_14_OFFSET);\r\n    }\r\n\r\n    function getRateByteFromCompactData(bytes32 data, ERC20 token, bool buy) internal view returns(int8) {\r\n        uint fieldOffset = tokenData[token].compactDataFieldIndex;\r\n        uint byteOffset;\r\n        if (buy)\r\n            byteOffset = 32 - NUM_TOKENS_IN_COMPACT_DATA + fieldOffset;\r\n        else\r\n            byteOffset = 4 + fieldOffset;\r\n\r\n        return int8(data[byteOffset]);\r\n    }\r\n\r\n    function executeStepFunction(StepFunction f, int x) internal pure returns(int) {\r\n        uint len = f.y.length;\r\n        for (uint ind = 0; ind < len; ind++) {\r\n            if (x <= f.x[ind]) return f.y[ind];\r\n        }\r\n\r\n        return f.y[len-1];\r\n    }\r\n\r\n    function addBps(uint rate, int bps) internal pure returns(uint) {\r\n        require(rate <= MAX_RATE);\r\n        require(bps >= MIN_BPS_ADJUSTMENT);\r\n        require(bps <= MAX_BPS_ADJUSTMENT);\r\n\r\n        uint maxBps = 100 * 100;\r\n        return (rate * uint(int(maxBps) + bps)) / maxBps;\r\n    }\r\n\r\n    function abs(int x) internal pure returns(uint) {\r\n        if (x < 0)\r\n            return uint(-1 * x);\r\n        else\r\n            return uint(x);\r\n    }\r\n}\r\n",
  "sourcePath": "C:/Users/Naina/source/repos/SecurityTokenDemo_SC/contracts/ConversionRates.sol",
  "compiler": {
    "name": "solc",
    "version": "0.4.25+commit.59dbf8f1.Emscripten.clang"
  },
  "schemaVersion": "3.0.0",
  "updatedAt": "2019-01-06T13:43:18.296Z",
  "devdoc": {
    "methods": {
      "claimAdmin()": {
        "details": "Allows the pendingAdmin address to finalize the change admin process.\r"
      },
      "transferAdmin(address)": {
        "details": "Allows the current admin to set the pendingAdmin address.\r",
        "params": {
          "newAdmin": "The address to transfer ownership to.\r"
        }
      },
      "transferAdminQuickly(address)": {
        "details": "Allows the current admin to set the admin in one tx. Useful initial deployment.\r",
        "params": {
          "newAdmin": "The address to transfer ownership to.\r"
        }
      },
      "withdrawEther(uint256,address)": {
        "details": "Withdraw Ethers\r"
      },
      "withdrawToken(address,uint256,address)": {
        "details": "Withdraw all ERC20 compatible tokens\r",
        "params": {
          "token": "ERC20 The address of the token contract\r"
        }
      }
    }
  },
  "userdoc": {
    "methods": {}
  }
}