{
  "contractName": "KyberAutomatedReserve",
  "abi": [
    {
      "constant": false,
      "inputs": [
        {
          "name": "alerter",
          "type": "address"
        }
      ],
      "name": "removeAlerter",
      "outputs": [],
      "payable": false,
      "stateMutability": "nonpayable",
      "type": "function"
    },
    {
      "constant": true,
      "inputs": [],
      "name": "pendingAdmin",
      "outputs": [
        {
          "name": "",
          "type": "address"
        }
      ],
      "payable": false,
      "stateMutability": "view",
      "type": "function"
    },
    {
      "constant": true,
      "inputs": [],
      "name": "getOperators",
      "outputs": [
        {
          "name": "",
          "type": "address[]"
        }
      ],
      "payable": false,
      "stateMutability": "view",
      "type": "function"
    },
    {
      "constant": false,
      "inputs": [
        {
          "name": "token",
          "type": "address"
        },
        {
          "name": "amount",
          "type": "uint256"
        },
        {
          "name": "sendTo",
          "type": "address"
        }
      ],
      "name": "withdrawToken",
      "outputs": [],
      "payable": false,
      "stateMutability": "nonpayable",
      "type": "function"
    },
    {
      "constant": false,
      "inputs": [
        {
          "name": "newAlerter",
          "type": "address"
        }
      ],
      "name": "addAlerter",
      "outputs": [],
      "payable": false,
      "stateMutability": "nonpayable",
      "type": "function"
    },
    {
      "constant": true,
      "inputs": [],
      "name": "sanityRatesContract",
      "outputs": [
        {
          "name": "",
          "type": "address"
        }
      ],
      "payable": false,
      "stateMutability": "view",
      "type": "function"
    },
    {
      "constant": false,
      "inputs": [
        {
          "name": "newAdmin",
          "type": "address"
        }
      ],
      "name": "transferAdmin",
      "outputs": [],
      "payable": false,
      "stateMutability": "nonpayable",
      "type": "function"
    },
    {
      "constant": false,
      "inputs": [],
      "name": "claimAdmin",
      "outputs": [],
      "payable": false,
      "stateMutability": "nonpayable",
      "type": "function"
    },
    {
      "constant": false,
      "inputs": [
        {
          "name": "newAdmin",
          "type": "address"
        }
      ],
      "name": "transferAdminQuickly",
      "outputs": [],
      "payable": false,
      "stateMutability": "nonpayable",
      "type": "function"
    },
    {
      "constant": true,
      "inputs": [],
      "name": "getAlerters",
      "outputs": [
        {
          "name": "",
          "type": "address[]"
        }
      ],
      "payable": false,
      "stateMutability": "view",
      "type": "function"
    },
    {
      "constant": false,
      "inputs": [
        {
          "name": "newOperator",
          "type": "address"
        }
      ],
      "name": "addOperator",
      "outputs": [],
      "payable": false,
      "stateMutability": "nonpayable",
      "type": "function"
    },
    {
      "constant": true,
      "inputs": [
        {
          "name": "",
          "type": "address"
        }
      ],
      "name": "tokenWallet",
      "outputs": [
        {
          "name": "",
          "type": "address"
        }
      ],
      "payable": false,
      "stateMutability": "view",
      "type": "function"
    },
    {
      "constant": false,
      "inputs": [
        {
          "name": "operator",
          "type": "address"
        }
      ],
      "name": "removeOperator",
      "outputs": [],
      "payable": false,
      "stateMutability": "nonpayable",
      "type": "function"
    },
    {
      "constant": true,
      "inputs": [],
      "name": "kyberNetwork",
      "outputs": [
        {
          "name": "",
          "type": "address"
        }
      ],
      "payable": false,
      "stateMutability": "view",
      "type": "function"
    },
    {
      "constant": false,
      "inputs": [
        {
          "name": "amount",
          "type": "uint256"
        },
        {
          "name": "sendTo",
          "type": "address"
        }
      ],
      "name": "withdrawEther",
      "outputs": [],
      "payable": false,
      "stateMutability": "nonpayable",
      "type": "function"
    },
    {
      "constant": true,
      "inputs": [],
      "name": "conversionRatesContract",
      "outputs": [
        {
          "name": "",
          "type": "address"
        }
      ],
      "payable": false,
      "stateMutability": "view",
      "type": "function"
    },
    {
      "constant": true,
      "inputs": [],
      "name": "tradeEnabled",
      "outputs": [
        {
          "name": "",
          "type": "bool"
        }
      ],
      "payable": false,
      "stateMutability": "view",
      "type": "function"
    },
    {
      "constant": true,
      "inputs": [
        {
          "name": "",
          "type": "bytes32"
        }
      ],
      "name": "approvedWithdrawAddresses",
      "outputs": [
        {
          "name": "",
          "type": "bool"
        }
      ],
      "payable": false,
      "stateMutability": "view",
      "type": "function"
    },
    {
      "constant": true,
      "inputs": [],
      "name": "admin",
      "outputs": [
        {
          "name": "",
          "type": "address"
        }
      ],
      "payable": false,
      "stateMutability": "view",
      "type": "function"
    },
    {
      "inputs": [
        {
          "name": "_kyberNetwork",
          "type": "address"
        },
        {
          "name": "_ratesContract",
          "type": "address"
        },
        {
          "name": "_admin",
          "type": "address"
        }
      ],
      "payable": false,
      "stateMutability": "nonpayable",
      "type": "constructor"
    },
    {
      "payable": true,
      "stateMutability": "payable",
      "type": "fallback"
    },
    {
      "anonymous": false,
      "inputs": [
        {
          "indexed": false,
          "name": "token",
          "type": "address"
        },
        {
          "indexed": false,
          "name": "amount",
          "type": "uint256"
        }
      ],
      "name": "DepositToken",
      "type": "event"
    },
    {
      "anonymous": false,
      "inputs": [
        {
          "indexed": true,
          "name": "origin",
          "type": "address"
        },
        {
          "indexed": false,
          "name": "src",
          "type": "address"
        },
        {
          "indexed": false,
          "name": "srcAmount",
          "type": "uint256"
        },
        {
          "indexed": false,
          "name": "destToken",
          "type": "address"
        },
        {
          "indexed": false,
          "name": "destAmount",
          "type": "uint256"
        },
        {
          "indexed": false,
          "name": "destAddress",
          "type": "address"
        }
      ],
      "name": "TradeExecute",
      "type": "event"
    },
    {
      "anonymous": false,
      "inputs": [
        {
          "indexed": false,
          "name": "enable",
          "type": "bool"
        }
      ],
      "name": "TradeEnabled",
      "type": "event"
    },
    {
      "anonymous": false,
      "inputs": [
        {
          "indexed": false,
          "name": "token",
          "type": "address"
        },
        {
          "indexed": false,
          "name": "addr",
          "type": "address"
        },
        {
          "indexed": false,
          "name": "approve",
          "type": "bool"
        }
      ],
      "name": "WithdrawAddressApproved",
      "type": "event"
    },
    {
      "anonymous": false,
      "inputs": [
        {
          "indexed": false,
          "name": "token",
          "type": "address"
        },
        {
          "indexed": false,
          "name": "wallet",
          "type": "address"
        }
      ],
      "name": "NewTokenWallet",
      "type": "event"
    },
    {
      "anonymous": false,
      "inputs": [
        {
          "indexed": false,
          "name": "token",
          "type": "address"
        },
        {
          "indexed": false,
          "name": "amount",
          "type": "uint256"
        },
        {
          "indexed": false,
          "name": "destination",
          "type": "address"
        }
      ],
      "name": "WithdrawFunds",
      "type": "event"
    },
    {
      "anonymous": false,
      "inputs": [
        {
          "indexed": false,
          "name": "network",
          "type": "address"
        },
        {
          "indexed": false,
          "name": "rate",
          "type": "address"
        },
        {
          "indexed": false,
          "name": "sanity",
          "type": "address"
        }
      ],
      "name": "SetContractAddresses",
      "type": "event"
    },
    {
      "anonymous": false,
      "inputs": [
        {
          "indexed": false,
          "name": "token",
          "type": "address"
        },
        {
          "indexed": false,
          "name": "amount",
          "type": "uint256"
        },
        {
          "indexed": false,
          "name": "sendTo",
          "type": "address"
        }
      ],
      "name": "TokenWithdraw",
      "type": "event"
    },
    {
      "anonymous": false,
      "inputs": [
        {
          "indexed": false,
          "name": "amount",
          "type": "uint256"
        },
        {
          "indexed": false,
          "name": "sendTo",
          "type": "address"
        }
      ],
      "name": "EtherWithdraw",
      "type": "event"
    },
    {
      "anonymous": false,
      "inputs": [
        {
          "indexed": false,
          "name": "pendingAdmin",
          "type": "address"
        }
      ],
      "name": "TransferAdminPending",
      "type": "event"
    },
    {
      "anonymous": false,
      "inputs": [
        {
          "indexed": false,
          "name": "newAdmin",
          "type": "address"
        },
        {
          "indexed": false,
          "name": "previousAdmin",
          "type": "address"
        }
      ],
      "name": "AdminClaimed",
      "type": "event"
    },
    {
      "anonymous": false,
      "inputs": [
        {
          "indexed": false,
          "name": "newAlerter",
          "type": "address"
        },
        {
          "indexed": false,
          "name": "isAdd",
          "type": "bool"
        }
      ],
      "name": "AlerterAdded",
      "type": "event"
    },
    {
      "anonymous": false,
      "inputs": [
        {
          "indexed": false,
          "name": "newOperator",
          "type": "address"
        },
        {
          "indexed": false,
          "name": "isAdd",
          "type": "bool"
        }
      ],
      "name": "OperatorAdded",
      "type": "event"
    },
    {
      "constant": false,
      "inputs": [
        {
          "name": "srcToken",
          "type": "address"
        },
        {
          "name": "srcAmount",
          "type": "uint256"
        },
        {
          "name": "destToken",
          "type": "address"
        },
        {
          "name": "destAddress",
          "type": "address"
        },
        {
          "name": "conversionRate",
          "type": "uint256"
        },
        {
          "name": "validate",
          "type": "bool"
        }
      ],
      "name": "trade",
      "outputs": [
        {
          "name": "",
          "type": "bool"
        }
      ],
      "payable": true,
      "stateMutability": "payable",
      "type": "function"
    },
    {
      "constant": false,
      "inputs": [],
      "name": "enableTrade",
      "outputs": [
        {
          "name": "",
          "type": "bool"
        }
      ],
      "payable": false,
      "stateMutability": "nonpayable",
      "type": "function"
    },
    {
      "constant": false,
      "inputs": [],
      "name": "disableTrade",
      "outputs": [
        {
          "name": "",
          "type": "bool"
        }
      ],
      "payable": false,
      "stateMutability": "nonpayable",
      "type": "function"
    },
    {
      "constant": false,
      "inputs": [
        {
          "name": "token",
          "type": "address"
        },
        {
          "name": "addr",
          "type": "address"
        },
        {
          "name": "approve",
          "type": "bool"
        }
      ],
      "name": "approveWithdrawAddress",
      "outputs": [],
      "payable": false,
      "stateMutability": "nonpayable",
      "type": "function"
    },
    {
      "constant": false,
      "inputs": [
        {
          "name": "token",
          "type": "address"
        },
        {
          "name": "wallet",
          "type": "address"
        }
      ],
      "name": "setTokenWallet",
      "outputs": [],
      "payable": false,
      "stateMutability": "nonpayable",
      "type": "function"
    },
    {
      "constant": false,
      "inputs": [
        {
          "name": "token",
          "type": "address"
        },
        {
          "name": "amount",
          "type": "uint256"
        },
        {
          "name": "destination",
          "type": "address"
        }
      ],
      "name": "withdraw",
      "outputs": [
        {
          "name": "",
          "type": "bool"
        }
      ],
      "payable": false,
      "stateMutability": "nonpayable",
      "type": "function"
    },
    {
      "constant": false,
      "inputs": [
        {
          "name": "_kyberNetwork",
          "type": "address"
        },
        {
          "name": "_conversionRates",
          "type": "address"
        },
        {
          "name": "_sanityRates",
          "type": "address"
        }
      ],
      "name": "setContracts",
      "outputs": [],
      "payable": false,
      "stateMutability": "nonpayable",
      "type": "function"
    },
    {
      "constant": true,
      "inputs": [
        {
          "name": "token",
          "type": "address"
        }
      ],
      "name": "getBalance",
      "outputs": [
        {
          "name": "",
          "type": "uint256"
        }
      ],
      "payable": false,
      "stateMutability": "view",
      "type": "function"
    },
    {
      "constant": true,
      "inputs": [
        {
          "name": "src",
          "type": "address"
        },
        {
          "name": "dest",
          "type": "address"
        },
        {
          "name": "srcQty",
          "type": "uint256"
        },
        {
          "name": "rate",
          "type": "uint256"
        }
      ],
      "name": "getDestQty",
      "outputs": [
        {
          "name": "",
          "type": "uint256"
        }
      ],
      "payable": false,
      "stateMutability": "view",
      "type": "function"
    },
    {
      "constant": true,
      "inputs": [
        {
          "name": "src",
          "type": "address"
        },
        {
          "name": "dest",
          "type": "address"
        },
        {
          "name": "dstQty",
          "type": "uint256"
        },
        {
          "name": "rate",
          "type": "uint256"
        }
      ],
      "name": "getSrcQty",
      "outputs": [
        {
          "name": "",
          "type": "uint256"
        }
      ],
      "payable": false,
      "stateMutability": "view",
      "type": "function"
    },
    {
      "constant": true,
      "inputs": [
        {
          "name": "src",
          "type": "address"
        },
        {
          "name": "dest",
          "type": "address"
        },
        {
          "name": "srcQty",
          "type": "uint256"
        },
        {
          "name": "blockNumber",
          "type": "uint256"
        }
      ],
      "name": "getConversionRate",
      "outputs": [
        {
          "name": "",
          "type": "uint256"
        }
      ],
      "payable": false,
      "stateMutability": "view",
      "type": "function"
    }
  ],
  "bytecode": "0x608060405234801561001057600080fd5b506040516060806123d483398101604090815281516020830151919092015160008054600160a060020a03191633179055600160a060020a038116151561005657600080fd5b600160a060020a038216151561006b57600080fd5b600160a060020a038316151561008057600080fd5b6007805460088054600160a060020a03958616600160a060020a031991821617909155600080549486169482169490941790935560a060020a60ff021993909416919093161716740100000000000000000000000000000000000000001790556122e5806100ef6000396000f3006080604052600436106101655763ffffffff60e060020a60003504166299d38681146101af57806301a12fd3146101d85780631bc7bfec146101fb578063267822471461022257806327a099d8146102535780633ccdbb28146102b8578063408ee7fe146102e357806347e6924f14610304578063546dc71c1461031957806369328dec146103455780636940030f146103705780636cf698111461038557806375829def146103b157806377f50f97146103d25780637acc8678146103e75780637c423f54146104085780637cd442721461041d5780639870d7fe1461045c578063a7fca9531461047d578063a80cbac6146104aa578063ac8a584a146104cb578063b3066d49146104ec578063b78b842d14610519578063ce56c4541461052e578063d5847d3314610552578063d621e81314610567578063d7b7024d1461057c578063f851a44014610594578063f8b2cb4f146105a9578063fa64dffa146105ca575b6040805160008051602061229a833981519152815234602082015281517f2d0c0a8842b9944ece1495eb61121621b5e36bd6af3bba0318c695f525aef79f929181900390910190a1005b3480156101bb57600080fd5b506101c46105f7565b604080519115158252519081900360200190f35b3480156101e457600080fd5b506101f9600160a060020a036004351661067f565b005b34801561020757600080fd5b506101f9600160a060020a03600435811690602435166107e8565b34801561022e57600080fd5b50610237610881565b60408051600160a060020a039092168252519081900360200190f35b34801561025f57600080fd5b50610268610890565b60408051602080825283518183015283519192839290830191858101910280838360005b838110156102a457818101518382015260200161028c565b505050509050019250505060405180910390f35b3480156102c457600080fd5b506101f9600160a060020a0360043581169060243590604435166108f2565b3480156102ef57600080fd5b506101f9600160a060020a03600435166109f2565b34801561031057600080fd5b50610237610ae8565b34801561032557600080fd5b506101f9600160a060020a03600435811690602435166044351515610af7565b34801561035157600080fd5b506101c4600160a060020a036004358116906024359060443516610d73565b34801561037c57600080fd5b506101c4610fdf565b6101c4600160a060020a03600435811690602435906044358116906064351660843560a4351515611055565b3480156103bd57600080fd5b506101f9600160a060020a03600435166110be565b3480156103de57600080fd5b506101f961114b565b3480156103f357600080fd5b506101f9600160a060020a03600435166111d5565b34801561041457600080fd5b506102686112a7565b34801561042957600080fd5b5061044a600160a060020a0360043581169060243516604435606435611307565b60408051918252519081900360200190f35b34801561046857600080fd5b506101f9600160a060020a0360043516611532565b34801561048957600080fd5b5061044a600160a060020a03600435811690602435166044356064356116ec565b3480156104b657600080fd5b50610237600160a060020a036004351661171e565b3480156104d757600080fd5b506101f9600160a060020a0360043516611739565b3480156104f857600080fd5b506101f9600160a060020a036004358116906024358116906044351661189e565b34801561052557600080fd5b50610237611966565b34801561053a57600080fd5b506101f9600435600160a060020a0360243516611975565b34801561055e57600080fd5b50610237611a0a565b34801561057357600080fd5b506101c4611a19565b34801561058857600080fd5b506101c4600435611a3a565b3480156105a057600080fd5b50610237611a4f565b3480156105b557600080fd5b5061044a600160a060020a0360043516611a5e565b3480156105d657600080fd5b5061044a600160a060020a0360043581169060243516604435606435611be3565b60008054600160a060020a0316331461060f57600080fd5b6007805474ff0000000000000000000000000000000000000000191674010000000000000000000000000000000000000000179055604080516001815290517f7d7f00509dd73ac4449f698ae75ccc797895eff5fa9d446d3df387598a26e7359181900360200190a15060015b90565b60008054600160a060020a0316331461069757600080fd5b600160a060020a03821660009081526003602052604090205460ff1615156106be57600080fd5b50600160a060020a0381166000908152600360205260408120805460ff191690555b6005548110156107e45781600160a060020a031660058281548110151561070357fe5b600091825260209091200154600160a060020a031614156107dc5760058054600019810190811061073057fe5b60009182526020909120015460058054600160a060020a03909216918390811061075657fe5b60009182526020909120018054600160a060020a031916600160a060020a0392909216919091179055600580549061079290600019830161225c565b5060408051600160a060020a03841681526000602082015281517f5611bf3e417d124f97bf2c788843ea8bb502b66079fbee02158ef30b172cb762929181900390910190a16107e4565b6001016106e0565b5050565b600054600160a060020a031633146107ff57600080fd5b600160a060020a038116151561081457600080fd5b600160a060020a038281166000818152600b60209081526040918290208054600160a060020a0319169486169485179055815192835282019290925281517f81995c7b922889ac0a81e41866106d4046268ea3a9abaae9f9e080a6ce36ee7d929181900390910190a15050565b600154600160a060020a031681565b606060048054806020026020016040519081016040528092919081815260200182805480156108e857602002820191906000526020600020905b8154600160a060020a031681526001909101906020018083116108ca575b5050505050905090565b600054600160a060020a0316331461090957600080fd5b82600160a060020a031663a9059cbb82846040518363ffffffff1660e060020a0281526004018083600160a060020a0316600160a060020a0316815260200182815260200192505050602060405180830381600087803b15801561096c57600080fd5b505af1158015610980573d6000803e3d6000fd5b505050506040513d602081101561099657600080fd5b505115156109a357600080fd5b60408051600160a060020a0380861682526020820185905283168183015290517f72cb8a894ddb372ceec3d2a7648d86f17d5a15caae0e986c53109b8a9a9385e69181900360600190a1505050565b600054600160a060020a03163314610a0957600080fd5b600160a060020a03811660009081526003602052604090205460ff1615610a2f57600080fd5b600554603211610a3e57600080fd5b60408051600160a060020a03831681526001602082015281517f5611bf3e417d124f97bf2c788843ea8bb502b66079fbee02158ef30b172cb762929181900390910190a1600160a060020a03166000818152600360205260408120805460ff191660019081179091556005805491820181559091527f036b6384b5eca791c62761152d0c79bb0604c104a5fb6f4eb0703f3154bb3db0018054600160a060020a0319169091179055565b600954600160a060020a031681565b600054600160a060020a03163314610b0e57600080fd5b80600a600085856040516020018083600160a060020a0316600160a060020a03166c0100000000000000000000000002815260140182600160a060020a0316600160a060020a03166c01000000000000000000000000028152601401925050506040516020818303038152906040526040518082805190602001908083835b60208310610bac5780518252601f199092019160209182019101610b8d565b51815160209384036101000a6000190180199092169116179052604080519290940182900390912086528581019690965250928301600020805460ff191695151595909517909455508051600160a060020a03878116825286169281019290925283151582820152517fd5fd5351efae1f4bb760079da9f0ff9589e2c3e216337ca9d39cdff573b245c492506060918190039190910190a1610c4d83611c0a565b600160a060020a038381166000908152600b602052604090205416158015610c8c5750600160a060020a03831660008051602061229a83398151915214155b15610d6e57600160a060020a0383166000818152600b602090815260408083208054600160a060020a0319163090811790915581517f095ea7b300000000000000000000000000000000000000000000000000000000815260048101919091527f80000000000000000000000000000000000000000000000000000000000000006024820152905163095ea7b393604480840194938390030190829087803b158015610d3757600080fd5b505af1158015610d4b573d6000803e3d6000fd5b505050506040513d6020811015610d6157600080fd5b50511515610d6e57600080fd5b505050565b3360009081526002602052604081205460ff161515610d9157600080fd5b600a600085846040516020018083600160a060020a0316600160a060020a03166c0100000000000000000000000002815260140182600160a060020a0316600160a060020a03166c01000000000000000000000000028152601401925050506040516020818303038152906040526040518082805190602001908083835b60208310610e2e5780518252601f199092019160209182019101610e0f565b51815160209384036101000a600019018019909216911617905260408051929094018290039091208652850195909552929092016000205460ff1615159250610e7991505057600080fd5b600160a060020a03841660008051602061229a8339815191521415610ed457604051600160a060020a0383169084156108fc029085906000818181858888f19350505050158015610ece573d6000803e3d6000fd5b50610f8b565b600160a060020a038085166000818152600b602090815260408083205481517f23b872dd00000000000000000000000000000000000000000000000000000000815290861660048201529487166024860152604485018890525192936323b872dd9360648083019491928390030190829087803b158015610f5457600080fd5b505af1158015610f68573d6000803e3d6000fd5b505050506040513d6020811015610f7e57600080fd5b50511515610f8b57600080fd5b60408051600160a060020a0380871682526020820186905284168183015290517fb67719fc33c1f17d31bf3a698690d62066b1e0bae28fcd3c56cf2c015c2863d69181900360600190a15060019392505050565b3360009081526003602052604081205460ff161515610ffd57600080fd5b6007805474ff000000000000000000000000000000000000000019169055604080516000815290517f7d7f00509dd73ac4449f698ae75ccc797895eff5fa9d446d3df387598a26e7359181900360200190a150600190565b60075460009074010000000000000000000000000000000000000000900460ff16151561108157600080fd5b600754600160a060020a0316331461109857600080fd5b6110a6878787878787611cd1565b15156110b157600080fd5b5060019695505050505050565b600054600160a060020a031633146110d557600080fd5b600160a060020a03811615156110ea57600080fd5b60015460408051600160a060020a039092168252517f3b81caf78fa51ecbc8acb482fd7012a277b428d9b80f9d156e8a54107496cc409181900360200190a160018054600160a060020a031916600160a060020a0392909216919091179055565b600154600160a060020a0316331461116257600080fd5b60015460005460408051600160a060020a03938416815292909116602083015280517f65da1cfc2c2e81576ad96afb24a581f8e109b7a403b35cbd3243a1c99efdb9ed9281900390910190a16001805460008054600160a060020a0319908116600160a060020a03841617909155169055565b600054600160a060020a031633146111ec57600080fd5b600160a060020a038116151561120157600080fd5b60408051600160a060020a038316815290517f3b81caf78fa51ecbc8acb482fd7012a277b428d9b80f9d156e8a54107496cc409181900360200190a160005460408051600160a060020a038085168252909216602083015280517f65da1cfc2c2e81576ad96afb24a581f8e109b7a403b35cbd3243a1c99efdb9ed9281900390910190a160008054600160a060020a031916600160a060020a0392909216919091179055565b606060058054806020026020016040519081016040528092919081815260200182805480156108e857602002820191906000526020600020908154600160a060020a031681526001909101906020018083116108ca575050505050905090565b600080600080600080600760149054906101000a900460ff16151561132f5760009550611525565b60008051602061229a833981519152600160a060020a038b16141561135a576001935088945061138e565b60008051602061229a833981519152600160a060020a038a161415611385576000935089945061138e565b60009550611525565b600854604080517fb8e9c22e000000000000000000000000000000000000000000000000000000008152600160a060020a038881166004830152602482018b90528715156044830152606482018c90529151919092169163b8e9c22e9160848083019260209291908290030181600087803b15801561140c57600080fd5b505af1158015611420573d6000803e3d6000fd5b505050506040513d602081101561143657600080fd5b505192506114468a8a8a86611be3565b9150816114528a611a5e565b10156114615760009550611525565b600954600160a060020a03161561152157600954604080517fa58092b7000000000000000000000000000000000000000000000000000000008152600160a060020a038d811660048301528c811660248301529151919092169163a58092b79160448083019260209291908290030181600087803b1580156114e257600080fd5b505af11580156114f6573d6000803e3d6000fd5b505050506040513d602081101561150c57600080fd5b50519050808311156115215760009550611525565b8295505b5050505050949350505050565b600054600160a060020a0316331461154957600080fd5b600160a060020a03811660009081526002602052604090205460ff16156115d157604080517f08c379a000000000000000000000000000000000000000000000000000000000815260206004820152601360248201527f416c726561647920616e206f70657261746f7200000000000000000000000000604482015290519081900360640190fd5b60045460321161164257604080517f08c379a000000000000000000000000000000000000000000000000000000000815260206004820152601060248201527f4d61782053697a65207265616368656400000000000000000000000000000000604482015290519081900360640190fd5b60408051600160a060020a03831681526001602082015281517f091a7a4b85135fdd7e8dbc18b12fabe5cc191ea867aa3c2e1a24a102af61d58b929181900390910190a1600160a060020a03166000818152600260205260408120805460ff191660019081179091556004805491820181559091527f8a35acfbc15ff81a39ae7d344fd709f28e8600b4aa8c65c6b64bfe7fe36bd19b018054600160a060020a0319169091179055565b60008060006116fa86612055565b915061170587612055565b90506117138582848761211c565b979650505050505050565b600b60205260009081526040902054600160a060020a031681565b60008054600160a060020a0316331461175157600080fd5b600160a060020a03821660009081526002602052604090205460ff16151561177857600080fd5b50600160a060020a0381166000908152600260205260408120805460ff191690555b6004548110156107e45781600160a060020a03166004828154811015156117bd57fe5b600091825260209091200154600160a060020a03161415611896576004805460001981019081106117ea57fe5b60009182526020909120015460048054600160a060020a03909216918390811061181057fe5b60009182526020909120018054600160a060020a031916600160a060020a039290921691909117905560048054600019019061184c908261225c565b5060408051600160a060020a03841681526000602082015281517f091a7a4b85135fdd7e8dbc18b12fabe5cc191ea867aa3c2e1a24a102af61d58b929181900390910190a16107e4565b60010161179a565b600054600160a060020a031633146118b557600080fd5b600160a060020a03831615156118ca57600080fd5b600160a060020a03821615156118df57600080fd5b60078054600160a060020a03808616600160a060020a0319928316179283905560088054868316908416179081905560098054868416941693909317928390556040805194831685529082166020850152911682820152517f7a85322644a4462d8ff5482d2a841a4d231f8cfb3c9f4a50f66f8b2bd568c31c9181900360600190a1505050565b600754600160a060020a031681565b600054600160a060020a0316331461198c57600080fd5b604051600160a060020a0382169083156108fc029084906000818181858888f193505050501580156119c2573d6000803e3d6000fd5b5060408051838152600160a060020a038316602082015281517fec47e7ed86c86774d1a72c19f35c639911393fe7c1a34031fdbd260890da90de929181900390910190a15050565b600854600160a060020a031681565b60075474010000000000000000000000000000000000000000900460ff1681565b600a6020526000908152604090205460ff1681565b600054600160a060020a031681565b6000808080600160a060020a03851660008051602061229a8339815191521415611a8b5730319350611bdb565b600160a060020a038086166000818152600b602090815260408083205481517f70a08231000000000000000000000000000000000000000000000000000000008152951660048601819052905190975092936370a082319360248083019491928390030190829087803b158015611b0157600080fd5b505af1158015611b15573d6000803e3d6000fd5b505050506040513d6020811015611b2b57600080fd5b5051604080517fdd62ed3e000000000000000000000000000000000000000000000000000000008152600160a060020a03868116600483015230602483015291519294509087169163dd62ed3e916044808201926020929091908290030181600087803b158015611b9b57600080fd5b505af1158015611baf573d6000803e3d6000fd5b505050506040513d6020811015611bc557600080fd5b50519050808210611bd65780611bd8565b815b93505b505050919050565b6000806000611bf186612055565b9150611bfc87612055565b9050611713858284876121c3565b600160a060020a03811660008051602061229a8339815191521415611c4a57600160a060020a038116600090815260066020526040902060129055611cce565b80600160a060020a031663313ce5676040518163ffffffff1660e060020a028152600401602060405180830381600087803b158015611c8857600080fd5b505af1158015611c9c573d6000803e3d6000fd5b505050506040513d6020811015611cb257600080fd5b5051600160a060020a0382166000908152600660205260409020555b50565b6000806000808415611d255760008611611cea57600080fd5b600160a060020a038a1660008051602061229a8339815191521415611d1a57348914611d1557600080fd5b611d25565b3415611d2557600080fd5b611d318a898b89611be3565b925060008311611d4057600080fd5b600160a060020a038a1660008051602061229a8339815191521415611d69575086905081611d74565b886000190290508991505b600854604080517fc6fd2103000000000000000000000000000000000000000000000000000000008152600160a060020a03858116600483015260248201859052600060448301819052436064840152925193169263c6fd21039260848084019391929182900301818387803b158015611ded57600080fd5b505af1158015611e01573d6000803e3d6000fd5b50505050600160a060020a038a1660008051602061229a83398151915214611ed757600160a060020a03808b166000818152600b602090815260408083205481517f23b872dd00000000000000000000000000000000000000000000000000000000815233600482015295166024860152604485018e90525192936323b872dd9360648083019491928390030190829087803b158015611ea057600080fd5b505af1158015611eb4573d6000803e3d6000fd5b505050506040513d6020811015611eca57600080fd5b50511515611ed757600080fd5b600160a060020a03881660008051602061229a8339815191521415611f3257604051600160a060020a0388169084156108fc029085906000818181858888f19350505050158015611f2c573d6000803e3d6000fd5b50611fe9565b600160a060020a038089166000818152600b602090815260408083205481517f23b872dd0000000000000000000000000000000000000000000000000000000081529086166004820152948c166024860152604485018890525192936323b872dd9360648083019491928390030190829087803b158015611fb257600080fd5b505af1158015611fc6573d6000803e3d6000fd5b505050506040513d6020811015611fdc57600080fd5b50511515611fe957600080fd5b60408051600160a060020a038c81168252602082018c90528a8116828401526060820186905289166080820152905133917fea9415385bae08fe9f6dc457b02577166790cde83bb18cc340aac6cb81b824de919081900360a00190a25060019998505050505050505050565b600080600160a060020a03831660008051602061229a83398151915214156120805760129150612116565b50600160a060020a0382166000908152600660205260409020548015156121125782600160a060020a031663313ce5676040518163ffffffff1660e060020a028152600401602060405180830381600087803b1580156120df57600080fd5b505af11580156120f3573d6000803e3d6000fd5b505050506040513d602081101561210957600080fd5b50519150612116565b8091505b50919050565b600080806b204fce5e3e2502611000000087111561213957600080fd5b69d3c21bcecceda100000084111561215057600080fd5b848610612181576012858703111561216757600080fd5b5050828403600a0a8502670de0b6b3a764000002826121a7565b6012868603111561219157600080fd5b5050670de0b6b3a76400008502848403600a0a83025b806001828401038115156121b757fe5b04979650505050505050565b60006b204fce5e3e250261100000008511156121de57600080fd5b69d3c21bcecceda10000008211156121f557600080fd5b838310612228576012848403111561220c57600080fd5b670de0b6b3a7640000858302858503600a0a025b049050612254565b6012838503111561223857600080fd5b828403600a0a670de0b6b3a76400000282860281151561222057fe5b949350505050565b815481835581811115610d6e57600083815260209020610d6e91810190830161067c91905b808211156122955760008155600101612281565b50905600000000000000000000000000eeeeeeeeeeeeeeeeeeeeeeeeeeeeeeeeeeeeeeeea165627a7a72305820a98772489023fe04af95a6250763951150de2309b0518f98b9c3dff78f892d520029",
  "source": "pragma solidity ^0.4.25;\r\n\r\n\r\nimport \"./ERC20Interface.sol\";\r\nimport \"./Utils.sol\";\r\nimport \"./Withdrawable.sol\";\r\nimport \"./ConversionRatesInterface.sol\";\r\nimport \"./SanityRatesInterface.sol\";\r\nimport \"./KyberReserveInterface.sol\";\r\n\r\n\r\n/// @title Kyber Reserve contract\r\ncontract KyberAutomatedReserve is KyberReserveInterface, Withdrawable, Utils {\r\n\r\n    address public kyberNetwork;\r\n    bool public tradeEnabled;\r\n    ConversionRatesInterface public conversionRatesContract;\r\n    SanityRatesInterface public sanityRatesContract;\r\n    mapping(bytes32=>bool) public approvedWithdrawAddresses; // sha3(token,address)=>bool\r\n    mapping(address=>address) public tokenWallet;\r\n\r\n    constructor(address _kyberNetwork, ConversionRatesInterface _ratesContract, address _admin) public {\r\n        require(_admin != address(0));\r\n        require(_ratesContract != address(0));\r\n        require(_kyberNetwork != address(0));\r\n        kyberNetwork = _kyberNetwork;\r\n        conversionRatesContract = _ratesContract;\r\n        admin = _admin;\r\n        tradeEnabled = true;\r\n    }\r\n\r\n    event DepositToken(ERC20 token, uint amount);\r\n\r\n    function() public payable {\r\n        emit DepositToken(ETH_TOKEN_ADDRESS, msg.value);\r\n    }\r\n\r\n    event TradeExecute(\r\n        address indexed origin,\r\n        address src,\r\n        uint srcAmount,\r\n        address destToken,\r\n        uint destAmount,\r\n        address destAddress\r\n    );\r\n\r\n    function trade(\r\n        ERC20 srcToken,\r\n        uint srcAmount,\r\n        ERC20 destToken,\r\n        address destAddress,\r\n        uint conversionRate,\r\n        bool validate\r\n    )\r\n        public\r\n        payable\r\n        returns(bool)\r\n    {\r\n        require(tradeEnabled);\r\n        require(msg.sender == kyberNetwork);\r\n\r\n        require(doTrade(srcToken, srcAmount, destToken, destAddress, conversionRate, validate));\r\n\r\n        return true;\r\n    }\r\n\r\n    event TradeEnabled(bool enable);\r\n\r\n    function enableTrade() public onlyAdmin returns(bool) {\r\n        tradeEnabled = true;\r\n        emit TradeEnabled(true);\r\n\r\n        return true;\r\n    }\r\n\r\n    function disableTrade() public onlyAlerter returns(bool) {\r\n        tradeEnabled = false;\r\n        emit TradeEnabled(false);\r\n\r\n        return true;\r\n    }\r\n\r\n    event WithdrawAddressApproved(ERC20 token, address addr, bool approve);\r\n\r\n    function approveWithdrawAddress(ERC20 token, address addr, bool approve) public onlyAdmin {\r\n        approvedWithdrawAddresses[keccak256(abi.encodePacked(token, addr))] = approve;\r\n        emit WithdrawAddressApproved(token, addr, approve);\r\n\r\n        setDecimals(token);\r\n        if ((tokenWallet[token] == address(0x0)) && (token != ETH_TOKEN_ADDRESS)) {\r\n            tokenWallet[token] = this; // by default\r\n            require(token.approve(this, 2 ** 255));\r\n        }\r\n    }\r\n\r\n    event NewTokenWallet(ERC20 token, address wallet);\r\n\r\n    function setTokenWallet(ERC20 token, address wallet) public onlyAdmin {\r\n        require(wallet != address(0x0));\r\n        tokenWallet[token] = wallet;\r\n        emit NewTokenWallet(token, wallet);\r\n    }\r\n\r\n    event WithdrawFunds(ERC20 token, uint amount, address destination);\r\n\r\n    function withdraw(ERC20 token, uint amount, address destination) public onlyOperator returns(bool) {\r\n        require(approvedWithdrawAddresses[keccak256(abi.encodePacked(token, destination))]);\r\n\r\n        if (token == ETH_TOKEN_ADDRESS) {\r\n            destination.transfer(amount);\r\n        } else {\r\n            require(token.transferFrom(tokenWallet[token], destination, amount));\r\n        }\r\n\r\n        emit WithdrawFunds(token, amount, destination);\r\n\r\n        return true;\r\n    }\r\n\r\n    event SetContractAddresses(address network, address rate, address sanity);\r\n\r\n    function setContracts(\r\n        address _kyberNetwork,\r\n        ConversionRatesInterface _conversionRates,\r\n        SanityRatesInterface _sanityRates\r\n    )\r\n        public\r\n        onlyAdmin\r\n    {\r\n        require(_kyberNetwork != address(0));\r\n        require(_conversionRates != address(0));\r\n\r\n        kyberNetwork = _kyberNetwork;\r\n        conversionRatesContract = _conversionRates;\r\n        sanityRatesContract = _sanityRates;\r\n\r\n        emit SetContractAddresses(kyberNetwork, conversionRatesContract, sanityRatesContract);\r\n    }\r\n\r\n    ////////////////////////////////////////////////////////////////////////////\r\n    /// status functions ///////////////////////////////////////////////////////\r\n    ////////////////////////////////////////////////////////////////////////////\r\n    function getBalance(ERC20 token) public view returns(uint) {\r\n        if (token == ETH_TOKEN_ADDRESS)\r\n            return address(this).balance;\r\n        else {\r\n            address wallet = tokenWallet[token];\r\n            uint balanceOfWallet = token.balanceOf(wallet);\r\n            uint allowanceOfWallet = token.allowance(wallet, this);\r\n\r\n            return (balanceOfWallet < allowanceOfWallet) ? balanceOfWallet : allowanceOfWallet;\r\n        }\r\n    }\r\n\r\n    function getDestQty(ERC20 src, ERC20 dest, uint srcQty, uint rate) public view returns(uint) {\r\n        uint dstDecimals = getDecimals(dest);\r\n        uint srcDecimals = getDecimals(src);\r\n\r\n        return calcDstQty(srcQty, srcDecimals, dstDecimals, rate);\r\n    }\r\n\r\n    function getSrcQty(ERC20 src, ERC20 dest, uint dstQty, uint rate) public view returns(uint) {\r\n        uint dstDecimals = getDecimals(dest);\r\n        uint srcDecimals = getDecimals(src);\r\n\r\n        return calcSrcQty(dstQty, srcDecimals, dstDecimals, rate);\r\n    }\r\n\r\n    function getConversionRate(ERC20 src, ERC20 dest, uint srcQty, uint blockNumber) public view returns(uint) {\r\n        ERC20 token;\r\n        bool  isBuy;\r\n\r\n        if (!tradeEnabled) return 0;\r\n\r\n        if (ETH_TOKEN_ADDRESS == src) {\r\n            isBuy = true;\r\n            token = dest;\r\n        } else if (ETH_TOKEN_ADDRESS == dest) {\r\n            isBuy = false;\r\n            token = src;\r\n        } else {\r\n            return 0; // pair is not listed\r\n        }\r\n\r\n        uint rate = conversionRatesContract.getRate(token, blockNumber, isBuy, srcQty);\r\n        uint destQty = getDestQty(src, dest, srcQty, rate);\r\n\r\n        if (getBalance(dest) < destQty) return 0;\r\n\r\n        if (sanityRatesContract != address(0)) {\r\n            uint sanityRate = sanityRatesContract.getSanityRate(src, dest);\r\n            if (rate > sanityRate) return 0;\r\n        }\r\n\r\n        return rate;\r\n    }\r\n\r\n    /// @dev do a trade\r\n    /// @param srcToken Src token\r\n    /// @param srcAmount Amount of src token\r\n    /// @param destToken Destination token\r\n    /// @param destAddress Destination address to send tokens to\r\n    /// @param validate If true, additional validations are applicable\r\n    /// @return true iff trade is successful\r\n    function doTrade(\r\n        ERC20 srcToken,\r\n        uint srcAmount,\r\n        ERC20 destToken,\r\n        address destAddress,\r\n        uint conversionRate,\r\n        bool validate\r\n    )\r\n        internal\r\n        returns(bool)\r\n    {\r\n        // can skip validation if done at kyber network level\r\n        if (validate) {\r\n            require(conversionRate > 0);\r\n            if (srcToken == ETH_TOKEN_ADDRESS)\r\n                require(msg.value == srcAmount);\r\n            else\r\n                require(msg.value == 0);\r\n        }\r\n\r\n        uint destAmount = getDestQty(srcToken, destToken, srcAmount, conversionRate);\r\n        // sanity check\r\n        require(destAmount > 0);\r\n\r\n        // add to imbalance\r\n        ERC20 token;\r\n        int tradeAmount;\r\n        if (srcToken == ETH_TOKEN_ADDRESS) {\r\n            tradeAmount = int(destAmount);\r\n            token = destToken;\r\n        } else {\r\n            tradeAmount = -1 * int(srcAmount);\r\n            token = srcToken;\r\n        }\r\n\r\n        conversionRatesContract.recordImbalance(\r\n            token,\r\n            tradeAmount,\r\n            0,\r\n            block.number\r\n        );\r\n\r\n        // collect src tokens\r\n        if (srcToken != ETH_TOKEN_ADDRESS) {\r\n            require(srcToken.transferFrom(msg.sender, tokenWallet[srcToken], srcAmount));\r\n        }\r\n\r\n        // send dest tokens\r\n        if (destToken == ETH_TOKEN_ADDRESS) {\r\n            destAddress.transfer(destAmount);\r\n        } else {\r\n            require(destToken.transferFrom(tokenWallet[destToken], destAddress, destAmount));\r\n        }\r\n\r\n        emit TradeExecute(msg.sender, srcToken, srcAmount, destToken, destAmount, destAddress);\r\n\r\n        return true;\r\n    }\r\n}\r\n",
  "sourcePath": "C:/Users/Naina/source/repos/two12/smart-contracts/contracts/KyberAutomatedReserve.sol",
  "compiler": {
    "name": "solc",
    "version": "0.4.25+commit.59dbf8f1.Emscripten.clang"
  },
  "schemaVersion": "3.0.1",
  "updatedAt": "2019-02-07T05:09:32.786Z",
  "devdoc": {
    "methods": {
      "claimAdmin()": {
        "details": "Allows the pendingAdmin address to finalize the change admin process.\r"
      },
      "transferAdmin(address)": {
        "details": "Allows the current admin to set the pendingAdmin address.\r",
        "params": {
          "newAdmin": "The address to transfer ownership to.\r"
        }
      },
      "transferAdminQuickly(address)": {
        "details": "Allows the current admin to set the admin in one tx. Useful initial deployment.\r",
        "params": {
          "newAdmin": "The address to transfer ownership to.\r"
        }
      },
      "withdrawEther(uint256,address)": {
        "details": "Withdraw Ethers\r"
      },
      "withdrawToken(address,uint256,address)": {
        "details": "Withdraw all ERC20 compatible tokens\r",
        "params": {
          "token": "ERC20 The address of the token contract\r"
        }
      }
    },
    "title": "Kyber Reserve contract"
  },
  "userdoc": {
    "methods": {
      "getBalance(address)": {
        "notice": "/////////////////////////////////////////////////////////////////////////"
      }
    }
  }
}