{
  "contractName": "KyberNetworkProxy",
  "abi": [
    {
      "constant": false,
      "inputs": [
        {
          "name": "alerter",
          "type": "address"
        }
      ],
      "name": "removeAlerter",
      "outputs": [],
      "payable": false,
      "stateMutability": "nonpayable",
      "type": "function",
      "signature": "0x01a12fd3"
    },
    {
      "constant": true,
      "inputs": [],
      "name": "pendingAdmin",
      "outputs": [
        {
          "name": "",
          "type": "address"
        }
      ],
      "payable": false,
      "stateMutability": "view",
      "type": "function",
      "signature": "0x26782247"
    },
    {
      "constant": true,
      "inputs": [],
      "name": "getOperators",
      "outputs": [
        {
          "name": "",
          "type": "address[]"
        }
      ],
      "payable": false,
      "stateMutability": "view",
      "type": "function",
      "signature": "0x27a099d8"
    },
    {
      "constant": false,
      "inputs": [
        {
          "name": "token",
          "type": "address"
        },
        {
          "name": "amount",
          "type": "uint256"
        },
        {
          "name": "sendTo",
          "type": "address"
        }
      ],
      "name": "withdrawToken",
      "outputs": [],
      "payable": false,
      "stateMutability": "nonpayable",
      "type": "function",
      "signature": "0x3ccdbb28"
    },
    {
      "constant": false,
      "inputs": [
        {
          "name": "newAlerter",
          "type": "address"
        }
      ],
      "name": "addAlerter",
      "outputs": [],
      "payable": false,
      "stateMutability": "nonpayable",
      "type": "function",
      "signature": "0x408ee7fe"
    },
    {
      "constant": true,
      "inputs": [],
      "name": "kyberNetworkContract",
      "outputs": [
        {
          "name": "",
          "type": "address"
        }
      ],
      "payable": false,
      "stateMutability": "view",
      "type": "function",
      "signature": "0x4f61ff8b"
    },
    {
      "constant": false,
      "inputs": [
        {
          "name": "newAdmin",
          "type": "address"
        }
      ],
      "name": "transferAdmin",
      "outputs": [],
      "payable": false,
      "stateMutability": "nonpayable",
      "type": "function",
      "signature": "0x75829def"
    },
    {
      "constant": false,
      "inputs": [],
      "name": "claimAdmin",
      "outputs": [],
      "payable": false,
      "stateMutability": "nonpayable",
      "type": "function",
      "signature": "0x77f50f97"
    },
    {
      "constant": false,
      "inputs": [
        {
          "name": "newAdmin",
          "type": "address"
        }
      ],
      "name": "transferAdminQuickly",
      "outputs": [],
      "payable": false,
      "stateMutability": "nonpayable",
      "type": "function",
      "signature": "0x7acc8678"
    },
    {
      "constant": true,
      "inputs": [],
      "name": "getAlerters",
      "outputs": [
        {
          "name": "",
          "type": "address[]"
        }
      ],
      "payable": false,
      "stateMutability": "view",
      "type": "function",
      "signature": "0x7c423f54"
    },
    {
      "constant": false,
      "inputs": [
        {
          "name": "newOperator",
          "type": "address"
        }
      ],
      "name": "addOperator",
      "outputs": [],
      "payable": false,
      "stateMutability": "nonpayable",
      "type": "function",
      "signature": "0x9870d7fe"
    },
    {
      "constant": false,
      "inputs": [
        {
          "name": "operator",
          "type": "address"
        }
      ],
      "name": "removeOperator",
      "outputs": [],
      "payable": false,
      "stateMutability": "nonpayable",
      "type": "function",
      "signature": "0xac8a584a"
    },
    {
      "constant": false,
      "inputs": [
        {
          "name": "amount",
          "type": "uint256"
        },
        {
          "name": "sendTo",
          "type": "address"
        }
      ],
      "name": "withdrawEther",
      "outputs": [],
      "payable": false,
      "stateMutability": "nonpayable",
      "type": "function",
      "signature": "0xce56c454"
    },
    {
      "constant": true,
      "inputs": [
        {
          "name": "token",
          "type": "address"
        },
        {
          "name": "user",
          "type": "address"
        }
      ],
      "name": "getBalance",
      "outputs": [
        {
          "name": "",
          "type": "uint256"
        }
      ],
      "payable": false,
      "stateMutability": "view",
      "type": "function",
      "signature": "0xd4fac45d"
    },
    {
      "constant": true,
      "inputs": [],
      "name": "admin",
      "outputs": [
        {
          "name": "",
          "type": "address"
        }
      ],
      "payable": false,
      "stateMutability": "view",
      "type": "function",
      "signature": "0xf851a440"
    },
    {
      "inputs": [
        {
          "name": "_admin",
          "type": "address"
        }
      ],
      "payable": false,
      "stateMutability": "nonpayable",
      "type": "constructor",
      "signature": "constructor"
    },
    {
      "anonymous": false,
      "inputs": [
        {
          "indexed": true,
          "name": "trader",
          "type": "address"
        },
        {
          "indexed": false,
          "name": "src",
          "type": "address"
        },
        {
          "indexed": false,
          "name": "dest",
          "type": "address"
        },
        {
          "indexed": false,
          "name": "actualSrcAmount",
          "type": "uint256"
        },
        {
          "indexed": false,
          "name": "actualDestAmount",
          "type": "uint256"
        }
      ],
      "name": "ExecuteTrade",
      "type": "event",
      "signature": "0x1849bd6a030a1bca28b83437fd3de96f3d27a5d172fa7e9c78e7b61468928a39"
    },
    {
      "anonymous": false,
      "inputs": [
        {
          "indexed": false,
          "name": "newNetworkContract",
          "type": "address"
        },
        {
          "indexed": false,
          "name": "oldNetworkContract",
          "type": "address"
        }
      ],
      "name": "KyberNetworkSet",
      "type": "event",
      "signature": "0x8936e1f096bf0a8c9df862b3d1d5b82774cad78116200175f00b5b7ba3010b02"
    },
    {
      "anonymous": false,
      "inputs": [
        {
          "indexed": false,
          "name": "token",
          "type": "address"
        },
        {
          "indexed": false,
          "name": "amount",
          "type": "uint256"
        },
        {
          "indexed": false,
          "name": "sendTo",
          "type": "address"
        }
      ],
      "name": "TokenWithdraw",
      "type": "event",
      "signature": "0x72cb8a894ddb372ceec3d2a7648d86f17d5a15caae0e986c53109b8a9a9385e6"
    },
    {
      "anonymous": false,
      "inputs": [
        {
          "indexed": false,
          "name": "amount",
          "type": "uint256"
        },
        {
          "indexed": false,
          "name": "sendTo",
          "type": "address"
        }
      ],
      "name": "EtherWithdraw",
      "type": "event",
      "signature": "0xec47e7ed86c86774d1a72c19f35c639911393fe7c1a34031fdbd260890da90de"
    },
    {
      "anonymous": false,
      "inputs": [
        {
          "indexed": false,
          "name": "pendingAdmin",
          "type": "address"
        }
      ],
      "name": "TransferAdminPending",
      "type": "event",
      "signature": "0x3b81caf78fa51ecbc8acb482fd7012a277b428d9b80f9d156e8a54107496cc40"
    },
    {
      "anonymous": false,
      "inputs": [
        {
          "indexed": false,
          "name": "newAdmin",
          "type": "address"
        },
        {
          "indexed": false,
          "name": "previousAdmin",
          "type": "address"
        }
      ],
      "name": "AdminClaimed",
      "type": "event",
      "signature": "0x65da1cfc2c2e81576ad96afb24a581f8e109b7a403b35cbd3243a1c99efdb9ed"
    },
    {
      "anonymous": false,
      "inputs": [
        {
          "indexed": false,
          "name": "newAlerter",
          "type": "address"
        },
        {
          "indexed": false,
          "name": "isAdd",
          "type": "bool"
        }
      ],
      "name": "AlerterAdded",
      "type": "event",
      "signature": "0x5611bf3e417d124f97bf2c788843ea8bb502b66079fbee02158ef30b172cb762"
    },
    {
      "anonymous": false,
      "inputs": [
        {
          "indexed": false,
          "name": "newOperator",
          "type": "address"
        },
        {
          "indexed": false,
          "name": "isAdd",
          "type": "bool"
        }
      ],
      "name": "OperatorAdded",
      "type": "event",
      "signature": "0x091a7a4b85135fdd7e8dbc18b12fabe5cc191ea867aa3c2e1a24a102af61d58b"
    },
    {
      "constant": false,
      "inputs": [
        {
          "name": "src",
          "type": "address"
        },
        {
          "name": "srcAmount",
          "type": "uint256"
        },
        {
          "name": "dest",
          "type": "address"
        },
        {
          "name": "destAddress",
          "type": "address"
        },
        {
          "name": "maxDestAmount",
          "type": "uint256"
        },
        {
          "name": "minConversionRate",
          "type": "uint256"
        },
        {
          "name": "walletId",
          "type": "address"
        }
      ],
      "name": "trade",
      "outputs": [
        {
          "name": "",
          "type": "uint256"
        }
      ],
      "payable": true,
      "stateMutability": "payable",
      "type": "function",
      "signature": "0xcb3c28c7"
    },
    {
      "constant": false,
      "inputs": [
        {
          "name": "src",
          "type": "address"
        },
        {
          "name": "srcAmount",
          "type": "uint256"
        },
        {
          "name": "dest",
          "type": "address"
        },
        {
          "name": "minConversionRate",
          "type": "uint256"
        }
      ],
      "name": "swapTokenToToken",
      "outputs": [
        {
          "name": "",
          "type": "uint256"
        }
      ],
      "payable": false,
      "stateMutability": "nonpayable",
      "type": "function",
      "signature": "0x7409e2eb"
    },
    {
      "constant": false,
      "inputs": [
        {
          "name": "token",
          "type": "address"
        },
        {
          "name": "minConversionRate",
          "type": "uint256"
        }
      ],
      "name": "swapEtherToToken",
      "outputs": [
        {
          "name": "",
          "type": "uint256"
        }
      ],
      "payable": true,
      "stateMutability": "payable",
      "type": "function",
      "signature": "0x7a2a0456"
    },
    {
      "constant": false,
      "inputs": [
        {
          "name": "token",
          "type": "address"
        },
        {
          "name": "srcAmount",
          "type": "uint256"
        },
        {
          "name": "minConversionRate",
          "type": "uint256"
        }
      ],
      "name": "swapTokenToEther",
      "outputs": [
        {
          "name": "",
          "type": "uint256"
        }
      ],
      "payable": false,
      "stateMutability": "nonpayable",
      "type": "function",
      "signature": "0x3bba21dc"
    },
    {
      "constant": false,
      "inputs": [
        {
          "name": "src",
          "type": "address"
        },
        {
          "name": "srcAmount",
          "type": "uint256"
        },
        {
          "name": "dest",
          "type": "address"
        },
        {
          "name": "destAddress",
          "type": "address"
        },
        {
          "name": "maxDestAmount",
          "type": "uint256"
        },
        {
          "name": "minConversionRate",
          "type": "uint256"
        },
        {
          "name": "walletId",
          "type": "address"
        },
        {
          "name": "hint",
          "type": "bytes"
        }
      ],
      "name": "tradeWithHint",
      "outputs": [
        {
          "name": "",
          "type": "uint256"
        }
      ],
      "payable": true,
      "stateMutability": "payable",
      "type": "function",
      "signature": "0x29589f61"
    },
    {
      "constant": false,
      "inputs": [
        {
          "name": "_kyberNetworkContract",
          "type": "address"
        }
      ],
      "name": "setKyberNetworkContract",
      "outputs": [],
      "payable": false,
      "stateMutability": "nonpayable",
      "type": "function",
      "signature": "0xabd188a8"
    },
    {
      "constant": true,
      "inputs": [
        {
          "name": "src",
          "type": "address"
        },
        {
          "name": "dest",
          "type": "address"
        },
        {
          "name": "srcQty",
          "type": "uint256"
        }
      ],
      "name": "getExpectedRate",
      "outputs": [
        {
          "name": "expectedRate",
          "type": "uint256"
        },
        {
          "name": "slippageRate",
          "type": "uint256"
        }
      ],
      "payable": false,
      "stateMutability": "view",
      "type": "function",
      "signature": "0x809a9e55"
    },
    {
      "constant": true,
      "inputs": [],
      "name": "maxGasPrice",
      "outputs": [
        {
          "name": "",
          "type": "uint256"
        }
      ],
      "payable": false,
      "stateMutability": "view",
      "type": "function",
      "signature": "0x3de39c11"
    },
    {
      "constant": true,
      "inputs": [],
      "name": "enabled",
      "outputs": [
        {
          "name": "",
          "type": "bool"
        }
      ],
      "payable": false,
      "stateMutability": "view",
      "type": "function",
      "signature": "0x238dafe0"
    },
    {
      "constant": true,
      "inputs": [
        {
          "name": "field",
          "type": "bytes32"
        }
      ],
      "name": "info",
      "outputs": [
        {
          "name": "",
          "type": "uint256"
        }
      ],
      "payable": false,
      "stateMutability": "view",
      "type": "function",
      "signature": "0xb64a097e"
    }
  ],
  "bytecode": "0x608060405234801561001057600080fd5b506040516020806130a083398101806040528101908080519060200190929190505050336000806101000a81548173ffffffffffffffffffffffffffffffffffffffff021916908373ffffffffffffffffffffffffffffffffffffffff160217905550600073ffffffffffffffffffffffffffffffffffffffff168173ffffffffffffffffffffffffffffffffffffffff16141515156100af57600080fd5b806000806101000a81548173ffffffffffffffffffffffffffffffffffffffff021916908373ffffffffffffffffffffffffffffffffffffffff16021790555050612fa1806100ff6000396000f300608060405260043610610149576000357c0100000000000000000000000000000000000000000000000000000000900463ffffffff16806301a12fd31461014e578063238dafe01461019157806326782247146101c057806327a099d81461021757806329589f61146102835780633bba21dc146103915780633ccdbb28146103fc5780633de39c1114610469578063408ee7fe146104945780634f61ff8b146104d75780637409e2eb1461052e57806375829def146105b957806377f50f97146105fc5780637a2a0456146106135780637acc8678146106675780637c423f54146106aa578063809a9e55146107165780639870d7fe1461079e578063abd188a8146107e1578063ac8a584a14610824578063b64a097e14610867578063cb3c28c7146108ac578063ce56c45414610974578063d4fac45d146109c1578063f851a44014610a38575b600080fd5b34801561015a57600080fd5b5061018f600480360381019080803573ffffffffffffffffffffffffffffffffffffffff169060200190929190505050610a8f565b005b34801561019d57600080fd5b506101a6610d4e565b604051808215151515815260200191505060405180910390f35b3480156101cc57600080fd5b506101d5610e16565b604051808273ffffffffffffffffffffffffffffffffffffffff1673ffffffffffffffffffffffffffffffffffffffff16815260200191505060405180910390f35b34801561022357600080fd5b5061022c610e3c565b6040518080602001828103825283818151815260200191508051906020019060200280838360005b8381101561026f578082015181840152602081019050610254565b505050509050019250505060405180910390f35b61037b600480360381019080803573ffffffffffffffffffffffffffffffffffffffff16906020019092919080359060200190929190803573ffffffffffffffffffffffffffffffffffffffff169060200190929190803573ffffffffffffffffffffffffffffffffffffffff1690602001909291908035906020019092919080359060200190929190803573ffffffffffffffffffffffffffffffffffffffff169060200190929190803590602001908201803590602001908080601f0160208091040260200160405190810160405280939291908181526020018383808284378201915050505050509192919290505050610eca565b6040518082815260200191505060405180910390f35b34801561039d57600080fd5b506103e6600480360381019080803573ffffffffffffffffffffffffffffffffffffffff1690602001909291908035906020019092919080359060200190929190505050611475565b6040518082815260200191505060405180910390f35b34801561040857600080fd5b50610467600480360381019080803573ffffffffffffffffffffffffffffffffffffffff16906020019092919080359060200190929190803573ffffffffffffffffffffffffffffffffffffffff1690602001909291905050506114b4565b005b34801561047557600080fd5b5061047e61169c565b6040518082815260200191505060405180910390f35b3480156104a057600080fd5b506104d5600480360381019080803573ffffffffffffffffffffffffffffffffffffffff169060200190929190505050611764565b005b3480156104e357600080fd5b506104ec61195d565b604051808273ffffffffffffffffffffffffffffffffffffffff1673ffffffffffffffffffffffffffffffffffffffff16815260200191505060405180910390f35b34801561053a57600080fd5b506105a3600480360381019080803573ffffffffffffffffffffffffffffffffffffffff16906020019092919080359060200190929190803573ffffffffffffffffffffffffffffffffffffffff16906020019092919080359060200190929190505050611983565b6040518082815260200191505060405180910390f35b3480156105c557600080fd5b506105fa600480360381019080803573ffffffffffffffffffffffffffffffffffffffff1690602001909291905050506119af565b005b34801561060857600080fd5b50610611611b0f565b005b610651600480360381019080803573ffffffffffffffffffffffffffffffffffffffff16906020019092919080359060200190929190505050611ceb565b6040518082815260200191505060405180910390f35b34801561067357600080fd5b506106a8600480360381019080803573ffffffffffffffffffffffffffffffffffffffff169060200190929190505050611d29565b005b3480156106b657600080fd5b506106bf611f1e565b6040518080602001828103825283818151815260200191508051906020019060200280838360005b838110156107025780820151818401526020810190506106e7565b505050509050019250505060405180910390f35b34801561072257600080fd5b50610781600480360381019080803573ffffffffffffffffffffffffffffffffffffffff169060200190929190803573ffffffffffffffffffffffffffffffffffffffff16906020019092919080359060200190929190505050611fac565b604051808381526020018281526020019250505060405180910390f35b3480156107aa57600080fd5b506107df600480360381019080803573ffffffffffffffffffffffffffffffffffffffff1690602001909291905050506120f8565b005b3480156107ed57600080fd5b50610822600480360381019080803573ffffffffffffffffffffffffffffffffffffffff1690602001909291905050506123c3565b005b34801561083057600080fd5b50610865600480360381019080803573ffffffffffffffffffffffffffffffffffffffff169060200190929190505050612557565b005b34801561087357600080fd5b506108966004803603810190808035600019169060200190929190505050612819565b6040518082815260200191505060405180910390f35b61095e600480360381019080803573ffffffffffffffffffffffffffffffffffffffff16906020019092919080359060200190929190803573ffffffffffffffffffffffffffffffffffffffff169060200190929190803573ffffffffffffffffffffffffffffffffffffffff1690602001909291908035906020019092919080359060200190929190803573ffffffffffffffffffffffffffffffffffffffff1690602001909291905050506128f6565b6040518082815260200191505060405180910390f35b34801561098057600080fd5b506109bf60048036038101908080359060200190929190803573ffffffffffffffffffffffffffffffffffffffff169060200190929190505050612918565b005b3480156109cd57600080fd5b50610a22600480360381019080803573ffffffffffffffffffffffffffffffffffffffff169060200190929190803573ffffffffffffffffffffffffffffffffffffffff169060200190929190505050612a29565b6040518082815260200191505060405180910390f35b348015610a4457600080fd5b50610a4d612b71565b604051808273ffffffffffffffffffffffffffffffffffffffff1673ffffffffffffffffffffffffffffffffffffffff16815260200191505060405180910390f35b60008060009054906101000a900473ffffffffffffffffffffffffffffffffffffffff1673ffffffffffffffffffffffffffffffffffffffff163373ffffffffffffffffffffffffffffffffffffffff16141515610aec57600080fd5b600360008373ffffffffffffffffffffffffffffffffffffffff1673ffffffffffffffffffffffffffffffffffffffff16815260200190815260200160002060009054906101000a900460ff161515610b4457600080fd5b6000600360008473ffffffffffffffffffffffffffffffffffffffff1673ffffffffffffffffffffffffffffffffffffffff16815260200190815260200160002060006101000a81548160ff021916908315150217905550600090505b600580549050811015610d4a578173ffffffffffffffffffffffffffffffffffffffff16600582815481101515610bd457fe5b9060005260206000200160009054906101000a900473ffffffffffffffffffffffffffffffffffffffff1673ffffffffffffffffffffffffffffffffffffffff161415610d3f576005600160058054905003815481101515610c3257fe5b9060005260206000200160009054906101000a900473ffffffffffffffffffffffffffffffffffffffff16600582815481101515610c6c57fe5b9060005260206000200160006101000a81548173ffffffffffffffffffffffffffffffffffffffff021916908373ffffffffffffffffffffffffffffffffffffffff1602179055506005805480919060019003610cc99190612ee8565b507f5611bf3e417d124f97bf2c788843ea8bb502b66079fbee02158ef30b172cb762826000604051808373ffffffffffffffffffffffffffffffffffffffff1673ffffffffffffffffffffffffffffffffffffffff168152602001821515151581526020019250505060405180910390a1610d4a565b806001019050610ba1565b5050565b6000600760009054906101000a900473ffffffffffffffffffffffffffffffffffffffff1673ffffffffffffffffffffffffffffffffffffffff1663238dafe06040518163ffffffff167c0100000000000000000000000000000000000000000000000000000000028152600401602060405180830381600087803b158015610dd657600080fd5b505af1158015610dea573d6000803e3d6000fd5b505050506040513d6020811015610e0057600080fd5b8101908080519060200190929190505050905090565b600160009054906101000a900473ffffffffffffffffffffffffffffffffffffffff1681565b60606004805480602002602001604051908101604052809291908181526020018280548015610ec057602002820191906000526020600020905b8160009054906101000a900473ffffffffffffffffffffffffffffffffffffffff1673ffffffffffffffffffffffffffffffffffffffff1681526020019060010190808311610e76575b5050505050905090565b6000610ed4612f14565b6000610ede612f2e565b73eeeeeeeeeeeeeeeeeeeeeeeeeeeeeeeeeeeeeeee73ffffffffffffffffffffffffffffffffffffffff168c73ffffffffffffffffffffffffffffffffffffffff161480610f2c5750600034145b1515610f3757600080fd5b610f418c33612a29565b836000018181525050610f548a8a612a29565b83602001818152505073eeeeeeeeeeeeeeeeeeeeeeeeeeeeeeeeeeeeeeee73ffffffffffffffffffffffffffffffffffffffff168c73ffffffffffffffffffffffffffffffffffffffff161415610fba57348360000181815101915081815250506110fa565b8b73ffffffffffffffffffffffffffffffffffffffff166323b872dd33600760009054906101000a900473ffffffffffffffffffffffffffffffffffffffff168e6040518463ffffffff167c0100000000000000000000000000000000000000000000000000000000028152600401808473ffffffffffffffffffffffffffffffffffffffff1673ffffffffffffffffffffffffffffffffffffffff1681526020018373ffffffffffffffffffffffffffffffffffffffff1673ffffffffffffffffffffffffffffffffffffffff1681526020018281526020019350505050602060405180830381600087803b1580156110b357600080fd5b505af11580156110c7573d6000803e3d6000fd5b505050506040513d60208110156110dd57600080fd5b810190808051906020019092919050505015156110f957600080fd5b5b600760009054906101000a900473ffffffffffffffffffffffffffffffffffffffff1673ffffffffffffffffffffffffffffffffffffffff1663088322ef34338f8f8f8f8f8f8f8f6040518b63ffffffff167c0100000000000000000000000000000000000000000000000000000000028152600401808a73ffffffffffffffffffffffffffffffffffffffff1673ffffffffffffffffffffffffffffffffffffffff1681526020018973ffffffffffffffffffffffffffffffffffffffff1673ffffffffffffffffffffffffffffffffffffffff1681526020018881526020018773ffffffffffffffffffffffffffffffffffffffff1673ffffffffffffffffffffffffffffffffffffffff1681526020018673ffffffffffffffffffffffffffffffffffffffff1673ffffffffffffffffffffffffffffffffffffffff1681526020018581526020018481526020018373ffffffffffffffffffffffffffffffffffffffff1673ffffffffffffffffffffffffffffffffffffffff16815260200180602001828103825283818151815260200191508051906020019080838360005b838110156112b957808201518184015260208101905061129e565b50505050905090810190601f1680156112e65780820380516001836020036101000a031916815260200191505b509a50505050505050505050506020604051808303818588803b15801561130c57600080fd5b505af1158015611320573d6000803e3d6000fd5b50505050506040513d602081101561133757600080fd5b8101908080519060200190929190505050915061135f836000015184602001518e8d8d612b96565b905080602001518214151561137357600080fd5b8781602001511115151561138657600080fd5b8681604001511015151561139957600080fd5b3373ffffffffffffffffffffffffffffffffffffffff167f1849bd6a030a1bca28b83437fd3de96f3d27a5d172fa7e9c78e7b61468928a398d8c84600001518560200151604051808573ffffffffffffffffffffffffffffffffffffffff1673ffffffffffffffffffffffffffffffffffffffff1681526020018473ffffffffffffffffffffffffffffffffffffffff1673ffffffffffffffffffffffffffffffffffffffff16815260200183815260200182815260200194505050505060405180910390a28060200151935050505098975050505050505050565b600060606114aa858573eeeeeeeeeeeeeeeeeeeeeeeeeeeeeeeeeeeeeeee336b204fce5e3e2502611000000088600088610eca565b9150509392505050565b6000809054906101000a900473ffffffffffffffffffffffffffffffffffffffff1673ffffffffffffffffffffffffffffffffffffffff163373ffffffffffffffffffffffffffffffffffffffff1614151561150f57600080fd5b8273ffffffffffffffffffffffffffffffffffffffff1663a9059cbb82846040518363ffffffff167c0100000000000000000000000000000000000000000000000000000000028152600401808373ffffffffffffffffffffffffffffffffffffffff1673ffffffffffffffffffffffffffffffffffffffff16815260200182815260200192505050602060405180830381600087803b1580156115b257600080fd5b505af11580156115c6573d6000803e3d6000fd5b505050506040513d60208110156115dc57600080fd5b810190808051906020019092919050505015156115f857600080fd5b7f72cb8a894ddb372ceec3d2a7648d86f17d5a15caae0e986c53109b8a9a9385e6838383604051808473ffffffffffffffffffffffffffffffffffffffff1673ffffffffffffffffffffffffffffffffffffffff1681526020018381526020018273ffffffffffffffffffffffffffffffffffffffff1673ffffffffffffffffffffffffffffffffffffffff168152602001935050505060405180910390a1505050565b6000600760009054906101000a900473ffffffffffffffffffffffffffffffffffffffff1673ffffffffffffffffffffffffffffffffffffffff16633de39c116040518163ffffffff167c0100000000000000000000000000000000000000000000000000000000028152600401602060405180830381600087803b15801561172457600080fd5b505af1158015611738573d6000803e3d6000fd5b505050506040513d602081101561174e57600080fd5b8101908080519060200190929190505050905090565b6000809054906101000a900473ffffffffffffffffffffffffffffffffffffffff1673ffffffffffffffffffffffffffffffffffffffff163373ffffffffffffffffffffffffffffffffffffffff161415156117bf57600080fd5b600360008273ffffffffffffffffffffffffffffffffffffffff1673ffffffffffffffffffffffffffffffffffffffff16815260200190815260200160002060009054906101000a900460ff1615151561181857600080fd5b603260058054905010151561182c57600080fd5b7f5611bf3e417d124f97bf2c788843ea8bb502b66079fbee02158ef30b172cb762816001604051808373ffffffffffffffffffffffffffffffffffffffff1673ffffffffffffffffffffffffffffffffffffffff168152602001821515151581526020019250505060405180910390a16001600360008373ffffffffffffffffffffffffffffffffffffffff1673ffffffffffffffffffffffffffffffffffffffff16815260200190815260200160002060006101000a81548160ff02191690831515021790555060058190806001815401808255809150509060018203906000526020600020016000909192909190916101000a81548173ffffffffffffffffffffffffffffffffffffffff021916908373ffffffffffffffffffffffffffffffffffffffff1602179055505050565b600760009054906101000a900473ffffffffffffffffffffffffffffffffffffffff1681565b600060606119a4868686336b204fce5e3e2502611000000088600088610eca565b915050949350505050565b6000809054906101000a900473ffffffffffffffffffffffffffffffffffffffff1673ffffffffffffffffffffffffffffffffffffffff163373ffffffffffffffffffffffffffffffffffffffff16141515611a0a57600080fd5b600073ffffffffffffffffffffffffffffffffffffffff168173ffffffffffffffffffffffffffffffffffffffff1614151515611a4657600080fd5b7f3b81caf78fa51ecbc8acb482fd7012a277b428d9b80f9d156e8a54107496cc40600160009054906101000a900473ffffffffffffffffffffffffffffffffffffffff16604051808273ffffffffffffffffffffffffffffffffffffffff1673ffffffffffffffffffffffffffffffffffffffff16815260200191505060405180910390a180600160006101000a81548173ffffffffffffffffffffffffffffffffffffffff021916908373ffffffffffffffffffffffffffffffffffffffff16021790555050565b3373ffffffffffffffffffffffffffffffffffffffff16600160009054906101000a900473ffffffffffffffffffffffffffffffffffffffff1673ffffffffffffffffffffffffffffffffffffffff16141515611b6b57600080fd5b7f65da1cfc2c2e81576ad96afb24a581f8e109b7a403b35cbd3243a1c99efdb9ed600160009054906101000a900473ffffffffffffffffffffffffffffffffffffffff166000809054906101000a900473ffffffffffffffffffffffffffffffffffffffff16604051808373ffffffffffffffffffffffffffffffffffffffff1673ffffffffffffffffffffffffffffffffffffffff1681526020018273ffffffffffffffffffffffffffffffffffffffff1673ffffffffffffffffffffffffffffffffffffffff1681526020019250505060405180910390a1600160009054906101000a900473ffffffffffffffffffffffffffffffffffffffff166000806101000a81548173ffffffffffffffffffffffffffffffffffffffff021916908373ffffffffffffffffffffffffffffffffffffffff1602179055506000600160006101000a81548173ffffffffffffffffffffffffffffffffffffffff021916908373ffffffffffffffffffffffffffffffffffffffff160217905550565b60006060611d2073eeeeeeeeeeeeeeeeeeeeeeeeeeeeeeeeeeeeeeee3486336b204fce5e3e2502611000000088600088610eca565b91505092915050565b6000809054906101000a900473ffffffffffffffffffffffffffffffffffffffff1673ffffffffffffffffffffffffffffffffffffffff163373ffffffffffffffffffffffffffffffffffffffff16141515611d8457600080fd5b600073ffffffffffffffffffffffffffffffffffffffff168173ffffffffffffffffffffffffffffffffffffffff1614151515611dc057600080fd5b7f3b81caf78fa51ecbc8acb482fd7012a277b428d9b80f9d156e8a54107496cc4081604051808273ffffffffffffffffffffffffffffffffffffffff1673ffffffffffffffffffffffffffffffffffffffff16815260200191505060405180910390a17f65da1cfc2c2e81576ad96afb24a581f8e109b7a403b35cbd3243a1c99efdb9ed816000809054906101000a900473ffffffffffffffffffffffffffffffffffffffff16604051808373ffffffffffffffffffffffffffffffffffffffff1673ffffffffffffffffffffffffffffffffffffffff1681526020018273ffffffffffffffffffffffffffffffffffffffff1673ffffffffffffffffffffffffffffffffffffffff1681526020019250505060405180910390a1806000806101000a81548173ffffffffffffffffffffffffffffffffffffffff021916908373ffffffffffffffffffffffffffffffffffffffff16021790555050565b60606005805480602002602001604051908101604052809291908181526020018280548015611fa257602002820191906000526020600020905b8160009054906101000a900473ffffffffffffffffffffffffffffffffffffffff1673ffffffffffffffffffffffffffffffffffffffff1681526020019060010190808311611f58575b5050505050905090565b600080600760009054906101000a900473ffffffffffffffffffffffffffffffffffffffff1673ffffffffffffffffffffffffffffffffffffffff1663809a9e558686866040518463ffffffff167c0100000000000000000000000000000000000000000000000000000000028152600401808473ffffffffffffffffffffffffffffffffffffffff1673ffffffffffffffffffffffffffffffffffffffff1681526020018373ffffffffffffffffffffffffffffffffffffffff1673ffffffffffffffffffffffffffffffffffffffff16815260200182815260200193505050506040805180830381600087803b1580156120a757600080fd5b505af11580156120bb573d6000803e3d6000fd5b505050506040513d60408110156120d157600080fd5b81019080805190602001909291908051906020019092919050505091509150935093915050565b6000809054906101000a900473ffffffffffffffffffffffffffffffffffffffff1673ffffffffffffffffffffffffffffffffffffffff163373ffffffffffffffffffffffffffffffffffffffff1614151561215357600080fd5b600260008273ffffffffffffffffffffffffffffffffffffffff1673ffffffffffffffffffffffffffffffffffffffff16815260200190815260200160002060009054906101000a900460ff16151515612215576040517f08c379a00000000000000000000000000000000000000000000000000000000081526004018080602001828103825260138152602001807f416c726561647920616e206f70657261746f720000000000000000000000000081525060200191505060405180910390fd5b6032600480549050101515612292576040517f08c379a00000000000000000000000000000000000000000000000000000000081526004018080602001828103825260108152602001807f4d61782053697a6520726561636865640000000000000000000000000000000081525060200191505060405180910390fd5b7f091a7a4b85135fdd7e8dbc18b12fabe5cc191ea867aa3c2e1a24a102af61d58b816001604051808373ffffffffffffffffffffffffffffffffffffffff1673ffffffffffffffffffffffffffffffffffffffff168152602001821515151581526020019250505060405180910390a16001600260008373ffffffffffffffffffffffffffffffffffffffff1673ffffffffffffffffffffffffffffffffffffffff16815260200190815260200160002060006101000a81548160ff02191690831515021790555060048190806001815401808255809150509060018203906000526020600020016000909192909190916101000a81548173ffffffffffffffffffffffffffffffffffffffff021916908373ffffffffffffffffffffffffffffffffffffffff1602179055505050565b6000809054906101000a900473ffffffffffffffffffffffffffffffffffffffff1673ffffffffffffffffffffffffffffffffffffffff163373ffffffffffffffffffffffffffffffffffffffff1614151561241e57600080fd5b600073ffffffffffffffffffffffffffffffffffffffff168173ffffffffffffffffffffffffffffffffffffffff161415151561245a57600080fd5b7f8936e1f096bf0a8c9df862b3d1d5b82774cad78116200175f00b5b7ba3010b0281600760009054906101000a900473ffffffffffffffffffffffffffffffffffffffff16604051808373ffffffffffffffffffffffffffffffffffffffff1673ffffffffffffffffffffffffffffffffffffffff1681526020018273ffffffffffffffffffffffffffffffffffffffff1673ffffffffffffffffffffffffffffffffffffffff1681526020019250505060405180910390a180600760006101000a81548173ffffffffffffffffffffffffffffffffffffffff021916908373ffffffffffffffffffffffffffffffffffffffff16021790555050565b60008060009054906101000a900473ffffffffffffffffffffffffffffffffffffffff1673ffffffffffffffffffffffffffffffffffffffff163373ffffffffffffffffffffffffffffffffffffffff161415156125b457600080fd5b600260008373ffffffffffffffffffffffffffffffffffffffff1673ffffffffffffffffffffffffffffffffffffffff16815260200190815260200160002060009054906101000a900460ff16151561260c57600080fd5b6000600260008473ffffffffffffffffffffffffffffffffffffffff1673ffffffffffffffffffffffffffffffffffffffff16815260200190815260200160002060006101000a81548160ff021916908315150217905550600090505b600480549050811015612815578173ffffffffffffffffffffffffffffffffffffffff1660048281548110151561269c57fe5b9060005260206000200160009054906101000a900473ffffffffffffffffffffffffffffffffffffffff1673ffffffffffffffffffffffffffffffffffffffff16141561280a5760046001600480549050038154811015156126fa57fe5b9060005260206000200160009054906101000a900473ffffffffffffffffffffffffffffffffffffffff1660048281548110151561273457fe5b9060005260206000200160006101000a81548173ffffffffffffffffffffffffffffffffffffffff021916908373ffffffffffffffffffffffffffffffffffffffff16021790555060016004818180549050039150816127949190612ee8565b507f091a7a4b85135fdd7e8dbc18b12fabe5cc191ea867aa3c2e1a24a102af61d58b826000604051808373ffffffffffffffffffffffffffffffffffffffff1673ffffffffffffffffffffffffffffffffffffffff168152602001821515151581526020019250505060405180910390a1612815565b806001019050612669565b5050565b6000600760009054906101000a900473ffffffffffffffffffffffffffffffffffffffff1673ffffffffffffffffffffffffffffffffffffffff1663b64a097e836040518263ffffffff167c0100000000000000000000000000000000000000000000000000000000028152600401808260001916600019168152602001915050602060405180830381600087803b1580156128b457600080fd5b505af11580156128c8573d6000803e3d6000fd5b505050506040513d60208110156128de57600080fd5b81019080805190602001909291905050509050919050565b6000606061290a8989898989898988610eca565b915050979650505050505050565b6000809054906101000a900473ffffffffffffffffffffffffffffffffffffffff1673ffffffffffffffffffffffffffffffffffffffff163373ffffffffffffffffffffffffffffffffffffffff1614151561297357600080fd5b8073ffffffffffffffffffffffffffffffffffffffff166108fc839081150290604051600060405180830381858888f193505050501580156129b9573d6000803e3d6000fd5b507fec47e7ed86c86774d1a72c19f35c639911393fe7c1a34031fdbd260890da90de8282604051808381526020018273ffffffffffffffffffffffffffffffffffffffff1673ffffffffffffffffffffffffffffffffffffffff1681526020019250505060405180910390a15050565b600073eeeeeeeeeeeeeeeeeeeeeeeeeeeeeeeeeeeeeeee73ffffffffffffffffffffffffffffffffffffffff168373ffffffffffffffffffffffffffffffffffffffff161415612a92578173ffffffffffffffffffffffffffffffffffffffff16319050612b6b565b8273ffffffffffffffffffffffffffffffffffffffff166370a08231836040518263ffffffff167c0100000000000000000000000000000000000000000000000000000000028152600401808273ffffffffffffffffffffffffffffffffffffffff1673ffffffffffffffffffffffffffffffffffffffff168152602001915050602060405180830381600087803b158015612b2d57600080fd5b505af1158015612b41573d6000803e3d6000fd5b505050506040513d6020811015612b5757600080fd5b810190808051906020019092919050505090505b92915050565b6000809054906101000a900473ffffffffffffffffffffffffffffffffffffffff1681565b612b9e612f2e565b600080612bab8633612a29565b9150612bb78585612a29565b90508681111515612bc757600080fd5b8188111515612bd557600080fd5b868103836020018181525050818803836000018181525050612c1183600001518460200151612c0389612c25565b612c0c89612c25565b612cbf565b836040018181525050505095945050505050565b600080600660008473ffffffffffffffffffffffffffffffffffffffff1673ffffffffffffffffffffffffffffffffffffffff168152602001908152602001600020541415612c7857612c7782612d70565b5b600660008373ffffffffffffffffffffffffffffffffffffffff1673ffffffffffffffffffffffffffffffffffffffff168152602001908152602001600020549050919050565b60006b204fce5e3e250261100000008511151515612cdc57600080fd5b6b204fce5e3e250261100000008411151515612cf757600080fd5b8282101515612d3657601283830311151515612d1257600080fd5b84838303600a0a02670de0b6b3a76400008502811515612d2e57fe5b049050612d68565b601282840311151515612d4857600080fd5b84828403600a0a670de0b6b3a7640000860202811515612d6457fe5b0490505b949350505050565b73eeeeeeeeeeeeeeeeeeeeeeeeeeeeeeeeeeeeeeee73ffffffffffffffffffffffffffffffffffffffff168173ffffffffffffffffffffffffffffffffffffffff161415612e02576012600660008373ffffffffffffffffffffffffffffffffffffffff1673ffffffffffffffffffffffffffffffffffffffff16815260200190815260200160002081905550612ee5565b8073ffffffffffffffffffffffffffffffffffffffff1663313ce5676040518163ffffffff167c0100000000000000000000000000000000000000000000000000000000028152600401602060405180830381600087803b158015612e6657600080fd5b505af1158015612e7a573d6000803e3d6000fd5b505050506040513d6020811015612e9057600080fd5b8101908080519060200190929190505050600660008373ffffffffffffffffffffffffffffffffffffffff1673ffffffffffffffffffffffffffffffffffffffff168152602001908152602001600020819055505b50565b815481835581811115612f0f57818360005260206000209182019101612f0e9190612f50565b5b505050565b604080519081016040528060008152602001600081525090565b6060604051908101604052806000815260200160008152602001600081525090565b612f7291905b80821115612f6e576000816000905550600101612f56565b5090565b905600a165627a7a7230582035d24adc4110953fef63deac0ddccc88668bb8dec40c7ab6af13ed9a7dd025740029",
  "source": "pragma solidity ^0.4.25;\r\n\r\n\r\nimport \"./ERC20Interface.sol\";\r\nimport \"./Withdrawable.sol\";\r\nimport \"./Utils2.sol\";\r\nimport \"./KyberNetworkInterface.sol\";\r\nimport \"./KyberNetworkProxyInterface.sol\";\r\nimport \"./SimpleNetworkInterface.sol\";\r\n\r\n\r\n////////////////////////////////////////////////////////////////////////////////////////////////////////\r\n/// @title Kyber Network proxy for main contract\r\ncontract KyberNetworkProxy is KyberNetworkProxyInterface, SimpleNetworkInterface, Withdrawable, Utils2 {\r\n\r\n    KyberNetworkInterface public kyberNetworkContract;\r\n\r\n    constructor(address _admin) public {\r\n        require(_admin != address(0));\r\n        admin = _admin;\r\n    }\r\n\r\n    /// @notice use token address ETH_TOKEN_ADDRESS for ether\r\n    /// @dev makes a trade between src and dest token and send dest token to destAddress\r\n    /// @param src Src token\r\n    /// @param srcAmount amount of src tokens\r\n    /// @param dest   Destination token\r\n    /// @param destAddress Address to send tokens to\r\n    /// @param maxDestAmount A limit on the amount of dest tokens\r\n    /// @param minConversionRate The minimal conversion rate. If actual rate is lower, trade is canceled.\r\n    /// @param walletId is the wallet ID to send part of the fees\r\n    /// @return amount of actual dest tokens\r\n    function trade(\r\n        ERC20 src,\r\n        uint srcAmount,\r\n        ERC20 dest,\r\n        address destAddress,\r\n        uint maxDestAmount,\r\n        uint minConversionRate,\r\n        address walletId\r\n    )\r\n        public\r\n        payable\r\n        returns(uint)\r\n    {\r\n        bytes memory hint;\r\n\r\n        return tradeWithHint(\r\n            src,\r\n            srcAmount,\r\n            dest,\r\n            destAddress,\r\n            maxDestAmount,\r\n            minConversionRate,\r\n            walletId,\r\n            hint\r\n        );\r\n    }\r\n\r\n    /// @dev makes a trade between src and dest token and send dest tokens to msg sender\r\n    /// @param src Src token\r\n    /// @param srcAmount amount of src tokens\r\n    /// @param dest Destination token\r\n    /// @param minConversionRate The minimal conversion rate. If actual rate is lower, trade is canceled.\r\n    /// @return amount of actual dest tokens\r\n    function swapTokenToToken(\r\n        ERC20 src,\r\n        uint srcAmount,\r\n        ERC20 dest,\r\n        uint minConversionRate\r\n    )\r\n        public\r\n        returns(uint)\r\n    {\r\n        bytes memory hint;\r\n\r\n        return tradeWithHint(\r\n            src,\r\n            srcAmount,\r\n            dest,\r\n            msg.sender,\r\n            MAX_QTY,\r\n            minConversionRate,\r\n            0,\r\n            hint\r\n        );\r\n    }\r\n\r\n    /// @dev makes a trade from Ether to token. Sends token to msg sender\r\n    /// @param token Destination token\r\n    /// @param minConversionRate The minimal conversion rate. If actual rate is lower, trade is canceled.\r\n    /// @return amount of actual dest tokens\r\n    function swapEtherToToken(ERC20 token, uint minConversionRate) public payable returns(uint) {\r\n        bytes memory hint;\r\n\r\n        return tradeWithHint(\r\n            ETH_TOKEN_ADDRESS,\r\n            msg.value,\r\n            token,\r\n            msg.sender,\r\n            MAX_QTY,\r\n            minConversionRate,\r\n            0,\r\n            hint\r\n        );\r\n    }\r\n\r\n    /// @dev makes a trade from token to Ether, sends Ether to msg sender\r\n    /// @param token Src token\r\n    /// @param srcAmount amount of src tokens\r\n    /// @param minConversionRate The minimal conversion rate. If actual rate is lower, trade is canceled.\r\n    /// @return amount of actual dest tokens\r\n    function swapTokenToEther(ERC20 token, uint srcAmount, uint minConversionRate) public returns(uint) {\r\n        bytes memory hint;\r\n\r\n        return tradeWithHint(\r\n            token,\r\n            srcAmount,\r\n            ETH_TOKEN_ADDRESS,\r\n            msg.sender,\r\n            MAX_QTY,\r\n            minConversionRate,\r\n            0,\r\n            hint\r\n        );\r\n    }\r\n\r\n    struct UserBalance {\r\n        uint srcBalance;\r\n        uint destBalance;\r\n    }\r\n\r\n    event ExecuteTrade(address indexed trader, ERC20 src, ERC20 dest, uint actualSrcAmount, uint actualDestAmount);\r\n\r\n    /// @notice use token address ETH_TOKEN_ADDRESS for ether\r\n    /// @dev makes a trade between src and dest token and send dest token to destAddress\r\n    /// @param src Src token\r\n    /// @param srcAmount amount of src tokens\r\n    /// @param dest Destination token\r\n    /// @param destAddress Address to send tokens to\r\n    /// @param maxDestAmount A limit on the amount of dest tokens\r\n    /// @param minConversionRate The minimal conversion rate. If actual rate is lower, trade is canceled.\r\n    /// @param walletId is the wallet ID to send part of the fees\r\n    /// @param hint will give hints for the trade.\r\n    /// @return amount of actual dest tokens\r\n    function tradeWithHint(\r\n        ERC20 src,\r\n        uint srcAmount,\r\n        ERC20 dest,\r\n        address destAddress,\r\n        uint maxDestAmount,\r\n        uint minConversionRate,\r\n        address walletId,\r\n        bytes hint\r\n    )\r\n        public\r\n        payable\r\n        returns(uint)\r\n    {\r\n        require(src == ETH_TOKEN_ADDRESS || msg.value == 0);\r\n        \r\n        UserBalance memory userBalanceBefore;\r\n\r\n        userBalanceBefore.srcBalance = getBalance(src, msg.sender);\r\n        userBalanceBefore.destBalance = getBalance(dest, destAddress);\r\n\r\n        if (src == ETH_TOKEN_ADDRESS) {\r\n            userBalanceBefore.srcBalance += msg.value;\r\n        } else {\r\n            require(src.transferFrom(msg.sender, kyberNetworkContract, srcAmount));\r\n        }\r\n\r\n        uint reportedDestAmount = kyberNetworkContract.tradeWithHint.value(msg.value)(\r\n            msg.sender,\r\n            src,\r\n            srcAmount,\r\n            dest,\r\n            destAddress,\r\n            maxDestAmount,\r\n            minConversionRate,\r\n            walletId,\r\n            hint\r\n        );\r\n\r\n        TradeOutcome memory tradeOutcome = calculateTradeOutcome(\r\n            userBalanceBefore.srcBalance,\r\n            userBalanceBefore.destBalance,\r\n            src,\r\n            dest,\r\n            destAddress\r\n        );\r\n\r\n        require(reportedDestAmount == tradeOutcome.userDeltaDestAmount);\r\n        require(tradeOutcome.userDeltaDestAmount <= maxDestAmount);\r\n        require(tradeOutcome.actualRate >= minConversionRate);\r\n\r\n        emit ExecuteTrade(msg.sender, src, dest, tradeOutcome.userDeltaSrcAmount, tradeOutcome.userDeltaDestAmount);\r\n        return tradeOutcome.userDeltaDestAmount;\r\n    }\r\n\r\n    event KyberNetworkSet(address newNetworkContract, address oldNetworkContract);\r\n\r\n    function setKyberNetworkContract(KyberNetworkInterface _kyberNetworkContract) public onlyAdmin {\r\n\r\n        require(_kyberNetworkContract != address(0));\r\n\r\n        emit KyberNetworkSet(_kyberNetworkContract, kyberNetworkContract);\r\n\r\n        kyberNetworkContract = _kyberNetworkContract;\r\n    }\r\n\r\n    function getExpectedRate(ERC20 src, ERC20 dest, uint srcQty)\r\n        public view\r\n        returns(uint expectedRate, uint slippageRate)\r\n    {\r\n        return kyberNetworkContract.getExpectedRate(src, dest, srcQty);\r\n    }\r\n\r\n    function maxGasPrice() public view returns(uint) {\r\n        return kyberNetworkContract.maxGasPrice();\r\n    }\r\n\r\n    function enabled() public view returns(bool) {\r\n        return kyberNetworkContract.enabled();\r\n    }\r\n\r\n    function info(bytes32 field) public view returns(uint) {\r\n        return kyberNetworkContract.info(field);\r\n    }\r\n\r\n    struct TradeOutcome {\r\n        uint userDeltaSrcAmount;\r\n        uint userDeltaDestAmount;\r\n        uint actualRate;\r\n    }\r\n\r\n    function calculateTradeOutcome (uint srcBalanceBefore, uint destBalanceBefore, ERC20 src, ERC20 dest,\r\n        address destAddress)\r\n        internal returns(TradeOutcome outcome)\r\n    {\r\n        uint userSrcBalanceAfter;\r\n        uint userDestBalanceAfter;\r\n\r\n        userSrcBalanceAfter = getBalance(src, msg.sender);\r\n        userDestBalanceAfter = getBalance(dest, destAddress);\r\n\r\n        //protect from underflow\r\n        require(userDestBalanceAfter > destBalanceBefore);\r\n        require(srcBalanceBefore > userSrcBalanceAfter);\r\n\r\n        outcome.userDeltaDestAmount = userDestBalanceAfter - destBalanceBefore;\r\n        outcome.userDeltaSrcAmount = srcBalanceBefore - userSrcBalanceAfter;\r\n\r\n        outcome.actualRate = calcRateFromQty(\r\n                outcome.userDeltaSrcAmount,\r\n                outcome.userDeltaDestAmount,\r\n                getDecimalsSafe(src),\r\n                getDecimalsSafe(dest)\r\n            );\r\n    }\r\n}\r\n",
  "sourcePath": "C:\\Users\\Naina\\source\\repos\\SecurityTokenDemo_SC\\contracts\\KyberNetworkProxy.sol",
  "compiler": {
    "name": "solc",
    "version": "0.4.25+commit.59dbf8f1.Emscripten.clang"
  },
  "schemaVersion": "3.0.0",
  "updatedAt": "2019-01-06T13:43:18.255Z",
  "devdoc": {
    "methods": {
      "claimAdmin()": {
        "details": "Allows the pendingAdmin address to finalize the change admin process.\r"
      },
      "getBalance(address,address)": {
        "return": "The balance"
      },
      "swapEtherToToken(address,uint256)": {
        "return": "amount of actual dest tokens"
      },
      "swapTokenToEther(address,uint256,uint256)": {
        "return": "amount of actual dest tokens"
      },
      "swapTokenToToken(address,uint256,address,uint256)": {
        "return": "amount of actual dest tokens"
      },
      "trade(address,uint256,address,address,uint256,uint256,address)": {
        "return": "amount of actual dest tokens"
      },
      "tradeWithHint(address,uint256,address,address,uint256,uint256,address,bytes)": {
        "return": "amount of actual dest tokens"
      },
      "transferAdmin(address)": {
        "details": "Allows the current admin to set the pendingAdmin address.\r",
        "params": {
          "newAdmin": "The address to transfer ownership to.\r"
        }
      },
      "transferAdminQuickly(address)": {
        "details": "Allows the current admin to set the admin in one tx. Useful initial deployment.\r",
        "params": {
          "newAdmin": "The address to transfer ownership to.\r"
        }
      },
      "withdrawEther(uint256,address)": {
        "details": "Withdraw Ethers\r"
      },
      "withdrawToken(address,uint256,address)": {
        "details": "Withdraw all ERC20 compatible tokens\r",
        "params": {
          "token": "ERC20 The address of the token contract\r"
        }
      }
    },
    "title": "Kyber Network proxy for main contract"
  },
  "userdoc": {
    "methods": {}
  }
}