{
  "contractName": "KyberReserve",
  "abi": [
    {
      "constant": false,
      "inputs": [
        {
          "name": "alerter",
          "type": "address"
        }
      ],
      "name": "removeAlerter",
      "outputs": [],
      "payable": false,
      "stateMutability": "nonpayable",
      "type": "function",
      "signature": "0x01a12fd3"
    },
    {
      "constant": true,
      "inputs": [],
      "name": "pendingAdmin",
      "outputs": [
        {
          "name": "",
          "type": "address"
        }
      ],
      "payable": false,
      "stateMutability": "view",
      "type": "function",
      "signature": "0x26782247"
    },
    {
      "constant": true,
      "inputs": [],
      "name": "getOperators",
      "outputs": [
        {
          "name": "",
          "type": "address[]"
        }
      ],
      "payable": false,
      "stateMutability": "view",
      "type": "function",
      "signature": "0x27a099d8"
    },
    {
      "constant": false,
      "inputs": [
        {
          "name": "token",
          "type": "address"
        },
        {
          "name": "amount",
          "type": "uint256"
        },
        {
          "name": "sendTo",
          "type": "address"
        }
      ],
      "name": "withdrawToken",
      "outputs": [],
      "payable": false,
      "stateMutability": "nonpayable",
      "type": "function",
      "signature": "0x3ccdbb28"
    },
    {
      "constant": false,
      "inputs": [
        {
          "name": "newAlerter",
          "type": "address"
        }
      ],
      "name": "addAlerter",
      "outputs": [],
      "payable": false,
      "stateMutability": "nonpayable",
      "type": "function",
      "signature": "0x408ee7fe"
    },
    {
      "constant": true,
      "inputs": [],
      "name": "sanityRatesContract",
      "outputs": [
        {
          "name": "",
          "type": "address"
        }
      ],
      "payable": false,
      "stateMutability": "view",
      "type": "function",
      "signature": "0x47e6924f"
    },
    {
      "constant": false,
      "inputs": [
        {
          "name": "newAdmin",
          "type": "address"
        }
      ],
      "name": "transferAdmin",
      "outputs": [],
      "payable": false,
      "stateMutability": "nonpayable",
      "type": "function",
      "signature": "0x75829def"
    },
    {
      "constant": false,
      "inputs": [],
      "name": "claimAdmin",
      "outputs": [],
      "payable": false,
      "stateMutability": "nonpayable",
      "type": "function",
      "signature": "0x77f50f97"
    },
    {
      "constant": false,
      "inputs": [
        {
          "name": "newAdmin",
          "type": "address"
        }
      ],
      "name": "transferAdminQuickly",
      "outputs": [],
      "payable": false,
      "stateMutability": "nonpayable",
      "type": "function",
      "signature": "0x7acc8678"
    },
    {
      "constant": true,
      "inputs": [],
      "name": "getAlerters",
      "outputs": [
        {
          "name": "",
          "type": "address[]"
        }
      ],
      "payable": false,
      "stateMutability": "view",
      "type": "function",
      "signature": "0x7c423f54"
    },
    {
      "constant": false,
      "inputs": [
        {
          "name": "newOperator",
          "type": "address"
        }
      ],
      "name": "addOperator",
      "outputs": [],
      "payable": false,
      "stateMutability": "nonpayable",
      "type": "function",
      "signature": "0x9870d7fe"
    },
    {
      "constant": true,
      "inputs": [
        {
          "name": "",
          "type": "address"
        }
      ],
      "name": "tokenWallet",
      "outputs": [
        {
          "name": "",
          "type": "address"
        }
      ],
      "payable": false,
      "stateMutability": "view",
      "type": "function",
      "signature": "0xa80cbac6"
    },
    {
      "constant": false,
      "inputs": [
        {
          "name": "operator",
          "type": "address"
        }
      ],
      "name": "removeOperator",
      "outputs": [],
      "payable": false,
      "stateMutability": "nonpayable",
      "type": "function",
      "signature": "0xac8a584a"
    },
    {
      "constant": true,
      "inputs": [],
      "name": "kyberNetwork",
      "outputs": [
        {
          "name": "",
          "type": "address"
        }
      ],
      "payable": false,
      "stateMutability": "view",
      "type": "function",
      "signature": "0xb78b842d"
    },
    {
      "constant": false,
      "inputs": [
        {
          "name": "amount",
          "type": "uint256"
        },
        {
          "name": "sendTo",
          "type": "address"
        }
      ],
      "name": "withdrawEther",
      "outputs": [],
      "payable": false,
      "stateMutability": "nonpayable",
      "type": "function",
      "signature": "0xce56c454"
    },
    {
      "constant": true,
      "inputs": [],
      "name": "conversionRatesContract",
      "outputs": [
        {
          "name": "",
          "type": "address"
        }
      ],
      "payable": false,
      "stateMutability": "view",
      "type": "function",
      "signature": "0xd5847d33"
    },
    {
      "constant": true,
      "inputs": [],
      "name": "tradeEnabled",
      "outputs": [
        {
          "name": "",
          "type": "bool"
        }
      ],
      "payable": false,
      "stateMutability": "view",
      "type": "function",
      "signature": "0xd621e813"
    },
    {
      "constant": true,
      "inputs": [
        {
          "name": "",
          "type": "bytes32"
        }
      ],
      "name": "approvedWithdrawAddresses",
      "outputs": [
        {
          "name": "",
          "type": "bool"
        }
      ],
      "payable": false,
      "stateMutability": "view",
      "type": "function",
      "signature": "0xd7b7024d"
    },
    {
      "constant": true,
      "inputs": [],
      "name": "admin",
      "outputs": [
        {
          "name": "",
          "type": "address"
        }
      ],
      "payable": false,
      "stateMutability": "view",
      "type": "function",
      "signature": "0xf851a440"
    },
    {
      "inputs": [
        {
          "name": "_kyberNetwork",
          "type": "address"
        },
        {
          "name": "_ratesContract",
          "type": "address"
        },
        {
          "name": "_admin",
          "type": "address"
        }
      ],
      "payable": false,
      "stateMutability": "nonpayable",
      "type": "constructor",
      "signature": "constructor"
    },
    {
      "payable": true,
      "stateMutability": "payable",
      "type": "fallback"
    },
    {
      "anonymous": false,
      "inputs": [
        {
          "indexed": false,
          "name": "token",
          "type": "address"
        },
        {
          "indexed": false,
          "name": "amount",
          "type": "uint256"
        }
      ],
      "name": "DepositToken",
      "type": "event",
      "signature": "0x2d0c0a8842b9944ece1495eb61121621b5e36bd6af3bba0318c695f525aef79f"
    },
    {
      "anonymous": false,
      "inputs": [
        {
          "indexed": true,
          "name": "origin",
          "type": "address"
        },
        {
          "indexed": false,
          "name": "src",
          "type": "address"
        },
        {
          "indexed": false,
          "name": "srcAmount",
          "type": "uint256"
        },
        {
          "indexed": false,
          "name": "destToken",
          "type": "address"
        },
        {
          "indexed": false,
          "name": "destAmount",
          "type": "uint256"
        },
        {
          "indexed": false,
          "name": "destAddress",
          "type": "address"
        }
      ],
      "name": "TradeExecute",
      "type": "event",
      "signature": "0xea9415385bae08fe9f6dc457b02577166790cde83bb18cc340aac6cb81b824de"
    },
    {
      "anonymous": false,
      "inputs": [
        {
          "indexed": false,
          "name": "enable",
          "type": "bool"
        }
      ],
      "name": "TradeEnabled",
      "type": "event",
      "signature": "0x7d7f00509dd73ac4449f698ae75ccc797895eff5fa9d446d3df387598a26e735"
    },
    {
      "anonymous": false,
      "inputs": [
        {
          "indexed": false,
          "name": "token",
          "type": "address"
        },
        {
          "indexed": false,
          "name": "addr",
          "type": "address"
        },
        {
          "indexed": false,
          "name": "approve",
          "type": "bool"
        }
      ],
      "name": "WithdrawAddressApproved",
      "type": "event",
      "signature": "0xd5fd5351efae1f4bb760079da9f0ff9589e2c3e216337ca9d39cdff573b245c4"
    },
    {
      "anonymous": false,
      "inputs": [
        {
          "indexed": false,
          "name": "token",
          "type": "address"
        },
        {
          "indexed": false,
          "name": "wallet",
          "type": "address"
        }
      ],
      "name": "NewTokenWallet",
      "type": "event",
      "signature": "0x81995c7b922889ac0a81e41866106d4046268ea3a9abaae9f9e080a6ce36ee7d"
    },
    {
      "anonymous": false,
      "inputs": [
        {
          "indexed": false,
          "name": "token",
          "type": "address"
        },
        {
          "indexed": false,
          "name": "amount",
          "type": "uint256"
        },
        {
          "indexed": false,
          "name": "destination",
          "type": "address"
        }
      ],
      "name": "WithdrawFunds",
      "type": "event",
      "signature": "0xb67719fc33c1f17d31bf3a698690d62066b1e0bae28fcd3c56cf2c015c2863d6"
    },
    {
      "anonymous": false,
      "inputs": [
        {
          "indexed": false,
          "name": "network",
          "type": "address"
        },
        {
          "indexed": false,
          "name": "rate",
          "type": "address"
        },
        {
          "indexed": false,
          "name": "sanity",
          "type": "address"
        }
      ],
      "name": "SetContractAddresses",
      "type": "event",
      "signature": "0x7a85322644a4462d8ff5482d2a841a4d231f8cfb3c9f4a50f66f8b2bd568c31c"
    },
    {
      "anonymous": false,
      "inputs": [
        {
          "indexed": false,
          "name": "token",
          "type": "address"
        },
        {
          "indexed": false,
          "name": "amount",
          "type": "uint256"
        },
        {
          "indexed": false,
          "name": "sendTo",
          "type": "address"
        }
      ],
      "name": "TokenWithdraw",
      "type": "event",
      "signature": "0x72cb8a894ddb372ceec3d2a7648d86f17d5a15caae0e986c53109b8a9a9385e6"
    },
    {
      "anonymous": false,
      "inputs": [
        {
          "indexed": false,
          "name": "amount",
          "type": "uint256"
        },
        {
          "indexed": false,
          "name": "sendTo",
          "type": "address"
        }
      ],
      "name": "EtherWithdraw",
      "type": "event",
      "signature": "0xec47e7ed86c86774d1a72c19f35c639911393fe7c1a34031fdbd260890da90de"
    },
    {
      "anonymous": false,
      "inputs": [
        {
          "indexed": false,
          "name": "pendingAdmin",
          "type": "address"
        }
      ],
      "name": "TransferAdminPending",
      "type": "event",
      "signature": "0x3b81caf78fa51ecbc8acb482fd7012a277b428d9b80f9d156e8a54107496cc40"
    },
    {
      "anonymous": false,
      "inputs": [
        {
          "indexed": false,
          "name": "newAdmin",
          "type": "address"
        },
        {
          "indexed": false,
          "name": "previousAdmin",
          "type": "address"
        }
      ],
      "name": "AdminClaimed",
      "type": "event",
      "signature": "0x65da1cfc2c2e81576ad96afb24a581f8e109b7a403b35cbd3243a1c99efdb9ed"
    },
    {
      "anonymous": false,
      "inputs": [
        {
          "indexed": false,
          "name": "newAlerter",
          "type": "address"
        },
        {
          "indexed": false,
          "name": "isAdd",
          "type": "bool"
        }
      ],
      "name": "AlerterAdded",
      "type": "event",
      "signature": "0x5611bf3e417d124f97bf2c788843ea8bb502b66079fbee02158ef30b172cb762"
    },
    {
      "anonymous": false,
      "inputs": [
        {
          "indexed": false,
          "name": "newOperator",
          "type": "address"
        },
        {
          "indexed": false,
          "name": "isAdd",
          "type": "bool"
        }
      ],
      "name": "OperatorAdded",
      "type": "event",
      "signature": "0x091a7a4b85135fdd7e8dbc18b12fabe5cc191ea867aa3c2e1a24a102af61d58b"
    },
    {
      "constant": false,
      "inputs": [
        {
          "name": "srcToken",
          "type": "address"
        },
        {
          "name": "srcAmount",
          "type": "uint256"
        },
        {
          "name": "destToken",
          "type": "address"
        },
        {
          "name": "destAddress",
          "type": "address"
        },
        {
          "name": "conversionRate",
          "type": "uint256"
        },
        {
          "name": "validate",
          "type": "bool"
        }
      ],
      "name": "trade",
      "outputs": [
        {
          "name": "",
          "type": "bool"
        }
      ],
      "payable": true,
      "stateMutability": "payable",
      "type": "function",
      "signature": "0x6cf69811"
    },
    {
      "constant": false,
      "inputs": [],
      "name": "enableTrade",
      "outputs": [
        {
          "name": "",
          "type": "bool"
        }
      ],
      "payable": false,
      "stateMutability": "nonpayable",
      "type": "function",
      "signature": "0x0099d386"
    },
    {
      "constant": false,
      "inputs": [],
      "name": "disableTrade",
      "outputs": [
        {
          "name": "",
          "type": "bool"
        }
      ],
      "payable": false,
      "stateMutability": "nonpayable",
      "type": "function",
      "signature": "0x6940030f"
    },
    {
      "constant": false,
      "inputs": [
        {
          "name": "token",
          "type": "address"
        },
        {
          "name": "addr",
          "type": "address"
        },
        {
          "name": "approve",
          "type": "bool"
        }
      ],
      "name": "approveWithdrawAddress",
      "outputs": [],
      "payable": false,
      "stateMutability": "nonpayable",
      "type": "function",
      "signature": "0x546dc71c"
    },
    {
      "constant": false,
      "inputs": [
        {
          "name": "token",
          "type": "address"
        },
        {
          "name": "wallet",
          "type": "address"
        }
      ],
      "name": "setTokenWallet",
      "outputs": [],
      "payable": false,
      "stateMutability": "nonpayable",
      "type": "function",
      "signature": "0x1bc7bfec"
    },
    {
      "constant": false,
      "inputs": [
        {
          "name": "token",
          "type": "address"
        },
        {
          "name": "amount",
          "type": "uint256"
        },
        {
          "name": "destination",
          "type": "address"
        }
      ],
      "name": "withdraw",
      "outputs": [
        {
          "name": "",
          "type": "bool"
        }
      ],
      "payable": false,
      "stateMutability": "nonpayable",
      "type": "function",
      "signature": "0x69328dec"
    },
    {
      "constant": false,
      "inputs": [
        {
          "name": "_kyberNetwork",
          "type": "address"
        },
        {
          "name": "_conversionRates",
          "type": "address"
        },
        {
          "name": "_sanityRates",
          "type": "address"
        }
      ],
      "name": "setContracts",
      "outputs": [],
      "payable": false,
      "stateMutability": "nonpayable",
      "type": "function",
      "signature": "0xb3066d49"
    },
    {
      "constant": true,
      "inputs": [
        {
          "name": "token",
          "type": "address"
        }
      ],
      "name": "getBalance",
      "outputs": [
        {
          "name": "",
          "type": "uint256"
        }
      ],
      "payable": false,
      "stateMutability": "view",
      "type": "function",
      "signature": "0xf8b2cb4f"
    },
    {
      "constant": true,
      "inputs": [
        {
          "name": "src",
          "type": "address"
        },
        {
          "name": "dest",
          "type": "address"
        },
        {
          "name": "srcQty",
          "type": "uint256"
        },
        {
          "name": "rate",
          "type": "uint256"
        }
      ],
      "name": "getDestQty",
      "outputs": [
        {
          "name": "",
          "type": "uint256"
        }
      ],
      "payable": false,
      "stateMutability": "view",
      "type": "function",
      "signature": "0xfa64dffa"
    },
    {
      "constant": true,
      "inputs": [
        {
          "name": "src",
          "type": "address"
        },
        {
          "name": "dest",
          "type": "address"
        },
        {
          "name": "dstQty",
          "type": "uint256"
        },
        {
          "name": "rate",
          "type": "uint256"
        }
      ],
      "name": "getSrcQty",
      "outputs": [
        {
          "name": "",
          "type": "uint256"
        }
      ],
      "payable": false,
      "stateMutability": "view",
      "type": "function",
      "signature": "0xa7fca953"
    },
    {
      "constant": true,
      "inputs": [
        {
          "name": "src",
          "type": "address"
        },
        {
          "name": "dest",
          "type": "address"
        },
        {
          "name": "srcQty",
          "type": "uint256"
        },
        {
          "name": "blockNumber",
          "type": "uint256"
        }
      ],
      "name": "getConversionRate",
      "outputs": [
        {
          "name": "",
          "type": "uint256"
        }
      ],
      "payable": false,
      "stateMutability": "view",
      "type": "function",
      "signature": "0x7cd44272"
    }
  ],
  "bytecode": "0x60806040523480156200001157600080fd5b50604051606080620044db833981018060405281019080805190602001909291908051906020019092919080519060200190929190505050336000806101000a81548173ffffffffffffffffffffffffffffffffffffffff021916908373ffffffffffffffffffffffffffffffffffffffff160217905550600073ffffffffffffffffffffffffffffffffffffffff168173ffffffffffffffffffffffffffffffffffffffff1614151515620000c657600080fd5b600073ffffffffffffffffffffffffffffffffffffffff168273ffffffffffffffffffffffffffffffffffffffff16141515156200010357600080fd5b600073ffffffffffffffffffffffffffffffffffffffff168373ffffffffffffffffffffffffffffffffffffffff16141515156200014057600080fd5b82600760006101000a81548173ffffffffffffffffffffffffffffffffffffffff021916908373ffffffffffffffffffffffffffffffffffffffff16021790555081600860006101000a81548173ffffffffffffffffffffffffffffffffffffffff021916908373ffffffffffffffffffffffffffffffffffffffff160217905550806000806101000a81548173ffffffffffffffffffffffffffffffffffffffff021916908373ffffffffffffffffffffffffffffffffffffffff1602179055506001600760146101000a81548160ff0219169083151502179055505050506142ab80620002306000396000f30060806040526004361061017f576000357c0100000000000000000000000000000000000000000000000000000000900463ffffffff16806299d3861461020057806301a12fd31461022f5780631bc7bfec1461027257806326782247146102d557806327a099d81461032c5780633ccdbb2814610398578063408ee7fe1461040557806347e6924f14610448578063546dc71c1461049f57806369328dec1461050e5780636940030f146105935780636cf69811146105c257806375829def1461067057806377f50f97146106b35780637acc8678146106ca5780637c423f541461070d5780637cd44272146107795780639870d7fe14610804578063a7fca95314610847578063a80cbac6146108d2578063ac8a584a14610955578063b3066d4914610998578063b78b842d14610a1b578063ce56c45414610a72578063d5847d3314610abf578063d621e81314610b16578063d7b7024d14610b45578063f851a44014610b8e578063f8b2cb4f14610be5578063fa64dffa14610c3c575b7f2d0c0a8842b9944ece1495eb61121621b5e36bd6af3bba0318c695f525aef79f73eeeeeeeeeeeeeeeeeeeeeeeeeeeeeeeeeeeeeeee34604051808373ffffffffffffffffffffffffffffffffffffffff1673ffffffffffffffffffffffffffffffffffffffff1681526020018281526020019250505060405180910390a1005b34801561020c57600080fd5b50610215610cc7565b604051808215151515815260200191505060405180910390f35b34801561023b57600080fd5b50610270600480360381019080803573ffffffffffffffffffffffffffffffffffffffff169060200190929190505050610d82565b005b34801561027e57600080fd5b506102d3600480360381019080803573ffffffffffffffffffffffffffffffffffffffff169060200190929190803573ffffffffffffffffffffffffffffffffffffffff169060200190929190505050611041565b005b3480156102e157600080fd5b506102ea6111f1565b604051808273ffffffffffffffffffffffffffffffffffffffff1673ffffffffffffffffffffffffffffffffffffffff16815260200191505060405180910390f35b34801561033857600080fd5b50610341611217565b6040518080602001828103825283818151815260200191508051906020019060200280838360005b83811015610384578082015181840152602081019050610369565b505050509050019250505060405180910390f35b3480156103a457600080fd5b50610403600480360381019080803573ffffffffffffffffffffffffffffffffffffffff16906020019092919080359060200190929190803573ffffffffffffffffffffffffffffffffffffffff1690602001909291905050506112a5565b005b34801561041157600080fd5b50610446600480360381019080803573ffffffffffffffffffffffffffffffffffffffff16906020019092919050505061148d565b005b34801561045457600080fd5b5061045d611686565b604051808273ffffffffffffffffffffffffffffffffffffffff1673ffffffffffffffffffffffffffffffffffffffff16815260200191505060405180910390f35b3480156104ab57600080fd5b5061050c600480360381019080803573ffffffffffffffffffffffffffffffffffffffff169060200190929190803573ffffffffffffffffffffffffffffffffffffffff1690602001909291908035151590602001909291905050506116ac565b005b34801561051a57600080fd5b50610579600480360381019080803573ffffffffffffffffffffffffffffffffffffffff16906020019092919080359060200190929190803573ffffffffffffffffffffffffffffffffffffffff169060200190929190505050611b52565b604051808215151515815260200191505060405180910390f35b34801561059f57600080fd5b506105a8611f9a565b604051808215151515815260200191505060405180910390f35b610656600480360381019080803573ffffffffffffffffffffffffffffffffffffffff16906020019092919080359060200190929190803573ffffffffffffffffffffffffffffffffffffffff169060200190929190803573ffffffffffffffffffffffffffffffffffffffff16906020019092919080359060200190929190803515159060200190929190505050612052565b604051808215151515815260200191505060405180910390f35b34801561067c57600080fd5b506106b1600480360381019080803573ffffffffffffffffffffffffffffffffffffffff1690602001909291905050506120f2565b005b3480156106bf57600080fd5b506106c8612252565b005b3480156106d657600080fd5b5061070b600480360381019080803573ffffffffffffffffffffffffffffffffffffffff16906020019092919050505061242e565b005b34801561071957600080fd5b50610722612623565b6040518080602001828103825283818151815260200191508051906020019060200280838360005b8381101561076557808201518184015260208101905061074a565b505050509050019250505060405180910390f35b34801561078557600080fd5b506107ee600480360381019080803573ffffffffffffffffffffffffffffffffffffffff169060200190929190803573ffffffffffffffffffffffffffffffffffffffff16906020019092919080359060200190929190803590602001909291905050506126b1565b6040518082815260200191505060405180910390f35b34801561081057600080fd5b50610845600480360381019080803573ffffffffffffffffffffffffffffffffffffffff169060200190929190505050612a71565b005b34801561085357600080fd5b506108bc600480360381019080803573ffffffffffffffffffffffffffffffffffffffff169060200190929190803573ffffffffffffffffffffffffffffffffffffffff1690602001909291908035906020019092919080359060200190929190505050612c6a565b6040518082815260200191505060405180910390f35b3480156108de57600080fd5b50610913600480360381019080803573ffffffffffffffffffffffffffffffffffffffff169060200190929190505050612c9d565b604051808273ffffffffffffffffffffffffffffffffffffffff1673ffffffffffffffffffffffffffffffffffffffff16815260200191505060405180910390f35b34801561096157600080fd5b50610996600480360381019080803573ffffffffffffffffffffffffffffffffffffffff169060200190929190505050612cd0565b005b3480156109a457600080fd5b50610a19600480360381019080803573ffffffffffffffffffffffffffffffffffffffff169060200190929190803573ffffffffffffffffffffffffffffffffffffffff169060200190929190803573ffffffffffffffffffffffffffffffffffffffff169060200190929190505050612f92565b005b348015610a2757600080fd5b50610a3061325e565b604051808273ffffffffffffffffffffffffffffffffffffffff1673ffffffffffffffffffffffffffffffffffffffff16815260200191505060405180910390f35b348015610a7e57600080fd5b50610abd60048036038101908080359060200190929190803573ffffffffffffffffffffffffffffffffffffffff169060200190929190505050613284565b005b348015610acb57600080fd5b50610ad4613395565b604051808273ffffffffffffffffffffffffffffffffffffffff1673ffffffffffffffffffffffffffffffffffffffff16815260200191505060405180910390f35b348015610b2257600080fd5b50610b2b6133bb565b604051808215151515815260200191505060405180910390f35b348015610b5157600080fd5b50610b7460048036038101908080356000191690602001909291905050506133ce565b604051808215151515815260200191505060405180910390f35b348015610b9a57600080fd5b50610ba36133ee565b604051808273ffffffffffffffffffffffffffffffffffffffff1673ffffffffffffffffffffffffffffffffffffffff16815260200191505060405180910390f35b348015610bf157600080fd5b50610c26600480360381019080803573ffffffffffffffffffffffffffffffffffffffff169060200190929190505050613413565b6040518082815260200191505060405180910390f35b348015610c4857600080fd5b50610cb1600480360381019080803573ffffffffffffffffffffffffffffffffffffffff169060200190929190803573ffffffffffffffffffffffffffffffffffffffff16906020019092919080359060200190929190803590602001909291905050506136e0565b6040518082815260200191505060405180910390f35b60008060009054906101000a900473ffffffffffffffffffffffffffffffffffffffff1673ffffffffffffffffffffffffffffffffffffffff163373ffffffffffffffffffffffffffffffffffffffff16141515610d2457600080fd5b6001600760146101000a81548160ff0219169083151502179055507f7d7f00509dd73ac4449f698ae75ccc797895eff5fa9d446d3df387598a26e7356001604051808215151515815260200191505060405180910390a16001905090565b60008060009054906101000a900473ffffffffffffffffffffffffffffffffffffffff1673ffffffffffffffffffffffffffffffffffffffff163373ffffffffffffffffffffffffffffffffffffffff16141515610ddf57600080fd5b600360008373ffffffffffffffffffffffffffffffffffffffff1673ffffffffffffffffffffffffffffffffffffffff16815260200190815260200160002060009054906101000a900460ff161515610e3757600080fd5b6000600360008473ffffffffffffffffffffffffffffffffffffffff1673ffffffffffffffffffffffffffffffffffffffff16815260200190815260200160002060006101000a81548160ff021916908315150217905550600090505b60058054905081101561103d578173ffffffffffffffffffffffffffffffffffffffff16600582815481101515610ec757fe5b9060005260206000200160009054906101000a900473ffffffffffffffffffffffffffffffffffffffff1673ffffffffffffffffffffffffffffffffffffffff161415611032576005600160058054905003815481101515610f2557fe5b9060005260206000200160009054906101000a900473ffffffffffffffffffffffffffffffffffffffff16600582815481101515610f5f57fe5b9060005260206000200160006101000a81548173ffffffffffffffffffffffffffffffffffffffff021916908373ffffffffffffffffffffffffffffffffffffffff1602179055506005805480919060019003610fbc919061422e565b507f5611bf3e417d124f97bf2c788843ea8bb502b66079fbee02158ef30b172cb762826000604051808373ffffffffffffffffffffffffffffffffffffffff1673ffffffffffffffffffffffffffffffffffffffff168152602001821515151581526020019250505060405180910390a161103d565b806001019050610e94565b5050565b6000809054906101000a900473ffffffffffffffffffffffffffffffffffffffff1673ffffffffffffffffffffffffffffffffffffffff163373ffffffffffffffffffffffffffffffffffffffff1614151561109c57600080fd5b600073ffffffffffffffffffffffffffffffffffffffff168173ffffffffffffffffffffffffffffffffffffffff16141515156110d857600080fd5b80600b60008473ffffffffffffffffffffffffffffffffffffffff1673ffffffffffffffffffffffffffffffffffffffff16815260200190815260200160002060006101000a81548173ffffffffffffffffffffffffffffffffffffffff021916908373ffffffffffffffffffffffffffffffffffffffff1602179055507f81995c7b922889ac0a81e41866106d4046268ea3a9abaae9f9e080a6ce36ee7d8282604051808373ffffffffffffffffffffffffffffffffffffffff1673ffffffffffffffffffffffffffffffffffffffff1681526020018273ffffffffffffffffffffffffffffffffffffffff1673ffffffffffffffffffffffffffffffffffffffff1681526020019250505060405180910390a15050565b600160009054906101000a900473ffffffffffffffffffffffffffffffffffffffff1681565b6060600480548060200260200160405190810160405280929190818152602001828054801561129b57602002820191906000526020600020905b8160009054906101000a900473ffffffffffffffffffffffffffffffffffffffff1673ffffffffffffffffffffffffffffffffffffffff1681526020019060010190808311611251575b5050505050905090565b6000809054906101000a900473ffffffffffffffffffffffffffffffffffffffff1673ffffffffffffffffffffffffffffffffffffffff163373ffffffffffffffffffffffffffffffffffffffff1614151561130057600080fd5b8273ffffffffffffffffffffffffffffffffffffffff1663a9059cbb82846040518363ffffffff167c0100000000000000000000000000000000000000000000000000000000028152600401808373ffffffffffffffffffffffffffffffffffffffff1673ffffffffffffffffffffffffffffffffffffffff16815260200182815260200192505050602060405180830381600087803b1580156113a357600080fd5b505af11580156113b7573d6000803e3d6000fd5b505050506040513d60208110156113cd57600080fd5b810190808051906020019092919050505015156113e957600080fd5b7f72cb8a894ddb372ceec3d2a7648d86f17d5a15caae0e986c53109b8a9a9385e6838383604051808473ffffffffffffffffffffffffffffffffffffffff1673ffffffffffffffffffffffffffffffffffffffff1681526020018381526020018273ffffffffffffffffffffffffffffffffffffffff1673ffffffffffffffffffffffffffffffffffffffff168152602001935050505060405180910390a1505050565b6000809054906101000a900473ffffffffffffffffffffffffffffffffffffffff1673ffffffffffffffffffffffffffffffffffffffff163373ffffffffffffffffffffffffffffffffffffffff161415156114e857600080fd5b600360008273ffffffffffffffffffffffffffffffffffffffff1673ffffffffffffffffffffffffffffffffffffffff16815260200190815260200160002060009054906101000a900460ff1615151561154157600080fd5b603260058054905010151561155557600080fd5b7f5611bf3e417d124f97bf2c788843ea8bb502b66079fbee02158ef30b172cb762816001604051808373ffffffffffffffffffffffffffffffffffffffff1673ffffffffffffffffffffffffffffffffffffffff168152602001821515151581526020019250505060405180910390a16001600360008373ffffffffffffffffffffffffffffffffffffffff1673ffffffffffffffffffffffffffffffffffffffff16815260200190815260200160002060006101000a81548160ff02191690831515021790555060058190806001815401808255809150509060018203906000526020600020016000909192909190916101000a81548173ffffffffffffffffffffffffffffffffffffffff021916908373ffffffffffffffffffffffffffffffffffffffff1602179055505050565b600960009054906101000a900473ffffffffffffffffffffffffffffffffffffffff1681565b6000809054906101000a900473ffffffffffffffffffffffffffffffffffffffff1673ffffffffffffffffffffffffffffffffffffffff163373ffffffffffffffffffffffffffffffffffffffff1614151561170757600080fd5b80600a60008585604051602001808373ffffffffffffffffffffffffffffffffffffffff1673ffffffffffffffffffffffffffffffffffffffff166c010000000000000000000000000281526014018273ffffffffffffffffffffffffffffffffffffffff1673ffffffffffffffffffffffffffffffffffffffff166c01000000000000000000000000028152601401925050506040516020818303038152906040526040518082805190602001908083835b6020831015156117df57805182526020820191506020810190506020830392506117ba565b6001836020036101000a03801982511681845116808217855250505050505090500191505060405180910390206000191660001916815260200190815260200160002060006101000a81548160ff0219169083151502179055507fd5fd5351efae1f4bb760079da9f0ff9589e2c3e216337ca9d39cdff573b245c4838383604051808473ffffffffffffffffffffffffffffffffffffffff1673ffffffffffffffffffffffffffffffffffffffff1681526020018373ffffffffffffffffffffffffffffffffffffffff1673ffffffffffffffffffffffffffffffffffffffff16815260200182151515158152602001935050505060405180910390a16118e583613713565b600073ffffffffffffffffffffffffffffffffffffffff16600b60008573ffffffffffffffffffffffffffffffffffffffff1673ffffffffffffffffffffffffffffffffffffffff16815260200190815260200160002060009054906101000a900473ffffffffffffffffffffffffffffffffffffffff1673ffffffffffffffffffffffffffffffffffffffff161480156119c0575073eeeeeeeeeeeeeeeeeeeeeeeeeeeeeeeeeeeeeeee73ffffffffffffffffffffffffffffffffffffffff168373ffffffffffffffffffffffffffffffffffffffff1614155b15611b4d5730600b60008573ffffffffffffffffffffffffffffffffffffffff1673ffffffffffffffffffffffffffffffffffffffff16815260200190815260200160002060006101000a81548173ffffffffffffffffffffffffffffffffffffffff021916908373ffffffffffffffffffffffffffffffffffffffff1602179055508273ffffffffffffffffffffffffffffffffffffffff1663095ea7b3307f80000000000000000000000000000000000000000000000000000000000000006040518363ffffffff167c0100000000000000000000000000000000000000000000000000000000028152600401808373ffffffffffffffffffffffffffffffffffffffff1673ffffffffffffffffffffffffffffffffffffffff16815260200182815260200192505050602060405180830381600087803b158015611b0657600080fd5b505af1158015611b1a573d6000803e3d6000fd5b505050506040513d6020811015611b3057600080fd5b81019080805190602001909291905050501515611b4c57600080fd5b5b505050565b6000600260003373ffffffffffffffffffffffffffffffffffffffff1673ffffffffffffffffffffffffffffffffffffffff16815260200190815260200160002060009054906101000a900460ff161515611bac57600080fd5b600a60008584604051602001808373ffffffffffffffffffffffffffffffffffffffff1673ffffffffffffffffffffffffffffffffffffffff166c010000000000000000000000000281526014018273ffffffffffffffffffffffffffffffffffffffff1673ffffffffffffffffffffffffffffffffffffffff166c01000000000000000000000000028152601401925050506040516020818303038152906040526040518082805190602001908083835b602083101515611c835780518252602082019150602081019050602083039250611c5e565b6001836020036101000a03801982511681845116808217855250505050505090500191505060405180910390206000191660001916815260200190815260200160002060009054906101000a900460ff161515611cdf57600080fd5b73eeeeeeeeeeeeeeeeeeeeeeeeeeeeeeeeeeeeeeee73ffffffffffffffffffffffffffffffffffffffff168473ffffffffffffffffffffffffffffffffffffffff161415611d73578173ffffffffffffffffffffffffffffffffffffffff166108fc849081150290604051600060405180830381858888f19350505050158015611d6d573d6000803e3d6000fd5b50611ef0565b8373ffffffffffffffffffffffffffffffffffffffff166323b872dd600b60008773ffffffffffffffffffffffffffffffffffffffff1673ffffffffffffffffffffffffffffffffffffffff16815260200190815260200160002060009054906101000a900473ffffffffffffffffffffffffffffffffffffffff1684866040518463ffffffff167c0100000000000000000000000000000000000000000000000000000000028152600401808473ffffffffffffffffffffffffffffffffffffffff1673ffffffffffffffffffffffffffffffffffffffff1681526020018373ffffffffffffffffffffffffffffffffffffffff1673ffffffffffffffffffffffffffffffffffffffff1681526020018281526020019350505050602060405180830381600087803b158015611ea957600080fd5b505af1158015611ebd573d6000803e3d6000fd5b505050506040513d6020811015611ed357600080fd5b81019080805190602001909291905050501515611eef57600080fd5b5b7fb67719fc33c1f17d31bf3a698690d62066b1e0bae28fcd3c56cf2c015c2863d6848484604051808473ffffffffffffffffffffffffffffffffffffffff1673ffffffffffffffffffffffffffffffffffffffff1681526020018381526020018273ffffffffffffffffffffffffffffffffffffffff1673ffffffffffffffffffffffffffffffffffffffff168152602001935050505060405180910390a1600190509392505050565b6000600360003373ffffffffffffffffffffffffffffffffffffffff1673ffffffffffffffffffffffffffffffffffffffff16815260200190815260200160002060009054906101000a900460ff161515611ff457600080fd5b6000600760146101000a81548160ff0219169083151502179055507f7d7f00509dd73ac4449f698ae75ccc797895eff5fa9d446d3df387598a26e7356000604051808215151515815260200191505060405180910390a16001905090565b6000600760149054906101000a900460ff16151561206f57600080fd5b600760009054906101000a900473ffffffffffffffffffffffffffffffffffffffff1673ffffffffffffffffffffffffffffffffffffffff163373ffffffffffffffffffffffffffffffffffffffff161415156120cb57600080fd5b6120d987878787878761388b565b15156120e457600080fd5b600190509695505050505050565b6000809054906101000a900473ffffffffffffffffffffffffffffffffffffffff1673ffffffffffffffffffffffffffffffffffffffff163373ffffffffffffffffffffffffffffffffffffffff1614151561214d57600080fd5b600073ffffffffffffffffffffffffffffffffffffffff168173ffffffffffffffffffffffffffffffffffffffff161415151561218957600080fd5b7f3b81caf78fa51ecbc8acb482fd7012a277b428d9b80f9d156e8a54107496cc40600160009054906101000a900473ffffffffffffffffffffffffffffffffffffffff16604051808273ffffffffffffffffffffffffffffffffffffffff1673ffffffffffffffffffffffffffffffffffffffff16815260200191505060405180910390a180600160006101000a81548173ffffffffffffffffffffffffffffffffffffffff021916908373ffffffffffffffffffffffffffffffffffffffff16021790555050565b3373ffffffffffffffffffffffffffffffffffffffff16600160009054906101000a900473ffffffffffffffffffffffffffffffffffffffff1673ffffffffffffffffffffffffffffffffffffffff161415156122ae57600080fd5b7f65da1cfc2c2e81576ad96afb24a581f8e109b7a403b35cbd3243a1c99efdb9ed600160009054906101000a900473ffffffffffffffffffffffffffffffffffffffff166000809054906101000a900473ffffffffffffffffffffffffffffffffffffffff16604051808373ffffffffffffffffffffffffffffffffffffffff1673ffffffffffffffffffffffffffffffffffffffff1681526020018273ffffffffffffffffffffffffffffffffffffffff1673ffffffffffffffffffffffffffffffffffffffff1681526020019250505060405180910390a1600160009054906101000a900473ffffffffffffffffffffffffffffffffffffffff166000806101000a81548173ffffffffffffffffffffffffffffffffffffffff021916908373ffffffffffffffffffffffffffffffffffffffff1602179055506000600160006101000a81548173ffffffffffffffffffffffffffffffffffffffff021916908373ffffffffffffffffffffffffffffffffffffffff160217905550565b6000809054906101000a900473ffffffffffffffffffffffffffffffffffffffff1673ffffffffffffffffffffffffffffffffffffffff163373ffffffffffffffffffffffffffffffffffffffff1614151561248957600080fd5b600073ffffffffffffffffffffffffffffffffffffffff168173ffffffffffffffffffffffffffffffffffffffff16141515156124c557600080fd5b7f3b81caf78fa51ecbc8acb482fd7012a277b428d9b80f9d156e8a54107496cc4081604051808273ffffffffffffffffffffffffffffffffffffffff1673ffffffffffffffffffffffffffffffffffffffff16815260200191505060405180910390a17f65da1cfc2c2e81576ad96afb24a581f8e109b7a403b35cbd3243a1c99efdb9ed816000809054906101000a900473ffffffffffffffffffffffffffffffffffffffff16604051808373ffffffffffffffffffffffffffffffffffffffff1673ffffffffffffffffffffffffffffffffffffffff1681526020018273ffffffffffffffffffffffffffffffffffffffff1673ffffffffffffffffffffffffffffffffffffffff1681526020019250505060405180910390a1806000806101000a81548173ffffffffffffffffffffffffffffffffffffffff021916908373ffffffffffffffffffffffffffffffffffffffff16021790555050565b606060058054806020026020016040519081016040528092919081815260200182805480156126a757602002820191906000526020600020905b8160009054906101000a900473ffffffffffffffffffffffffffffffffffffffff1673ffffffffffffffffffffffffffffffffffffffff168152602001906001019080831161265d575b5050505050905090565b600080600080600080600760149054906101000a900460ff1615156126d95760009550612a64565b8973ffffffffffffffffffffffffffffffffffffffff1673eeeeeeeeeeeeeeeeeeeeeeeeeeeeeeeeeeeeeeee73ffffffffffffffffffffffffffffffffffffffff16141561272d576001935088945061278b565b8873ffffffffffffffffffffffffffffffffffffffff1673eeeeeeeeeeeeeeeeeeeeeeeeeeeeeeeeeeeeeeee73ffffffffffffffffffffffffffffffffffffffff161415612781576000935089945061278a565b60009550612a64565b5b600860009054906101000a900473ffffffffffffffffffffffffffffffffffffffff1673ffffffffffffffffffffffffffffffffffffffff1663b8e9c22e8689878c6040518563ffffffff167c0100000000000000000000000000000000000000000000000000000000028152600401808573ffffffffffffffffffffffffffffffffffffffff1673ffffffffffffffffffffffffffffffffffffffff16815260200184815260200183151515158152602001828152602001945050505050602060405180830381600087803b15801561286457600080fd5b505af1158015612878573d6000803e3d6000fd5b505050506040513d602081101561288e57600080fd5b810190808051906020019092919050505092506128ad8a8a8a866136e0565b9150816128b98a613413565b10156128c85760009550612a64565b600073ffffffffffffffffffffffffffffffffffffffff16600960009054906101000a900473ffffffffffffffffffffffffffffffffffffffff1673ffffffffffffffffffffffffffffffffffffffff16141515612a6057600960009054906101000a900473ffffffffffffffffffffffffffffffffffffffff1673ffffffffffffffffffffffffffffffffffffffff1663a58092b78b8b6040518363ffffffff167c0100000000000000000000000000000000000000000000000000000000028152600401808373ffffffffffffffffffffffffffffffffffffffff1673ffffffffffffffffffffffffffffffffffffffff1681526020018273ffffffffffffffffffffffffffffffffffffffff1673ffffffffffffffffffffffffffffffffffffffff16815260200192505050602060405180830381600087803b158015612a1157600080fd5b505af1158015612a25573d6000803e3d6000fd5b505050506040513d6020811015612a3b57600080fd5b8101908080519060200190929190505050905080831115612a5f5760009550612a64565b5b8295505b5050505050949350505050565b6000809054906101000a900473ffffffffffffffffffffffffffffffffffffffff1673ffffffffffffffffffffffffffffffffffffffff163373ffffffffffffffffffffffffffffffffffffffff16141515612acc57600080fd5b600260008273ffffffffffffffffffffffffffffffffffffffff1673ffffffffffffffffffffffffffffffffffffffff16815260200190815260200160002060009054906101000a900460ff16151515612b2557600080fd5b6032600480549050101515612b3957600080fd5b7f091a7a4b85135fdd7e8dbc18b12fabe5cc191ea867aa3c2e1a24a102af61d58b816001604051808373ffffffffffffffffffffffffffffffffffffffff1673ffffffffffffffffffffffffffffffffffffffff168152602001821515151581526020019250505060405180910390a16001600260008373ffffffffffffffffffffffffffffffffffffffff1673ffffffffffffffffffffffffffffffffffffffff16815260200190815260200160002060006101000a81548160ff02191690831515021790555060048190806001815401808255809150509060018203906000526020600020016000909192909190916101000a81548173ffffffffffffffffffffffffffffffffffffffff021916908373ffffffffffffffffffffffffffffffffffffffff1602179055505050565b6000806000612c7886613f73565b9150612c8387613f73565b9050612c91858284876140c2565b92505050949350505050565b600b6020528060005260406000206000915054906101000a900473ffffffffffffffffffffffffffffffffffffffff1681565b60008060009054906101000a900473ffffffffffffffffffffffffffffffffffffffff1673ffffffffffffffffffffffffffffffffffffffff163373ffffffffffffffffffffffffffffffffffffffff16141515612d2d57600080fd5b600260008373ffffffffffffffffffffffffffffffffffffffff1673ffffffffffffffffffffffffffffffffffffffff16815260200190815260200160002060009054906101000a900460ff161515612d8557600080fd5b6000600260008473ffffffffffffffffffffffffffffffffffffffff1673ffffffffffffffffffffffffffffffffffffffff16815260200190815260200160002060006101000a81548160ff021916908315150217905550600090505b600480549050811015612f8e578173ffffffffffffffffffffffffffffffffffffffff16600482815481101515612e1557fe5b9060005260206000200160009054906101000a900473ffffffffffffffffffffffffffffffffffffffff1673ffffffffffffffffffffffffffffffffffffffff161415612f83576004600160048054905003815481101515612e7357fe5b9060005260206000200160009054906101000a900473ffffffffffffffffffffffffffffffffffffffff16600482815481101515612ead57fe5b9060005260206000200160006101000a81548173ffffffffffffffffffffffffffffffffffffffff021916908373ffffffffffffffffffffffffffffffffffffffff1602179055506001600481818054905003915081612f0d919061422e565b507f091a7a4b85135fdd7e8dbc18b12fabe5cc191ea867aa3c2e1a24a102af61d58b826000604051808373ffffffffffffffffffffffffffffffffffffffff1673ffffffffffffffffffffffffffffffffffffffff168152602001821515151581526020019250505060405180910390a1612f8e565b806001019050612de2565b5050565b6000809054906101000a900473ffffffffffffffffffffffffffffffffffffffff1673ffffffffffffffffffffffffffffffffffffffff163373ffffffffffffffffffffffffffffffffffffffff16141515612fed57600080fd5b600073ffffffffffffffffffffffffffffffffffffffff168373ffffffffffffffffffffffffffffffffffffffff161415151561302957600080fd5b600073ffffffffffffffffffffffffffffffffffffffff168273ffffffffffffffffffffffffffffffffffffffff161415151561306557600080fd5b82600760006101000a81548173ffffffffffffffffffffffffffffffffffffffff021916908373ffffffffffffffffffffffffffffffffffffffff16021790555081600860006101000a81548173ffffffffffffffffffffffffffffffffffffffff021916908373ffffffffffffffffffffffffffffffffffffffff16021790555080600960006101000a81548173ffffffffffffffffffffffffffffffffffffffff021916908373ffffffffffffffffffffffffffffffffffffffff1602179055507f7a85322644a4462d8ff5482d2a841a4d231f8cfb3c9f4a50f66f8b2bd568c31c600760009054906101000a900473ffffffffffffffffffffffffffffffffffffffff16600860009054906101000a900473ffffffffffffffffffffffffffffffffffffffff16600960009054906101000a900473ffffffffffffffffffffffffffffffffffffffff16604051808473ffffffffffffffffffffffffffffffffffffffff1673ffffffffffffffffffffffffffffffffffffffff1681526020018373ffffffffffffffffffffffffffffffffffffffff1673ffffffffffffffffffffffffffffffffffffffff1681526020018273ffffffffffffffffffffffffffffffffffffffff1673ffffffffffffffffffffffffffffffffffffffff168152602001935050505060405180910390a1505050565b600760009054906101000a900473ffffffffffffffffffffffffffffffffffffffff1681565b6000809054906101000a900473ffffffffffffffffffffffffffffffffffffffff1673ffffffffffffffffffffffffffffffffffffffff163373ffffffffffffffffffffffffffffffffffffffff161415156132df57600080fd5b8073ffffffffffffffffffffffffffffffffffffffff166108fc839081150290604051600060405180830381858888f19350505050158015613325573d6000803e3d6000fd5b507fec47e7ed86c86774d1a72c19f35c639911393fe7c1a34031fdbd260890da90de8282604051808381526020018273ffffffffffffffffffffffffffffffffffffffff1673ffffffffffffffffffffffffffffffffffffffff1681526020019250505060405180910390a15050565b600860009054906101000a900473ffffffffffffffffffffffffffffffffffffffff1681565b600760149054906101000a900460ff1681565b600a6020528060005260406000206000915054906101000a900460ff1681565b6000809054906101000a900473ffffffffffffffffffffffffffffffffffffffff1681565b60008060008073eeeeeeeeeeeeeeeeeeeeeeeeeeeeeeeeeeeeeeee73ffffffffffffffffffffffffffffffffffffffff168573ffffffffffffffffffffffffffffffffffffffff161415613480573073ffffffffffffffffffffffffffffffffffffffff163193506136d8565b600b60008673ffffffffffffffffffffffffffffffffffffffff1673ffffffffffffffffffffffffffffffffffffffff16815260200190815260200160002060009054906101000a900473ffffffffffffffffffffffffffffffffffffffff1692508473ffffffffffffffffffffffffffffffffffffffff166370a08231846040518263ffffffff167c0100000000000000000000000000000000000000000000000000000000028152600401808273ffffffffffffffffffffffffffffffffffffffff1673ffffffffffffffffffffffffffffffffffffffff168152602001915050602060405180830381600087803b15801561357d57600080fd5b505af1158015613591573d6000803e3d6000fd5b505050506040513d60208110156135a757600080fd5b810190808051906020019092919050505091508473ffffffffffffffffffffffffffffffffffffffff1663dd62ed3e84306040518363ffffffff167c0100000000000000000000000000000000000000000000000000000000028152600401808373ffffffffffffffffffffffffffffffffffffffff1673ffffffffffffffffffffffffffffffffffffffff1681526020018273ffffffffffffffffffffffffffffffffffffffff1673ffffffffffffffffffffffffffffffffffffffff16815260200192505050602060405180830381600087803b15801561368957600080fd5b505af115801561369d573d6000803e3d6000fd5b505050506040513d60208110156136b357600080fd5b810190808051906020019092919050505090508082106136d357806136d5565b815b93505b505050919050565b60008060006136ee86613f73565b91506136f987613f73565b90506137078582848761417c565b92505050949350505050565b73eeeeeeeeeeeeeeeeeeeeeeeeeeeeeeeeeeeeeeee73ffffffffffffffffffffffffffffffffffffffff168173ffffffffffffffffffffffffffffffffffffffff1614156137a5576012600660008373ffffffffffffffffffffffffffffffffffffffff1673ffffffffffffffffffffffffffffffffffffffff16815260200190815260200160002081905550613888565b8073ffffffffffffffffffffffffffffffffffffffff1663313ce5676040518163ffffffff167c0100000000000000000000000000000000000000000000000000000000028152600401602060405180830381600087803b15801561380957600080fd5b505af115801561381d573d6000803e3d6000fd5b505050506040513d602081101561383357600080fd5b8101908080519060200190929190505050600660008373ffffffffffffffffffffffffffffffffffffffff1673ffffffffffffffffffffffffffffffffffffffff168152602001908152602001600020819055505b50565b6000806000808415613912576000861115156138a657600080fd5b73eeeeeeeeeeeeeeeeeeeeeeeeeeeeeeeeeeeeeeee73ffffffffffffffffffffffffffffffffffffffff168a73ffffffffffffffffffffffffffffffffffffffff1614156139015788341415156138fc57600080fd5b613911565b60003414151561391057600080fd5b5b5b61391e8a898b896136e0565b925060008311151561392f57600080fd5b73eeeeeeeeeeeeeeeeeeeeeeeeeeeeeeeeeeeeeeee73ffffffffffffffffffffffffffffffffffffffff168a73ffffffffffffffffffffffffffffffffffffffff161415613982578290508791506139ab565b887fffffffffffffffffffffffffffffffffffffffffffffffffffffffffffffffff0290508991505b600860009054906101000a900473ffffffffffffffffffffffffffffffffffffffff1673ffffffffffffffffffffffffffffffffffffffff1663c6fd210383836000436040518563ffffffff167c0100000000000000000000000000000000000000000000000000000000028152600401808573ffffffffffffffffffffffffffffffffffffffff1673ffffffffffffffffffffffffffffffffffffffff168152602001848152602001838152602001828152602001945050505050600060405180830381600087803b158015613a8157600080fd5b505af1158015613a95573d6000803e3d6000fd5b5050505073eeeeeeeeeeeeeeeeeeeeeeeeeeeeeeeeeeeeeeee73ffffffffffffffffffffffffffffffffffffffff168a73ffffffffffffffffffffffffffffffffffffffff16141515613c5f578973ffffffffffffffffffffffffffffffffffffffff166323b872dd33600b60008e73ffffffffffffffffffffffffffffffffffffffff1673ffffffffffffffffffffffffffffffffffffffff16815260200190815260200160002060009054906101000a900473ffffffffffffffffffffffffffffffffffffffff168c6040518463ffffffff167c0100000000000000000000000000000000000000000000000000000000028152600401808473ffffffffffffffffffffffffffffffffffffffff1673ffffffffffffffffffffffffffffffffffffffff1681526020018373ffffffffffffffffffffffffffffffffffffffff1673ffffffffffffffffffffffffffffffffffffffff1681526020018281526020019350505050602060405180830381600087803b158015613c1857600080fd5b505af1158015613c2c573d6000803e3d6000fd5b505050506040513d6020811015613c4257600080fd5b81019080805190602001909291905050501515613c5e57600080fd5b5b73eeeeeeeeeeeeeeeeeeeeeeeeeeeeeeeeeeeeeeee73ffffffffffffffffffffffffffffffffffffffff168873ffffffffffffffffffffffffffffffffffffffff161415613cf3578673ffffffffffffffffffffffffffffffffffffffff166108fc849081150290604051600060405180830381858888f19350505050158015613ced573d6000803e3d6000fd5b50613e70565b8773ffffffffffffffffffffffffffffffffffffffff166323b872dd600b60008b73ffffffffffffffffffffffffffffffffffffffff1673ffffffffffffffffffffffffffffffffffffffff16815260200190815260200160002060009054906101000a900473ffffffffffffffffffffffffffffffffffffffff1689866040518463ffffffff167c0100000000000000000000000000000000000000000000000000000000028152600401808473ffffffffffffffffffffffffffffffffffffffff1673ffffffffffffffffffffffffffffffffffffffff1681526020018373ffffffffffffffffffffffffffffffffffffffff1673ffffffffffffffffffffffffffffffffffffffff1681526020018281526020019350505050602060405180830381600087803b158015613e2957600080fd5b505af1158015613e3d573d6000803e3d6000fd5b505050506040513d6020811015613e5357600080fd5b81019080805190602001909291905050501515613e6f57600080fd5b5b3373ffffffffffffffffffffffffffffffffffffffff167fea9415385bae08fe9f6dc457b02577166790cde83bb18cc340aac6cb81b824de8b8b8b878c604051808673ffffffffffffffffffffffffffffffffffffffff1673ffffffffffffffffffffffffffffffffffffffff1681526020018581526020018473ffffffffffffffffffffffffffffffffffffffff1673ffffffffffffffffffffffffffffffffffffffff1681526020018381526020018273ffffffffffffffffffffffffffffffffffffffff1673ffffffffffffffffffffffffffffffffffffffff1681526020019550505050505060405180910390a2600193505050509695505050505050565b60008073eeeeeeeeeeeeeeeeeeeeeeeeeeeeeeeeeeeeeeee73ffffffffffffffffffffffffffffffffffffffff168373ffffffffffffffffffffffffffffffffffffffff161415613fc757601291506140bc565b600660008473ffffffffffffffffffffffffffffffffffffffff1673ffffffffffffffffffffffffffffffffffffffff16815260200190815260200160002054905060008114156140b8578273ffffffffffffffffffffffffffffffffffffffff1663313ce5676040518163ffffffff167c0100000000000000000000000000000000000000000000000000000000028152600401602060405180830381600087803b15801561407657600080fd5b505af115801561408a573d6000803e3d6000fd5b505050506040513d60208110156140a057600080fd5b810190808051906020019092919050505091506140bc565b8091505b50919050565b60008060006b204fce5e3e2502611000000087111515156140e257600080fd5b620f4240670de0b6b3a76400000284111515156140fe57600080fd5b84861015156141355760128587031115151561411957600080fd5b848603600a0a87670de0b6b3a76400000202915083905061415f565b60128686031115151561414757600080fd5b86670de0b6b3a7640000029150858503600a0a840290505b8060018284010381151561416f57fe5b0492505050949350505050565b60006b204fce5e3e25026110000000851115151561419957600080fd5b620f4240670de0b6b3a76400000282111515156141b557600080fd5b83831015156141f4576012848403111515156141d057600080fd5b670de0b6b3a7640000848403600a0a838702028115156141ec57fe5b049050614226565b60128385031115151561420657600080fd5b828403600a0a670de0b6b3a76400000282860281151561422257fe5b0490505b949350505050565b81548183558181111561425557818360005260206000209182019101614254919061425a565b5b505050565b61427c91905b80821115614278576000816000905550600101614260565b5090565b905600a165627a7a72305820ce9cd34772b8434b404cf5222573f4757522e125e110006153da28311719711e0029",
  "source": "pragma solidity ^0.4.25;\r\n\r\n\r\nimport \"./ERC20Interface.sol\";\r\nimport \"./Utils.sol\";\r\nimport \"./Withdrawable.sol\";\r\nimport \"./ConversionRatesInterface.sol\";\r\nimport \"./SanityRatesInterface.sol\";\r\nimport \"./KyberReserveInterface.sol\";\r\n\r\n\r\n/// @title Kyber Reserve contract\r\ncontract KyberReserve is KyberReserveInterface, Withdrawable, Utils {\r\n\r\n    address public kyberNetwork;\r\n    bool public tradeEnabled;\r\n    ConversionRatesInterface public conversionRatesContract;\r\n    SanityRatesInterface public sanityRatesContract;\r\n    mapping(bytes32=>bool) public approvedWithdrawAddresses; // sha3(token,address)=>bool\r\n    mapping(address=>address) public tokenWallet;\r\n\r\n    constructor(address _kyberNetwork, ConversionRatesInterface _ratesContract, address _admin) public {\r\n        require(_admin != address(0));\r\n        require(_ratesContract != address(0));\r\n        require(_kyberNetwork != address(0));\r\n        kyberNetwork = _kyberNetwork;\r\n        conversionRatesContract = _ratesContract;\r\n        admin = _admin;\r\n        tradeEnabled = true;\r\n    }\r\n\r\n    event DepositToken(ERC20 token, uint amount);\r\n\r\n    function() public payable {\r\n        emit DepositToken(ETH_TOKEN_ADDRESS, msg.value);\r\n    }\r\n\r\n    event TradeExecute(\r\n        address indexed origin,\r\n        address src,\r\n        uint srcAmount,\r\n        address destToken,\r\n        uint destAmount,\r\n        address destAddress\r\n    );\r\n\r\n    function trade(\r\n        ERC20 srcToken,\r\n        uint srcAmount,\r\n        ERC20 destToken,\r\n        address destAddress,\r\n        uint conversionRate,\r\n        bool validate\r\n    )\r\n        public\r\n        payable\r\n        returns(bool)\r\n    {\r\n        require(tradeEnabled);\r\n        require(msg.sender == kyberNetwork);\r\n\r\n        require(doTrade(srcToken, srcAmount, destToken, destAddress, conversionRate, validate));\r\n\r\n        return true;\r\n    }\r\n\r\n    event TradeEnabled(bool enable);\r\n\r\n    function enableTrade() public onlyAdmin returns(bool) {\r\n        tradeEnabled = true;\r\n        emit TradeEnabled(true);\r\n\r\n        return true;\r\n    }\r\n\r\n    function disableTrade() public onlyAlerter returns(bool) {\r\n        tradeEnabled = false;\r\n        emit TradeEnabled(false);\r\n\r\n        return true;\r\n    }\r\n\r\n    event WithdrawAddressApproved(ERC20 token, address addr, bool approve);\r\n\r\n    function approveWithdrawAddress(ERC20 token, address addr, bool approve) public onlyAdmin {\r\n        approvedWithdrawAddresses[keccak256(abi.encodePacked(token, addr))] = approve;\r\n        emit WithdrawAddressApproved(token, addr, approve);\r\n\r\n        setDecimals(token);\r\n        if ((tokenWallet[token] == address(0x0)) && (token != ETH_TOKEN_ADDRESS)) {\r\n            tokenWallet[token] = this; // by default\r\n            require(token.approve(this, 2 ** 255));\r\n        }\r\n    }\r\n\r\n    event NewTokenWallet(ERC20 token, address wallet);\r\n\r\n    function setTokenWallet(ERC20 token, address wallet) public onlyAdmin {\r\n        require(wallet != address(0x0));\r\n        tokenWallet[token] = wallet;\r\n        emit NewTokenWallet(token, wallet);\r\n    }\r\n\r\n    event WithdrawFunds(ERC20 token, uint amount, address destination);\r\n\r\n    function withdraw(ERC20 token, uint amount, address destination) public onlyOperator returns(bool) {\r\n        require(approvedWithdrawAddresses[keccak256(abi.encodePacked(token, destination))]);\r\n\r\n        if (token == ETH_TOKEN_ADDRESS) {\r\n            destination.transfer(amount);\r\n        } else {\r\n            require(token.transferFrom(tokenWallet[token], destination, amount));\r\n        }\r\n\r\n        emit WithdrawFunds(token, amount, destination);\r\n\r\n        return true;\r\n    }\r\n\r\n    event SetContractAddresses(address network, address rate, address sanity);\r\n\r\n    function setContracts(\r\n        address _kyberNetwork,\r\n        ConversionRatesInterface _conversionRates,\r\n        SanityRatesInterface _sanityRates\r\n    )\r\n        public\r\n        onlyAdmin\r\n    {\r\n        require(_kyberNetwork != address(0));\r\n        require(_conversionRates != address(0));\r\n\r\n        kyberNetwork = _kyberNetwork;\r\n        conversionRatesContract = _conversionRates;\r\n        sanityRatesContract = _sanityRates;\r\n\r\n        emit SetContractAddresses(kyberNetwork, conversionRatesContract, sanityRatesContract);\r\n    }\r\n\r\n    ////////////////////////////////////////////////////////////////////////////\r\n    /// status functions ///////////////////////////////////////////////////////\r\n    ////////////////////////////////////////////////////////////////////////////\r\n    function getBalance(ERC20 token) public view returns(uint) {\r\n        if (token == ETH_TOKEN_ADDRESS)\r\n            return address(this).balance;\r\n        else {\r\n            address wallet = tokenWallet[token];\r\n            uint balanceOfWallet = token.balanceOf(wallet);\r\n            uint allowanceOfWallet = token.allowance(wallet, this);\r\n\r\n            return (balanceOfWallet < allowanceOfWallet) ? balanceOfWallet : allowanceOfWallet;\r\n        }\r\n    }\r\n\r\n    function getDestQty(ERC20 src, ERC20 dest, uint srcQty, uint rate) public view returns(uint) {\r\n        uint dstDecimals = getDecimals(dest);\r\n        uint srcDecimals = getDecimals(src);\r\n\r\n        return calcDstQty(srcQty, srcDecimals, dstDecimals, rate);\r\n    }\r\n\r\n    function getSrcQty(ERC20 src, ERC20 dest, uint dstQty, uint rate) public view returns(uint) {\r\n        uint dstDecimals = getDecimals(dest);\r\n        uint srcDecimals = getDecimals(src);\r\n\r\n        return calcSrcQty(dstQty, srcDecimals, dstDecimals, rate);\r\n    }\r\n\r\n    function getConversionRate(ERC20 src, ERC20 dest, uint srcQty, uint blockNumber) public view returns(uint) {\r\n        ERC20 token;\r\n        bool  isBuy;\r\n\r\n        if (!tradeEnabled) return 0;\r\n\r\n        if (ETH_TOKEN_ADDRESS == src) {\r\n            isBuy = true;\r\n            token = dest;\r\n        } else if (ETH_TOKEN_ADDRESS == dest) {\r\n            isBuy = false;\r\n            token = src;\r\n        } else {\r\n            return 0; // pair is not listed\r\n        }\r\n\r\n        uint rate = conversionRatesContract.getRate(token, blockNumber, isBuy, srcQty);\r\n        uint destQty = getDestQty(src, dest, srcQty, rate);\r\n\r\n        if (getBalance(dest) < destQty) return 0;\r\n\r\n        if (sanityRatesContract != address(0)) {\r\n            uint sanityRate = sanityRatesContract.getSanityRate(src, dest);\r\n            if (rate > sanityRate) return 0;\r\n        }\r\n\r\n        return rate;\r\n    }\r\n\r\n    /// @dev do a trade\r\n    /// @param srcToken Src token\r\n    /// @param srcAmount Amount of src token\r\n    /// @param destToken Destination token\r\n    /// @param destAddress Destination address to send tokens to\r\n    /// @param validate If true, additional validations are applicable\r\n    /// @return true iff trade is successful\r\n    function doTrade(\r\n        ERC20 srcToken,\r\n        uint srcAmount,\r\n        ERC20 destToken,\r\n        address destAddress,\r\n        uint conversionRate,\r\n        bool validate\r\n    )\r\n        internal\r\n        returns(bool)\r\n    {\r\n        // can skip validation if done at kyber network level\r\n        if (validate) {\r\n            require(conversionRate > 0);\r\n            if (srcToken == ETH_TOKEN_ADDRESS)\r\n                require(msg.value == srcAmount);\r\n            else\r\n                require(msg.value == 0);\r\n        }\r\n\r\n        uint destAmount = getDestQty(srcToken, destToken, srcAmount, conversionRate);\r\n        // sanity check\r\n        require(destAmount > 0);\r\n\r\n        // add to imbalance\r\n        ERC20 token;\r\n        int tradeAmount;\r\n        if (srcToken == ETH_TOKEN_ADDRESS) {\r\n            tradeAmount = int(destAmount);\r\n            token = destToken;\r\n        } else {\r\n            tradeAmount = -1 * int(srcAmount);\r\n            token = srcToken;\r\n        }\r\n\r\n        conversionRatesContract.recordImbalance(\r\n            token,\r\n            tradeAmount,\r\n            0,\r\n            block.number\r\n        );\r\n\r\n        // collect src tokens\r\n        if (srcToken != ETH_TOKEN_ADDRESS) {\r\n            require(srcToken.transferFrom(msg.sender, tokenWallet[srcToken], srcAmount));\r\n        }\r\n\r\n        // send dest tokens\r\n        if (destToken == ETH_TOKEN_ADDRESS) {\r\n            destAddress.transfer(destAmount);\r\n        } else {\r\n            require(destToken.transferFrom(tokenWallet[destToken], destAddress, destAmount));\r\n        }\r\n\r\n        emit TradeExecute(msg.sender, srcToken, srcAmount, destToken, destAmount, destAddress);\r\n\r\n        return true;\r\n    }\r\n}\r\n",
  "sourcePath": "C:/Users/Naina/source/repos/SecurityTokenDemo_SC/contracts/KyberReserve.sol",
  "compiler": {
    "name": "solc",
    "version": "0.4.25+commit.59dbf8f1.Emscripten.clang"
  },
  "schemaVersion": "3.0.0",
  "updatedAt": "2019-01-06T13:43:18.265Z",
  "devdoc": {
    "methods": {
      "claimAdmin()": {
        "details": "Allows the pendingAdmin address to finalize the change admin process.\r"
      },
      "transferAdmin(address)": {
        "details": "Allows the current admin to set the pendingAdmin address.\r",
        "params": {
          "newAdmin": "The address to transfer ownership to.\r"
        }
      },
      "transferAdminQuickly(address)": {
        "details": "Allows the current admin to set the admin in one tx. Useful initial deployment.\r",
        "params": {
          "newAdmin": "The address to transfer ownership to.\r"
        }
      },
      "withdrawEther(uint256,address)": {
        "details": "Withdraw Ethers\r"
      },
      "withdrawToken(address,uint256,address)": {
        "details": "Withdraw all ERC20 compatible tokens\r",
        "params": {
          "token": "ERC20 The address of the token contract\r"
        }
      }
    },
    "title": "Kyber Reserve contract"
  },
  "userdoc": {
    "methods": {
      "getBalance(address)": {
        "notice": "/////////////////////////////////////////////////////////////////////////"
      }
    }
  }
}