{
  "contractName": "KyberNetworkProxy",
  "abi": [
    {
      "constant": false,
      "inputs": [
        {
          "name": "alerter",
          "type": "address"
        }
      ],
      "name": "removeAlerter",
      "outputs": [],
      "payable": false,
      "stateMutability": "nonpayable",
      "type": "function"
    },
    {
      "constant": true,
      "inputs": [],
      "name": "pendingAdmin",
      "outputs": [
        {
          "name": "",
          "type": "address"
        }
      ],
      "payable": false,
      "stateMutability": "view",
      "type": "function"
    },
    {
      "constant": true,
      "inputs": [],
      "name": "getOperators",
      "outputs": [
        {
          "name": "",
          "type": "address[]"
        }
      ],
      "payable": false,
      "stateMutability": "view",
      "type": "function"
    },
    {
      "constant": false,
      "inputs": [
        {
          "name": "token",
          "type": "address"
        },
        {
          "name": "amount",
          "type": "uint256"
        },
        {
          "name": "sendTo",
          "type": "address"
        }
      ],
      "name": "withdrawToken",
      "outputs": [],
      "payable": false,
      "stateMutability": "nonpayable",
      "type": "function"
    },
    {
      "constant": false,
      "inputs": [
        {
          "name": "newAlerter",
          "type": "address"
        }
      ],
      "name": "addAlerter",
      "outputs": [],
      "payable": false,
      "stateMutability": "nonpayable",
      "type": "function"
    },
    {
      "constant": true,
      "inputs": [],
      "name": "kyberNetworkContract",
      "outputs": [
        {
          "name": "",
          "type": "address"
        }
      ],
      "payable": false,
      "stateMutability": "view",
      "type": "function"
    },
    {
      "constant": false,
      "inputs": [
        {
          "name": "newAdmin",
          "type": "address"
        }
      ],
      "name": "transferAdmin",
      "outputs": [],
      "payable": false,
      "stateMutability": "nonpayable",
      "type": "function"
    },
    {
      "constant": false,
      "inputs": [],
      "name": "claimAdmin",
      "outputs": [],
      "payable": false,
      "stateMutability": "nonpayable",
      "type": "function"
    },
    {
      "constant": false,
      "inputs": [
        {
          "name": "newAdmin",
          "type": "address"
        }
      ],
      "name": "transferAdminQuickly",
      "outputs": [],
      "payable": false,
      "stateMutability": "nonpayable",
      "type": "function"
    },
    {
      "constant": true,
      "inputs": [],
      "name": "getAlerters",
      "outputs": [
        {
          "name": "",
          "type": "address[]"
        }
      ],
      "payable": false,
      "stateMutability": "view",
      "type": "function"
    },
    {
      "constant": false,
      "inputs": [
        {
          "name": "newOperator",
          "type": "address"
        }
      ],
      "name": "addOperator",
      "outputs": [],
      "payable": false,
      "stateMutability": "nonpayable",
      "type": "function"
    },
    {
      "constant": false,
      "inputs": [
        {
          "name": "operator",
          "type": "address"
        }
      ],
      "name": "removeOperator",
      "outputs": [],
      "payable": false,
      "stateMutability": "nonpayable",
      "type": "function"
    },
    {
      "constant": false,
      "inputs": [
        {
          "name": "amount",
          "type": "uint256"
        },
        {
          "name": "sendTo",
          "type": "address"
        }
      ],
      "name": "withdrawEther",
      "outputs": [],
      "payable": false,
      "stateMutability": "nonpayable",
      "type": "function"
    },
    {
      "constant": true,
      "inputs": [
        {
          "name": "token",
          "type": "address"
        },
        {
          "name": "user",
          "type": "address"
        }
      ],
      "name": "getBalance",
      "outputs": [
        {
          "name": "",
          "type": "uint256"
        }
      ],
      "payable": false,
      "stateMutability": "view",
      "type": "function"
    },
    {
      "constant": true,
      "inputs": [],
      "name": "admin",
      "outputs": [
        {
          "name": "",
          "type": "address"
        }
      ],
      "payable": false,
      "stateMutability": "view",
      "type": "function"
    },
    {
      "inputs": [
        {
          "name": "_admin",
          "type": "address"
        }
      ],
      "payable": false,
      "stateMutability": "nonpayable",
      "type": "constructor"
    },
    {
      "anonymous": false,
      "inputs": [
        {
          "indexed": true,
          "name": "trader",
          "type": "address"
        },
        {
          "indexed": false,
          "name": "src",
          "type": "address"
        },
        {
          "indexed": false,
          "name": "dest",
          "type": "address"
        },
        {
          "indexed": false,
          "name": "actualSrcAmount",
          "type": "uint256"
        },
        {
          "indexed": false,
          "name": "actualDestAmount",
          "type": "uint256"
        }
      ],
      "name": "ExecuteTrade",
      "type": "event"
    },
    {
      "anonymous": false,
      "inputs": [
        {
          "indexed": false,
          "name": "newNetworkContract",
          "type": "address"
        },
        {
          "indexed": false,
          "name": "oldNetworkContract",
          "type": "address"
        }
      ],
      "name": "KyberNetworkSet",
      "type": "event"
    },
    {
      "anonymous": false,
      "inputs": [
        {
          "indexed": false,
          "name": "token",
          "type": "address"
        },
        {
          "indexed": false,
          "name": "amount",
          "type": "uint256"
        },
        {
          "indexed": false,
          "name": "sendTo",
          "type": "address"
        }
      ],
      "name": "TokenWithdraw",
      "type": "event"
    },
    {
      "anonymous": false,
      "inputs": [
        {
          "indexed": false,
          "name": "amount",
          "type": "uint256"
        },
        {
          "indexed": false,
          "name": "sendTo",
          "type": "address"
        }
      ],
      "name": "EtherWithdraw",
      "type": "event"
    },
    {
      "anonymous": false,
      "inputs": [
        {
          "indexed": false,
          "name": "pendingAdmin",
          "type": "address"
        }
      ],
      "name": "TransferAdminPending",
      "type": "event"
    },
    {
      "anonymous": false,
      "inputs": [
        {
          "indexed": false,
          "name": "newAdmin",
          "type": "address"
        },
        {
          "indexed": false,
          "name": "previousAdmin",
          "type": "address"
        }
      ],
      "name": "AdminClaimed",
      "type": "event"
    },
    {
      "anonymous": false,
      "inputs": [
        {
          "indexed": false,
          "name": "newAlerter",
          "type": "address"
        },
        {
          "indexed": false,
          "name": "isAdd",
          "type": "bool"
        }
      ],
      "name": "AlerterAdded",
      "type": "event"
    },
    {
      "anonymous": false,
      "inputs": [
        {
          "indexed": false,
          "name": "newOperator",
          "type": "address"
        },
        {
          "indexed": false,
          "name": "isAdd",
          "type": "bool"
        }
      ],
      "name": "OperatorAdded",
      "type": "event"
    },
    {
      "constant": false,
      "inputs": [
        {
          "name": "src",
          "type": "address"
        },
        {
          "name": "srcAmount",
          "type": "uint256"
        },
        {
          "name": "dest",
          "type": "address"
        },
        {
          "name": "destAddress",
          "type": "address"
        },
        {
          "name": "maxDestAmount",
          "type": "uint256"
        },
        {
          "name": "minConversionRate",
          "type": "uint256"
        },
        {
          "name": "walletId",
          "type": "address"
        }
      ],
      "name": "trade",
      "outputs": [
        {
          "name": "",
          "type": "uint256"
        }
      ],
      "payable": true,
      "stateMutability": "payable",
      "type": "function"
    },
    {
      "constant": false,
      "inputs": [
        {
          "name": "src",
          "type": "address"
        },
        {
          "name": "srcAmount",
          "type": "uint256"
        },
        {
          "name": "dest",
          "type": "address"
        },
        {
          "name": "minConversionRate",
          "type": "uint256"
        }
      ],
      "name": "swapTokenToToken",
      "outputs": [
        {
          "name": "",
          "type": "uint256"
        }
      ],
      "payable": false,
      "stateMutability": "nonpayable",
      "type": "function"
    },
    {
      "constant": false,
      "inputs": [
        {
          "name": "token",
          "type": "address"
        },
        {
          "name": "minConversionRate",
          "type": "uint256"
        }
      ],
      "name": "swapEtherToToken",
      "outputs": [
        {
          "name": "",
          "type": "uint256"
        }
      ],
      "payable": true,
      "stateMutability": "payable",
      "type": "function"
    },
    {
      "constant": false,
      "inputs": [
        {
          "name": "token",
          "type": "address"
        },
        {
          "name": "srcAmount",
          "type": "uint256"
        },
        {
          "name": "minConversionRate",
          "type": "uint256"
        }
      ],
      "name": "swapTokenToEther",
      "outputs": [
        {
          "name": "",
          "type": "uint256"
        }
      ],
      "payable": false,
      "stateMutability": "nonpayable",
      "type": "function"
    },
    {
      "constant": false,
      "inputs": [
        {
          "name": "src",
          "type": "address"
        },
        {
          "name": "srcAmount",
          "type": "uint256"
        },
        {
          "name": "dest",
          "type": "address"
        },
        {
          "name": "destAddress",
          "type": "address"
        },
        {
          "name": "maxDestAmount",
          "type": "uint256"
        },
        {
          "name": "minConversionRate",
          "type": "uint256"
        },
        {
          "name": "walletId",
          "type": "address"
        },
        {
          "name": "hint",
          "type": "bytes"
        }
      ],
      "name": "tradeWithHint",
      "outputs": [
        {
          "name": "",
          "type": "uint256"
        }
      ],
      "payable": true,
      "stateMutability": "payable",
      "type": "function"
    },
    {
      "constant": false,
      "inputs": [
        {
          "name": "_kyberNetworkContract",
          "type": "address"
        }
      ],
      "name": "setKyberNetworkContract",
      "outputs": [],
      "payable": false,
      "stateMutability": "nonpayable",
      "type": "function"
    },
    {
      "constant": true,
      "inputs": [
        {
          "name": "src",
          "type": "address"
        },
        {
          "name": "dest",
          "type": "address"
        },
        {
          "name": "srcQty",
          "type": "uint256"
        }
      ],
      "name": "getExpectedRate",
      "outputs": [
        {
          "name": "expectedRate",
          "type": "uint256"
        },
        {
          "name": "slippageRate",
          "type": "uint256"
        }
      ],
      "payable": false,
      "stateMutability": "view",
      "type": "function"
    },
    {
      "constant": true,
      "inputs": [],
      "name": "maxGasPrice",
      "outputs": [
        {
          "name": "",
          "type": "uint256"
        }
      ],
      "payable": false,
      "stateMutability": "view",
      "type": "function"
    },
    {
      "constant": true,
      "inputs": [],
      "name": "enabled",
      "outputs": [
        {
          "name": "",
          "type": "bool"
        }
      ],
      "payable": false,
      "stateMutability": "view",
      "type": "function"
    },
    {
      "constant": true,
      "inputs": [
        {
          "name": "field",
          "type": "bytes32"
        }
      ],
      "name": "info",
      "outputs": [
        {
          "name": "",
          "type": "uint256"
        }
      ],
      "payable": false,
      "stateMutability": "view",
      "type": "function"
    }
  ],
  "bytecode": "0x608060405234801561001057600080fd5b50604051602080611a7f833981016040525160008054600160a060020a03191633179055600160a060020a038116151561004957600080fd5b60008054600160a060020a03909216600160a060020a0319909216919091179055611a06806100796000396000f30060806040526004361061012f5763ffffffff60e060020a60003504166301a12fd38114610134578063238dafe014610157578063267822471461018057806327a099d8146101b157806329589f61146102165780633bba21dc146102a35780633ccdbb28146102ca5780633de39c11146102f5578063408ee7fe1461030a5780634f61ff8b1461032b5780637409e2eb1461034057806375829def1461036e57806377f50f971461038f5780637a2a0456146103a45780637acc8678146103bb5780637c423f54146103dc578063809a9e55146103f15780639870d7fe14610434578063abd188a814610455578063ac8a584a14610476578063b64a097e14610497578063cb3c28c7146104af578063ce56c454146104e1578063d4fac45d14610505578063f851a4401461052c575b600080fd5b34801561014057600080fd5b50610155600160a060020a0360043516610541565b005b34801561016357600080fd5b5061016c6106aa565b604080519115158252519081900360200190f35b34801561018c57600080fd5b5061019561073b565b60408051600160a060020a039092168252519081900360200190f35b3480156101bd57600080fd5b506101c661074a565b60408051602080825283518183015283519192839290830191858101910280838360005b838110156102025781810151838201526020016101ea565b505050509050019250505060405180910390f35b604080516020601f60e43560048181013592830184900484028501840190955281845261029194600160a060020a03813581169560248035966044358416966064358516966084359660a4359660c4351695369591946101049491939092019181908401838280828437509497506107ac9650505050505050565b60408051918252519081900360200190f35b3480156102af57600080fd5b50610291600160a060020a0360043516602435604435610b55565b3480156102d657600080fd5b50610155600160a060020a036004358116906024359060443516610b93565b34801561030157600080fd5b50610291610c93565b34801561031657600080fd5b50610155600160a060020a0360043516610cf2565b34801561033757600080fd5b50610195610de8565b34801561034c57600080fd5b50610291600160a060020a036004358116906024359060443516606435610df7565b34801561037a57600080fd5b50610155600160a060020a0360043516610e22565b34801561039b57600080fd5b50610155610eaf565b610291600160a060020a0360043516602435610f39565b3480156103c757600080fd5b50610155600160a060020a0360043516610f76565b3480156103e857600080fd5b506101c6611048565b3480156103fd57600080fd5b5061041b600160a060020a03600435811690602435166044356110a8565b6040805192835260208301919091528051918290030190f35b34801561044057600080fd5b50610155600160a060020a036004351661115d565b34801561046157600080fd5b50610155600160a060020a0360043516611317565b34801561048257600080fd5b50610155600160a060020a03600435166113ad565b3480156104a357600080fd5b50610291600435611512565b610291600160a060020a03600435811690602435906044358116906064358116906084359060a4359060c435166115aa565b3480156104ed57600080fd5b50610155600435600160a060020a03602435166115cb565b34801561051157600080fd5b50610291600160a060020a0360043581169060243516611660565b34801561053857600080fd5b50610195611728565b60008054600160a060020a0316331461055957600080fd5b600160a060020a03821660009081526003602052604090205460ff16151561058057600080fd5b50600160a060020a0381166000908152600360205260408120805460ff191690555b6005548110156106a65781600160a060020a03166005828154811015156105c557fe5b600091825260209091200154600160a060020a0316141561069e576005805460001981019081106105f257fe5b60009182526020909120015460058054600160a060020a03909216918390811061061857fe5b60009182526020909120018054600160a060020a031916600160a060020a0392909216919091179055600580549061065490600019830161195a565b5060408051600160a060020a03841681526000602082015281517f5611bf3e417d124f97bf2c788843ea8bb502b66079fbee02158ef30b172cb762929181900390910190a16106a6565b6001016105a2565b5050565b600754604080517f238dafe00000000000000000000000000000000000000000000000000000000081529051600092600160a060020a03169163238dafe091600480830192602092919082900301818787803b15801561070957600080fd5b505af115801561071d573d6000803e3d6000fd5b505050506040513d602081101561073357600080fd5b505190505b90565b600154600160a060020a031681565b606060048054806020026020016040519081016040528092919081815260200182805480156107a257602002820191906000526020600020905b8154600160a060020a03168152600190910190602001808311610784575b5050505050905090565b60006107b6611983565b60006107c061199a565b600160a060020a038c1673eeeeeeeeeeeeeeeeeeeeeeeeeeeeeeeeeeeeeeee14806107e9575034155b15156107f457600080fd5b6107fe8c33611660565b835261080a8a8a611660565b6020840152600160a060020a038c1673eeeeeeeeeeeeeeeeeeeeeeeeeeeeeeeeeeeeeeee141561083f578251340183526108eb565b600754604080517f23b872dd000000000000000000000000000000000000000000000000000000008152336004820152600160a060020a039283166024820152604481018e90529051918e16916323b872dd916064808201926020929091908290030181600087803b1580156108b457600080fd5b505af11580156108c8573d6000803e3d6000fd5b505050506040513d60208110156108de57600080fd5b505115156108eb57600080fd5b600760009054906101000a9004600160a060020a0316600160a060020a031663088322ef34338f8f8f8f8f8f8f8f6040518b63ffffffff1660e060020a028152600401808a600160a060020a0316600160a060020a0316815260200189600160a060020a0316600160a060020a0316815260200188815260200187600160a060020a0316600160a060020a0316815260200186600160a060020a0316600160a060020a0316815260200185815260200184815260200183600160a060020a0316600160a060020a0316815260200180602001828103825283818151815260200191508051906020019080838360005b838110156109f25781810151838201526020016109da565b50505050905090810190601f168015610a1f5780820380516001836020036101000a031916815260200191505b509a50505050505050505050506020604051808303818588803b158015610a4557600080fd5b505af1158015610a59573d6000803e3d6000fd5b50505050506040513d6020811015610a7057600080fd5b505183516020850151919350610a88918e8d8d611737565b60208101519091508214610a9b57600080fd5b6020810151881015610aac57600080fd5b6040810151871115610abd57600080fd5b33600160a060020a03167f1849bd6a030a1bca28b83437fd3de96f3d27a5d172fa7e9c78e7b61468928a398d8c846000015185602001516040518085600160a060020a0316600160a060020a0316815260200184600160a060020a0316600160a060020a0316815260200183815260200182815260200194505050505060405180910390a2602001519b9a5050505050505050505050565b60006060610b8a858573eeeeeeeeeeeeeeeeeeeeeeeeeeeeeeeeeeeeeeee336b204fce5e3e25026110000000886000886107ac565b95945050505050565b600054600160a060020a03163314610baa57600080fd5b82600160a060020a031663a9059cbb82846040518363ffffffff1660e060020a0281526004018083600160a060020a0316600160a060020a0316815260200182815260200192505050602060405180830381600087803b158015610c0d57600080fd5b505af1158015610c21573d6000803e3d6000fd5b505050506040513d6020811015610c3757600080fd5b50511515610c4457600080fd5b60408051600160a060020a0380861682526020820185905283168183015290517f72cb8a894ddb372ceec3d2a7648d86f17d5a15caae0e986c53109b8a9a9385e69181900360600190a1505050565b600754604080517f3de39c110000000000000000000000000000000000000000000000000000000081529051600092600160a060020a031691633de39c1191600480830192602092919082900301818787803b15801561070957600080fd5b600054600160a060020a03163314610d0957600080fd5b600160a060020a03811660009081526003602052604090205460ff1615610d2f57600080fd5b600554603211610d3e57600080fd5b60408051600160a060020a03831681526001602082015281517f5611bf3e417d124f97bf2c788843ea8bb502b66079fbee02158ef30b172cb762929181900390910190a1600160a060020a03166000818152600360205260408120805460ff191660019081179091556005805491820181559091527f036b6384b5eca791c62761152d0c79bb0604c104a5fb6f4eb0703f3154bb3db0018054600160a060020a0319169091179055565b600754600160a060020a031681565b60006060610e18868686336b204fce5e3e25026110000000886000886107ac565b9695505050505050565b600054600160a060020a03163314610e3957600080fd5b600160a060020a0381161515610e4e57600080fd5b60015460408051600160a060020a039092168252517f3b81caf78fa51ecbc8acb482fd7012a277b428d9b80f9d156e8a54107496cc409181900360200190a160018054600160a060020a031916600160a060020a0392909216919091179055565b600154600160a060020a03163314610ec657600080fd5b60015460005460408051600160a060020a03938416815292909116602083015280517f65da1cfc2c2e81576ad96afb24a581f8e109b7a403b35cbd3243a1c99efdb9ed9281900390910190a16001805460008054600160a060020a0319908116600160a060020a03841617909155169055565b60006060610f6e73eeeeeeeeeeeeeeeeeeeeeeeeeeeeeeeeeeeeeeee3486336b204fce5e3e25026110000000886000886107ac565b949350505050565b600054600160a060020a03163314610f8d57600080fd5b600160a060020a0381161515610fa257600080fd5b60408051600160a060020a038316815290517f3b81caf78fa51ecbc8acb482fd7012a277b428d9b80f9d156e8a54107496cc409181900360200190a160005460408051600160a060020a038085168252909216602083015280517f65da1cfc2c2e81576ad96afb24a581f8e109b7a403b35cbd3243a1c99efdb9ed9281900390910190a160008054600160a060020a031916600160a060020a0392909216919091179055565b606060058054806020026020016040519081016040528092919081815260200182805480156107a257602002820191906000526020600020908154600160a060020a03168152600190910190602001808311610784575050505050905090565b600754604080517f809a9e55000000000000000000000000000000000000000000000000000000008152600160a060020a0386811660048301528581166024830152604482018590528251600094859492169263809a9e5592606480830193919282900301818787803b15801561111e57600080fd5b505af1158015611132573d6000803e3d6000fd5b505050506040513d604081101561114857600080fd5b50805160209091015190969095509350505050565b600054600160a060020a0316331461117457600080fd5b600160a060020a03811660009081526002602052604090205460ff16156111fc57604080517f08c379a000000000000000000000000000000000000000000000000000000000815260206004820152601360248201527f416c726561647920616e206f70657261746f7200000000000000000000000000604482015290519081900360640190fd5b60045460321161126d57604080517f08c379a000000000000000000000000000000000000000000000000000000000815260206004820152601060248201527f4d61782053697a65207265616368656400000000000000000000000000000000604482015290519081900360640190fd5b60408051600160a060020a03831681526001602082015281517f091a7a4b85135fdd7e8dbc18b12fabe5cc191ea867aa3c2e1a24a102af61d58b929181900390910190a1600160a060020a03166000818152600260205260408120805460ff191660019081179091556004805491820181559091527f8a35acfbc15ff81a39ae7d344fd709f28e8600b4aa8c65c6b64bfe7fe36bd19b018054600160a060020a0319169091179055565b600054600160a060020a0316331461132e57600080fd5b600160a060020a038116151561134357600080fd5b60075460408051600160a060020a038085168252909216602083015280517f8936e1f096bf0a8c9df862b3d1d5b82774cad78116200175f00b5b7ba3010b029281900390910190a160078054600160a060020a031916600160a060020a0392909216919091179055565b60008054600160a060020a031633146113c557600080fd5b600160a060020a03821660009081526002602052604090205460ff1615156113ec57600080fd5b50600160a060020a0381166000908152600260205260408120805460ff191690555b6004548110156106a65781600160a060020a031660048281548110151561143157fe5b600091825260209091200154600160a060020a0316141561150a5760048054600019810190811061145e57fe5b60009182526020909120015460048054600160a060020a03909216918390811061148457fe5b60009182526020909120018054600160a060020a031916600160a060020a03929092169190911790556004805460001901906114c0908261195a565b5060408051600160a060020a03841681526000602082015281517f091a7a4b85135fdd7e8dbc18b12fabe5cc191ea867aa3c2e1a24a102af61d58b929181900390910190a16106a6565b60010161140e565b600754604080517fb64a097e000000000000000000000000000000000000000000000000000000008152600481018490529051600092600160a060020a03169163b64a097e91602480830192602092919082900301818787803b15801561157857600080fd5b505af115801561158c573d6000803e3d6000fd5b505050506040513d60208110156115a257600080fd5b505192915050565b600060606115be89898989898989886107ac565b9998505050505050505050565b600054600160a060020a031633146115e257600080fd5b604051600160a060020a0382169083156108fc029084906000818181858888f19350505050158015611618573d6000803e3d6000fd5b5060408051838152600160a060020a038316602082015281517fec47e7ed86c86774d1a72c19f35c639911393fe7c1a34031fdbd260890da90de929181900390910190a15050565b6000600160a060020a03831673eeeeeeeeeeeeeeeeeeeeeeeeeeeeeeeeeeeeeeee14156116985750600160a060020a03811631611722565b82600160a060020a03166370a08231836040518263ffffffff1660e060020a0281526004018082600160a060020a0316600160a060020a03168152602001915050602060405180830381600087803b1580156116f357600080fd5b505af1158015611707573d6000803e3d6000fd5b505050506040513d602081101561171d57600080fd5b505190505b92915050565b600054600160a060020a031681565b61173f61199a565b60008061174c8633611660565b91506117588585611660565b905086811161176657600080fd5b81881161177257600080fd5b8681036020840181905282890380855261179d9161178f896117ae565b611798896117ae565b6117f2565b604084015250909695505050505050565b600160a060020a03811660009081526006602052604081205415156117d6576117d68261188d565b50600160a060020a031660009081526006602052604090205490565b60006b204fce5e3e2502611000000085111561180d57600080fd5b6b204fce5e3e2502611000000084111561182657600080fd5b828210611861576012838303111561183d57600080fd5b84838303600a0a02670de0b6b3a7640000850281151561185957fe5b049050610f6e565b6012828403111561187157600080fd5b84828403600a0a670de0b6b3a764000086020281151561185957fe5b600160a060020a03811673eeeeeeeeeeeeeeeeeeeeeeeeeeeeeeeeeeeeeeee14156118d357600160a060020a038116600090815260066020526040902060129055611957565b80600160a060020a031663313ce5676040518163ffffffff1660e060020a028152600401602060405180830381600087803b15801561191157600080fd5b505af1158015611925573d6000803e3d6000fd5b505050506040513d602081101561193b57600080fd5b5051600160a060020a0382166000908152600660205260409020555b50565b81548183558181111561197e5760008381526020902061197e9181019083016119bc565b505050565b604080518082019091526000808252602082015290565b6060604051908101604052806000815260200160008152602001600081525090565b61073891905b808211156119d657600081556001016119c2565b50905600a165627a7a72305820d6ed6c422e920a29d1eac99370e5c7c69bc0e659ca6e5c2842ce6d4e9b738a370029",
  "source": "pragma solidity ^0.4.25;\r\n\r\n\r\nimport \"./ERC20Interface.sol\";\r\nimport \"./Withdrawable.sol\";\r\nimport \"./Utils2.sol\";\r\nimport \"./KyberNetworkInterface.sol\";\r\nimport \"./KyberNetworkProxyInterface.sol\";\r\nimport \"./SimpleNetworkInterface.sol\";\r\n\r\n\r\n////////////////////////////////////////////////////////////////////////////////////////////////////////\r\n/// @title Kyber Network proxy for main contract\r\ncontract KyberNetworkProxy is KyberNetworkProxyInterface, SimpleNetworkInterface, Withdrawable, Utils2 {\r\n\r\n    KyberNetworkInterface public kyberNetworkContract;\r\n\r\n    constructor(address _admin) public {\r\n        require(_admin != address(0));\r\n        admin = _admin;\r\n    }\r\n\r\n    /// @notice use token address ETH_TOKEN_ADDRESS for ether\r\n    /// @dev makes a trade between src and dest token and send dest token to destAddress\r\n    /// @param src Src token\r\n    /// @param srcAmount amount of src tokens\r\n    /// @param dest   Destination token\r\n    /// @param destAddress Address to send tokens to\r\n    /// @param maxDestAmount A limit on the amount of dest tokens\r\n    /// @param minConversionRate The minimal conversion rate. If actual rate is lower, trade is canceled.\r\n    /// @param walletId is the wallet ID to send part of the fees\r\n    /// @return amount of actual dest tokens\r\n    function trade(\r\n        ERC20 src,\r\n        uint srcAmount,\r\n        ERC20 dest,\r\n        address destAddress,\r\n        uint maxDestAmount,\r\n        uint minConversionRate,\r\n        address walletId\r\n    )\r\n        public\r\n        payable\r\n        returns(uint)\r\n    {\r\n        bytes memory hint;\r\n\r\n        return tradeWithHint(\r\n            src,\r\n            srcAmount,\r\n            dest,\r\n            destAddress,\r\n            maxDestAmount,\r\n            minConversionRate,\r\n            walletId,\r\n            hint\r\n        );\r\n    }\r\n\r\n    /// @dev makes a trade between src and dest token and send dest tokens to msg sender\r\n    /// @param src Src token\r\n    /// @param srcAmount amount of src tokens\r\n    /// @param dest Destination token\r\n    /// @param minConversionRate The minimal conversion rate. If actual rate is lower, trade is canceled.\r\n    /// @return amount of actual dest tokens\r\n    function swapTokenToToken(\r\n        ERC20 src,\r\n        uint srcAmount,\r\n        ERC20 dest,\r\n        uint minConversionRate\r\n    )\r\n        public\r\n        returns(uint)\r\n    {\r\n        bytes memory hint;\r\n\r\n        return tradeWithHint(\r\n            src,\r\n            srcAmount,\r\n            dest,\r\n            msg.sender,\r\n            MAX_QTY,\r\n            minConversionRate,\r\n            0,\r\n            hint\r\n        );\r\n    }\r\n\r\n    /// @dev makes a trade from Ether to token. Sends token to msg sender\r\n    /// @param token Destination token\r\n    /// @param minConversionRate The minimal conversion rate. If actual rate is lower, trade is canceled.\r\n    /// @return amount of actual dest tokens\r\n    function swapEtherToToken(ERC20 token, uint minConversionRate) public payable returns(uint) {\r\n        bytes memory hint;\r\n\r\n        return tradeWithHint(\r\n            ETH_TOKEN_ADDRESS,\r\n            msg.value,\r\n            token,\r\n            msg.sender,\r\n            MAX_QTY,\r\n            minConversionRate,\r\n            0,\r\n            hint\r\n        );\r\n    }\r\n\r\n    /// @dev makes a trade from token to Ether, sends Ether to msg sender\r\n    /// @param token Src token\r\n    /// @param srcAmount amount of src tokens\r\n    /// @param minConversionRate The minimal conversion rate. If actual rate is lower, trade is canceled.\r\n    /// @return amount of actual dest tokens\r\n    function swapTokenToEther(ERC20 token, uint srcAmount, uint minConversionRate) public returns(uint) {\r\n        bytes memory hint;\r\n\r\n        return tradeWithHint(\r\n            token,\r\n            srcAmount,\r\n            ETH_TOKEN_ADDRESS,\r\n            msg.sender,\r\n            MAX_QTY,\r\n            minConversionRate,\r\n            0,\r\n            hint\r\n        );\r\n    }\r\n\r\n    struct UserBalance {\r\n        uint srcBalance;\r\n        uint destBalance;\r\n    }\r\n\r\n    event ExecuteTrade(address indexed trader, ERC20 src, ERC20 dest, uint actualSrcAmount, uint actualDestAmount);\r\n\r\n    /// @notice use token address ETH_TOKEN_ADDRESS for ether\r\n    /// @dev makes a trade between src and dest token and send dest token to destAddress\r\n    /// @param src Src token\r\n    /// @param srcAmount amount of src tokens\r\n    /// @param dest Destination token\r\n    /// @param destAddress Address to send tokens to\r\n    /// @param maxDestAmount A limit on the amount of dest tokens\r\n    /// @param minConversionRate The minimal conversion rate. If actual rate is lower, trade is canceled.\r\n    /// @param walletId is the wallet ID to send part of the fees\r\n    /// @param hint will give hints for the trade.\r\n    /// @return amount of actual dest tokens\r\n    function tradeWithHint(\r\n        ERC20 src,\r\n        uint srcAmount,\r\n        ERC20 dest,\r\n        address destAddress,\r\n        uint maxDestAmount,\r\n        uint minConversionRate,\r\n        address walletId,\r\n        bytes hint\r\n    )\r\n        public\r\n        payable\r\n        returns(uint)\r\n    {\r\n        require(src == ETH_TOKEN_ADDRESS || msg.value == 0);\r\n        \r\n        UserBalance memory userBalanceBefore;\r\n\r\n        userBalanceBefore.srcBalance = getBalance(src, msg.sender);\r\n        userBalanceBefore.destBalance = getBalance(dest, destAddress);\r\n\r\n        if (src == ETH_TOKEN_ADDRESS) {\r\n            userBalanceBefore.srcBalance += msg.value;\r\n        } else {\r\n            require(src.transferFrom(msg.sender, kyberNetworkContract, srcAmount));\r\n        }\r\n\r\n        uint reportedDestAmount = kyberNetworkContract.tradeWithHint.value(msg.value)(\r\n            msg.sender,\r\n            src,\r\n            srcAmount,\r\n            dest,\r\n            destAddress,\r\n            maxDestAmount,\r\n            minConversionRate,\r\n            walletId,\r\n            hint\r\n        );\r\n\r\n        TradeOutcome memory tradeOutcome = calculateTradeOutcome(\r\n            userBalanceBefore.srcBalance,\r\n            userBalanceBefore.destBalance,\r\n            src,\r\n            dest,\r\n            destAddress\r\n        );\r\n\r\n        require(reportedDestAmount == tradeOutcome.userDeltaDestAmount);\r\n        require(tradeOutcome.userDeltaDestAmount <= maxDestAmount);\r\n        require(tradeOutcome.actualRate >= minConversionRate);\r\n\r\n        emit ExecuteTrade(msg.sender, src, dest, tradeOutcome.userDeltaSrcAmount, tradeOutcome.userDeltaDestAmount);\r\n        return tradeOutcome.userDeltaDestAmount;\r\n    }\r\n\r\n    event KyberNetworkSet(address newNetworkContract, address oldNetworkContract);\r\n\r\n    function setKyberNetworkContract(KyberNetworkInterface _kyberNetworkContract) public onlyAdmin {\r\n\r\n        require(_kyberNetworkContract != address(0));\r\n\r\n        emit KyberNetworkSet(_kyberNetworkContract, kyberNetworkContract);\r\n\r\n        kyberNetworkContract = _kyberNetworkContract;\r\n    }\r\n\r\n    function getExpectedRate(ERC20 src, ERC20 dest, uint srcQty)\r\n        public view\r\n        returns(uint expectedRate, uint slippageRate)\r\n    {\r\n        return kyberNetworkContract.getExpectedRate(src, dest, srcQty);\r\n    }\r\n\r\n    function maxGasPrice() public view returns(uint) {\r\n        return kyberNetworkContract.maxGasPrice();\r\n    }\r\n\r\n    function enabled() public view returns(bool) {\r\n        return kyberNetworkContract.enabled();\r\n    }\r\n\r\n    function info(bytes32 field) public view returns(uint) {\r\n        return kyberNetworkContract.info(field);\r\n    }\r\n\r\n    struct TradeOutcome {\r\n        uint userDeltaSrcAmount;\r\n        uint userDeltaDestAmount;\r\n        uint actualRate;\r\n    }\r\n\r\n    function calculateTradeOutcome (uint srcBalanceBefore, uint destBalanceBefore, ERC20 src, ERC20 dest,\r\n        address destAddress)\r\n        internal returns(TradeOutcome outcome)\r\n    {\r\n        uint userSrcBalanceAfter;\r\n        uint userDestBalanceAfter;\r\n\r\n        userSrcBalanceAfter = getBalance(src, msg.sender);\r\n        userDestBalanceAfter = getBalance(dest, destAddress);\r\n\r\n        //protect from underflow\r\n        require(userDestBalanceAfter > destBalanceBefore);\r\n        require(srcBalanceBefore > userSrcBalanceAfter);\r\n\r\n        outcome.userDeltaDestAmount = userDestBalanceAfter - destBalanceBefore;\r\n        outcome.userDeltaSrcAmount = srcBalanceBefore - userSrcBalanceAfter;\r\n\r\n        outcome.actualRate = calcRateFromQty(\r\n                outcome.userDeltaSrcAmount,\r\n                outcome.userDeltaDestAmount,\r\n                getDecimalsSafe(src),\r\n                getDecimalsSafe(dest)\r\n            );\r\n    }\r\n}\r\n",
  "sourcePath": "C:\\Users\\Naina\\source\\repos\\two12\\smart-contracts\\contracts\\KyberNetworkProxy.sol",
  "compiler": {
    "name": "solc",
    "version": "0.4.25+commit.59dbf8f1.Emscripten.clang"
  },
  "schemaVersion": "3.0.1",
  "updatedAt": "2019-02-07T05:09:32.647Z",
  "devdoc": {
    "methods": {
      "claimAdmin()": {
        "details": "Allows the pendingAdmin address to finalize the change admin process.\r"
      },
      "getBalance(address,address)": {
        "return": "The balance"
      },
      "swapEtherToToken(address,uint256)": {
        "return": "amount of actual dest tokens"
      },
      "swapTokenToEther(address,uint256,uint256)": {
        "return": "amount of actual dest tokens"
      },
      "swapTokenToToken(address,uint256,address,uint256)": {
        "return": "amount of actual dest tokens"
      },
      "trade(address,uint256,address,address,uint256,uint256,address)": {
        "return": "amount of actual dest tokens"
      },
      "tradeWithHint(address,uint256,address,address,uint256,uint256,address,bytes)": {
        "return": "amount of actual dest tokens"
      },
      "transferAdmin(address)": {
        "details": "Allows the current admin to set the pendingAdmin address.\r",
        "params": {
          "newAdmin": "The address to transfer ownership to.\r"
        }
      },
      "transferAdminQuickly(address)": {
        "details": "Allows the current admin to set the admin in one tx. Useful initial deployment.\r",
        "params": {
          "newAdmin": "The address to transfer ownership to.\r"
        }
      },
      "withdrawEther(uint256,address)": {
        "details": "Withdraw Ethers\r"
      },
      "withdrawToken(address,uint256,address)": {
        "details": "Withdraw all ERC20 compatible tokens\r",
        "params": {
          "token": "ERC20 The address of the token contract\r"
        }
      }
    },
    "title": "Kyber Network proxy for main contract"
  },
  "userdoc": {
    "methods": {}
  }
}