{
  "contractName": "LiquidityConversionRates",
  "abi": [
    {
      "constant": false,
      "inputs": [
        {
          "name": "alerter",
          "type": "address"
        }
      ],
      "name": "removeAlerter",
      "outputs": [],
      "payable": false,
      "stateMutability": "nonpayable",
      "type": "function"
    },
    {
      "constant": true,
      "inputs": [],
      "name": "maxSellRateInPrecision",
      "outputs": [
        {
          "name": "",
          "type": "uint256"
        }
      ],
      "payable": false,
      "stateMutability": "view",
      "type": "function"
    },
    {
      "constant": true,
      "inputs": [
        {
          "name": "r",
          "type": "uint256"
        },
        {
          "name": "pMIn",
          "type": "uint256"
        },
        {
          "name": "e",
          "type": "uint256"
        },
        {
          "name": "precision",
          "type": "uint256"
        }
      ],
      "name": "pE",
      "outputs": [
        {
          "name": "",
          "type": "uint256"
        }
      ],
      "payable": false,
      "stateMutability": "pure",
      "type": "function"
    },
    {
      "constant": true,
      "inputs": [],
      "name": "pendingAdmin",
      "outputs": [
        {
          "name": "",
          "type": "address"
        }
      ],
      "payable": false,
      "stateMutability": "view",
      "type": "function"
    },
    {
      "constant": true,
      "inputs": [
        {
          "name": "p",
          "type": "uint256"
        },
        {
          "name": "q",
          "type": "uint256"
        },
        {
          "name": "numPrecisionBits",
          "type": "uint256"
        }
      ],
      "name": "ln",
      "outputs": [
        {
          "name": "",
          "type": "uint256"
        }
      ],
      "payable": false,
      "stateMutability": "pure",
      "type": "function"
    },
    {
      "constant": true,
      "inputs": [],
      "name": "maxEthCapSellInFp",
      "outputs": [
        {
          "name": "",
          "type": "uint256"
        }
      ],
      "payable": false,
      "stateMutability": "view",
      "type": "function"
    },
    {
      "constant": true,
      "inputs": [],
      "name": "getOperators",
      "outputs": [
        {
          "name": "",
          "type": "address[]"
        }
      ],
      "payable": false,
      "stateMutability": "view",
      "type": "function"
    },
    {
      "constant": true,
      "inputs": [],
      "name": "BIG_NUMBER",
      "outputs": [
        {
          "name": "",
          "type": "uint256"
        }
      ],
      "payable": false,
      "stateMutability": "view",
      "type": "function"
    },
    {
      "constant": false,
      "inputs": [
        {
          "name": "token",
          "type": "address"
        },
        {
          "name": "amount",
          "type": "uint256"
        },
        {
          "name": "sendTo",
          "type": "address"
        }
      ],
      "name": "withdrawToken",
      "outputs": [],
      "payable": false,
      "stateMutability": "nonpayable",
      "type": "function"
    },
    {
      "constant": true,
      "inputs": [],
      "name": "collectedFeesInTwei",
      "outputs": [
        {
          "name": "",
          "type": "uint256"
        }
      ],
      "payable": false,
      "stateMutability": "view",
      "type": "function"
    },
    {
      "constant": false,
      "inputs": [
        {
          "name": "newAlerter",
          "type": "address"
        }
      ],
      "name": "addAlerter",
      "outputs": [],
      "payable": false,
      "stateMutability": "nonpayable",
      "type": "function"
    },
    {
      "constant": true,
      "inputs": [],
      "name": "rInFp",
      "outputs": [
        {
          "name": "",
          "type": "uint256"
        }
      ],
      "payable": false,
      "stateMutability": "view",
      "type": "function"
    },
    {
      "constant": true,
      "inputs": [],
      "name": "maxEthCapBuyInFp",
      "outputs": [
        {
          "name": "",
          "type": "uint256"
        }
      ],
      "payable": false,
      "stateMutability": "view",
      "type": "function"
    },
    {
      "constant": true,
      "inputs": [],
      "name": "formulaPrecision",
      "outputs": [
        {
          "name": "",
          "type": "uint256"
        }
      ],
      "payable": false,
      "stateMutability": "view",
      "type": "function"
    },
    {
      "constant": true,
      "inputs": [
        {
          "name": "x",
          "type": "uint256"
        },
        {
          "name": "y",
          "type": "uint256"
        }
      ],
      "name": "checkMultOverflow",
      "outputs": [
        {
          "name": "",
          "type": "bool"
        }
      ],
      "payable": false,
      "stateMutability": "pure",
      "type": "function"
    },
    {
      "constant": true,
      "inputs": [],
      "name": "numFpBits",
      "outputs": [
        {
          "name": "",
          "type": "uint256"
        }
      ],
      "payable": false,
      "stateMutability": "view",
      "type": "function"
    },
    {
      "constant": false,
      "inputs": [
        {
          "name": "newAdmin",
          "type": "address"
        }
      ],
      "name": "transferAdmin",
      "outputs": [],
      "payable": false,
      "stateMutability": "nonpayable",
      "type": "function"
    },
    {
      "constant": false,
      "inputs": [],
      "name": "claimAdmin",
      "outputs": [],
      "payable": false,
      "stateMutability": "nonpayable",
      "type": "function"
    },
    {
      "constant": false,
      "inputs": [
        {
          "name": "newAdmin",
          "type": "address"
        }
      ],
      "name": "transferAdminQuickly",
      "outputs": [],
      "payable": false,
      "stateMutability": "nonpayable",
      "type": "function"
    },
    {
      "constant": true,
      "inputs": [],
      "name": "getAlerters",
      "outputs": [
        {
          "name": "",
          "type": "address[]"
        }
      ],
      "payable": false,
      "stateMutability": "view",
      "type": "function"
    },
    {
      "constant": true,
      "inputs": [
        {
          "name": "r",
          "type": "uint256"
        },
        {
          "name": "pMIn",
          "type": "uint256"
        },
        {
          "name": "e",
          "type": "uint256"
        },
        {
          "name": "deltaE",
          "type": "uint256"
        },
        {
          "name": "precision",
          "type": "uint256"
        }
      ],
      "name": "deltaTFunc",
      "outputs": [
        {
          "name": "",
          "type": "uint256"
        }
      ],
      "payable": false,
      "stateMutability": "pure",
      "type": "function"
    },
    {
      "constant": true,
      "inputs": [
        {
          "name": "x",
          "type": "uint256"
        },
        {
          "name": "numPrecisionBits",
          "type": "uint256"
        }
      ],
      "name": "log2ForSmallNumber",
      "outputs": [
        {
          "name": "",
          "type": "uint256"
        }
      ],
      "payable": false,
      "stateMutability": "pure",
      "type": "function"
    },
    {
      "constant": true,
      "inputs": [
        {
          "name": "p",
          "type": "uint256"
        },
        {
          "name": "q",
          "type": "uint256"
        },
        {
          "name": "precision",
          "type": "uint256"
        }
      ],
      "name": "compactFraction",
      "outputs": [
        {
          "name": "",
          "type": "uint256"
        },
        {
          "name": "",
          "type": "uint256"
        }
      ],
      "payable": false,
      "stateMutability": "pure",
      "type": "function"
    },
    {
      "constant": true,
      "inputs": [
        {
          "name": "p",
          "type": "uint256"
        },
        {
          "name": "q",
          "type": "uint256"
        }
      ],
      "name": "countLeadingZeros",
      "outputs": [
        {
          "name": "",
          "type": "uint256"
        }
      ],
      "payable": false,
      "stateMutability": "pure",
      "type": "function"
    },
    {
      "constant": false,
      "inputs": [
        {
          "name": "newOperator",
          "type": "address"
        }
      ],
      "name": "addOperator",
      "outputs": [],
      "payable": false,
      "stateMutability": "nonpayable",
      "type": "function"
    },
    {
      "constant": true,
      "inputs": [
        {
          "name": "r",
          "type": "uint256"
        },
        {
          "name": "pMIn",
          "type": "uint256"
        },
        {
          "name": "e",
          "type": "uint256"
        },
        {
          "name": "deltaT",
          "type": "uint256"
        },
        {
          "name": "precision",
          "type": "uint256"
        },
        {
          "name": "numPrecisionBits",
          "type": "uint256"
        }
      ],
      "name": "deltaEFunc",
      "outputs": [
        {
          "name": "",
          "type": "uint256"
        }
      ],
      "payable": false,
      "stateMutability": "pure",
      "type": "function"
    },
    {
      "constant": true,
      "inputs": [],
      "name": "feeInBps",
      "outputs": [
        {
          "name": "",
          "type": "uint256"
        }
      ],
      "payable": false,
      "stateMutability": "view",
      "type": "function"
    },
    {
      "constant": true,
      "inputs": [
        {
          "name": "p",
          "type": "uint256"
        },
        {
          "name": "q",
          "type": "uint256"
        },
        {
          "name": "numPrecisionBits",
          "type": "uint256"
        }
      ],
      "name": "logBase2",
      "outputs": [
        {
          "name": "",
          "type": "uint256"
        }
      ],
      "payable": false,
      "stateMutability": "pure",
      "type": "function"
    },
    {
      "constant": true,
      "inputs": [],
      "name": "reserveContract",
      "outputs": [
        {
          "name": "",
          "type": "address"
        }
      ],
      "payable": false,
      "stateMutability": "view",
      "type": "function"
    },
    {
      "constant": false,
      "inputs": [
        {
          "name": "operator",
          "type": "address"
        }
      ],
      "name": "removeOperator",
      "outputs": [],
      "payable": false,
      "stateMutability": "nonpayable",
      "type": "function"
    },
    {
      "constant": true,
      "inputs": [
        {
          "name": "p",
          "type": "uint256"
        },
        {
          "name": "q",
          "type": "uint256"
        },
        {
          "name": "precision",
          "type": "uint256"
        }
      ],
      "name": "exp",
      "outputs": [
        {
          "name": "",
          "type": "uint256"
        }
      ],
      "payable": false,
      "stateMutability": "pure",
      "type": "function"
    },
    {
      "constant": false,
      "inputs": [
        {
          "name": "amount",
          "type": "uint256"
        },
        {
          "name": "sendTo",
          "type": "address"
        }
      ],
      "name": "withdrawEther",
      "outputs": [],
      "payable": false,
      "stateMutability": "nonpayable",
      "type": "function"
    },
    {
      "constant": true,
      "inputs": [],
      "name": "maxBuyRateInPrecision",
      "outputs": [
        {
          "name": "",
          "type": "uint256"
        }
      ],
      "payable": false,
      "stateMutability": "view",
      "type": "function"
    },
    {
      "constant": true,
      "inputs": [],
      "name": "minSellRateInPrecision",
      "outputs": [
        {
          "name": "",
          "type": "uint256"
        }
      ],
      "payable": false,
      "stateMutability": "view",
      "type": "function"
    },
    {
      "constant": true,
      "inputs": [],
      "name": "pMinInFp",
      "outputs": [
        {
          "name": "",
          "type": "uint256"
        }
      ],
      "payable": false,
      "stateMutability": "view",
      "type": "function"
    },
    {
      "constant": true,
      "inputs": [],
      "name": "maxQtyInFp",
      "outputs": [
        {
          "name": "",
          "type": "uint256"
        }
      ],
      "payable": false,
      "stateMutability": "view",
      "type": "function"
    },
    {
      "constant": true,
      "inputs": [],
      "name": "admin",
      "outputs": [
        {
          "name": "",
          "type": "address"
        }
      ],
      "payable": false,
      "stateMutability": "view",
      "type": "function"
    },
    {
      "constant": true,
      "inputs": [],
      "name": "minBuyRateInPrecision",
      "outputs": [
        {
          "name": "",
          "type": "uint256"
        }
      ],
      "payable": false,
      "stateMutability": "view",
      "type": "function"
    },
    {
      "constant": true,
      "inputs": [],
      "name": "token",
      "outputs": [
        {
          "name": "",
          "type": "address"
        }
      ],
      "payable": false,
      "stateMutability": "view",
      "type": "function"
    },
    {
      "inputs": [
        {
          "name": "_admin",
          "type": "address"
        },
        {
          "name": "_token",
          "type": "address"
        }
      ],
      "payable": false,
      "stateMutability": "nonpayable",
      "type": "constructor"
    },
    {
      "anonymous": false,
      "inputs": [
        {
          "indexed": false,
          "name": "reserve",
          "type": "address"
        }
      ],
      "name": "ReserveAddressSet",
      "type": "event"
    },
    {
      "anonymous": false,
      "inputs": [
        {
          "indexed": false,
          "name": "rInFp",
          "type": "uint256"
        },
        {
          "indexed": false,
          "name": "pMinInFp",
          "type": "uint256"
        },
        {
          "indexed": false,
          "name": "numFpBits",
          "type": "uint256"
        },
        {
          "indexed": false,
          "name": "maxCapBuyInFp",
          "type": "uint256"
        },
        {
          "indexed": false,
          "name": "maxEthCapSellInFp",
          "type": "uint256"
        },
        {
          "indexed": false,
          "name": "feeInBps",
          "type": "uint256"
        },
        {
          "indexed": false,
          "name": "formulaPrecision",
          "type": "uint256"
        },
        {
          "indexed": false,
          "name": "maxQtyInFp",
          "type": "uint256"
        },
        {
          "indexed": false,
          "name": "maxBuyRateInPrecision",
          "type": "uint256"
        },
        {
          "indexed": false,
          "name": "minBuyRateInPrecision",
          "type": "uint256"
        },
        {
          "indexed": false,
          "name": "maxSellRateInPrecision",
          "type": "uint256"
        },
        {
          "indexed": false,
          "name": "minSellRateInPrecision",
          "type": "uint256"
        }
      ],
      "name": "LiquidityParamsSet",
      "type": "event"
    },
    {
      "anonymous": false,
      "inputs": [
        {
          "indexed": false,
          "name": "resetFeesInTwei",
          "type": "uint256"
        }
      ],
      "name": "CollectedFeesReset",
      "type": "event"
    },
    {
      "anonymous": false,
      "inputs": [
        {
          "indexed": false,
          "name": "token",
          "type": "address"
        },
        {
          "indexed": false,
          "name": "amount",
          "type": "uint256"
        },
        {
          "indexed": false,
          "name": "sendTo",
          "type": "address"
        }
      ],
      "name": "TokenWithdraw",
      "type": "event"
    },
    {
      "anonymous": false,
      "inputs": [
        {
          "indexed": false,
          "name": "amount",
          "type": "uint256"
        },
        {
          "indexed": false,
          "name": "sendTo",
          "type": "address"
        }
      ],
      "name": "EtherWithdraw",
      "type": "event"
    },
    {
      "anonymous": false,
      "inputs": [
        {
          "indexed": false,
          "name": "pendingAdmin",
          "type": "address"
        }
      ],
      "name": "TransferAdminPending",
      "type": "event"
    },
    {
      "anonymous": false,
      "inputs": [
        {
          "indexed": false,
          "name": "newAdmin",
          "type": "address"
        },
        {
          "indexed": false,
          "name": "previousAdmin",
          "type": "address"
        }
      ],
      "name": "AdminClaimed",
      "type": "event"
    },
    {
      "anonymous": false,
      "inputs": [
        {
          "indexed": false,
          "name": "newAlerter",
          "type": "address"
        },
        {
          "indexed": false,
          "name": "isAdd",
          "type": "bool"
        }
      ],
      "name": "AlerterAdded",
      "type": "event"
    },
    {
      "anonymous": false,
      "inputs": [
        {
          "indexed": false,
          "name": "newOperator",
          "type": "address"
        },
        {
          "indexed": false,
          "name": "isAdd",
          "type": "bool"
        }
      ],
      "name": "OperatorAdded",
      "type": "event"
    },
    {
      "constant": false,
      "inputs": [
        {
          "name": "reserve",
          "type": "address"
        }
      ],
      "name": "setReserveAddress",
      "outputs": [],
      "payable": false,
      "stateMutability": "nonpayable",
      "type": "function"
    },
    {
      "constant": false,
      "inputs": [
        {
          "name": "_rInFp",
          "type": "uint256"
        },
        {
          "name": "_pMinInFp",
          "type": "uint256"
        },
        {
          "name": "_numFpBits",
          "type": "uint256"
        },
        {
          "name": "_maxCapBuyInWei",
          "type": "uint256"
        },
        {
          "name": "_maxCapSellInWei",
          "type": "uint256"
        },
        {
          "name": "_feeInBps",
          "type": "uint256"
        },
        {
          "name": "_maxTokenToEthRateInPrecision",
          "type": "uint256"
        },
        {
          "name": "_minTokenToEthRateInPrecision",
          "type": "uint256"
        }
      ],
      "name": "setLiquidityParams",
      "outputs": [],
      "payable": false,
      "stateMutability": "nonpayable",
      "type": "function"
    },
    {
      "constant": false,
      "inputs": [
        {
          "name": "conversionToken",
          "type": "address"
        },
        {
          "name": "buyAmountInTwei",
          "type": "int256"
        },
        {
          "name": "rateUpdateBlock",
          "type": "uint256"
        },
        {
          "name": "currentBlock",
          "type": "uint256"
        }
      ],
      "name": "recordImbalance",
      "outputs": [],
      "payable": false,
      "stateMutability": "nonpayable",
      "type": "function"
    },
    {
      "constant": false,
      "inputs": [],
      "name": "resetCollectedFees",
      "outputs": [],
      "payable": false,
      "stateMutability": "nonpayable",
      "type": "function"
    },
    {
      "constant": true,
      "inputs": [
        {
          "name": "conversionToken",
          "type": "address"
        },
        {
          "name": "currentBlockNumber",
          "type": "uint256"
        },
        {
          "name": "buy",
          "type": "bool"
        },
        {
          "name": "qtyInSrcWei",
          "type": "uint256"
        }
      ],
      "name": "getRate",
      "outputs": [
        {
          "name": "",
          "type": "uint256"
        }
      ],
      "payable": false,
      "stateMutability": "view",
      "type": "function"
    },
    {
      "constant": true,
      "inputs": [
        {
          "name": "conversionToken",
          "type": "address"
        },
        {
          "name": "buy",
          "type": "bool"
        },
        {
          "name": "qtyInSrcWei",
          "type": "uint256"
        },
        {
          "name": "eInFp",
          "type": "uint256"
        }
      ],
      "name": "getRateWithE",
      "outputs": [
        {
          "name": "",
          "type": "uint256"
        }
      ],
      "payable": false,
      "stateMutability": "view",
      "type": "function"
    },
    {
      "constant": true,
      "inputs": [
        {
          "name": "rateInPrecision",
          "type": "uint256"
        },
        {
          "name": "buy",
          "type": "bool"
        }
      ],
      "name": "rateAfterValidation",
      "outputs": [
        {
          "name": "",
          "type": "uint256"
        }
      ],
      "payable": false,
      "stateMutability": "view",
      "type": "function"
    },
    {
      "constant": true,
      "inputs": [
        {
          "name": "eInFp",
          "type": "uint256"
        },
        {
          "name": "deltaEInFp",
          "type": "uint256"
        }
      ],
      "name": "buyRate",
      "outputs": [
        {
          "name": "",
          "type": "uint256"
        }
      ],
      "payable": false,
      "stateMutability": "view",
      "type": "function"
    },
    {
      "constant": true,
      "inputs": [
        {
          "name": "eInFp",
          "type": "uint256"
        }
      ],
      "name": "buyRateZeroQuantity",
      "outputs": [
        {
          "name": "",
          "type": "uint256"
        }
      ],
      "payable": false,
      "stateMutability": "view",
      "type": "function"
    },
    {
      "constant": true,
      "inputs": [
        {
          "name": "eInFp",
          "type": "uint256"
        },
        {
          "name": "sellInputTokenQtyInFp",
          "type": "uint256"
        },
        {
          "name": "deltaTInFp",
          "type": "uint256"
        }
      ],
      "name": "sellRate",
      "outputs": [
        {
          "name": "rateInPrecision",
          "type": "uint256"
        },
        {
          "name": "deltaEInFp",
          "type": "uint256"
        }
      ],
      "payable": false,
      "stateMutability": "view",
      "type": "function"
    },
    {
      "constant": true,
      "inputs": [
        {
          "name": "eInFp",
          "type": "uint256"
        }
      ],
      "name": "sellRateZeroQuantity",
      "outputs": [
        {
          "name": "",
          "type": "uint256"
        }
      ],
      "payable": false,
      "stateMutability": "view",
      "type": "function"
    },
    {
      "constant": true,
      "inputs": [
        {
          "name": "qtyInTwei",
          "type": "uint256"
        }
      ],
      "name": "fromTweiToFp",
      "outputs": [
        {
          "name": "",
          "type": "uint256"
        }
      ],
      "payable": false,
      "stateMutability": "view",
      "type": "function"
    },
    {
      "constant": true,
      "inputs": [
        {
          "name": "qtyInwei",
          "type": "uint256"
        }
      ],
      "name": "fromWeiToFp",
      "outputs": [
        {
          "name": "",
          "type": "uint256"
        }
      ],
      "payable": false,
      "stateMutability": "view",
      "type": "function"
    },
    {
      "constant": true,
      "inputs": [
        {
          "name": "val",
          "type": "uint256"
        }
      ],
      "name": "valueAfterReducingFee",
      "outputs": [
        {
          "name": "",
          "type": "uint256"
        }
      ],
      "payable": false,
      "stateMutability": "view",
      "type": "function"
    },
    {
      "constant": true,
      "inputs": [
        {
          "name": "val",
          "type": "uint256"
        }
      ],
      "name": "calcCollectedFee",
      "outputs": [
        {
          "name": "",
          "type": "uint256"
        }
      ],
      "payable": false,
      "stateMutability": "view",
      "type": "function"
    },
    {
      "constant": true,
      "inputs": [
        {
          "name": "val",
          "type": "int256"
        }
      ],
      "name": "abs",
      "outputs": [
        {
          "name": "",
          "type": "uint256"
        }
      ],
      "payable": false,
      "stateMutability": "pure",
      "type": "function"
    }
  ],
  "bytecode": "0x608060405260006011553480156200001657600080fd5b506040516040806200239483398101604052805160209091015160008054600160a060020a031916331790556200005682640100000000620000c3810204565b60078054600160a060020a031916600160a060020a0383811691909117918290556200008c911664010000000062000197810204565b600754601290620000af90600160a060020a031664010000000062000282810204565b1115620000bb57600080fd5b50506200036f565b600054600160a060020a03163314620000db57600080fd5b600160a060020a0381161515620000f157600080fd5b60408051600160a060020a038316815290517f3b81caf78fa51ecbc8acb482fd7012a277b428d9b80f9d156e8a54107496cc409181900360200190a160005460408051600160a060020a038085168252909216602083015280517f65da1cfc2c2e81576ad96afb24a581f8e109b7a403b35cbd3243a1c99efdb9ed9281900390910190a160008054600160a060020a031916600160a060020a0392909216919091179055565b600160a060020a03811673eeeeeeeeeeeeeeeeeeeeeeeeeeeeeeeeeeeeeeee1415620001df57600160a060020a0381166000908152600660205260409020601290556200027f565b80600160a060020a031663313ce5676040518163ffffffff167c0100000000000000000000000000000000000000000000000000000000028152600401602060405180830381600087803b1580156200023757600080fd5b505af11580156200024c573d6000803e3d6000fd5b505050506040513d60208110156200026357600080fd5b5051600160a060020a0382166000908152600660205260409020555b50565b600080600160a060020a03831673eeeeeeeeeeeeeeeeeeeeeeeeeeeeeeeeeeeeeeee1415620002b5576012915062000369565b50600160a060020a038216600090815260066020526040902054801515620003655782600160a060020a031663313ce5676040518163ffffffff167c0100000000000000000000000000000000000000000000000000000000028152600401602060405180830381600087803b1580156200032f57600080fd5b505af115801562000344573d6000803e3d6000fd5b505050506040513d60208110156200035b57600080fd5b5051915062000369565b8091505b50919050565b612015806200037f6000396000f3006080604052600436106102795763ffffffff60e060020a60003504166301a12fd3811461027e5780630f9b5129146102a157806314673d31146102c85780631b5ac4b5146102e95780631f05ff291461030157806320b0961c14610319578063267822471461033a578063275acbe31461036b578063279fe9671461038957806327a099d81461039e5780632f4fda30146104035780633ccdbb28146104185780634027760414610443578063408ee7fe14610458578063436f64ac14610479578063463cf7301461048e57806347be7bce146104a35780634857d52d146104b85780635111249e146104e55780635909e89714610514578063625cfc461461052f5780636f3d80431461054757806371f805bf1461055f57806375829def1461057457806377f50f97146105955780637acc8678146105aa5780637c423f54146105cb57806382f19e3a146105e05780638369ff08146106045780638401824f1461061f5780638596186414610656578063869d7d9314610682578063925176d61461069d57806395818603146106bb5780639870d7fe146106d3578063a0099b60146106f4578063a0a7299b1461071b578063a0dbde9d14610730578063a2c99d471461074e578063a7f43acd1461076b578063aa98d57b14610780578063ac8a584a14610798578063b5debaf5146107b9578063b86f6aa7146107d7578063b8e9c22e146107ec578063c6fd210314610818578063ce56c45414610842578063debc74f614610866578063e255d5ad1461087e578063e570270114610893578063ec6b16ca146108a8578063f0247f78146108bd578063f851a440146108d2578063fbe3462c146108e7578063fc0c546a146108fc575b600080fd5b34801561028a57600080fd5b5061029f600160a060020a0360043516610911565b005b3480156102ad57600080fd5b506102b6610a7a565b60408051918252519081900360200190f35b3480156102d457600080fd5b5061029f600160a060020a0360043516610a80565b3480156102f557600080fd5b506102b6600435610aeb565b34801561030d57600080fd5b506102b6600435610b09565b34801561032557600080fd5b506102b6600435602435604435606435610b3b565b34801561034657600080fd5b5061034f610b7b565b60408051600160a060020a039092168252519081900360200190f35b34801561037757600080fd5b506102b6600435602435604435610b8a565b34801561039557600080fd5b506102b6610bdd565b3480156103aa57600080fd5b506103b3610be3565b60408051602080825283518183015283519192839290830191858101910280838360005b838110156103ef5781810151838201526020016103d7565b505050509050019250505060405180910390f35b34801561040f57600080fd5b506102b6610c46565b34801561042457600080fd5b5061029f600160a060020a036004358116906024359060443516610c4e565b34801561044f57600080fd5b506102b6610d4e565b34801561046457600080fd5b5061029f600160a060020a0360043516610d54565b34801561048557600080fd5b506102b6610e4a565b34801561049a57600080fd5b506102b6610e50565b3480156104af57600080fd5b506102b6610e56565b3480156104c457600080fd5b5061029f60043560243560443560643560843560a43560c43560e435610e5c565b3480156104f157600080fd5b50610500600435602435610ff0565b604080519115158252519081900360200190f35b34801561052057600080fd5b506102b660043560243561101b565b34801561053b57600080fd5b506102b660043561106c565b34801561055357600080fd5b506102b66004356110ac565b34801561056b57600080fd5b506102b66110cf565b34801561058057600080fd5b5061029f600160a060020a03600435166110d5565b3480156105a157600080fd5b5061029f611162565b3480156105b657600080fd5b5061029f600160a060020a03600435166111ec565b3480156105d757600080fd5b506103b36112be565b3480156105ec57600080fd5b506102b660043560243560443560643560843561131e565b34801561061057600080fd5b506102b66004356024356113e8565b34801561062b57600080fd5b5061063d600435602435604435611466565b6040805192835260208301919091528051918290030190f35b34801561066257600080fd5b506102b6600160a060020a036004351660243515156044356064356114ab565b34801561068e57600080fd5b506102b66004356024356115b4565b3480156106a957600080fd5b5061063d60043560243560443561163d565b3480156106c757600080fd5b506102b6600435611688565b3480156106df57600080fd5b5061029f600160a060020a03600435166116c9565b34801561070057600080fd5b506102b660043560243560443560643560843560a435611883565b34801561072757600080fd5b506102b6611928565b34801561073c57600080fd5b506102b660043560243560443561192e565b34801561075a57600080fd5b506102b660043560243515156119e1565b34801561077757600080fd5b5061034f611a40565b34801561078c57600080fd5b506102b6600435611a4f565b3480156107a457600080fd5b5061029f600160a060020a0360043516611a7f565b3480156107c557600080fd5b506102b6600435602435604435611be4565b3480156107e357600080fd5b5061029f611cbb565b3480156107f857600080fd5b506102b6600160a060020a03600435166024356044351515606435611d13565b34801561082457600080fd5b5061029f600160a060020a0360043516602435604435606435611d77565b34801561084e57600080fd5b5061029f600435600160a060020a0360243516611de3565b34801561087257600080fd5b506102b6600435611e78565b34801561088a57600080fd5b506102b6611ea3565b34801561089f57600080fd5b506102b6611ea9565b3480156108b457600080fd5b506102b6611eaf565b3480156108c957600080fd5b506102b6611eb5565b3480156108de57600080fd5b5061034f611ebb565b3480156108f357600080fd5b506102b6611eca565b34801561090857600080fd5b5061034f611ed0565b60008054600160a060020a0316331461092957600080fd5b600160a060020a03821660009081526003602052604090205460ff16151561095057600080fd5b50600160a060020a0381166000908152600360205260408120805460ff191690555b600554811015610a765781600160a060020a031660058281548110151561099557fe5b600091825260209091200154600160a060020a03161415610a6e576005805460001981019081106109c257fe5b60009182526020909120015460058054600160a060020a0390921691839081106109e857fe5b60009182526020909120018054600160a060020a031916600160a060020a03929092169190911790556005805490610a24906000198301611fa2565b5060408051600160a060020a03841681526000602082015281517f5611bf3e417d124f97bf2c788843ea8bb502b66079fbee02158ef30b172cb762929181900390910190a1610a76565b600101610972565b5050565b60145481565b600054600160a060020a03163314610a9757600080fd5b60088054600160a060020a038316600160a060020a0319909116811790915560408051918252517fbd2ca09dd2b354751631db75d1a63231ec123c0d68c81928ea03d0be326c7f889181900360200190a150565b600080821215610b015781600019029050610b04565b50805b919050565b60006b204fce5e3e25026110000000821115610b2457600080fd5b600a54670de0b6b3a76400009083025b0492915050565b600080610b4d84870284850285611be4565b9050610b598186610ff0565b15610b6357600080fd5b82818602811515610b7057fe5b049695505050505050565b600154600160a060020a031681565b6000690177c17eb2ae5edd211c69021e19e0c9bab240000082610bae87878761192e565b9050610bba8382610ff0565b15610bc457600080fd5b81818402811515610bd157fe5b04979650505050505050565b600e5481565b60606004805480602002602001604051908101604052809291908181526020018280548015610c3b57602002820191906000526020600020905b8154600160a060020a03168152600190910190602001808311610c1d575b505050505090505b90565b60c860020a81565b600054600160a060020a03163314610c6557600080fd5b82600160a060020a031663a9059cbb82846040518363ffffffff1660e060020a0281526004018083600160a060020a0316600160a060020a0316815260200182815260200192505050602060405180830381600087803b158015610cc857600080fd5b505af1158015610cdc573d6000803e3d6000fd5b505050506040513d6020811015610cf257600080fd5b50511515610cff57600080fd5b60408051600160a060020a0380861682526020820185905283168183015290517f72cb8a894ddb372ceec3d2a7648d86f17d5a15caae0e986c53109b8a9a9385e69181900360600190a1505050565b60115481565b600054600160a060020a03163314610d6b57600080fd5b600160a060020a03811660009081526003602052604090205460ff1615610d9157600080fd5b600554603211610da057600080fd5b60408051600160a060020a03831681526001602082015281517f5611bf3e417d124f97bf2c788843ea8bb502b66079fbee02158ef30b172cb762929181900390910190a1600160a060020a03166000818152600360205260408120805460ff191660019081179091556005805491820181559091527f036b6384b5eca791c62761152d0c79bb0604c104a5fb6f4eb0703f3154bb3db0018054600160a060020a0319169091179055565b600b5481565b600d5481565b600a5481565b600054600160a060020a03163314610e7357600080fd5b6101008610610e8157600080fd5b600a546b204fce5e3e250261100000001015610e9c57600080fd5b6127108310610eaa57600080fd5b818110610eb657600080fd5b600b889055600c879055600286900a600a55610edd6b204fce5e3e25026110000000610b09565b600f556009869055610eee85610b09565b600d55610efa84610b09565b600e556010839055806ec097ce7bc90715b34b9f1000000000811515610f1c57fe5b04601255816ec097ce7bc90715b34b9f1000000000811515610f3a57fe5b04601381905560148390556015829055600b54600c54600954600d54600e54601054600a54600f5460125460408051998a5260208a0198909852888801969096526060880194909452608087019290925260a086015260c085015260e08401526101008301526101208201929092526101408101849052610160810183905290517f52db0a06d138736a4425764a1f7e1b432b5ce79099d523c0c4cd01e7320aba0e918190036101800190a15050505050505050565b600081151561100157506000611015565b828283850281151561100f57fe5b04141590505b92915050565b600080611031600b54600c548686600a5461131e565b600f5490915081111561104357600080fd5b61104c816110ac565b905082670de0b6b3a7640000820281151561106357fe5b04949350505050565b600080600a54670de0b6b3a764000061108d600b54600c5487600a54610b3b565b0281151561109757fe5b0490506110a3816110ac565b91505b50919050565b600060c860020a8211156110bf57600080fd5b6010546127109081038302610b34565b60095481565b600054600160a060020a031633146110ec57600080fd5b600160a060020a038116151561110157600080fd5b60015460408051600160a060020a039092168252517f3b81caf78fa51ecbc8acb482fd7012a277b428d9b80f9d156e8a54107496cc409181900360200190a160018054600160a060020a031916600160a060020a0392909216919091179055565b600154600160a060020a0316331461117957600080fd5b60015460005460408051600160a060020a03938416815292909116602083015280517f65da1cfc2c2e81576ad96afb24a581f8e109b7a403b35cbd3243a1c99efdb9ed9281900390910190a16001805460008054600160a060020a0319908116600160a060020a03841617909155169055565b600054600160a060020a0316331461120357600080fd5b600160a060020a038116151561121857600080fd5b60408051600160a060020a038316815290517f3b81caf78fa51ecbc8acb482fd7012a277b428d9b80f9d156e8a54107496cc409181900360200190a160005460408051600160a060020a038085168252909216602083015280517f65da1cfc2c2e81576ad96afb24a581f8e109b7a403b35cbd3243a1c99efdb9ed9281900390910190a160008054600160a060020a031916600160a060020a0392909216919091179055565b60606005805480602002602001604051908101604052809291908181526020018280548015610c3b57602002820191906000526020600020908154600160a060020a03168152600190910190602001808311610c1d575050505050905090565b60008060008061133089898988610b3b565b92508289029150611346868a0286870287611be4565b90508481101561135557600080fd5b61136185820386610ff0565b1561136b57600080fd5b611379858683030286610ff0565b1561138357600080fd5b6113938586878403020286610ff0565b1561139d57600080fd5b6113a78282610ff0565b156113b157600080fd5b6113bb8984610ff0565b156113c557600080fd5b8082028586878885030202028115156113da57fe5b049998505050505050505050565b600080600283810a90810281838188108015906114055750828811155b151561141057600080fd5b607d871061141d57600080fd5b50855b600081111561145a578388890281151561143657fe5b04975060028204915082881061145157600288049750938101935b60001901611420565b50929695505050505050565b60008082830284101561147d5750839050826114a3565b61149e838681151561148b57fe5b04848681151561149757fe5b0485611466565b915091505b935093915050565b6000808080806b204fce5e3e250261100000008711156114ca57600080fd5b600f548611156114d957600080fd5b600754600160a060020a038a81169116146114f757600094506115a8565b87156115445761150687610b09565b9350600d5484111561151b57600094506115a8565b8315156115325761152b86611e78565b905061153f565b61153c868561101b565b90505b611598565b61154d87611688565b9250611558836110ac565b91508115156115755761156a8661106c565b905060009350611585565b61158086848461163d565b945090505b600e5484111561159857600094506115a8565b6115a281896119e1565b90508094505b50505050949350505050565b60007f800000000000000000000000000000000000000000000000000000000000000060ff5b6000811261162f5783828386028115156115f057fe5b041461160157600282049150611626565b60008285028681151561161057fe5b04111561161f57809250611635565b6002820491505b600019016115da565b60001992505b505092915050565b600080611656600b54600c548786600a54600954611883565b600f5490915081111561166857600080fd5b83670de0b6b3a7640000820281151561167d57fe5b049150935093915050565b60006b204fce5e3e250261100000008211156116a357600080fd5b6007546116b890600160a060020a0316611edf565b600a0a600a548302811515610b3457fe5b600054600160a060020a031633146116e057600080fd5b600160a060020a03811660009081526002602052604090205460ff161561176857604080517f08c379a000000000000000000000000000000000000000000000000000000000815260206004820152601360248201527f416c726561647920616e206f70657261746f7200000000000000000000000000604482015290519081900360640190fd5b6004546032116117d957604080517f08c379a000000000000000000000000000000000000000000000000000000000815260206004820152601060248201527f4d61782053697a65207265616368656400000000000000000000000000000000604482015290519081900360640190fd5b60408051600160a060020a03831681526001602082015281517f091a7a4b85135fdd7e8dbc18b12fabe5cc191ea867aa3c2e1a24a102af61d58b929181900390910190a1600160a060020a03166000818152600260205260408120805460ff191660019081179091556004805491820181559091527f8a35acfbc15ff81a39ae7d344fd709f28e8600b4aa8c65c6b64bfe7fe36bd19b018054600160a060020a0319169091179055565b6000806000806118958a8a8a89610b3b565b9250828a0291506118ba868884028115156118ac57fe5b048788020187880287610b8a565b90506118c68a84610ff0565b156118d057600080fd5b6118da8687610ff0565b156118e457600080fd5b6118ee8288610ff0565b156118f857600080fd5b6119028187610ff0565b1561190c57600080fd5b8986820281151561191957fe5b049a9950505050505050505050565b60105481565b600080600283900a81808688111561194d5761194a88886115b4565b93505b6119578884610ff0565b1561196157600080fd5b61196b8484610ff0565b1561197557600080fd5b611983600285900a88610ff0565b1561198d57600080fd5b600284900a87028884028115156119a057fe5b0491506119ad82876113e8565b905060c860020a84840211156119c257600080fd5b60c860020a8111156119d357600080fd5b919092020195945050505050565b600080600083156119f9575050601354601254611a02565b50506015546014545b80851180611a0f57508185105b15611a1d5760009250611635565b69d3c21bcecceda1000000851115611a385760009250611635565b849250611635565b600854600160a060020a031681565b60006b204fce5e3e25026110000000821115611a6a57600080fd5b601054612710036010548302811515610b3457fe5b60008054600160a060020a03163314611a9757600080fd5b600160a060020a03821660009081526002602052604090205460ff161515611abe57600080fd5b50600160a060020a0381166000908152600260205260408120805460ff191690555b600454811015610a765781600160a060020a0316600482815481101515611b0357fe5b600091825260209091200154600160a060020a03161415611bdc57600480546000198101908110611b3057fe5b60009182526020909120015460048054600160a060020a039092169183908110611b5657fe5b60009182526020909120018054600160a060020a031916600160a060020a0392909216919091179055600480546000190190611b929082611fa2565b5060408051600160a060020a03841681526000602082015281517f091a7a4b85135fdd7e8dbc18b12fabe5cc191ea867aa3c2e1a24a102af61d58b929181900390910190a1610a76565b600101611ae0565b6000806001808083805b611bf88489610ff0565b15611c0557819650611cae565b611c0f8386610ff0565b15611c1c57819650611cae565b848302888502811515611c2b57fe5b048201915080821415611c4057819650611cae565b5060019094019380611c52848b610ff0565b15611c5f57819650611cae565b611c69838a610ff0565b15611c7657819650611cae565b611c808587610ff0565b15611c8d57819650611cae565b938502939289029291880291611ca484848a611466565b9094509250611bee565b5050505050509392505050565b60008054600160a060020a03163314611cd357600080fd5b506011805460009091556040805182815290517fdeb4766cf1de6f18e3b195f199d403a02a3e09fbee1192b37d797fb300f052619181900360200190a150565b600080806b204fce5e3e25026110000000841115611d3057600080fd5b600854611d4690600160a060020a031631610b09565b9150611d54878686856114ab565b905069d3c21bcecceda1000000811115611d6d57600080fd5b9695505050505050565b600854600160a060020a03163314611d8e57600080fd5b6000831315611db657611da8611da384610aeb565b611a4f565b601180549091019055611ddd565b612710601054611dc585610aeb565b02811515611dcf57fe5b601180549290910490910190555b50505050565b600054600160a060020a03163314611dfa57600080fd5b604051600160a060020a0382169083156108fc029084906000818181858888f19350505050158015611e30573d6000803e3d6000fd5b5060408051838152600160a060020a038316602082015281517fec47e7ed86c86774d1a72c19f35c639911393fe7c1a34031fdbd260890da90de929181900390910190a15050565b600080611e8d600b54600c5485600a54610b3b565b670de0b6b3a7640000600a540281151561109757fe5b60125481565b60155481565b600c5481565b600f5481565b600054600160a060020a031681565b60135481565b600754600160a060020a031681565b600080600160a060020a03831673eeeeeeeeeeeeeeeeeeeeeeeeeeeeeeeeeeeeeeee1415611f1057601291506110a6565b50600160a060020a0382166000908152600660205260409020548015156110155782600160a060020a031663313ce5676040518163ffffffff1660e060020a028152600401602060405180830381600087803b158015611f6f57600080fd5b505af1158015611f83573d6000803e3d6000fd5b505050506040513d6020811015611f9957600080fd5b505191506110a6565b815481835581811115611fc657600083815260209020611fc6918101908301611fcb565b505050565b610c4391905b80821115611fe55760008155600101611fd1565b50905600a165627a7a723058202ec5d69ec4be44e8073c2d5dcb89fffd29fc95b607a7a1de115ef418f0df616b0029",
  "source": "pragma solidity ^0.4.25;\r\n\r\nimport \"./ConversionRatesInterface.sol\";\r\nimport \"./LiquidityFormula.sol\";\r\nimport \"./Withdrawable.sol\";\r\nimport \"./Utils.sol\";\r\n\r\n\r\ncontract LiquidityConversionRates is ConversionRatesInterface, LiquidityFormula, Withdrawable, Utils {\r\n    ERC20 public token;\r\n    address public reserveContract;\r\n\r\n    uint public numFpBits;\r\n    uint public formulaPrecision;\r\n\r\n    uint public rInFp;\r\n    uint public pMinInFp;\r\n\r\n    uint public maxEthCapBuyInFp;\r\n    uint public maxEthCapSellInFp;\r\n    uint public maxQtyInFp;\r\n\r\n    uint public feeInBps;\r\n    uint public collectedFeesInTwei = 0;\r\n\r\n    uint public maxBuyRateInPrecision;\r\n    uint public minBuyRateInPrecision;\r\n    uint public maxSellRateInPrecision;\r\n    uint public minSellRateInPrecision;\r\n\r\n    constructor(address _admin, ERC20 _token) public {\r\n        transferAdminQuickly(_admin);\r\n        token = _token;\r\n        setDecimals(token);\r\n        require(getDecimals(token) <= MAX_DECIMALS);\r\n    }\r\n\r\n    event ReserveAddressSet(address reserve);\r\n\r\n    function setReserveAddress(address reserve) public onlyAdmin {\r\n        reserveContract = reserve;\r\n        emit ReserveAddressSet(reserve);\r\n    }\r\n\r\n    event LiquidityParamsSet(\r\n        uint rInFp,\r\n        uint pMinInFp,\r\n        uint numFpBits,\r\n        uint maxCapBuyInFp,\r\n        uint maxEthCapSellInFp,\r\n        uint feeInBps,\r\n        uint formulaPrecision,\r\n        uint maxQtyInFp,\r\n        uint maxBuyRateInPrecision,\r\n        uint minBuyRateInPrecision,\r\n        uint maxSellRateInPrecision,\r\n        uint minSellRateInPrecision\r\n    );\r\n\r\n    function setLiquidityParams(\r\n        uint _rInFp,\r\n        uint _pMinInFp,\r\n        uint _numFpBits,\r\n        uint _maxCapBuyInWei,\r\n        uint _maxCapSellInWei,\r\n        uint _feeInBps,\r\n        uint _maxTokenToEthRateInPrecision,\r\n        uint _minTokenToEthRateInPrecision\r\n    ) public onlyAdmin {\r\n\r\n        require(_numFpBits < 256);\r\n        require(formulaPrecision <= MAX_QTY);\r\n        require(_feeInBps < 10000);\r\n        require(_minTokenToEthRateInPrecision < _maxTokenToEthRateInPrecision);\r\n\r\n        rInFp = _rInFp;\r\n        pMinInFp = _pMinInFp;\r\n        formulaPrecision = uint(1)<<_numFpBits;\r\n        maxQtyInFp = fromWeiToFp(MAX_QTY);\r\n        numFpBits = _numFpBits;\r\n        maxEthCapBuyInFp = fromWeiToFp(_maxCapBuyInWei);\r\n        maxEthCapSellInFp = fromWeiToFp(_maxCapSellInWei);\r\n        feeInBps = _feeInBps;\r\n        maxBuyRateInPrecision = PRECISION * PRECISION / _minTokenToEthRateInPrecision;\r\n        minBuyRateInPrecision = PRECISION * PRECISION / _maxTokenToEthRateInPrecision;\r\n        maxSellRateInPrecision = _maxTokenToEthRateInPrecision;\r\n        minSellRateInPrecision = _minTokenToEthRateInPrecision;\r\n\r\n        emit LiquidityParamsSet(\r\n            rInFp,\r\n            pMinInFp,\r\n            numFpBits,\r\n            maxEthCapBuyInFp,\r\n            maxEthCapSellInFp,\r\n            feeInBps,\r\n            formulaPrecision,\r\n            maxQtyInFp,\r\n            maxBuyRateInPrecision,\r\n            minBuyRateInPrecision,\r\n            maxSellRateInPrecision,\r\n            minSellRateInPrecision\r\n        );\r\n    }\r\n\r\n    function recordImbalance(\r\n        ERC20 conversionToken,\r\n        int buyAmountInTwei,\r\n        uint rateUpdateBlock,\r\n        uint currentBlock\r\n    )\r\n        public\r\n    {\r\n        conversionToken;\r\n        rateUpdateBlock;\r\n        currentBlock;\r\n\r\n        require(msg.sender == reserveContract);\r\n        if (buyAmountInTwei > 0) {\r\n            // Buy case\r\n            collectedFeesInTwei += calcCollectedFee(abs(buyAmountInTwei));\r\n        } else {\r\n            // Sell case\r\n            collectedFeesInTwei += abs(buyAmountInTwei) * feeInBps / 10000;\r\n        }\r\n    }\r\n\r\n    event CollectedFeesReset(uint resetFeesInTwei);\r\n\r\n    function resetCollectedFees() public onlyAdmin {\r\n        uint resetFeesInTwei = collectedFeesInTwei;\r\n        collectedFeesInTwei = 0;\r\n\r\n        emit CollectedFeesReset(resetFeesInTwei);\r\n    }\r\n\r\n    function getRate(\r\n            ERC20 conversionToken,\r\n            uint currentBlockNumber,\r\n            bool buy,\r\n            uint qtyInSrcWei\r\n    ) public view returns(uint) {\r\n\r\n        currentBlockNumber;\r\n\r\n        require(qtyInSrcWei <= MAX_QTY);\r\n        uint eInFp = fromWeiToFp(reserveContract.balance);\r\n        uint rateInPrecision = getRateWithE(conversionToken, buy, qtyInSrcWei, eInFp);\r\n        require(rateInPrecision <= MAX_RATE);\r\n        return rateInPrecision;\r\n    }\r\n\r\n    function getRateWithE(ERC20 conversionToken, bool buy, uint qtyInSrcWei, uint eInFp) public view returns(uint) {\r\n        uint deltaEInFp;\r\n        uint sellInputTokenQtyInFp;\r\n        uint deltaTInFp;\r\n        uint rateInPrecision;\r\n\r\n        require(qtyInSrcWei <= MAX_QTY);\r\n        require(eInFp <= maxQtyInFp);\r\n        if (conversionToken != token) return 0;\r\n\r\n        if (buy) {\r\n            // ETH goes in, token goes out\r\n            deltaEInFp = fromWeiToFp(qtyInSrcWei);\r\n            if (deltaEInFp > maxEthCapBuyInFp) return 0;\r\n\r\n            if (deltaEInFp == 0) {\r\n                rateInPrecision = buyRateZeroQuantity(eInFp);\r\n            } else {\r\n                rateInPrecision = buyRate(eInFp, deltaEInFp);\r\n            }\r\n        } else {\r\n            sellInputTokenQtyInFp = fromTweiToFp(qtyInSrcWei);\r\n            deltaTInFp = valueAfterReducingFee(sellInputTokenQtyInFp);\r\n            if (deltaTInFp == 0) {\r\n                rateInPrecision = sellRateZeroQuantity(eInFp);\r\n                deltaEInFp = 0;\r\n            } else {\r\n                (rateInPrecision, deltaEInFp) = sellRate(eInFp, sellInputTokenQtyInFp, deltaTInFp);\r\n            }\r\n\r\n            if (deltaEInFp > maxEthCapSellInFp) return 0;\r\n        }\r\n\r\n        rateInPrecision = rateAfterValidation(rateInPrecision, buy);\r\n        return rateInPrecision;\r\n    }\r\n\r\n    function rateAfterValidation(uint rateInPrecision, bool buy) public view returns(uint) {\r\n        uint minAllowRateInPrecision;\r\n        uint maxAllowedRateInPrecision;\r\n\r\n        if (buy) {\r\n            minAllowRateInPrecision = minBuyRateInPrecision;\r\n            maxAllowedRateInPrecision = maxBuyRateInPrecision;\r\n        } else {\r\n            minAllowRateInPrecision = minSellRateInPrecision;\r\n            maxAllowedRateInPrecision = maxSellRateInPrecision;\r\n        }\r\n\r\n        if ((rateInPrecision > maxAllowedRateInPrecision) || (rateInPrecision < minAllowRateInPrecision)) {\r\n            return 0;\r\n        } else if (rateInPrecision > MAX_RATE) {\r\n            return 0;\r\n        } else {\r\n            return rateInPrecision;\r\n        }\r\n    }\r\n\r\n    function buyRate(uint eInFp, uint deltaEInFp) public view returns(uint) {\r\n        uint deltaTInFp = deltaTFunc(rInFp, pMinInFp, eInFp, deltaEInFp, formulaPrecision);\r\n        require(deltaTInFp <= maxQtyInFp);\r\n        deltaTInFp = valueAfterReducingFee(deltaTInFp);\r\n        return deltaTInFp * PRECISION / deltaEInFp;\r\n    }\r\n\r\n    function buyRateZeroQuantity(uint eInFp) public view returns(uint) {\r\n        uint ratePreReductionInPrecision = formulaPrecision * PRECISION / pE(rInFp, pMinInFp, eInFp, formulaPrecision);\r\n        return valueAfterReducingFee(ratePreReductionInPrecision);\r\n    }\r\n\r\n    function sellRate(\r\n        uint eInFp,\r\n        uint sellInputTokenQtyInFp,\r\n        uint deltaTInFp\r\n    ) public view returns(uint rateInPrecision, uint deltaEInFp) {\r\n        deltaEInFp = deltaEFunc(rInFp, pMinInFp, eInFp, deltaTInFp, formulaPrecision, numFpBits);\r\n        require(deltaEInFp <= maxQtyInFp);\r\n        rateInPrecision = deltaEInFp * PRECISION / sellInputTokenQtyInFp;\r\n    }\r\n\r\n    function sellRateZeroQuantity(uint eInFp) public view returns(uint) {\r\n        uint ratePreReductionInPrecision = pE(rInFp, pMinInFp, eInFp, formulaPrecision) * PRECISION / formulaPrecision;\r\n        return valueAfterReducingFee(ratePreReductionInPrecision);\r\n    }\r\n\r\n    function fromTweiToFp(uint qtyInTwei) public view returns(uint) {\r\n        require(qtyInTwei <= MAX_QTY);\r\n        return qtyInTwei * formulaPrecision / (10 ** getDecimals(token));\r\n    }\r\n\r\n    function fromWeiToFp(uint qtyInwei) public view returns(uint) {\r\n        require(qtyInwei <= MAX_QTY);\r\n        return qtyInwei * formulaPrecision / (10 ** ETH_DECIMALS);\r\n    }\r\n\r\n    function valueAfterReducingFee(uint val) public view returns(uint) {\r\n        require(val <= BIG_NUMBER);\r\n        return ((10000 - feeInBps) * val) / 10000;\r\n    }\r\n\r\n    function calcCollectedFee(uint val) public view returns(uint) {\r\n        require(val <= MAX_QTY);\r\n        return val * feeInBps / (10000 - feeInBps);\r\n    }\r\n\r\n    function abs(int val) public pure returns(uint) {\r\n        if (val < 0) {\r\n            return uint(val * (-1));\r\n        } else {\r\n            return uint(val);\r\n        }\r\n    }\r\n\r\n}\r\n",
  "sourcePath": "C:/Users/Naina/source/repos/two12/smart-contracts/contracts/LiquidityConversionRates.sol",
  "compiler": {
    "name": "solc",
    "version": "0.4.25+commit.59dbf8f1.Emscripten.clang"
  },
  "schemaVersion": "3.0.1",
  "updatedAt": "2019-02-07T05:09:32.774Z",
  "devdoc": {
    "methods": {
      "claimAdmin()": {
        "details": "Allows the pendingAdmin address to finalize the change admin process.\r"
      },
      "transferAdmin(address)": {
        "details": "Allows the current admin to set the pendingAdmin address.\r",
        "params": {
          "newAdmin": "The address to transfer ownership to.\r"
        }
      },
      "transferAdminQuickly(address)": {
        "details": "Allows the current admin to set the admin in one tx. Useful initial deployment.\r",
        "params": {
          "newAdmin": "The address to transfer ownership to.\r"
        }
      },
      "withdrawEther(uint256,address)": {
        "details": "Withdraw Ethers\r"
      },
      "withdrawToken(address,uint256,address)": {
        "details": "Withdraw all ERC20 compatible tokens\r",
        "params": {
          "token": "ERC20 The address of the token contract\r"
        }
      }
    }
  },
  "userdoc": {
    "methods": {}
  }
}