{
  "contractName": "PermissionlessOrderbookReserveLister",
  "abi": [
    {
      "constant": true,
      "inputs": [
        {
          "name": "",
          "type": "address"
        }
      ],
      "name": "reserveListingStage",
      "outputs": [
        {
          "name": "",
          "type": "uint8"
        }
      ],
      "payable": false,
      "stateMutability": "view",
      "type": "function"
    },
    {
      "constant": true,
      "inputs": [],
      "name": "kyberNetworkContract",
      "outputs": [
        {
          "name": "",
          "type": "address"
        }
      ],
      "payable": false,
      "stateMutability": "view",
      "type": "function"
    },
    {
      "constant": true,
      "inputs": [],
      "name": "maxOrdersPerTrade",
      "outputs": [
        {
          "name": "",
          "type": "uint256"
        }
      ],
      "payable": false,
      "stateMutability": "view",
      "type": "function"
    },
    {
      "constant": true,
      "inputs": [],
      "name": "orderFactoryContract",
      "outputs": [
        {
          "name": "",
          "type": "address"
        }
      ],
      "payable": false,
      "stateMutability": "view",
      "type": "function"
    },
    {
      "constant": true,
      "inputs": [
        {
          "name": "",
          "type": "address"
        }
      ],
      "name": "reserves",
      "outputs": [
        {
          "name": "",
          "type": "address"
        }
      ],
      "payable": false,
      "stateMutability": "view",
      "type": "function"
    },
    {
      "constant": true,
      "inputs": [],
      "name": "minNewOrderValueUsd",
      "outputs": [
        {
          "name": "",
          "type": "uint256"
        }
      ],
      "payable": false,
      "stateMutability": "view",
      "type": "function"
    },
    {
      "constant": true,
      "inputs": [
        {
          "name": "",
          "type": "address"
        }
      ],
      "name": "tokenListingBlocked",
      "outputs": [
        {
          "name": "",
          "type": "bool"
        }
      ],
      "payable": false,
      "stateMutability": "view",
      "type": "function"
    },
    {
      "constant": true,
      "inputs": [],
      "name": "medianizerContract",
      "outputs": [
        {
          "name": "",
          "type": "address"
        }
      ],
      "payable": false,
      "stateMutability": "view",
      "type": "function"
    },
    {
      "inputs": [
        {
          "name": "kyber",
          "type": "address"
        },
        {
          "name": "factory",
          "type": "address"
        },
        {
          "name": "medianizer",
          "type": "address"
        },
        {
          "name": "unsupportedTokens",
          "type": "address[]"
        },
        {
          "name": "maxOrders",
          "type": "uint256"
        },
        {
          "name": "minOrderValueUsd",
          "type": "uint256"
        }
      ],
      "payable": false,
      "stateMutability": "nonpayable",
      "type": "constructor"
    },
    {
      "anonymous": false,
      "inputs": [
        {
          "indexed": false,
          "name": "token",
          "type": "address"
        },
        {
          "indexed": false,
          "name": "stage",
          "type": "uint8"
        }
      ],
      "name": "TokenOrderbookListingStage",
      "type": "event"
    },
    {
      "constant": false,
      "inputs": [
        {
          "name": "token",
          "type": "address"
        }
      ],
      "name": "addOrderbookContract",
      "outputs": [
        {
          "name": "",
          "type": "bool"
        }
      ],
      "payable": false,
      "stateMutability": "nonpayable",
      "type": "function"
    },
    {
      "constant": false,
      "inputs": [
        {
          "name": "token",
          "type": "address"
        }
      ],
      "name": "initOrderbookContract",
      "outputs": [
        {
          "name": "",
          "type": "bool"
        }
      ],
      "payable": false,
      "stateMutability": "nonpayable",
      "type": "function"
    },
    {
      "constant": false,
      "inputs": [
        {
          "name": "token",
          "type": "address"
        }
      ],
      "name": "listOrderbookContract",
      "outputs": [
        {
          "name": "",
          "type": "bool"
        }
      ],
      "payable": false,
      "stateMutability": "nonpayable",
      "type": "function"
    },
    {
      "constant": false,
      "inputs": [
        {
          "name": "token",
          "type": "address"
        },
        {
          "name": "hintReserveIndex",
          "type": "uint256"
        }
      ],
      "name": "unlistOrderbookContract",
      "outputs": [],
      "payable": false,
      "stateMutability": "nonpayable",
      "type": "function"
    },
    {
      "constant": true,
      "inputs": [
        {
          "name": "token",
          "type": "address"
        }
      ],
      "name": "getOrderbookListingStage",
      "outputs": [
        {
          "name": "",
          "type": "address"
        },
        {
          "name": "",
          "type": "uint8"
        }
      ],
      "payable": false,
      "stateMutability": "view",
      "type": "function"
    }
  ],
  "bytecode": "0x60806040526103e860005534801561001657600080fd5b5060405161498438038061498483398101604090815281516020830151918301516060840151608085015160a0860151939592939190920191906000600160a060020a038716151561006757600080fd5b600160a060020a038616151561007c57600080fd5b600160a060020a038516151561009157600080fd5b6001831161009e57600080fd5b600082116100ab57600080fd5b5060028054600160a060020a03808916600160a060020a031992831617909255600380548884169083161790556004805492871692909116919091179055600182905560008181555b835181101561017a57835160009085908390811061010e57fe5b60209081029091010151600160a060020a0316141561012c57600080fd5b600160076000868481518110151561014057fe5b602090810291909101810151600160a060020a03168252810191909152604001600020805460ff19169115159190911790556001016100f4565b505050505050506147f4806101906000396000f300608060405260043610620000d25763ffffffff7c01000000000000000000000000000000000000000000000000000000006000350416630f631c078114620000d75780631138f0d4146200012057806315365af514620001585780634f61ff8b146200017c5780636f84f05c14620001b05780638fd37d9014620001da5780639d9bcdea1462000203578063c5d569c9146200021b578063d66bd524146200023f578063f11def681462000263578063f1a304ea146200027b578063f89d973c146200029f578063fa24d14114620002f8575b600080fd5b348015620000e457600080fd5b50620000fb600160a060020a036004351662000310565b604051808260038111156200010c57fe5b60ff16815260200191505060405180910390f35b3480156200012d57600080fd5b5062000144600160a060020a036004351662000325565b604080519115158252519081900360200190f35b3480156200016557600080fd5b5062000144600160a060020a03600435166200054a565b3480156200018957600080fd5b5062000194620006a5565b60408051600160a060020a039092168252519081900360200190f35b348015620001bd57600080fd5b50620001c8620006b4565b60408051918252519081900360200190f35b348015620001e757600080fd5b5062000201600160a060020a0360043516602435620006ba565b005b3480156200021057600080fd5b506200019462000819565b3480156200022857600080fd5b5062000144600160a060020a036004351662000828565b3480156200024c57600080fd5b5062000194600160a060020a036004351662000950565b3480156200027057600080fd5b50620001c86200096b565b3480156200028857600080fd5b5062000144600160a060020a036004351662000971565b348015620002ac57600080fd5b50620002c3600160a060020a036004351662000986565b604051600160a060020a038316815260208101826003811115620002e357fe5b60ff1681526020019250505060405180910390f35b3480156200030557600080fd5b5062000194620009b7565b60066020526000908152604090205460ff1681565b60006002600160a060020a03831660009081526006602052604090205460ff1660038111156200035157fe5b146200035c57600080fd5b600254600160a060020a0383811660009081526005602090815260408083205481517fa0d7bb1b0000000000000000000000000000000000000000000000000000000081529085166004820152600160248201529051939094169363a0d7bb1b9360448083019491928390030190829087803b158015620003dc57600080fd5b505af1158015620003f1573d6000803e3d6000fd5b505050506040513d60208110156200040857600080fd5b505115156200041657600080fd5b600254600160a060020a0383811660008181526005602090815260408083205481517fe02584bf0000000000000000000000000000000000000000000000000000000081529086166004820152602481019490945260016044850181905260648501819052608485015251939094169363e02584bf9360a480850194929391928390030190829087803b158015620004ad57600080fd5b505af1158015620004c2573d6000803e3d6000fd5b505050506040513d6020811015620004d957600080fd5b50511515620004e757600080fd5b600160a060020a038216600081815260066020908152604091829020805460ff191660039081179091559151928352600080516020620047a9833981519152928592918101825b60ff1681526020019250505060405180910390a1506001919050565b600080600160a060020a03831660009081526006602052604090205460ff1660038111156200057557fe5b146200058057600080fd5b600160a060020a03821660009081526007602052604090205460ff1615620005a757600080fd5b6002546004546003546000546001548694600160a060020a0390811694811693169190620005d4620009c6565b600160a060020a0396871681529486166020860152928516604080860191909152919094166060840152608083019390935260a082015290519081900360c001906000f0801580156200062b573d6000803e3d6000fd5b50600160a060020a038381166000818152600560209081526040808320805473ffffffffffffffffffffffffffffffffffffffff1916969095169590951790935560068352839020805460ff191660019081179091559251908152600080516020620047a98339815191529285929091908101826200052e565b600254600160a060020a031681565b60015481565b6003600160a060020a03831660009081526006602052604090205460ff166003811115620006e457fe5b14620006ef57600080fd5b600254600160a060020a0383811660009081526005602090815260408083205481517f249715b30000000000000000000000000000000000000000000000000000000081529085166004820152602481018790529051939094169363249715b39360448083019491928390030190829087803b1580156200076f57600080fd5b505af115801562000784573d6000803e3d6000fd5b505050506040513d60208110156200079b57600080fd5b50511515620007a957600080fd5b600160a060020a0382166000818152600660209081526040808320805460ff1916905560058252808320805473ffffffffffffffffffffffffffffffffffffffff191690558051938452908301919091528051600080516020620047a98339815191529281900390910190a15050565b600354600160a060020a031681565b60006001600160a060020a03831660009081526006602052604090205460ff1660038111156200085457fe5b146200085f57600080fd5b600160a060020a0380831660009081526005602090815260408083205481517fe1c7392a000000000000000000000000000000000000000000000000000000008152915194169363e1c7392a93600480840194938390030190829087803b158015620008ca57600080fd5b505af1158015620008df573d6000803e3d6000fd5b505050506040513d6020811015620008f657600080fd5b505115156200090457600080fd5b600160a060020a038216600081815260066020908152604091829020805460ff191660029081179091559151928352600080516020620047a9833981519152928592918101826200052e565b600560205260009081526040902054600160a060020a031681565b60005481565b60076020526000908152604090205460ff1681565b600160a060020a0380821660009081526005602090815260408083205460069092529091205491169060ff16915091565b600454600160a060020a031681565b604051613dd180620009d883390190560060806040523480156200001157600080fd5b5060405160c08062003dd183398101604090815281516020830151918301516060840151608085015160a09095015192949192909190600160a060020a03861615156200005d57600080fd5b600160a060020a03851615156200007357600080fd5b600160a060020a03841615156200008957600080fd5b600160a060020a03831615156200009f57600080fd5b801515620000ac57600080fd5b60008211620000ba57600080fd5b60068054600160a060020a03808816600160a060020a03199283161790925560078054878416908316179055600880548684169083161790556005805492891692909116919091179055600182905560028190556200012164010000000062000159810204565b15156200012d57600080fd5b6005546200014d90600160a060020a031664010000000062000266810204565b50505050505062000351565b600754604080517f59e02dd700000000000000000000000000000000000000000000000000000000815281516000938493849384938493600160a060020a0316926359e02dd7926004808201939182900301818787803b158015620001bd57600080fd5b505af1158015620001d2573d6000803e3d6000fd5b505050506040513d6040811015620001e957600080fd5b50805160209091015190945092508215156200020457600080fd5b670de0b6b3a7640000840491508115156200021e57600080fd5b620186a082106200022e57600080fd5b60015484906ec097ce7bc90715b34b9f1000000000028115156200024e57fe5b04600381905560029004600455506001949350505050565b600160a060020a03811673eeeeeeeeeeeeeeeeeeeeeeeeeeeeeeeeeeeeeeee1415620002ae57600160a060020a0381166000908152602081905260409020601290556200034e565b80600160a060020a031663313ce5676040518163ffffffff167c0100000000000000000000000000000000000000000000000000000000028152600401602060405180830381600087803b1580156200030657600080fd5b505af11580156200031b573d6000803e3d6000fd5b505050506040513d60208110156200033257600080fd5b5051600160a060020a0382166000908152602081905260409020555b50565b613a7080620003616000396000f3006080604052600436106102005763ffffffff60e060020a60003504166304068ae2811461020557806314fd6da01461022c5780632ac1db5a1461027057806330cbb66f146102b9578063338b5dea146102fa5780633bed33ce14610320578063411273d81461033857806350baa6221461035f57806350d91deb1461037757806352802121146104b0578063541e15b6146104c457806357df82e0146104d95780635cd36325146104fa5780635e310670146105335780635ff468571461055157806362bb7533146105c257806362c5aecc146105d7578063685e7fc2146105fe578063690d986b146106135780636c0f79b6146106445780636c3aacf91461068d5780636cf69811146106f5578063744fa2c81461072157806374d88c50146107485780637cd442721461076f57806384d062b41461079c578063860aefcf146107cc5780638fb2fbe11461080757806390f3dd3314610837578063930dfc4d14610870578063971e668f146108945780639d0d6473146108c45780639ebbf231146108f45780639f7ba82814610909578063abdde3d11461092a578063b7b2c52514610948578063c01a3cd21461095d578063d11dfdec14610984578063d4fac45d14610999578063e1c7392a146109c0578063f2e91350146109d5578063f67e8db214610b0e578063f719254d14610b23578063fe459fdf14610b41575b600080fd5b34801561021157600080fd5b5061021a610b56565b60408051918252519081900360200190f35b34801561023857600080fd5b5061025c6001608060020a036004358116906024351663ffffffff60443516610b5b565b604080519115158252519081900360200190f35b34801561027c57600080fd5b506102a063ffffffff600435166001608060020a0360243581169060443516610b90565b6040805163ffffffff9092168252519081900360200190f35b3480156102c557600080fd5b506102da600160a060020a0360043516610cff565b6040805163ffffffff909316835260208301919091528051918290030190f35b34801561030657600080fd5b5061031e600160a060020a0360043516602435610d21565b005b34801561032c57600080fd5b5061031e600435610e61565b34801561034457600080fd5b506102a06001608060020a0360043581169060243516610efe565b34801561036b57600080fd5b5061031e600435610faf565b34801561038357600080fd5b506040805160206004803580820135838102808601850190965280855261025c95369593946024949385019291829185019084908082843750506040805187358901803560208181028481018201909552818452989b9a998901989297509082019550935083925085019084908082843750506040805187358901803560208181028481018201909552818452989b9a998901989297509082019550935083925085019084908082843750506040805187358901803560208181028481018201909552818452989b9a998901989297509082019550935083925085019084908082843750506040805187358901803560208181028481018201909552818452989b9a9989019892975090820195509350839250850190849080828437509497506110ac9650505050505050565b61031e600160a060020a036004351661120f565b3480156104d057600080fd5b5061021a611293565b3480156104e557600080fd5b506102da600160a060020a0360043516611298565b34801561050657600080fd5b5061025c63ffffffff6004358116906001608060020a0360243581169160443590911690606435166112ba565b34801561053f57600080fd5b5061025c63ffffffff600435166112e1565b34801561055d57600080fd5b50610572600160a060020a0360043516611302565b60408051602080825283518183015283519192839290830191858101910280838360005b838110156105ae578181015183820152602001610596565b505050509050019250505060405180910390f35b3480156105ce57600080fd5b506105726113ca565b3480156105e357600080fd5b506102a06001608060020a03600435811690602435166113e8565b34801561060a57600080fd5b5061021a611464565b34801561061f57600080fd5b5061062861146b565b60408051600160a060020a039092168252519081900360200190f35b34801561065057600080fd5b5061065961147a565b60408051600160a060020a039586168152938516602085015291841683830152909216606082015290519081900360800190f35b34801561069957600080fd5b506106ab63ffffffff6004351661149e565b60408051600160a060020a0390961686526001608060020a039485166020870152929093168483015263ffffffff9081166060850152919091166080830152519081900360a00190f35b61025c600160a060020a03600435811690602435906044358116906064351660843560a4351515611551565b34801561072d57600080fd5b5061025c6001608060020a0360043581169060243516611869565b34801561075457600080fd5b5061025c6001608060020a036004358116906024351661187e565b34801561077b57600080fd5b5061021a600160a060020a036004358116906024351660443560643561188c565b3480156107a857600080fd5b5061025c63ffffffff600435166001608060020a0360243581169060443516611af8565b3480156107d857600080fd5b506107e1611b07565b604080519485526020850193909352838301919091526060830152519081900360800190f35b34801561081357600080fd5b506102a063ffffffff600435166001608060020a0360243581169060443516611b16565b34801561084357600080fd5b5061025c63ffffffff6004358116906001608060020a036024358116916044359091169060643516611c31565b34801561087c57600080fd5b5061031e600160a060020a0360043516602435611c41565b3480156108a057600080fd5b5061025c63ffffffff600435166001608060020a0360243581169060443516611dff565b3480156108d057600080fd5b5061025c6001608060020a036004358116906024351663ffffffff60443516611e23565b34801561090057600080fd5b5061025c611e4d565b34801561091557600080fd5b50610572600160a060020a0360043516611f53565b34801561093657600080fd5b506106ab63ffffffff60043516612013565b34801561095457600080fd5b506102a0611293565b34801561096957600080fd5b5061021a600160a060020a0360043581169060243516612073565b34801561099057600080fd5b506102a0612090565b3480156109a557600080fd5b5061021a600160a060020a0360043581169060243516612095565b3480156109cc57600080fd5b5061025c612155565b3480156109e157600080fd5b506040805160206004803580820135838102808601850190965280855261025c95369593946024949385019291829185019084908082843750506040805187358901803560208181028481018201909552818452989b9a998901989297509082019550935083925085019084908082843750506040805187358901803560208181028481018201909552818452989b9a998901989297509082019550935083925085019084908082843750506040805187358901803560208181028481018201909552818452989b9a998901989297509082019550935083925085019084908082843750506040805187358901803560208181028481018201909552818452989b9a99890198929750908201955093508392508501908490808284375094975061232e9650505050505050565b348015610b1a57600080fd5b50610572612418565b348015610b2f57600080fd5b5061025c63ffffffff60043516612430565b348015610b4d57600080fd5b5061062861243d565b602081565b336000908152600d602052604081208190610b759061244c565b9050610b85600182878787612491565b91505b509392505050565b6000806000806000600160020154876001608060020a031610151515610bb557600080fd5b600a546040805160e360020a6310bf96950281526001608060020a03808b166004830152891660248201529051600160a060020a03909216916385fcb4a8916044808201926020929091908290030181600087803b158015610c1657600080fd5b505af1158015610c2a573d6000803e3d6000fd5b505050506040513d6020811015610c4057600080fd5b5051935063ffffffff8085169089161415610cf357600a546040805160e060020a6361592b8502815263ffffffff8b1660048201529051600160a060020a03909216916361592b859160248082019260a0929091908290030181600087803b158015610cab57600080fd5b505af1158015610cbf573d6000803e3d6000fd5b505050506040513d60a0811015610cd557600080fd5b50805160208201516060830151608090930151929650909450925090505b50919695505050505050565b600c602052600090815260409020805460019091015463ffffffff9091169082565b600160a060020a0382161515610d3657600080fd5b6b204fce5e3e250261100000008110610d4e57600080fd5b600554604080517f23b872dd000000000000000000000000000000000000000000000000000000008152336004820152306024820152604481018490529051600160a060020a03909216916323b872dd916064808201926020929091908290030181600087803b158015610dc157600080fd5b505af1158015610dd5573d6000803e3d6000fd5b505050506040513d6020811015610deb57600080fd5b50511515610df857600080fd5b600160a060020a038083166000818152600b602090815260408083206005549095168352938152908390208054850190558251848152925191927fbc7c8a4d8049a3f99a02f2a20640c206a2e4d3f2fa54fd20da9f01fda3620cda929081900390910190a25050565b336000818152600b60209081526040808320600080516020613a25833981519152845290915290205482811015610e9757600080fd5b600160a060020a0382166000818152600b60209081526040808320600080516020613a258339815191528452909152808220805487900390555185156108fc0291869190818181858888f19350505050158015610ef8573d6000803e3d6000fd5b50505050565b6003546000906001608060020a0383161015610f1957600080fd5b6009546040805160e360020a6310bf96950281526001608060020a038087166004830152851660248201529051600160a060020a03909216916385fcb4a8916044808201926020929091908290030181600087803b158015610f7a57600080fd5b505af1158015610f8e573d6000803e3d6000fd5b505050506040513d6020811015610fa457600080fd5b505190505b92915050565b336000818152600b60209081526040808320600554600160a060020a0316845290915290205482811015610fe257600080fd5b600160a060020a038083166000818152600b60209081526040808320600580548716855290835281842080548a900390555481517fa9059cbb000000000000000000000000000000000000000000000000000000008152600481019590955260248501899052905194169363a9059cbb93604480820194918390030190829087803b15801561107057600080fd5b505af1158015611084573d6000803e3d6000fd5b505050506040513d602081101561109a57600080fd5b505115156110a757600080fd5b505050565b600080600080600086518a511415156110c457600080fd5b87518a51146110d257600080fd5b88518a51146110e057600080fd5b85518a51146110ee57600080fd5b5033925060009050805b89518110156111ff57858181518110151561110f57fe5b9060200190602002015161113a57868181518110151561112b57fe5b9060200190602002015161113c565b815b92506111988a8281518110151561114f57fe5b9060200190602002015161117a57600160a060020a0385166000908152600c60205260409020611193565b600160a060020a0385166000908152600d602052604090205b61244c565b91506111ec8a828151811015156111ab57fe5b90602001906020020151838b848151811015156111c457fe5b906020019060200201518b858151811015156111dc57fe5b9060200190602002015187612491565b15156111f757600080fd5b6001016110f8565b5060019998505050505050505050565b600160a060020a038116151561122457600080fd5b600160a060020a0381166000818152600b60209081526040808320600080516020613a258339815191528452825291829020805434908101909155825190815291517f939e51ac2fd009b158d6344f7e68a83d8d18d9b0cc88cf514aac6aaa9cad2a189281900390910190a250565b600281565b600d602052600090815260409020805460019091015463ffffffff9091169082565b60006112ca60018686868661274e565b15156112d557600080fd5b5060015b949350505050565b60006112ee600083612aba565b15156112f957600080fd5b5060015b919050565b600160a060020a0381166000908152600d602052604081206060918061132783612c3e565b604051908082528060200260200182016040528015611350578160200160208202803883390190505b50935060009150600090505b60208163ffffffff1610156113c25760008163ffffffff1660019060020a0284600101541611156113ba5782548451600184019363ffffffff909216830191869181106113a557fe5b63ffffffff9092166020928302909101909101525b60010161135c565b505050919050565b600954606090600160a060020a03166113e281612c76565b91505090565b6003546000906001608060020a038416101561140357600080fd5b600a546040805160e360020a6310bf96950281526001608060020a038087166004830152851660248201529051600160a060020a03909216916385fcb4a8916044808201926020929091908290030181600087803b158015610f7a57600080fd5b620186a081565b600954600160a060020a031681565b600554600654600754600854600160a060020a039384169392831692918216911684565b6009546040805160e060020a6361592b8502815263ffffffff8416600482015290516000928392839283928392600160a060020a03909116916361592b859160248082019260a09290919082900301818787803b1580156114fe57600080fd5b505af1158015611512573d6000803e3d6000fd5b505050506040513d60a081101561152857600080fd5b508051602082015160408301516060840151608090940151929a91995097509195509350915050565b6006546000908190600160a060020a0316331461156d57600080fd5b600160a060020a038816600080516020613a2583398151915214806115a85750600160a060020a038616600080516020613a25833981519152145b15156115b357600080fd5b600554600160a060020a03898116911614806115dc5750600554600160a060020a038781169116145b15156115e757600080fd5b6b204fce5e3e2502611000000087111561160057600080fd5b600160a060020a038816600080516020613a2583398151915214156116305734871461162b57600080fd5b6116e0565b341561163b57600080fd5b604080517f23b872dd000000000000000000000000000000000000000000000000000000008152336004820152306024820152604481018990529051600160a060020a038a16916323b872dd9160648083019260209291908290030181600087803b1580156116a957600080fd5b505af11580156116bd573d6000803e3d6000fd5b505050506040513d60208110156116d357600080fd5b505115156116e057600080fd5b6116eb888888612e42565b905061170987826116fb8b613044565b6117048a613044565b613101565b84111561171557600080fd5b600160a060020a038616600080516020613a25833981519152141561177057604051600160a060020a0386169082156108fc029083906000818181858888f1935050505015801561176a573d6000803e3d6000fd5b5061180a565b85600160a060020a031663a9059cbb86836040518363ffffffff1660e060020a0281526004018083600160a060020a0316600160a060020a0316815260200182815260200192505050602060405180830381600087803b1580156117d357600080fd5b505af11580156117e7573d6000803e3d6000fd5b505050506040513d60208110156117fd57600080fd5b5051151561180a57600080fd5b60408051600160a060020a03808b168252881660208201528082018990526060810183905290517f36cfc7e9779b5ccf22f92f2f0d9adf9c74df05ab07de27c8cb508020389f9adc9181900360800190a1506001979650505050505050565b600061187783836000611e23565b9392505050565b600061187783836000610b5b565b60008060006118996139f6565b60008080600160a060020a038b16600080516020613a2583398151915214806118d85750600160a060020a038a16600080516020613a25833981519152145b15156118e357600080fd5b600554600160a060020a038c81169116148061190c5750600554600160a060020a038b81169116145b151561191757600080fd5b6b204fce5e3e2502611000000089111561193057600080fd5b600160a060020a038b16600080516020613a258339815191521461195f57600a54600160a060020a031661196c565b600954600160a060020a03165b9550889250600091506001800154905085600160a060020a031663a3fb59176040518163ffffffff1660e060020a0281526004016040805180830381600087803b1580156119b957600080fd5b505af11580156119cd573d6000803e3d6000fd5b505050506040513d60408110156119e357600080fd5b5080516020909101511515604086015294505b6000836001608060020a0316118015611a1157508360400151155b8015611a2257506000198101906000105b15611aaf57611a31868661319c565b9350826001608060020a031684608001516001608060020a0316111515611a6957836060015182019150836080015183039250611aa3565b83608001516001608060020a0316836001608060020a031685606001516001608060020a031602811515611a9957fe5b0482019150600092505b836020015194506119f6565b6001608060020a03831615611ac75760009650611aea565b611ae789836001608060020a0316611ade8e613044565b6117048e613044565b96505b505050505050949350505050565b60006112d984848460006112ba565b60015460025460035460045484565b6000806000806000600160020154866001608060020a031610151515611b3b57600080fd5b6009546040805160e360020a6310bf96950281526001608060020a03808b166004830152891660248201529051600160a060020a03909216916385fcb4a8916044808201926020929091908290030181600087803b158015611b9c57600080fd5b505af1158015611bb0573d6000803e3d6000fd5b505050506040513d6020811015611bc657600080fd5b5051935063ffffffff8085169089161415610cf3576009546040805160e060020a6361592b8502815263ffffffff8b1660048201529051600160a060020a03909216916361592b859160248082019260a0929091908290030181600087803b158015610cab57600080fd5b60006112ca60008686868661274e565b600160a060020a0382161515611c5657600080fd5b6b204fce5e3e250261100000008110611c6e57600080fd5b600160a060020a0382166000908152600c60205260409020611c8f9061327a565b15611d4d57600160a060020a038083166000908152600c6020908152604080832060095482517f1f38c358000000000000000000000000000000000000000000000000000000008152600481018590529251611d429692959190921693631f38c358936024808201949293918390030190829087803b158015611d1157600080fd5b505af1158015611d25573d6000803e3d6000fd5b505050506040513d6020811015611d3b57600080fd5b505161329b565b1515611d4d57600080fd5b600160a060020a0382166000908152600d60205260409020611d6e9061327a565b15611dfb57600160a060020a038083166000908152600d60209081526040808320600a5482517f1f38c358000000000000000000000000000000000000000000000000000000008152600481018590529251611df09692959190921693631f38c358936024808201949293918390030190829087803b158015611d1157600080fd5b1515611dfb57600080fd5b5050565b6000611e0e8484846000611c31565b1515611e1957600080fd5b5060019392505050565b336000908152600c602052604081208190611e3d9061244c565b9050610b85600082878787612491565b600754604080517f59e02dd700000000000000000000000000000000000000000000000000000000815281516000938493849384938493600160a060020a0316926359e02dd7926004808201939182900301818787803b158015611eb057600080fd5b505af1158015611ec4573d6000803e3d6000fd5b505050506040513d6040811015611eda57600080fd5b5080516020909101519094509250821515611ef457600080fd5b670de0b6b3a764000084049150811515611f0d57600080fd5b620186a08210611f1c57600080fd5b60015484906ec097ce7bc90715b34b9f100000000002811515611f3b57fe5b04600381905560029004600455506001949350505050565b600160a060020a0381166000908152600c6020526040812060609180611f7883612c3e565b604051908082528060200260200182016040528015611fa1578160200160208202803883390190505b50935060009150600090505b60208163ffffffff1610156113c25760008163ffffffff1660019060020a02846001015416111561200b5782548451600184019363ffffffff90921683019186918110611ff657fe5b63ffffffff9092166020928302909101909101525b600101611fad565b600a546040805160e060020a6361592b8502815263ffffffff8416600482015290516000928392839283928392600160a060020a03909116916361592b859160248082019260a09290919082900301818787803b1580156114fe57600080fd5b600b60209081526000928352604080842090915290825290205481565b600181565b6000600160a060020a038316600080516020613a2583398151915214156120c75750600160a060020a03811631610fa9565b82600160a060020a03166370a08231836040518263ffffffff1660e060020a0281526004018082600160a060020a0316600160a060020a03168152602001915050602060405180830381600087803b15801561212257600080fd5b505af1158015612136573d6000803e3d6000fd5b505050506040513d602081101561214c57600080fd5b50519050610fa9565b600954600090600160a060020a03161580159061217c5750600a54600160a060020a031615155b156121895750600161232b565b600954600160a060020a03161515806121ac5750600a54600160a060020a031615155b156121b657600080fd5b600854604080517ffccf6e670000000000000000000000000000000000000000000000000000000081523060048201529051600160a060020a039092169163fccf6e67916024808201926020929091908290030181600087803b15801561221c57600080fd5b505af1158015612230573d6000803e3d6000fd5b505050506040513d602081101561224657600080fd5b50516009805473ffffffffffffffffffffffffffffffffffffffff1916600160a060020a03928316179055600854604080517ffccf6e670000000000000000000000000000000000000000000000000000000081523060048201529051919092169163fccf6e679160248083019260209291908290030181600087803b1580156122cf57600080fd5b505af11580156122e3573d6000803e3d6000fd5b505050506040513d60208110156122f957600080fd5b5051600a805473ffffffffffffffffffffffffffffffffffffffff1916600160a060020a039092169190911790555060015b90565b6000808551875114151561234157600080fd5b845187511461234f57600080fd5b835187511461235d57600080fd5b825187511461236b57600080fd5b5060005b865181101561240b576123f8878281518110151561238957fe5b9060200190602002015187838151811015156123a157fe5b9060200190602002015187848151811015156123b957fe5b9060200190602002015187858151811015156123d157fe5b9060200190602002015187868151811015156123e957fe5b9060200190602002015161274e565b151561240357600080fd5b60010161236f565b5060019695505050505050565b600a54606090600160a060020a03166113e281612c76565b60006112ee600183612aba565b600a54600160a060020a031681565b600180820154600091825b6020811015610200578282161515612482578282176001860155845463ffffffff16810193506113c2565b60029190910290600101612457565b60008080806b204fce5e3e250261100000006001608060020a038816106124b757600080fd5b6b204fce5e3e250261100000006001608060020a038716106124d857600080fd5b3392506124e7838a89896132d6565b15156124f257600080fd5b61250f876001608060020a0316876001608060020a03168b61332e565b151561251a57600080fd5b600091508861253457600954600160a060020a0316612541565b600a54600160a060020a03165b905063ffffffff85161561260e57604080517fa5da0bf5000000000000000000000000000000000000000000000000000000008152600160a060020a03858116600483015263ffffffff808c1660248401526001608060020a03808c1660448501528a1660648401528816608483015291519183169163a5da0bf59160a4808201926020929091908290030181600087803b1580156125df57600080fd5b505af11580156125f3573d6000803e3d6000fd5b505050506040513d602081101561260957600080fd5b505191505b8115156126d457604080517fc92ba8b2000000000000000000000000000000000000000000000000000000008152600160a060020a03858116600483015263ffffffff8b1660248301526001608060020a03808b1660448401528916606483015291519183169163c92ba8b2916084808201926020929091908290030181600087803b15801561269d57600080fd5b505af11580156126b1573d6000803e3d6000fd5b505050506040513d60208110156126c757600080fd5b505115156126d457600080fd5b6040805163ffffffff8a1681528a151560208201526001608060020a03808a16828401528816606082015283151560808201529051600160a060020a038516917f2fb3fe66d41cb2d1b0d335656d86e7c779ebdc34c6f6fc806d35790a30be0e6d919081900360a00190a250600198975050505050505050565b6000808080808080806b204fce5e3e250261100000006001608060020a038c161061277857600080fd5b6b204fce5e3e250261100000006001608060020a038b161061279957600080fd5b6127b68b6001608060020a03168b6001608060020a03168f61332e565b15156127c157600080fd5b8c6127d757600954600160a060020a03166127e4565b600a54600160a060020a03165b915081600160a060020a03166361592b858d6040518263ffffffff1660e060020a028152600401808263ffffffff1663ffffffff16815260200191505060a060405180830381600087803b15801561283b57600080fd5b505af115801561284f573d6000803e3d6000fd5b505050506040513d60a081101561286557600080fd5b508051602082015160408301516060909301519199509197509095509350600160a060020a038716331461289857600080fd5b6128a6878e87898f8f6133a0565b15156128b55760009750612aaa565b50600063ffffffff89161561297e57604080517fa590529e00000000000000000000000000000000000000000000000000000000815263ffffffff808f1660048301526001608060020a03808f1660248401528d1660448301528b1660648201528151600160a060020a0385169263a590529e92608480820193918290030181600087803b15801561294657600080fd5b505af115801561295a573d6000803e3d6000fd5b505050506040513d604081101561297057600080fd5b508051602090910151935090505b801515612a3a57604080517fcb2f7b8700000000000000000000000000000000000000000000000000000000815263ffffffff8e1660048201526001608060020a03808e1660248301528c1660448201529051600160a060020a0384169163cb2f7b879160648083019260209291908290030181600087803b158015612a0357600080fd5b505af1158015612a17573d6000803e3d6000fd5b505050506040513d6020811015612a2d57600080fd5b50511515612a3a57600080fd5b604080518e1515815263ffffffff8e1660208201526001608060020a03808e16828401528c16606082015282151560808201529051600160a060020a038916917f2bf327e052ee7ab98550e3d864a5b2a61f7737dc75cbcaada4e55f88222ebbd7919081900360a00190a2600197505b5050505050505095945050505050565b6000806000612ac76139f6565b33925085612ae057600954600160a060020a0316612aed565b600a54600160a060020a03165b9150612af9828661319c565b8051909150600160a060020a03848116911614612b1557600080fd5b612b46828488612b3057600554600160a060020a0316612b40565b600080516020613a258339815191525b88613405565b1515612b5157600080fd5b6060810151600160a060020a0384166000908152600b602052604081206001608060020a03909216919088612b9157600554600160a060020a0316612ba1565b600080516020613a258339815191525b600160a060020a0390811682526020808301939093526040918201600020805490940190935560608085015160808087015184518d1515815263ffffffff8d16968101969096526001608060020a039283168686015291909116918401919091529051928616927f179f16fddc625e40df9cb92cfcea70d64a6262c82b7a769e52996b1ff511ff569281900390910190a250600195945050505050565b6000805b6020811015612c705760008160019060020a028460010154161115612c68576001909101905b600101612c42565b50919050565b6060612c806139f6565b60008060008086600160a060020a031663a3fb59176040518163ffffffff1660e060020a0281526004016040805180830381600087803b158015612cc357600080fd5b505af1158015612cd7573d6000803e3d6000fd5b505050506040513d6040811015612ced57600080fd5b50805160209091015190945092508215612d17576040805160008152602081019091529550612e38565b600091505b84604001511515612d4657612d31878561319c565b60208101519095509350600190910190612d1c565b81604051908082528060200260200182016040528015612d70578160200160208202803883390190505b50955086600160a060020a031663a3fb59176040518163ffffffff1660e060020a0281526004016040805180830381600087803b158015612db057600080fd5b505af1158015612dc4573d6000803e3d6000fd5b505050506040513d6040811015612dda57600080fd5b508051602090910151151560408701529350600090505b81811015612e3857838682815181101515612e0857fe5b63ffffffff909216602092830290910190910152612e26878561319c565b60208101519095509350600101612df1565b5050505050919050565b6000806000612e4f6139f6565b60008080600160a060020a038a16600080516020613a2583398151915214612e8257600a54600160a060020a0316612e8f565b600954600160a060020a03165b95508892506000915085600160a060020a031663a3fb59176040518163ffffffff1660e060020a0281526004016040805180830381600087803b158015612ed557600080fd5b505af1158015612ee9573d6000803e3d6000fd5b505050506040513d6040811015612eff57600080fd5b5080516020909101511515604086015294505b6000836001608060020a0316118015612f2d57508360400151155b1561300357612f3c868661319c565b9350826001608060020a031684608001516001608060020a0316111515612f9357606084015160808501518551948190039493820193612f8392909188918e918d916134f3565b1515612f8e57600080fd5b612ff7565b83608001516001608060020a0316836001608060020a031685606001516001608060020a031602811515612fc357fe5b0490508082019150612fe78460000151868c8b87868a606001518b608001516135d6565b1515612ff257600080fd5b600092505b83602001519450612f12565b6001608060020a03831615801561302357506000826001608060020a0316115b151561302e57600080fd5b506001608060020a031698975050505050505050565b600080600160a060020a038316600080516020613a25833981519152141561306f5760129150612c70565b50600160a060020a038216600090815260208190526040902054801515610fa95782600160a060020a031663313ce5676040518163ffffffff1660e060020a028152600401602060405180830381600087803b1580156130ce57600080fd5b505af11580156130e2573d6000803e3d6000fd5b505050506040513d60208110156130f857600080fd5b50519150612c70565b60006b204fce5e3e2502611000000085111561311c57600080fd5b6b204fce5e3e2502611000000084111561313557600080fd5b828210613170576012838303111561314c57600080fd5b84838303600a0a02670de0b6b3a7640000850281151561316857fe5b0490506112d9565b6012828403111561318057600080fd5b84828403600a0a670de0b6b3a764000086020281151561316857fe5b6131a46139f6565b600083600160a060020a03166361592b85846040518263ffffffff1660e060020a028152600401808263ffffffff1663ffffffff16815260200191505060a060405180830381600087803b1580156131fb57600080fd5b505af115801561320f573d6000803e3d6000fd5b505050506040513d60a081101561322557600080fd5b50805160208083015160408085015160809586015163ffffffff169388018490526001608060020a039081169588019590955293166060860152600160a060020a039091168452600114908301525092915050565b805460009063ffffffff161515613293575060016112fd565b506000919050565b815460009063ffffffff168110156132b557506000610fa9565b50815463ffffffff191663ffffffff91909116178155600060019182015590565b600080846132e457826132e6565b835b6003546001608060020a0391909116915081101561330357600080fd5b6133178686866001608060020a031661386e565b151561332257600080fd5b50600195945050505050565b60008082156133625760055461335b908590879061335490600160a060020a0316613044565b6012613101565b9050613385565b600554613382908590879060129061170490600160a060020a0316613044565b90505b69d3c21bcecceda10000008111156112d55760009150610b88565b600080866133ae57826133b0565b835b6003546001608060020a039190911691508110156133cd57600080fd5b6133ec8888886001608060020a0316876001608060020a03160361386e565b15156133f757600080fd5b506001979650505050505050565b60008085600160a060020a031662d84fd8846040518263ffffffff1660e060020a028152600401808263ffffffff1663ffffffff168152602001915050602060405180830381600087803b15801561345c57600080fd5b505af1158015613470573d6000803e3d6000fd5b505050506040513d602081101561348657600080fd5b5051151561349357600080fd5b600160a060020a038416600080516020613a25833981519152146134ce57600160a060020a0385166000908152600c602052604090206134e7565b600160a060020a0385166000908152600d602052604090205b90506133178184613943565b600080600160a060020a038616600080516020613a258339815191521461352557600a54600160a060020a0316613532565b600954600160a060020a03165b90506135408189878a613405565b151561354b57600080fd5b60408051600160a060020a03808b16825263ffffffff8a1660208301528816600080516020613a25833981519152148183015290517ffc2eaa59b7259e4eb0ce92d7a86fce8b0fb67fade6f9f69df98f4771035a50c29181900360600190a16135ca8887866001608060020a0316866001608060020a031660006139c0565b98975050505050505050565b6000808080806001608060020a03808716908a16106135f457600080fd5b6001608060020a038088169089161061360c57600080fd5b95879003959488900394600160a060020a038b16600080516020613a258339815191521461364557600a54600160a060020a0316613652565b600954600160a060020a03165b9350600160a060020a038b16600080516020613a2583398151915214613678578661367a565b855b6001608060020a03169250600091506001600301548310156136e957600160a060020a03808e166000908152600b60209081526040808320938e1683529290522080546001608060020a0389160190558291506136d9848e8c8f613405565b15156136e457600080fd5b6137a4565b604080517fa590529e00000000000000000000000000000000000000000000000000000000815263ffffffff8e1660048201526001608060020a03808a16602483015288166044820152600260648201528151600160a060020a0387169263a590529e92608480820193918290030181600087803b15801561376a57600080fd5b505af115801561377e573d6000803e3d6000fd5b505050506040513d604081101561379457600080fd5b505190508015156137a457600080fd5b7fd499cca7d46b5236c2cb522ceec930ccf485eefca1f0472c020a1b7328bf06438d8d600080516020613a25833981519152600160a060020a03168e600160a060020a031614600086116040518085600160a060020a0316600160a060020a031681526020018463ffffffff1663ffffffff168152602001831515151581526020018215151515815260200194505050505060405180910390a161385d8d8c8b6001608060020a03168b6001608060020a0316866139c0565b9d9c50505050505050505050505050565b6000808361388757600554600160a060020a0316613897565b600080516020613a258339815191525b905060008312156138d957600160a060020a038581166000908152600b60209081526040808320938516835292905290812080549185900390910190556112d5565b600160a060020a038086166000908152600b602090815260408083209385168352929052205483111561390b57600080fd5b600160a060020a038086166000908152600b602090815260408083209385168352929052208054849003905560019150509392505050565b81546000908190819063ffffffff908116908516101561396257600080fd5b845463ffffffff9081166020019085161061397c57600080fd5b50508254600184015463ffffffff9182169184169190910390600282900a906000908216116139aa57600080fd5b6001808601805483191690559250505092915050565b600160a060020a038086166000908152600b60209081526040808320938816835292905220805484019055600195945050505050565b6040805160a081018252600080825260208201819052918101829052606081018290526080810191909152905600000000000000000000000000eeeeeeeeeeeeeeeeeeeeeeeeeeeeeeeeeeeeeeeea165627a7a723058202cde4cf2e420d5b305e088a067f4b2eba92d1896a5cf57fdc2ba5f2401f298850029e12acf08fb18ff58234a202175353b298bbc088f0e3c0eab0986752c5701ce77a165627a7a72305820b4ff8d6eab0915d7c3996c186fa52ad06d42d1bbb26f45c5ab88341422a866b60029",
  "source": "pragma solidity ^0.4.25;\r\n\r\n\r\nimport \"./OrderbookReserve.sol\";\r\n\r\n\r\ncontract InternalNetworkInterface {\r\n    function addReserve(\r\n        KyberReserveInterface reserve,\r\n        bool isPermissionless\r\n    )\r\n        public\r\n        returns(bool);\r\n\r\n    function removeReserve(\r\n        KyberReserveInterface reserve,\r\n        uint index\r\n    )\r\n        public\r\n        returns(bool);\r\n\r\n    function listPairForReserve(\r\n        address reserve,\r\n        ERC20 token,\r\n        bool ethToToken,\r\n        bool tokenToEth,\r\n        bool add\r\n    )\r\n        public\r\n        returns(bool);\r\n}\r\n\r\n\r\ncontract PermissionlessOrderbookReserveLister {\r\n\r\n    uint public minNewOrderValueUsd = 1000; // set in order book minimum USD value of a new limit order\r\n    uint public maxOrdersPerTrade;          // set in order book maximum orders to be traversed in rate query and trade\r\n\r\n    InternalNetworkInterface public kyberNetworkContract;\r\n    OrderListFactoryInterface public orderFactoryContract;\r\n    MedianizerInterface public medianizerContract;\r\n\r\n    enum ListingStage {NO_RESERVE, RESERVE_ADDED, RESERVE_INIT, RESERVE_LISTED}\r\n\r\n    mapping(address => OrderbookReserveInterface) public reserves; //Permissionless orderbook reserves mapped per token\r\n    mapping(address => ListingStage) public reserveListingStage;   //Reserves listing stage\r\n    mapping(address => bool) public tokenListingBlocked;\r\n\r\n    constructor(\r\n        InternalNetworkInterface kyber,\r\n        OrderListFactoryInterface factory,\r\n        MedianizerInterface medianizer,\r\n        address[] unsupportedTokens,\r\n        uint maxOrders,\r\n        uint minOrderValueUsd\r\n    ) public {\r\n        require(kyber != address(0));\r\n        require(factory != address(0));\r\n        require(medianizer != address(0));\r\n        require(maxOrders > 1);\r\n        require(minOrderValueUsd > 0);\r\n\r\n        kyberNetworkContract = kyber;\r\n        orderFactoryContract = factory;\r\n        medianizerContract = medianizer;\r\n        maxOrdersPerTrade = maxOrders;\r\n        minNewOrderValueUsd = minOrderValueUsd;\r\n\r\n        for (uint i = 0; i < unsupportedTokens.length; i++) {\r\n            require(unsupportedTokens[i] != address(0));\r\n            tokenListingBlocked[unsupportedTokens[i]] = true;\r\n        }\r\n    }\r\n\r\n    event TokenOrderbookListingStage(ERC20 token, ListingStage stage);\r\n\r\n    /// @dev anyone can call\r\n    function addOrderbookContract(ERC20 token) public returns(bool) {\r\n        require(reserveListingStage[token] == ListingStage.NO_RESERVE);\r\n        require(!(tokenListingBlocked[token]));\r\n\r\n        reserves[token] = new OrderbookReserve({\r\n            reserveToken: token,\r\n            network: kyberNetworkContract,\r\n            medianizer: medianizerContract,\r\n            factory: orderFactoryContract,\r\n            minNewOrderUsd: minNewOrderValueUsd,\r\n            maxOrdersPerTrade: maxOrdersPerTrade\r\n        });\r\n\r\n        reserveListingStage[token] = ListingStage.RESERVE_ADDED;\r\n\r\n        emit TokenOrderbookListingStage(token, ListingStage.RESERVE_ADDED);\r\n        return true;\r\n    }\r\n\r\n    /// @dev anyone can call\r\n    function initOrderbookContract(ERC20 token) public returns(bool) {\r\n        require(reserveListingStage[token] == ListingStage.RESERVE_ADDED);\r\n        require(reserves[token].init());\r\n\r\n        reserveListingStage[token] = ListingStage.RESERVE_INIT;\r\n        emit TokenOrderbookListingStage(token, ListingStage.RESERVE_INIT);\r\n        return true;\r\n    }\r\n\r\n    /// @dev anyone can call\r\n    function listOrderbookContract(ERC20 token) public returns(bool) {\r\n        require(reserveListingStage[token] == ListingStage.RESERVE_INIT);\r\n\r\n        require(\r\n            kyberNetworkContract.addReserve(\r\n                KyberReserveInterface(reserves[token]),\r\n                true\r\n            )\r\n        );\r\n\r\n        require(\r\n            kyberNetworkContract.listPairForReserve(\r\n                KyberReserveInterface(reserves[token]),\r\n                token,\r\n                true,\r\n                true,\r\n                true\r\n            )\r\n        );\r\n        reserveListingStage[token] = ListingStage.RESERVE_LISTED;\r\n        emit TokenOrderbookListingStage(token, ListingStage.RESERVE_LISTED);\r\n        return true;\r\n    }\r\n\r\n    function unlistOrderbookContract(ERC20 token, uint hintReserveIndex) public {\r\n        require(reserveListingStage[token] == ListingStage.RESERVE_LISTED);\r\n        require(kyberNetworkContract.removeReserve(KyberReserveInterface(reserves[token]), hintReserveIndex));\r\n        reserveListingStage[token] = ListingStage.NO_RESERVE;\r\n        reserves[token] = OrderbookReserveInterface(0);\r\n        emit TokenOrderbookListingStage(token, ListingStage.NO_RESERVE);\r\n    }\r\n\r\n    /// @dev permission less reserve currently supports one token per reserve.\r\n    function getOrderbookListingStage(ERC20 token)\r\n        public\r\n        view\r\n        returns(address, ListingStage)\r\n    {\r\n        return (reserves[token], reserveListingStage[token]);\r\n    }\r\n}\r\n",
  "sourcePath": "C:/Users/Naina/source/repos/two12/smart-contracts/contracts/permissionless/PermissionlessOrderbookReserveLister.sol",
  "compiler": {
    "name": "solc",
    "version": "0.4.25+commit.59dbf8f1.Emscripten.clang"
  },
  "schemaVersion": "3.0.1",
  "updatedAt": "2019-02-07T05:09:32.561Z",
  "devdoc": {
    "methods": {
      "addOrderbookContract(address)": {
        "details": "anyone can call"
      },
      "getOrderbookListingStage(address)": {
        "details": "permission less reserve currently supports one token per reserve."
      },
      "initOrderbookContract(address)": {
        "details": "anyone can call"
      },
      "listOrderbookContract(address)": {
        "details": "anyone can call"
      }
    }
  },
  "userdoc": {
    "methods": {}
  }
}